{"abi":[{"type":"constructor","inputs":[],"stateMutability":"nonpayable"},{"type":"function","name":"allowance","inputs":[{"name":"owner","type":"address","internalType":"address"},{"name":"spender","type":"address","internalType":"address"},{"name":"id","type":"uint256","internalType":"uint256"}],"outputs":[{"name":"amount","type":"uint256","internalType":"uint256"}],"stateMutability":"view"},{"type":"function","name":"approve","inputs":[{"name":"spender","type":"address","internalType":"address"},{"name":"id","type":"uint256","internalType":"uint256"},{"name":"amount","type":"uint256","internalType":"uint256"}],"outputs":[{"name":"","type":"bool","internalType":"bool"}],"stateMutability":"nonpayable"},{"type":"function","name":"balanceOf","inputs":[{"name":"owner","type":"address","internalType":"address"},{"name":"id","type":"uint256","internalType":"uint256"}],"outputs":[{"name":"balance","type":"uint256","internalType":"uint256"}],"stateMutability":"view"},{"type":"function","name":"burn","inputs":[{"name":"from","type":"address","internalType":"address"},{"name":"id","type":"uint256","internalType":"uint256"},{"name":"amount","type":"uint256","internalType":"uint256"}],"outputs":[],"stateMutability":"nonpayable"},{"type":"function","name":"clear","inputs":[{"name":"currency","type":"address","internalType":"Currency"},{"name":"amount","type":"uint256","internalType":"uint256"}],"outputs":[],"stateMutability":"nonpayable"},{"type":"function","name":"collectProtocolFees","inputs":[{"name":"recipient","type":"address","internalType":"address"},{"name":"currency","type":"address","internalType":"Currency"},{"name":"amount","type":"uint256","internalType":"uint256"}],"outputs":[{"name":"amountCollected","type":"uint256","internalType":"uint256"}],"stateMutability":"nonpayable"},{"type":"function","name":"donate","inputs":[{"name":"key","type":"tuple","internalType":"struct PoolKey","components":[{"name":"currency0","type":"address","internalType":"Currency"},{"name":"currency1","type":"address","internalType":"Currency"},{"name":"fee","type":"uint24","internalType":"uint24"},{"name":"tickSpacing","type":"int24","internalType":"int24"},{"name":"hooks","type":"address","internalType":"contract IHooks"}]},{"name":"amount0","type":"uint256","internalType":"uint256"},{"name":"amount1","type":"uint256","internalType":"uint256"},{"name":"hookData","type":"bytes","internalType":"bytes"}],"outputs":[{"name":"delta","type":"int256","internalType":"BalanceDelta"}],"stateMutability":"nonpayable"},{"type":"function","name":"extsload","inputs":[{"name":"slot","type":"bytes32","internalType":"bytes32"}],"outputs":[{"name":"","type":"bytes32","internalType":"bytes32"}],"stateMutability":"view"},{"type":"function","name":"extsload","inputs":[{"name":"startSlot","type":"bytes32","internalType":"bytes32"},{"name":"nSlots","type":"uint256","internalType":"uint256"}],"outputs":[{"name":"","type":"bytes32[]","internalType":"bytes32[]"}],"stateMutability":"view"},{"type":"function","name":"extsload","inputs":[{"name":"slots","type":"bytes32[]","internalType":"bytes32[]"}],"outputs":[{"name":"","type":"bytes32[]","internalType":"bytes32[]"}],"stateMutability":"view"},{"type":"function","name":"exttload","inputs":[{"name":"slots","type":"bytes32[]","internalType":"bytes32[]"}],"outputs":[{"name":"","type":"bytes32[]","internalType":"bytes32[]"}],"stateMutability":"view"},{"type":"function","name":"exttload","inputs":[{"name":"slot","type":"bytes32","internalType":"bytes32"}],"outputs":[{"name":"","type":"bytes32","internalType":"bytes32"}],"stateMutability":"view"},{"type":"function","name":"getBitmapWord","inputs":[{"name":"id","type":"bytes32","internalType":"PoolId"},{"name":"wordPos","type":"int16","internalType":"int16"}],"outputs":[{"name":"","type":"uint256","internalType":"uint256"}],"stateMutability":"view"},{"type":"function","name":"getPool","inputs":[{"name":"id","type":"bytes32","internalType":"PoolId"}],"outputs":[{"name":"sqrtPriceX96","type":"uint160","internalType":"uint160"},{"name":"tick","type":"int24","internalType":"int24"},{"name":"protocolFee","type":"uint24","internalType":"uint24"},{"name":"lpFee","type":"uint24","internalType":"uint24"},{"name":"feeGrowthGlobal0X128","type":"uint256","internalType":"uint256"},{"name":"feeGrowthGlobal1X128","type":"uint256","internalType":"uint256"},{"name":"liquidity","type":"uint128","internalType":"uint128"}],"stateMutability":"view"},{"type":"function","name":"getPosition","inputs":[{"name":"id","type":"bytes32","internalType":"PoolId"},{"name":"owner","type":"address","internalType":"address"},{"name":"tickLower","type":"int24","internalType":"int24"},{"name":"tickUpper","type":"int24","internalType":"int24"},{"name":"salt","type":"bytes32","internalType":"bytes32"}],"outputs":[{"name":"liquidity","type":"uint128","internalType":"uint128"},{"name":"feeGrowthInside0LastX128","type":"uint256","internalType":"uint256"},{"name":"feeGrowthInside1LastX128","type":"uint256","internalType":"uint256"}],"stateMutability":"view"},{"type":"function","name":"getTick","inputs":[{"name":"id","type":"bytes32","internalType":"PoolId"},{"name":"tick","type":"int24","internalType":"int24"}],"outputs":[{"name":"liquidityGross","type":"uint128","internalType":"uint128"},{"name":"liquidityNet","type":"int128","internalType":"int128"},{"name":"feeGrowthOutside0X128","type":"uint256","internalType":"uint256"},{"name":"feeGrowthOutside1X128","type":"uint256","internalType":"uint256"}],"stateMutability":"view"},{"type":"function","name":"initialize","inputs":[{"name":"key","type":"tuple","internalType":"struct PoolKey","components":[{"name":"currency0","type":"address","internalType":"Currency"},{"name":"currency1","type":"address","internalType":"Currency"},{"name":"fee","type":"uint24","internalType":"uint24"},{"name":"tickSpacing","type":"int24","internalType":"int24"},{"name":"hooks","type":"address","internalType":"contract IHooks"}]},{"name":"sqrtPriceX96","type":"uint160","internalType":"uint160"}],"outputs":[{"name":"tick","type":"int24","internalType":"int24"}],"stateMutability":"nonpayable"},{"type":"function","name":"isOperator","inputs":[{"name":"owner","type":"address","internalType":"address"},{"name":"operator","type":"address","internalType":"address"}],"outputs":[{"name":"isOperator","type":"bool","internalType":"bool"}],"stateMutability":"view"},{"type":"function","name":"mint","inputs":[{"name":"to","type":"address","internalType":"address"},{"name":"id","type":"uint256","internalType":"uint256"},{"name":"amount","type":"uint256","internalType":"uint256"}],"outputs":[],"stateMutability":"nonpayable"},{"type":"function","name":"modifyLiquidity","inputs":[{"name":"key","type":"tuple","internalType":"struct PoolKey","components":[{"name":"currency0","type":"address","internalType":"Currency"},{"name":"currency1","type":"address","internalType":"Currency"},{"name":"fee","type":"uint24","internalType":"uint24"},{"name":"tickSpacing","type":"int24","internalType":"int24"},{"name":"hooks","type":"address","internalType":"contract IHooks"}]},{"name":"params","type":"tuple","internalType":"struct IPoolManager.ModifyLiquidityParams","components":[{"name":"tickLower","type":"int24","internalType":"int24"},{"name":"tickUpper","type":"int24","internalType":"int24"},{"name":"liquidityDelta","type":"int256","internalType":"int256"},{"name":"salt","type":"bytes32","internalType":"bytes32"}]},{"name":"hookData","type":"bytes","internalType":"bytes"}],"outputs":[{"name":"callerDelta","type":"int256","internalType":"BalanceDelta"},{"name":"feesAccrued","type":"int256","internalType":"BalanceDelta"}],"stateMutability":"nonpayable"},{"type":"function","name":"owner","inputs":[],"outputs":[{"name":"","type":"address","internalType":"address"}],"stateMutability":"view"},{"type":"function","name":"protocolFeeController","inputs":[],"outputs":[{"name":"","type":"address","internalType":"address"}],"stateMutability":"view"},{"type":"function","name":"protocolFeesAccrued","inputs":[{"name":"currency","type":"address","internalType":"Currency"}],"outputs":[{"name":"amount","type":"uint256","internalType":"uint256"}],"stateMutability":"view"},{"type":"function","name":"setOperator","inputs":[{"name":"operator","type":"address","internalType":"address"},{"name":"approved","type":"bool","internalType":"bool"}],"outputs":[{"name":"","type":"bool","internalType":"bool"}],"stateMutability":"nonpayable"},{"type":"function","name":"setProtocolFee","inputs":[{"name":"key","type":"tuple","internalType":"struct PoolKey","components":[{"name":"currency0","type":"address","internalType":"Currency"},{"name":"currency1","type":"address","internalType":"Currency"},{"name":"fee","type":"uint24","internalType":"uint24"},{"name":"tickSpacing","type":"int24","internalType":"int24"},{"name":"hooks","type":"address","internalType":"contract IHooks"}]},{"name":"newProtocolFee","type":"uint24","internalType":"uint24"}],"outputs":[],"stateMutability":"nonpayable"},{"type":"function","name":"setProtocolFeeController","inputs":[{"name":"controller","type":"address","internalType":"address"}],"outputs":[],"stateMutability":"nonpayable"},{"type":"function","name":"settle","inputs":[],"outputs":[{"name":"","type":"uint256","internalType":"uint256"}],"stateMutability":"payable"},{"type":"function","name":"settleFor","inputs":[{"name":"recipient","type":"address","internalType":"address"}],"outputs":[{"name":"","type":"uint256","internalType":"uint256"}],"stateMutability":"payable"},{"type":"function","name":"supportsInterface","inputs":[{"name":"interfaceId","type":"bytes4","internalType":"bytes4"}],"outputs":[{"name":"","type":"bool","internalType":"bool"}],"stateMutability":"view"},{"type":"function","name":"swap","inputs":[{"name":"key","type":"tuple","internalType":"struct PoolKey","components":[{"name":"currency0","type":"address","internalType":"Currency"},{"name":"currency1","type":"address","internalType":"Currency"},{"name":"fee","type":"uint24","internalType":"uint24"},{"name":"tickSpacing","type":"int24","internalType":"int24"},{"name":"hooks","type":"address","internalType":"contract IHooks"}]},{"name":"params","type":"tuple","internalType":"struct IPoolManager.SwapParams","components":[{"name":"zeroForOne","type":"bool","internalType":"bool"},{"name":"amountSpecified","type":"int256","internalType":"int256"},{"name":"sqrtPriceLimitX96","type":"uint160","internalType":"uint160"}]},{"name":"hookData","type":"bytes","internalType":"bytes"}],"outputs":[{"name":"swapDelta","type":"int256","internalType":"BalanceDelta"}],"stateMutability":"nonpayable"},{"type":"function","name":"sync","inputs":[{"name":"currency","type":"address","internalType":"Currency"}],"outputs":[],"stateMutability":"nonpayable"},{"type":"function","name":"take","inputs":[{"name":"currency","type":"address","internalType":"Currency"},{"name":"to","type":"address","internalType":"address"},{"name":"amount","type":"uint256","internalType":"uint256"}],"outputs":[],"stateMutability":"nonpayable"},{"type":"function","name":"transfer","inputs":[{"name":"receiver","type":"address","internalType":"address"},{"name":"id","type":"uint256","internalType":"uint256"},{"name":"amount","type":"uint256","internalType":"uint256"}],"outputs":[{"name":"","type":"bool","internalType":"bool"}],"stateMutability":"nonpayable"},{"type":"function","name":"transferFrom","inputs":[{"name":"sender","type":"address","internalType":"address"},{"name":"receiver","type":"address","internalType":"address"},{"name":"id","type":"uint256","internalType":"uint256"},{"name":"amount","type":"uint256","internalType":"uint256"}],"outputs":[{"name":"","type":"bool","internalType":"bool"}],"stateMutability":"nonpayable"},{"type":"function","name":"transferOwnership","inputs":[{"name":"newOwner","type":"address","internalType":"address"}],"outputs":[],"stateMutability":"nonpayable"},{"type":"function","name":"unlock","inputs":[{"name":"data","type":"bytes","internalType":"bytes"}],"outputs":[{"name":"result","type":"bytes","internalType":"bytes"}],"stateMutability":"nonpayable"},{"type":"function","name":"updateDynamicLPFee","inputs":[{"name":"key","type":"tuple","internalType":"struct PoolKey","components":[{"name":"currency0","type":"address","internalType":"Currency"},{"name":"currency1","type":"address","internalType":"Currency"},{"name":"fee","type":"uint24","internalType":"uint24"},{"name":"tickSpacing","type":"int24","internalType":"int24"},{"name":"hooks","type":"address","internalType":"contract IHooks"}]},{"name":"newDynamicLPFee","type":"uint24","internalType":"uint24"}],"outputs":[],"stateMutability":"nonpayable"},{"type":"event","name":"Approval","inputs":[{"name":"owner","type":"address","indexed":true,"internalType":"address"},{"name":"spender","type":"address","indexed":true,"internalType":"address"},{"name":"id","type":"uint256","indexed":true,"internalType":"uint256"},{"name":"amount","type":"uint256","indexed":false,"internalType":"uint256"}],"anonymous":false},{"type":"event","name":"Donate","inputs":[{"name":"id","type":"bytes32","indexed":true,"internalType":"PoolId"},{"name":"sender","type":"address","indexed":true,"internalType":"address"},{"name":"amount0","type":"uint256","indexed":false,"internalType":"uint256"},{"name":"amount1","type":"uint256","indexed":false,"internalType":"uint256"}],"anonymous":false},{"type":"event","name":"Initialize","inputs":[{"name":"id","type":"bytes32","indexed":true,"internalType":"PoolId"},{"name":"currency0","type":"address","indexed":true,"internalType":"Currency"},{"name":"currency1","type":"address","indexed":true,"internalType":"Currency"},{"name":"fee","type":"uint24","indexed":false,"internalType":"uint24"},{"name":"tickSpacing","type":"int24","indexed":false,"internalType":"int24"},{"name":"hooks","type":"address","indexed":false,"internalType":"contract IHooks"},{"name":"sqrtPriceX96","type":"uint160","indexed":false,"internalType":"uint160"},{"name":"tick","type":"int24","indexed":false,"internalType":"int24"}],"anonymous":false},{"type":"event","name":"ModifyLiquidity","inputs":[{"name":"id","type":"bytes32","indexed":true,"internalType":"PoolId"},{"name":"sender","type":"address","indexed":true,"internalType":"address"},{"name":"tickLower","type":"int24","indexed":false,"internalType":"int24"},{"name":"tickUpper","type":"int24","indexed":false,"internalType":"int24"},{"name":"liquidityDelta","type":"int256","indexed":false,"internalType":"int256"},{"name":"salt","type":"bytes32","indexed":false,"internalType":"bytes32"}],"anonymous":false},{"type":"event","name":"OperatorSet","inputs":[{"name":"owner","type":"address","indexed":true,"internalType":"address"},{"name":"operator","type":"address","indexed":true,"internalType":"address"},{"name":"approved","type":"bool","indexed":false,"internalType":"bool"}],"anonymous":false},{"type":"event","name":"OwnershipTransferred","inputs":[{"name":"user","type":"address","indexed":true,"internalType":"address"},{"name":"newOwner","type":"address","indexed":true,"internalType":"address"}],"anonymous":false},{"type":"event","name":"ProtocolFeeControllerUpdated","inputs":[{"name":"protocolFeeController","type":"address","indexed":true,"internalType":"address"}],"anonymous":false},{"type":"event","name":"ProtocolFeeUpdated","inputs":[{"name":"id","type":"bytes32","indexed":true,"internalType":"PoolId"},{"name":"protocolFee","type":"uint24","indexed":false,"internalType":"uint24"}],"anonymous":false},{"type":"event","name":"Swap","inputs":[{"name":"id","type":"bytes32","indexed":true,"internalType":"PoolId"},{"name":"sender","type":"address","indexed":true,"internalType":"address"},{"name":"amount0","type":"int128","indexed":false,"internalType":"int128"},{"name":"amount1","type":"int128","indexed":false,"internalType":"int128"},{"name":"sqrtPriceX96","type":"uint160","indexed":false,"internalType":"uint160"},{"name":"liquidity","type":"uint128","indexed":false,"internalType":"uint128"},{"name":"tick","type":"int24","indexed":false,"internalType":"int24"},{"name":"fee","type":"uint24","indexed":false,"internalType":"uint24"}],"anonymous":false},{"type":"event","name":"Transfer","inputs":[{"name":"caller","type":"address","indexed":false,"internalType":"address"},{"name":"from","type":"address","indexed":true,"internalType":"address"},{"name":"to","type":"address","indexed":true,"internalType":"address"},{"name":"id","type":"uint256","indexed":true,"internalType":"uint256"},{"name":"amount","type":"uint256","indexed":false,"internalType":"uint256"}],"anonymous":false},{"type":"error","name":"AlreadyUnlocked","inputs":[]},{"type":"error","name":"CurrenciesOutOfOrderOrEqual","inputs":[{"name":"currency0","type":"address","internalType":"address"},{"name":"currency1","type":"address","internalType":"address"}]},{"type":"error","name":"CurrencyNotSettled","inputs":[]},{"type":"error","name":"DelegateCallNotAllowed","inputs":[]},{"type":"error","name":"InvalidCaller","inputs":[]},{"type":"error","name":"ManagerLocked","inputs":[]},{"type":"error","name":"MustClearExactPositiveDelta","inputs":[]},{"type":"error","name":"NonzeroNativeValue","inputs":[]},{"type":"error","name":"PoolNotInitialized","inputs":[]},{"type":"error","name":"ProtocolFeeCurrencySynced","inputs":[]},{"type":"error","name":"ProtocolFeeTooLarge","inputs":[{"name":"fee","type":"uint24","internalType":"uint24"}]},{"type":"error","name":"SwapAmountCannotBeZero","inputs":[]},{"type":"error","name":"TickSpacingTooLarge","inputs":[{"name":"tickSpacing","type":"int24","internalType":"int24"}]},{"type":"error","name":"TickSpacingTooSmall","inputs":[{"name":"tickSpacing","type":"int24","internalType":"int24"}]},{"type":"error","name":"UnauthorizedDynamicLPFeeUpdate","inputs":[]}],"bytecode":{"object":"0x60a0604052348015600e575f80fd5b505f80546001600160a01b031916815560405181908190819081907f8be0079c531659141344cd1fd0a4f28419497f9722a3daafe3b4186f6b6457e0908290a3505030608052506080516162c261006d5f395f6120af01526162c25ff3fe60806040526004361061025c575f3560e01c80637388426b1161014b578063d19e6350116100c6578063f2fde38b1161007c578063f5298aca11610062578063f5298aca146107b7578063f6c00927146107d6578063fe99049a14610851575f80fd5b8063f2fde38b14610779578063f3cd914c14610798575f80fd5b8063dbd035ff116100ac578063dbd035ff1461071c578063f02de3b21461073b578063f135baaa1461075a575f80fd5b8063d19e635014610688578063d81b9f9f146106c7575f80fd5b80638da5cb5b1161011b5780639bf6645f116101015780639bf6645f14610611578063a584119414610630578063b6363cf21461064f575f80fd5b80638da5cb5b146105b057806397e8cd4e146105e6575f80fd5b80637388426b146105065780637e87ce7d1461055357806380f0b44c146105725780638161b87414610591575f80fd5b806335fd631a116101db57806352759651116101ab578063598af9e711610191578063598af9e7146104645780635a6bcfda146104a05780636276cbbe146104d4575f80fd5b80635275965114610426578063558a729714610445575f80fd5b806335fd631a1461039c5780633dd45adb146103c8578063426a8493146103db57806348c89491146103fa575f80fd5b806311da60b4116102305780631e2eaeaf116102165780631e2eaeaf1461033f578063234266d71461035e5780632d7713891461037d575f80fd5b806311da60b414610318578063156e29f614610320575f80fd5b8062fdd58e1461026057806301ffc9a7146102a9578063095bcdb6146102d85780630b0d9c09146102f7575b5f80fd5b34801561026b575f80fd5b5061029661027a366004615402565b600460209081525f928352604080842090915290825290205481565b6040519081526020015b60405180910390f35b3480156102b4575f80fd5b506102c86102c336600461542c565b610870565b60405190151581526020016102a0565b3480156102e3575f80fd5b506102c86102f236600461546b565b610908565b348015610302575f80fd5b5061031661031136600461549d565b6109c2565b005b610296610a3f565b34801561032b575f80fd5b5061031661033a36600461546b565b610a9d565b34801561034a575f80fd5b506102966103593660046154db565b610b14565b348015610369575f80fd5b50610296610378366004615677565b610b1e565b348015610388575f80fd5b506103166103973660046156dc565b610c28565b3480156103a7575f80fd5b506103bb6103b63660046156f7565b610d01565b6040516102a09190615717565b6102966103d63660046156dc565b610d3e565b3480156103e6575f80fd5b506102c86103f536600461546b565b610d9c565b348015610405575f80fd5b50610419610414366004615759565b610e00565b6040516102a09190615798565b348015610431575f80fd5b506103166104403660046157cd565b610f34565b348015610450575f80fd5b506102c861045f36600461580e565b610fbc565b34801561046f575f80fd5b5061029661047e36600461549d565b600560209081525f938452604080852082529284528284209052825290205481565b3480156104ab575f80fd5b506104bf6104ba366004615838565b611049565b604080519283526020830191909152016102a0565b3480156104df575f80fd5b506104f36104ee3660046158f9565b611214565b60405160029190910b81526020016102a0565b348015610511575f80fd5b5061052561052036600461592f565b611450565b604080516fffffffffffffffffffffffffffffffff90941684526020840192909252908201526060016102a0565b34801561055e575f80fd5b5061031661056d3660046157cd565b6114e8565b34801561057d575f80fd5b5061031661058c366004615402565b6115cc565b34801561059c575f80fd5b506102966105ab36600461549d565b61167e565b3480156105bb575f80fd5b505f546105ce906001600160a01b031681565b6040516001600160a01b0390911681526020016102a0565b3480156105f1575f80fd5b506102966106003660046156dc565b60016020525f908152604090205481565b34801561061c575f80fd5b506103bb61062b366004615982565b611798565b34801561063b575f80fd5b5061031661064a3660046156dc565b6117d1565b34801561065a575f80fd5b506102c86106693660046159f3565b600360209081525f928352604080842090915290825290205460ff1681565b348015610693575f80fd5b506102966106a2366004615a1f565b5f91825260066020908152604080842060019390930b84526005909201905290205490565b3480156106d2575f80fd5b506106e66106e1366004615a48565b61180d565b604080516fffffffffffffffffffffffffffffffff9095168552600f9390930b60208501529183015260608201526080016102a0565b348015610727575f80fd5b506103bb610736366004615982565b611882565b348015610746575f80fd5b506002546105ce906001600160a01b031681565b348015610765575f80fd5b506102966107743660046154db565b6118b9565b348015610784575f80fd5b506103166107933660046156dc565b6118c3565b3480156107a3575f80fd5b506102966107b2366004615a69565b611998565b3480156107c2575f80fd5b506103166107d136600461546b565b611b23565b3480156107e1575f80fd5b506107f56107f03660046154db565b611b9a565b604080516001600160a01b03909816885260029690960b602088015262ffffff94851695870195909552929091166060850152608084015260a08301526fffffffffffffffffffffffffffffffff1660c082015260e0016102a0565b34801561085c575f80fd5b506102c861086b366004615b27565b611c1c565b5f7f01ffc9a7000000000000000000000000000000000000000000000000000000007fffffffff000000000000000000000000000000000000000000000000000000008316148061090257507f0f632fb3000000000000000000000000000000000000000000000000000000007fffffffff000000000000000000000000000000000000000000000000000000008316145b92915050565b335f908152600460209081526040808320858452909152812080548391908390610933908490615b97565b90915550506001600160a01b0384165f9081526004602090815260408083208684529091528120805484929061096a908490615baa565b909155505060408051338082526020820185905285926001600160a01b038816927f1b3d7edb2e9c0b0e7c525b20aaaef0f5940d2ed71663c7d39266ecafac72885991015b60405180910390a45060015b9392505050565b7fc090fc4683624cfc3884e9d8de5eca132f2d0ec062aff75d43c0465d5ceeab235c610a1157610a117f54e3ca0d00000000000000000000000000000000000000000000000000000000611dad565b610a2683610a1e83611db5565b5f0333611dfa565b610a3a6001600160a01b0384168383611e4d565b505050565b5f7fc090fc4683624cfc3884e9d8de5eca132f2d0ec062aff75d43c0465d5ceeab235c610a8f57610a8f7f54e3ca0d00000000000000000000000000000000000000000000000000000000611dad565b610a9833611f50565b905090565b7fc090fc4683624cfc3884e9d8de5eca132f2d0ec062aff75d43c0465d5ceeab235c610aec57610aec7f54e3ca0d00000000000000000000000000000000000000000000000000000000611dad565b81610afa81610a1e84611db5565b610b0e846001600160a01b0383168461201f565b50505050565b5f81545f5260205ff35b5f7fc090fc4683624cfc3884e9d8de5eca132f2d0ec062aff75d43c0465d5ceeab235c610b6e57610b6e7f54e3ca0d00000000000000000000000000000000000000000000000000000000611dad565b610b766120a4565b60a086205f818152600660205260409020610b90816120ff565b6080880151610bac906001600160a01b03168989898989612139565b610bb78188886121e4565b9250610bc48884336122de565b6040805188815260208101889052339184917f29ef05caaff9404b7cb6d1c0e9bbae9eaa7ab2541feba1a9c4248594c08156cb910160405180910390a36080880151610c1d906001600160a01b03168989898989612306565b505095945050505050565b5f546001600160a01b03163314610ca0576040517f08c379a000000000000000000000000000000000000000000000000000000000815260206004820152600c60248201527f554e415554484f52495a4544000000000000000000000000000000000000000060448201526064015b60405180910390fd5b600280547fffffffffffffffffffffffff0000000000000000000000000000000000000000166001600160a01b0383169081179091556040517fb4bd8ef53df690b9943d3318996006dbb82a25f54719d8c8035b516a2a5b8acc905f90a250565b6060604051808360051b6020835284602084015260408301925080830190505b85548352602083019250600186019550808310610d215781810382f35b5f7fc090fc4683624cfc3884e9d8de5eca132f2d0ec062aff75d43c0465d5ceeab235c610d8e57610d8e7f54e3ca0d00000000000000000000000000000000000000000000000000000000611dad565b61090282611f50565b919050565b335f8181526005602090815260408083206001600160a01b03881680855290835281842087855290925280832085905551919285927fb3fd5071835887567a0671151121894ddccc2842f1d10bedad13e0d17cace9a7906109af9087815260200190565b60607fc090fc4683624cfc3884e9d8de5eca132f2d0ec062aff75d43c0465d5ceeab235c15610e5257610e527f5090d6c600000000000000000000000000000000000000000000000000000000611dad565b610e5a6123a6565b6040517f91dd734600000000000000000000000000000000000000000000000000000000815233906391dd734690610e989086908690600401615be6565b5f604051808303815f875af1158015610eb3573d5f803e3d5ffd5b505050506040513d5f823e601f3d908101601f19168201604052610eda9190810190615bf9565b90507f7d4b3164c6e45b97e7d87b7125a44c5828d005af88f9d751cfd78729c5d99a0b5c15610f2c57610f2c7f5212cba100000000000000000000000000000000000000000000000000000000611dad565b6109026123cc565b604082015162ffffff1662800000141580610f65575081608001516001600160a01b0316336001600160a01b031614155b15610f9357610f937f30d2164100000000000000000000000000000000000000000000000000000000611dad565b610fa18162ffffff166123f1565b60a082205f818152600660205260409020610a3a9083612430565b335f8181526003602090815260408083206001600160a01b03871680855290835281842080547fffffffffffffffffffffffffffffffffffffffffffffffffffffffffffffff001687151590811790915591519182529293917fceb576d9f15e4e200fdb5096d64d5dfd667e16def20c1eefd14256d8e3faa267910160405180910390a350600192915050565b5f807fc090fc4683624cfc3884e9d8de5eca132f2d0ec062aff75d43c0465d5ceeab235c61109a5761109a7f54e3ca0d00000000000000000000000000000000000000000000000000000000611dad565b6110a26120a4565b60a086205f8181526006602052604090206110bc816120ff565b60808801516110d7906001600160a01b031689898989612489565b5f61113e6040518060c00160405280336001600160a01b031681526020018a5f015160020b81526020018a6020015160020b815260200161111b8b604001516125e7565b600f0b81526060808d015160020b60208301528b0151604090910152839061261c565b9450905061114c8185612a54565b94505050336001600160a01b0316817ff208f4912782fd25c7f114ca3723a2d5dd6f3bcc3ac8db5af63baa85f711d5ec885f015189602001518a604001518b606001516040516111bd9493929190600294850b81529290930b60208301526040820152606081019190915260800190565b60405180910390a360808701515f906111e4906001600160a01b0316898987878b8b612a87565b909450905080156111fe576111fe88828a608001516122de565b6112098885336122de565b505094509492505050565b5f61121d6120a4565b6060830151617fff60029190910b1315611261576060830151611261907fb70024f80000000000000000000000000000000000000000000000000000000090612c08565b600160020b836060015160020b12156112a45760608301516112a4907fe9e905880000000000000000000000000000000000000000000000000000000090612c08565b825160208401516001600160a01b039081169116106112ef57825160208401516112ef917f6e6c98300000000000000000000000000000000000000000000000000000000091612c17565b611313836040015184608001516001600160a01b0316612c4090919063ffffffff16565b611347576080830151611347907fe65af6a00000000000000000000000000000000000000000000000000000000090612d01565b5f61135a846040015162ffffff16612d16565b6080850151909150611376906001600160a01b03168585612d3b565b60a084205f818152600660205260409020611392908584612dd6565b925084602001516001600160a01b0316855f01516001600160a01b0316827fdd466e674ea557f56295e2d0218a125ea4b4f0f6f3307b95f85e6110838d6438886040015189606001518a608001518a8a60405161142695949392919062ffffff959095168552600293840b60208601526001600160a01b03928316604086015291166060840152900b608082015260a00190565b60405180910390a46080850151611448906001600160a01b0316868686612e74565b505092915050565b5f805f806114b78888888861146f8e5f90815260066020526040902090565b6040805160268101939093526006838101949094526003830194909452938152603a600c8201205f828501819052602080840182905292819052908152939091019052902090565b805460018201546002909201546fffffffffffffffffffffffffffffffff9091169b919a5098509650505050505050565b6002546001600160a01b03163314611523576115237f48f5c3ed00000000000000000000000000000000000000000000000000000000611dad565b6103e9610fff821610623e900062fff0008316101661156b5761156b7fa7abe2f70000000000000000000000000000000000000000000000000000000062ffffff8316612d01565b60a0822061158d82611587835f90815260066020526040902090565b90612f11565b60405162ffffff8316815281907fe9c42593e71f84403b84352cd168d693e2c9fcd1fdbcc3feb21d92b43e6696f99060200160405180910390a2505050565b7fc090fc4683624cfc3884e9d8de5eca132f2d0ec062aff75d43c0465d5ceeab235c61161b5761161b7f54e3ca0d00000000000000000000000000000000000000000000000000000000611dad565b335f9081526001600160a01b038316602052604081205c9061163c83611db5565b90508181600f0b14611671576116717fbda73abf00000000000000000000000000000000000000000000000000000000611dad565b610b0e84825f0333611dfa565b6002545f906001600160a01b031633146116bb576116bb7f48f5c3ed00000000000000000000000000000000000000000000000000000000611dad565b6001600160a01b038316151580156116ff57506001600160a01b037f27e098c505d44ec3574004bca052aabf76bd35004c182099d8c575fb238593b95c8116908416145b1561172d5761172d7fc79e594800000000000000000000000000000000000000000000000000000000611dad565b81156117395781611752565b6001600160a01b0383165f908152600160205260409020545b6001600160a01b0384165f9081526001602052604081208054929350839290919061177e908490615b97565b909155506109bb90506001600160a01b0384168583611e4d565b606060405180602082528360208301526040820191508360051b8201855b80355c8452602093840193018184106117b6575b5081810382f35b6001600160a01b0381166117ea576117e7612f65565b50565b5f6117fd826001600160a01b0316612f8a565b9050611809828261301f565b5050565b5f805f805f611826875f90815260066020526040902090565b600296870b5f908152600491909101602052604090208054600182015491909701546fffffffffffffffffffffffffffffffff881699700100000000000000000000000000000000909804600f0b985090969095509350505050565b606060405180602082528360208301526040820191508360051b8201855b803554845260209384019301818410156117ca576118a0565b5f815c5f5260205ff35b5f546001600160a01b03163314611936576040517f08c379a000000000000000000000000000000000000000000000000000000000815260206004820152600c60248201527f554e415554484f52495a454400000000000000000000000000000000000000006044820152606401610c97565b5f80547fffffffffffffffffffffffff0000000000000000000000000000000000000000166001600160a01b0383169081178255604051909133917f8be0079c531659141344cd1fd0a4f28419497f9722a3daafe3b4186f6b6457e09190a350565b5f7fc090fc4683624cfc3884e9d8de5eca132f2d0ec062aff75d43c0465d5ceeab235c6119e8576119e87f54e3ca0d00000000000000000000000000000000000000000000000000000000611dad565b6119f06120a4565b83602001515f03611a2457611a247fbe8b850700000000000000000000000000000000000000000000000000000000611dad565b60a085205f818152600660205260409020611a3e816120ff565b60808701515f9081908190611a5f906001600160a01b03168b8b8b8b613072565b809350819550829450505050611ace84866040518060a001604052808681526020018e6060015160020b81526020018d5f0151151581526020018d604001516001600160a01b031681526020018562ffffff168152508c5f0151611ac7578d602001516131ee565b8d516131ee565b60808b01519096505f9250611af291506001600160a01b03168a8a888b8b886132d5565b90955090508015611b0c57611b0c89828b608001516122de565b611b178986336122de565b50505050949350505050565b7fc090fc4683624cfc3884e9d8de5eca132f2d0ec062aff75d43c0465d5ceeab235c611b7257611b727f54e3ca0d00000000000000000000000000000000000000000000000000000000611dad565b81611b8681611b8084611db5565b33611dfa565b610b0e846001600160a01b03831684613436565b5f805f805f805f80611bb6895f90815260066020526040902090565b80549091506001600160a01b0381169850611bd48160a01c60020b90565b600183015460028401546003909401549a9c919b5062ffffff60b884901c81169b60d09490941c16995097509195506fffffffffffffffffffffffffffffffff169350915050565b5f336001600160a01b03861614801590611c5957506001600160a01b0385165f90815260036020908152604080832033845290915290205460ff16155b15611ce8576001600160a01b0385165f90815260056020908152604080832033845282528083208684529091529020547fffffffffffffffffffffffffffffffffffffffffffffffffffffffffffffffff8114611ce657611cba8382615b97565b6001600160a01b0387165f90815260056020908152604080832033845282528083208884529091529020555b505b6001600160a01b0385165f90815260046020908152604080832086845290915281208054849290611d1a908490615b97565b90915550506001600160a01b0384165f90815260046020908152604080832086845290915281208054849290611d51908490615baa565b9091555050604080513381526020810184905284916001600160a01b0380881692908916917f1b3d7edb2e9c0b0e7c525b20aaaef0f5940d2ed71663c7d39266ecafac728859910160405180910390a45060015b949350505050565b805f5260045ffd5b5f6f800000000000000000000000000000008210611df657611df67f93dafdf100000000000000000000000000000000000000000000000000000000611dad565b5090565b81600f0b5f03611e0957505050565b5f80611e1f6001600160a01b0386168486613513565b91509150805f03611e3757611e3261354c565b611e46565b815f03611e4657611e4661359a565b5050505050565b5f6001600160a01b038416611e9b575f805f8085875af1905080611e9657611e96835f7ff4b3b1bc000000000000000000000000000000000000000000000000000000006135e8565b610b0e565b6040517fa9059cbb0000000000000000000000000000000000000000000000000000000081526001600160a01b038416600482015282602482015260205f6044835f895af13d15601f3d1160015f511416171691505f81525f60208201525f60408201525080610b0e57610b0e847fa9059cbb000000000000000000000000000000000000000000000000000000007ff27f64e4000000000000000000000000000000000000000000000000000000006135e8565b5f7f27e098c505d44ec3574004bca052aabf76bd35004c182099d8c575fb238593b95c6001600160a01b038116611f8957349150612006565b3415611fb857611fb87fb0ec849e00000000000000000000000000000000000000000000000000000000611dad565b7f1e0745a7db1623981f0b2a5d4232364c00787266eb75ad546f190e6cebe9bd955c5f611fed6001600160a01b038416612f8a565b9050611ff98282615b97565b9350612003612f65565b50505b6120198161201384611db5565b85611dfa565b50919050565b6001600160a01b0383165f90815260046020908152604080832085845290915281208054839290612051908490615baa565b9091555050604080513381526020810183905283916001600160a01b038616915f917f1b3d7edb2e9c0b0e7c525b20aaaef0f5940d2ed71663c7d39266ecafac72885991015b60405180910390a4505050565b306001600160a01b037f000000000000000000000000000000000000000000000000000000000000000016146120fd576120fd7f0d89438e00000000000000000000000000000000000000000000000000000000611dad565b565b80546001600160a01b03165f036117e7576117e77f486aa30700000000000000000000000000000000000000000000000000000000611dad565b85336001600160a01b038216146121db5760208716156121db576121d933878787878760405160240161217196959493929190615c8d565b60408051601f198184030181529190526020810180517bffffffffffffffffffffffffffffffffffffffffffffffffffffffff167fb6a8b0fa000000000000000000000000000000000000000000000000000000001790526001600160a01b038916906136a9565b505b50505050505050565b60038301545f906fffffffffffffffffffffffffffffffff1680820361222d5761222d7fa74f97ab00000000000000000000000000000000000000000000000000000000611dad565b61226461223985611db5565b5f0361224485611db5565b5f0360809190911b6fffffffffffffffffffffffffffffffff9091161790565b9150831561229e576001850180546fffffffffffffffffffffffffffffffff83167001000000000000000000000000000000008702040190555b82156122d6576002850180546fffffffffffffffffffffffffffffffff83167001000000000000000000000000000000008602040190555b509392505050565b82516122f4906122ee8460801d90565b83611dfa565b610a3a83602001516122ee84600f0b90565b85336001600160a01b038216146121db5760108716156121db576121d933878787878760405160240161233e96959493929190615c8d565b60408051601f198184030181529190526020810180517bffffffffffffffffffffffffffffffffffffffffffffffffffffffff167fe1b4af69000000000000000000000000000000000000000000000000000000001790526001600160a01b038916906136a9565b60017fc090fc4683624cfc3884e9d8de5eca132f2d0ec062aff75d43c0465d5ceeab235d565b5f7fc090fc4683624cfc3884e9d8de5eca132f2d0ec062aff75d43c0465d5ceeab235d565b620f424062ffffff821611156117e7576117e77f140021130000000000000000000000000000000000000000000000000000000062ffffff8316612d01565b612439826120ff565b81547fffffff000000ffffffffffffffffffffffffffffffffffffffffffffffffffff167cffffff000000000000000000000000000000000000000000000000000060d083901b16175b90915550565b84336001600160a01b038216146125df575f84604001511380156124b05750610800861615155b1561253f5761253933868686866040516024016124d1959493929190615d25565b60408051601f198184030181529190526020810180517bffffffffffffffffffffffffffffffffffffffffffffffffffffffff167f259982e5000000000000000000000000000000000000000000000000000000001790526001600160a01b038816906136a9565b506125df565b5f8460400151131580156125565750610200861615155b156125df576121db3386868686604051602401612577959493929190615d25565b60408051601f198184030181529190526020810180517bffffffffffffffffffffffffffffffffffffffffffffffffffffffff167f21d0ee70000000000000000000000000000000000000000000000000000000001790526001600160a01b038816906136a9565b505050505050565b80600f81900b8114610d9757610d977f93dafdf100000000000000000000000000000000000000000000000000000000611dad565b6060810151602082015160408301515f928392909161263b82826137a5565b604080516080810182525f80825260208201819052918101829052606081019190915283600f0b5f1461280b576126748884865f61386c565b6fffffffffffffffffffffffffffffffff1660208301521515815261269c888386600161386c565b6fffffffffffffffffffffffffffffffff166060830152151560408201525f600f85900b126127d05760808701515f9060020b7ffffffffffffffffffffffffffffffffffffffffffffffffffffffffffff2761881810783139082900503620d89e891909105036001016fffffffffffffffffffffffffffffffff049050806fffffffffffffffffffffffffffffffff1682602001516fffffffffffffffffffffffffffffffff161115612774576127747fb8e3c3850000000000000000000000000000000000000000000000000000000085612c08565b806fffffffffffffffffffffffffffffffff1682606001516fffffffffffffffffffffffffffffffff1611156127ce576127ce7fb8e3c3850000000000000000000000000000000000000000000000000000000084612c08565b505b8051156127ec5760808701516127ec9060058a01908590613955565b80604001511561280b57608087015161280b9060058a01908490613955565b5f806128188a86866139a7565b8a5160a08c015160408051602681019290925260068083018a9052600383018b9052928252603a600c8301205f838301819052602080850182905293819052908152928f01909152812092945090925080612875838a8787613a5b565b915091506128aa61288583611db5565b61288e83611db5565b6fffffffffffffffffffffffffffffffff1660809190911b1790565b995050505050505f84600f0b1215612913578051156128e657600283810b5f90815260048a016020526040812081815560018101829055909101555b80604001511561291357600282810b5f90815260048a016020526040812081815560018101829055909101555b5082600f0b5f14612a4a5786545f8061292f8360a01c60020b90565b6001600160a01b038416915091508460020b8260020b121561297e5761297761297161296c61295d88613b8c565b61296688613b8c565b8a613e89565b6125e7565b60801b90565b9750612a46565b8360020b8260020b1215612a21576129b561299f61296c8361296688613b8c565b61288e61296c6129ae89613b8c565b858b613ec1565b60038b01549098506129d9906fffffffffffffffffffffffffffffffff1687613eed565b60038b0180547fffffffffffffffffffffffffffffffff00000000000000000000000000000000166fffffffffffffffffffffffffffffffff92909216919091179055612a46565b612a435f61288e61296c612a3489613b8c565b612a3d89613b8c565b8b613ec1565b97505b5050505b5050509250929050565b5f608082811d9084901d01600f83810b9085900b01612a7e612a75836125e7565b61288e836125e7565b95945050505050565b5f806001600160a01b0389163303612aa357508490505f612bfc565b8591505f87604001511315612b6057610400891615612b5b57612b4c33898989898989604051602401612adc9796959493929190615dd3565b60408051601f198184030181529190526020810180517bffffffffffffffffffffffffffffffffffffffffffffffffffffffff167f9f063efc0000000000000000000000000000000000000000000000000000000017905260028b1615155b6001600160a01b038c169190613f1d565b9050612b588282613f77565b91505b612bfc565b610100891615612bfc57612bed33898989898989604051602401612b8a9796959493929190615dd3565b60408051601f198184030181529190526020810180517bffffffffffffffffffffffffffffffffffffffffffffffffffffffff167f6c2bbe7e0000000000000000000000000000000000000000000000000000000017905260018b161515612b3b565b9050612bf98282613f77565b91505b97509795505050505050565b815f528060020b60045260245ffd5b6040518381526001600160a01b03831660048201526001600160a01b0382166024820152604481fd5b5f60808316158015612c5457506008831615155b15612c6057505f610902565b60408316158015612c7357506004831615155b15612c7f57505f610902565b6104008316158015612c9357506002831615155b15612c9f57505f610902565b6101008316158015612cb357506001831615155b15612cbf57505f610902565b6001600160a01b03831615612cf057613fff8316151580612ceb57506280000062ffffff8316146109bb565b6109bb565b5062ffffff16628000001415919050565b815f526001600160a01b03811660045260245ffd5b5f6280000062ffffff831603612d2d57505f919050565b611df68262ffffff166123f1565b82336001600160a01b03821614610b0e57612000841615610b0e57611e46338484604051602401612d6e93929190615e8f565b60408051601f198184030181529190526020810180517bffffffffffffffffffffffffffffffffffffffffffffffffffffffff167fdc98354e000000000000000000000000000000000000000000000000000000001790526001600160a01b038616906136a9565b82545f906001600160a01b031615612e1157612e117f7983c05100000000000000000000000000000000000000000000000000000000611dad565b612e1a83613f98565b90507cffffff000000000000000000000000000000000000000000000000000060d083901b166001600160a01b03841660a083901b76ffffff00000000000000000000000000000000000000001617179093555090919050565b83336001600160a01b03821614611e4657611000851615611e46576125df33858585604051602401612ea99493929190615f11565b60408051601f198184030181529190526020810180517bffffffffffffffffffffffffffffffffffffffffffffffffffffffff167f6fe7e6eb000000000000000000000000000000000000000000000000000000001790526001600160a01b038716906136a9565b612f1a826120ff565b81547fffffffffffff000000ffffffffffffffffffffffffffffffffffffffffffffff1679ffffff000000000000000000000000000000000000000000000060b883901b1617612483565b5f7f27e098c505d44ec3574004bca052aabf76bd35004c182099d8c575fb238593b95d565b5f6001600160a01b038216612fa0575047919050565b6040517f70a082310000000000000000000000000000000000000000000000000000000081523060048201526001600160a01b038316906370a0823190602401602060405180830381865afa158015612ffb573d5f803e3d5ffd5b505050506040513d601f19601f820116820180604052508101906109029190615f9e565b6001600160a01b0382167f27e098c505d44ec3574004bca052aabf76bd35004c182099d8c575fb238593b95d807f1e0745a7db1623981f0b2a5d4232364c00787266eb75ad546f190e6cebe9bd955d5050565b60208301515f806001600160a01b0388163303613091575f91506131e3565b60808816156131e3575f61311589338a8a8a8a6040516024016130b8959493929190615fb5565b60408051601f198184030181529190526020810180517bffffffffffffffffffffffffffffffffffffffffffffffffffffffff167f575e24b4000000000000000000000000000000000000000000000000000000001790526136a9565b90508051606014613149576131497f1e048e1d00000000000000000000000000000000000000000000000000000000611dad565b604088015162ffffff16628000000361316457606081015191505b60088916156131e157604081015192505f61317f8460801d90565b905080600f0b5f146131df575f851261319c600f83900b8761605c565b9550806131ab575f86126131af565b5f86135b156131dd576131dd7ffa0b71d600000000000000000000000000000000000000000000000000000000611dad565b505b505b505b955095509592505050565b5f808080806131fd8988614295565b93509350935093505f83111561322b576001600160a01b0386165f9081526001602052604090208054840190555b33887f40e9cecb9f5f1f1c5b9c97dec2917b7ee92e57ba5563708daca94dd84ad7112f6132588760801d90565b61326288600f0b90565b85516040808801516020808a01518351600f97880b81529590960b908501526001600160a01b03909216908301526fffffffffffffffffffffffffffffffff16606082015260029190910b608082015262ffffff861660a082015260c00160405180910390a35091979650505050505050565b5f806001600160a01b03891633036132f157508490505f612bfc565b5f6132fc8460801d90565b90505f61330985600f0b90565b905060408b16156133b1576133a461296c338c8c8c8c8c6040516024016133359695949392919061607b565b60408051601f198184030181529190526020810180517bffffffffffffffffffffffffffffffffffffffffffffffffffffffff167fb47b2fb10000000000000000000000000000000000000000000000000000000017905260048e1615156001600160a01b038f169190613f1d565b6133ae9082616129565b90505b5f81600f0b5f1415806133c7575082600f0b5f14155b1561342457895160208b01515f13901515146133fb576fffffffffffffffffffffffffffffffff8316608083901b17613415565b6fffffffffffffffffffffffffffffffff8216608084901b175b90506134218982613f77565b98505b979b979a509698505050505050505050565b336001600160a01b038416811480159061347557506001600160a01b038085165f9081526003602090815260408083209385168352929052205460ff16155b15613508576001600160a01b038085165f9081526005602090815260408083209385168352928152828220868352905220547fffffffffffffffffffffffffffffffffffffffffffffffffffffffffffffffff8114613506576134d88382615b97565b6001600160a01b038087165f9081526005602090815260408083209387168352928152828220888352905220555b505b610b0e848484614a48565b6001600160a01b038281165f90815290841660205260408120805c919061353e600f85900b8461605c565b915081815d50935093915050565b7f7d4b3164c6e45b97e7d87b7125a44c5828d005af88f9d751cfd78729c5d99a0b5c600181039050807f7d4b3164c6e45b97e7d87b7125a44c5828d005af88f9d751cfd78729c5d99a0b5d50565b7f7d4b3164c6e45b97e7d87b7125a44c5828d005af88f9d751cfd78729c5d99a0b5c600181019050807f7d4b3164c6e45b97e7d87b7125a44c5828d005af88f9d751cfd78729c5d99a0b5d50565b6040517f90bfb865000000000000000000000000000000000000000000000000000000008082526001600160a01b03851660048301527fffffffff0000000000000000000000000000000000000000000000000000000084166024830152608060448301526020601f3d018190040260a0810160648401523d608484015290913d5f60a483013e60048260a4018201527fffffffff0000000000000000000000000000000000000000000000000000000084168260c4018201528160e40181fd5b60605f805f8451602086015f885af19050806136f2576136f2846136cc85616177565b7fa9e35b2f000000000000000000000000000000000000000000000000000000006135e8565b6040519150601f19603f3d011682016040523d82523d5f602084013e602082511080613770575060208301517fffffffff000000000000000000000000000000000000000000000000000000001661374b836020015190565b7fffffffff000000000000000000000000000000000000000000000000000000001614155b1561379e5761379e7f1e048e1d00000000000000000000000000000000000000000000000000000000611dad565b5092915050565b8060020b8260020b126137dd576137dd7fc4433ed5000000000000000000000000000000000000000000000000000000008383614ac4565b7ffffffffffffffffffffffffffffffffffffffffffffffffffffffffffff27618600283900b1215613833576138337fd5e2f7ab0000000000000000000000000000000000000000000000000000000083612c08565b620d89e8600282900b1315611809576118097f1ad777f80000000000000000000000000000000000000000000000000000000082612c08565b600283900b5f908152600485016020526040812080548291906fffffffffffffffffffffffffffffffff8116907001000000000000000000000000000000009004600f0b6138ba8288613eed565b6fffffffffffffffffffffffffffffffff808216159084168015919091141596509094505f0361390d57885460a01c60020b60020b8860020b1361390d576001808a0154908401556002808a0154908401555b5f866139225761391d8883616129565b61392c565b61392c88836161e3565b90508060801b6fffffffffffffffffffffffffffffffff86161784555050505094509492505050565b600291820b910b808207156139825760405163d4d8f3e681528260208201528160408201526044601c8201fd5b80820591508160081d5f528260205260405f20600160ff84161b815418815550505050565b600282810b5f81815260048601602052604080822085850b83529082208754929485949293919260a09290921c900b908112156139fd578160010154836001015403945081600201548360020154039350613a50565b8560020b8160020b12613a29578260010154826001015403945082600201548260020154039350613a50565b81600101548360010154896001015403039450816002015483600201548960020154030393505b505050935093915050565b83545f9081906fffffffffffffffffffffffffffffffff16600f86900b8203613ac557806fffffffffffffffffffffffffffffffff165f03613ac057613ac07faefeb92400000000000000000000000000000000000000000000000000000000611dad565b613b0c565b613acf8187613eed565b87547fffffffffffffffffffffffffffffffff00000000000000000000000000000000166fffffffffffffffffffffffffffffffff919091161787555b613b4087600101548603826fffffffffffffffffffffffffffffffff16700100000000000000000000000000000000614ae1565b9250613b7687600201548503826fffffffffffffffffffffffffffffffff16700100000000000000000000000000000000614ae1565b6001880195909555505060029094015591929050565b60020b5f60ff82901d80830118620d89e8811115613bce57613bce7f8b86327a0000000000000000000000000000000000000000000000000000000084612c08565b7001fffcb933bd6fad37aa2d162d1a5940016001821602700100000000000000000000000000000000186002821615613c17576ffff97272373d413259a46990580e213a0260801c5b6004821615613c36576ffff2e50f5f656932ef12357cf3c7fdcc0260801c5b6008821615613c55576fffe5caca7e10e4e61c3624eaa0941cd00260801c5b6010821615613c74576fffcb9843d60f6159c9db58835c9266440260801c5b6020821615613c93576fff973b41fa98c081472e6896dfb254c00260801c5b6040821615613cb2576fff2ea16466c96a3843ec78b326b528610260801c5b6080821615613cd1576ffe5dee046a99a2a811c461f1969c30530260801c5b610100821615613cf1576ffcbe86c7900a88aedcffc83b479aa3a40260801c5b610200821615613d11576ff987a7253ac413176f2b074cf7815e540260801c5b610400821615613d31576ff3392b0822b70005940c7a398e4b70f30260801c5b610800821615613d51576fe7159475a2c29b7443b29c7fa6e889d90260801c5b611000821615613d71576fd097f3bdfd2022b8845ad8f792aa58250260801c5b612000821615613d91576fa9f746462d870fdf8a65dc1f90e061e50260801c5b614000821615613db1576f70d869a156d2a1b890bb3df62baf32f70260801c5b618000821615613dd1576f31be135f97d08fd981231505542fcfa60260801c5b62010000821615613df2576f09aa508b5b7a84e1c677de54f3e99bc90260801c5b62020000821615613e12576e5d6af8dedb81196699c329225ee6040260801c5b62040000821615613e31576d2216e584f5fa1ea926041bedfe980260801c5b62080000821615613e4e576b048a170391f7dc42444e8fa20260801c5b5f841315613e79577fffffffffffffffffffffffffffffffffffffffffffffffffffffffffffffffff045b63ffffffff0160201c9392505050565b5f8082600f0b12613eb057613ea9613ea48585856001614b9c565b614c71565b5f03611da5565b611da5613ea48585855f035f614b9c565b5f8082600f0b12613edc57613ea9613ea48585856001614ca3565b611da5613ea48585855f035f614ca3565b6fffffffffffffffffffffffffffffffff8216600f82900b01608081901c15610902576393dafdf15f526004601cfd5b5f80613f2985856136a9565b905082613f39575f9150506109bb565b8051604014613f6b57613f6b7f1e048e1d00000000000000000000000000000000000000000000000000000000611dad565b60400151949350505050565b5f608082811d9084901d03600f83810b9085900b03612a7e612a75836125e7565b5f73fffd8963efd1fc6a506488495d951d51639616827ffffffffffffffffffffffffffffffffffffffffffffffffffffffffefffd895d83016001600160a01b0316111561400a5761400a7f614875240000000000000000000000000000000000000000000000000000000083612d01565b77ffffffffffffffffffffffffffffffffffffffff00000000602083901b16805f61403482614d01565b60ff1690506080811061404f57607f810383901c9150614059565b80607f0383901b91505b908002607f81811c60ff83811c9190911c800280831c81831c1c800280841c81841c1c800280851c81851c1c800280861c81861c1c800280871c81871c1c800280881c81881c1c800280891c81891c1c8002808a1c818a1c1c8002808b1c818b1c1c8002808c1c818c1c1c8002808d1c818d1c1c8002808e1c9c81901c9c909c1c80029c8d901c9e9d7fffffffffffffffffffffffffffffffffffffffffffffffffffffffffffffff808f0160401b60c09190911c678000000000000000161760c19b909b1c674000000000000000169a909a1760c29990991c672000000000000000169890981760c39790971c671000000000000000169690961760c49590951c670800000000000000169490941760c59390931c670400000000000000169290921760c69190911c670200000000000000161760c79190911c670100000000000000161760c89190911c6680000000000000161760c99190911c6640000000000000161760ca9190911c6620000000000000161760cb9190911c6610000000000000161760cc9190911c6608000000000000161760cd9190911c66040000000000001617693627a301d71055774c8581027ffffffffffffffffffffffffffffffffffd709b7e5480fba5a50fed5e62ffc5568101608090811d906fdb2df09e81959a81455e260799a0632f8301901d600281810b9083900b1461428657886001600160a01b031661426b82613b8c565b6001600160a01b031611156142805781614288565b80614288565b815b9998505050505050505050565b604080516060810182525f8082526020820181905291810182905281908190855460408601515f816142cf57610fff60c484901c166142d9565b610fff60b884901c165b88516001600160a01b038516865261ffff9190911691505f60a085901c60020b60020b602087015260038b01546fffffffffffffffffffffffffffffffff16604087015260808a01515f90624000001661433c5760d086901c62ffffff1661434e565b61434e8b6080015162ffffff16614d95565b9050831561437457620f4240610fff851662ffffff831681810292909204910103614376565b805b975050620f42408762ffffff16106143ba5789515f12156143ba576143ba7f9620624600000000000000000000000000000000000000000000000000000000611dad565b89515f036143d2575f80985098505050505050614a3f565b83156144815760608a01516001600160a01b0386811691161061442a5761442a6001600160a01b0386165b60608c01517f7c9c6e8f000000000000000000000000000000000000000000000000000000009190612c17565b6401000276a36001600160a01b03168a606001516001600160a01b03161161447c5760608a015161447c907f9e4d7cc70000000000000000000000000000000000000000000000000000000090612d01565b61450b565b60608a01516001600160a01b038681169116116144aa576144aa6001600160a01b0386166143fd565b73fffd8963efd1fc6a506488495d951d5263988d266001600160a01b03168a606001516001600160a01b03161061450b5760608a015161450b907f9e4d7cc70000000000000000000000000000000000000000000000000000000090612d01565b60408051610100810182525f80825260208201819052918101829052606081018290526080810182905260a0810182905260c0810182905260e08101919091528461455a578b60020154614560565b8b600101545b60e08201525b82158061458b57508a606001516001600160a01b0316875f01516001600160a01b0316145b6148d85786516001600160a01b03168152602080880151908c01516145b59160058f019188614da4565b1515604083015260020b602082018190527ffffffffffffffffffffffffffffffffffffffffffffffffffffffffffff2761812614613577ffffffffffffffffffffffffffffffffffffffffffffffffffffffffffff2761860208201525b620d89e860020b816020015160020b1261463157620d89e860208201525b61463e8160200151613b8c565b6001600160a01b0390811660608381018290528951908e015161467b939192911680821891811160018a161891909102188960400151868c614ecf565b60c085015260a084015260808301526001600160a01b031687528a515f12156146d7576146ab8160a00151614c71565b830392506146c68160c001518260800151613ea49190615baa565b6146d09083616231565b9150614708565b6146ea8160c00151826080015101614c71565b830192506146fb8160a00151614c71565b614705908361605c565b91505b8315614757575f848962ffffff161461473f57620f4240858360c00151846080015101028161473957614739616250565b04614745565b8160c001515b60c08301805182900390529990990198505b60408701516fffffffffffffffffffffffffffffffff16156147b6576147aa8160c0015170010000000000000000000000000000000089604001516fffffffffffffffffffffffffffffffff1691020490565b60e08201805190910190525b80606001516001600160a01b0316875f01516001600160a01b0316036148b25780604001511561488d575f80866147f6578d600101548360e00151614801565b8260e001518e600201545b915091505f6148598f85602001518585600292830b5f908152600490940160205260409093206001810180549092039091559081018054909203909155547001000000000000000000000000000000009004600f0b90565b90508715614864575f035b6148728a6040015182613eed565b6fffffffffffffffffffffffffffffffff1660408b01525050505b8461489c5780602001516148a5565b60018160200151035b60020b6020880152614566565b805187516001600160a01b039081169116146148d35786516148a590613f98565b614566565b86516020880151614960919061492f90899060a01b76ffffff0000000000000000000000000000000000000000167fffffffffffffffffff000000ffffffffffffffffffffffffffffffffffffffff919091161790565b7fffffffffffffffffffffffff0000000000000000000000000000000000000000166001600160a01b039091161790565b8c55604087015160038d01546fffffffffffffffffffffffffffffffff9081169116146149cf57604087015160038d0180547fffffffffffffffffffffffffffffffff00000000000000000000000000000000166fffffffffffffffffffffffffffffffff9092169190911790555b846149e35760e081015160028d01556149ee565b60e081015160018d01555b8a515f1385151514614a1b57614a14614a06836125e7565b61288e858e5f0151036125e7565b9950614a38565b614a35614a2c848d5f0151036125e7565b61288e846125e7565b99505b5050505050505b92959194509250565b6001600160a01b0383165f90815260046020908152604080832085845290915281208054839290614a7a908490615b97565b9091555050604080513381526020810183905283915f916001600160a01b038716917f1b3d7edb2e9c0b0e7c525b20aaaef0f5940d2ed71663c7d39266ecafac7288599101612097565b6040518381528260020b60048201528160020b6024820152604481fd5b5f838302817fffffffffffffffffffffffffffffffffffffffffffffffffffffffffffffffff85870982811083820303915050808411614b1f575f80fd5b805f03614b31575082900490506109bb565b5f848688095f868103871696879004966002600389028118808a02820302808a02820302808a02820302808a02820302808a02820302808a02909103029181900381900460010186841190950394909402919094039290920491909117919091029150509392505050565b5f836001600160a01b0316856001600160a01b03161115614bbb579293925b6001600160a01b038516614bd55762bfc9215f526004601cfd5b7bffffffffffffffffffffffffffffffff000000000000000000000000606084901b166001600160a01b038686031683614c3a57866001600160a01b0316614c278383896001600160a01b0316614ae1565b81614c3457614c34616250565b04614c66565b614c66614c518383896001600160a01b0316615032565b886001600160a01b0316808204910615150190565b979650505050505050565b805f811215610d9757610d977f93dafdf100000000000000000000000000000000000000000000000000000000611dad565b5f6001600160a01b038481169086160360ff81901d908101186c010000000000000000000000006fffffffffffffffffffffffffffffffff8516614ce8818484614ae1565b9350845f83858409111684019350505050949350505050565b5f808211614d0d575f80fd5b507f0706060506020500060203020504000106050205030304010505030400000000601f6f8421084210842108cc6318c6db6d54be6fffffffffffffffffffffffffffffffff841160071b84811c67ffffffffffffffff1060061b1784811c63ffffffff1060051b1784811c61ffff1060041b1784811c60ff1060031b1793841c1c161a1790565b62bfffff8116610d97816123f1565b5f80600284810b9086900b8181078313919005038315614e4257600281900b60081d600181900b5f908152602089905260409020547fffffffffffffffffffffffffffffffffffffffffffffffffffffffffffffffff60ff808516908190039190911c918216801515955090919085614e2457888360ff16860302614e37565b88614e2e82614d01565b840360ff168603025b965050505050614ec5565b6001908101600281900b60081d80830b5f90815260208a905260409020547fffffffffffffffffffffffffffffffffffffffffffffffffffffffffffffffff60ff841694851b011990811680151595509293919285614eab57888360ff0360ff16860102614ebe565b8883614eb683615062565b0360ff168601025b9650505050505b5094509492505050565b5f80808062ffffff85166001600160a01b03808a16908b1610158288128015614fa5575f614f088a5f0385620f424003620f4240614ae1565b905082614f2157614f1c8d8d8d6001614ca3565b614f2e565b614f2e8c8e8d6001614b9c565b9650868110614f62578b9750620f42408414614f5957614f54878586620f424003615032565b614f5b565b865b9450614f7b565b809650614f718d8c83866150fc565b9750868a5f030394505b82614f9157614f8c8d898d5f614b9c565b614f9d565b614f9d888e8d5f614ca3565b955050615023565b81614fbb57614fb68c8c8c5f614b9c565b614fc7565b614fc78b8d8c5f614ca3565b9450848910614fd8578a9650614fea565b889450614fe78c8b8785615153565b96505b8161500157614ffc8c888c6001614ca3565b61500e565b61500e878d8c6001614b9c565b9550615020868485620f424003615032565b93505b50505095509550955095915050565b5f61503e848484614ae1565b9050818061504e5761504e616250565b838509156109bb57600101806109bb575f80fd5b5f80821161506e575f80fd5b507e1f0d1e100c1d070f090b19131c1706010e11080a1a141802121b15031604055f8290039091166101e07f804040554300526644320000502061067405302602000010750620017611707760fc7fb6db6db6ddddddddd34d34d349249249210842108c6318c639ce739cffffffff840260f81c161b60f71c1690811c63d76453e004601f169190911a1790565b5f6fffffffffffffffffffffffffffffffff8416156001600160a01b03861615171561512f57634f2461b85f526004601cfd5b8161514657615141858585600161519f565b612a7e565b612a7e85858560016152c0565b5f6fffffffffffffffffffffffffffffffff8416156001600160a01b03861615171561518657634f2461b85f526004601cfd5b81615197576151418585855f6152c0565b612a7e8585855f5b5f811561522a575f6001600160a01b038411156151e5576151e0846c01000000000000000000000000876fffffffffffffffffffffffffffffffff16614ae1565b615205565b6152056fffffffffffffffffffffffffffffffff8616606086901b61627d565b905061522261521d826001600160a01b038916615baa565b6153b4565b915050611da5565b5f6001600160a01b0384111561526957615264846c01000000000000000000000000876fffffffffffffffffffffffffffffffff16615032565b61528f565b61528f606085901b6fffffffffffffffffffffffffffffffff8716808204910615150190565b9050806001600160a01b038716116152ae57634323a5555f526004601cfd5b6001600160a01b038616039050611da5565b5f825f036152cf575083611da5565b7bffffffffffffffffffffffffffffffff000000000000000000000000606085901b168215615373576001600160a01b0386168481029085828161531557615315616250565b0403615345578181018281106153435761533983896001600160a01b031683615032565b9350505050611da5565b505b50615222818561535e6001600160a01b038a168361627d565b6153689190615baa565b808204910615150190565b6001600160a01b03861684810290858204148183111661539a5763f5c787f15f526004601cfd5b80820361533961521d846001600160a01b038b1684615032565b806001600160a01b0381168114610d9757610d977f93dafdf100000000000000000000000000000000000000000000000000000000611dad565b6001600160a01b03811681146117e7575f80fd5b5f8060408385031215615413575f80fd5b823561541e816153ee565b946020939093013593505050565b5f6020828403121561543c575f80fd5b81357fffffffff00000000000000000000000000000000000000000000000000000000811681146109bb575f80fd5b5f805f6060848603121561547d575f80fd5b8335615488816153ee565b95602085013595506040909401359392505050565b5f805f606084860312156154af575f80fd5b83356154ba816153ee565b925060208401356154ca816153ee565b929592945050506040919091013590565b5f602082840312156154eb575f80fd5b5035919050565b7f4e487b71000000000000000000000000000000000000000000000000000000005f52604160045260245ffd5b6040516080810167ffffffffffffffff81118282101715615542576155426154f2565b60405290565b604051601f8201601f1916810167ffffffffffffffff81118282101715615571576155716154f2565b604052919050565b803562ffffff81168114610d97575f80fd5b8035600281900b8114610d97575f80fd5b5f60a082840312156155ac575f80fd5b60405160a0810167ffffffffffffffff811182821017156155cf576155cf6154f2565b60405290508082356155e0816153ee565b815260208301356155f0816153ee565b602082015261560160408401615579565b60408201526156126060840161558b565b60608201526080830135615625816153ee565b6080919091015292915050565b5f8083601f840112615642575f80fd5b50813567ffffffffffffffff811115615659575f80fd5b602083019150836020828501011115615670575f80fd5b9250929050565b5f805f805f610100868803121561568c575f80fd5b615696878761559c565b945060a0860135935060c0860135925060e086013567ffffffffffffffff8111156156bf575f80fd5b6156cb88828901615632565b969995985093965092949392505050565b5f602082840312156156ec575f80fd5b81356109bb816153ee565b5f8060408385031215615708575f80fd5b50508035926020909101359150565b602080825282518282018190525f918401906040840190835b8181101561574e578351835260209384019390920191600101615730565b509095945050505050565b5f806020838503121561576a575f80fd5b823567ffffffffffffffff811115615780575f80fd5b61578c85828601615632565b90969095509350505050565b602081525f82518060208401528060208501604085015e5f604082850101526040601f19601f83011684010191505092915050565b5f8060c083850312156157de575f80fd5b6157e8848461559c565b91506157f660a08401615579565b90509250929050565b80358015158114610d97575f80fd5b5f806040838503121561581f575f80fd5b823561582a816153ee565b91506157f6602084016157ff565b5f805f8084860361014081121561584d575f80fd5b615857878761559c565b945060807fffffffffffffffffffffffffffffffffffffffffffffffffffffffffffffff6082011215615888575f80fd5b5061589161551f565b61589d60a0870161558b565b81526158ab60c0870161558b565b602082015260e086013560408201526101008601356060820152925061012085013567ffffffffffffffff8111156158e1575f80fd5b6158ed87828801615632565b95989497509550505050565b5f8060c0838503121561590a575f80fd5b615914848461559c565b915060a0830135615924816153ee565b809150509250929050565b5f805f805f60a08688031215615943575f80fd5b853594506020860135615955816153ee565b93506159636040870161558b565b92506159716060870161558b565b949793965091946080013592915050565b5f8060208385031215615993575f80fd5b823567ffffffffffffffff8111156159a9575f80fd5b8301601f810185136159b9575f80fd5b803567ffffffffffffffff8111156159cf575f80fd5b8560208260051b84010111156159e3575f80fd5b6020919091019590945092505050565b5f8060408385031215615a04575f80fd5b8235615a0f816153ee565b91506020830135615924816153ee565b5f8060408385031215615a30575f80fd5b823591506020830135600181900b8114615924575f80fd5b5f8060408385031215615a59575f80fd5b823591506157f66020840161558b565b5f805f80848603610120811215615a7e575f80fd5b615a88878761559c565b945060607fffffffffffffffffffffffffffffffffffffffffffffffffffffffffffffff6082011215615ab9575f80fd5b506040516060810167ffffffffffffffff81118282101715615add57615add6154f2565b604052615aec60a087016157ff565b815260c0860135602082015260e0860135615b06816153ee565b6040820152925061010085013567ffffffffffffffff8111156158e1575f80fd5b5f805f8060808587031215615b3a575f80fd5b8435615b45816153ee565b93506020850135615b55816153ee565b93969395505050506040820135916060013590565b7f4e487b71000000000000000000000000000000000000000000000000000000005f52601160045260245ffd5b8181038181111561090257610902615b6a565b8082018082111561090257610902615b6a565b81835281816020850137505f602082840101525f6020601f19601f840116840101905092915050565b602081525f611da5602083018486615bbd565b5f60208284031215615c09575f80fd5b815167ffffffffffffffff811115615c1f575f80fd5b8201601f81018413615c2f575f80fd5b805167ffffffffffffffff811115615c4957615c496154f2565b615c5c6020601f19601f84011601615548565b818152856020838501011115615c70575f80fd5b8160208401602083015e5f91810160200191909152949350505050565b6001600160a01b0387168152615cf460208201876001600160a01b0381511682526001600160a01b03602082015116602083015262ffffff6040820151166040830152606081015160020b60608301526001600160a01b0360808201511660808301525050565b8460c08201528360e08201526101206101008201525f615d1961012083018486615bbd565b98975050505050505050565b6001600160a01b0386168152615d8c60208201866001600160a01b0381511682526001600160a01b03602082015116602083015262ffffff6040820151166040830152606081015160020b60608301526001600160a01b0360808201511660808301525050565b8351600290810b60c08301526020850151900b60e0820152604084015161010082015260608401516101208201526101606101408201525f614c6661016083018486615bbd565b6001600160a01b0388168152615e3a60208201886001600160a01b0381511682526001600160a01b03602082015116602083015262ffffff6040820151166040830152606081015160020b60608301526001600160a01b0360808201511660808301525050565b8551600290810b60c08301526020870151900b60e08201526040860151610100820152606086015161012082015284610140820152836101608201526101a06101808201525f6142886101a083018486615bbd565b6001600160a01b038416815260e08101615efa60208301856001600160a01b0381511682526001600160a01b03602082015116602083015262ffffff6040820151166040830152606081015160020b60608301526001600160a01b0360808201511660808301525050565b6001600160a01b03831660c0830152949350505050565b6001600160a01b03851681526101008101615f7d60208301866001600160a01b0381511682526001600160a01b03602082015116602083015262ffffff6040820151166040830152606081015160020b60608301526001600160a01b0360808201511660808301525050565b6001600160a01b03841660c08301528260020b60e083015295945050505050565b5f60208284031215615fae575f80fd5b5051919050565b6001600160a01b038616815261601c60208201866001600160a01b0381511682526001600160a01b03602082015116602083015262ffffff6040820151166040830152606081015160020b60608301526001600160a01b0360808201511660808301525050565b8351151560c0820152602084015160e082015260408401516001600160a01b03166101008201526101406101208201525f614c6661014083018486615bbd565b8082018281125f83128015821682158216171561144857611448615b6a565b6001600160a01b03871681526160e260208201876001600160a01b0381511682526001600160a01b03602082015116602083015262ffffff6040820151166040830152606081015160020b60608301526001600160a01b0360808201511660808301525050565b8451151560c0820152602085015160e082015260408501516001600160a01b0316610100820152836101208201526101606101408201525f615d1961016083018486615bbd565b600f81810b9083900b016f7fffffffffffffffffffffffffffffff81137fffffffffffffffffffffffffffffffff800000000000000000000000000000008212171561090257610902615b6a565b805160208201517fffffffff000000000000000000000000000000000000000000000000000000008116919060048210156161dc577fffffffff00000000000000000000000000000000000000000000000000000000808360040360031b1b82161692505b5050919050565b600f82810b9082900b037fffffffffffffffffffffffffffffffff8000000000000000000000000000000081126f7fffffffffffffffffffffffffffffff8213171561090257610902615b6a565b8181035f83128015838313168383128216171561379e5761379e615b6a565b7f4e487b71000000000000000000000000000000000000000000000000000000005f52601260045260245ffd5b5f826162b0577f4e487b71000000000000000000000000000000000000000000000000000000005f52601260045260245ffd5b50049056fea164736f6c634300081a000a","linkReferences":{}},"methodIdentifiers":{"allowance(address,address,uint256)":"598af9e7","approve(address,uint256,uint256)":"426a8493","balanceOf(address,uint256)":"00fdd58e","burn(address,uint256,uint256)":"f5298aca","clear(address,uint256)":"80f0b44c","collectProtocolFees(address,address,uint256)":"8161b874","donate((address,address,uint24,int24,address),uint256,uint256,bytes)":"234266d7","extsload(bytes32)":"1e2eaeaf","extsload(bytes32,uint256)":"35fd631a","extsload(bytes32[])":"dbd035ff","exttload(bytes32)":"f135baaa","exttload(bytes32[])":"9bf6645f","getBitmapWord(bytes32,int16)":"d19e6350","getPool(bytes32)":"f6c00927","getPosition(bytes32,address,int24,int24,bytes32)":"7388426b","getTick(bytes32,int24)":"d81b9f9f","initialize((address,address,uint24,int24,address),uint160)":"6276cbbe","isOperator(address,address)":"b6363cf2","mint(address,uint256,uint256)":"156e29f6","modifyLiquidity((address,address,uint24,int24,address),(int24,int24,int256,bytes32),bytes)":"5a6bcfda","owner()":"8da5cb5b","protocolFeeController()":"f02de3b2","protocolFeesAccrued(address)":"97e8cd4e","setOperator(address,bool)":"558a7297","setProtocolFee((address,address,uint24,int24,address),uint24)":"7e87ce7d","setProtocolFeeController(address)":"2d771389","settle()":"11da60b4","settleFor(address)":"3dd45adb","supportsInterface(bytes4)":"01ffc9a7","swap((address,address,uint24,int24,address),(bool,int256,uint160),bytes)":"f3cd914c","sync(address)":"a5841194","take(address,address,uint256)":"0b0d9c09","transfer(address,uint256,uint256)":"095bcdb6","transferFrom(address,address,uint256,uint256)":"fe99049a","transferOwnership(address)":"f2fde38b","unlock(bytes)":"48c89491","updateDynamicLPFee((address,address,uint24,int24,address),uint24)":"52759651"},"id":227}