{"abi":[{"type":"constructor","inputs":[{"name":"name","type":"string","internalType":"string"}],"stateMutability":"nonpayable"},{"type":"function","name":"DOMAIN_SEPARATOR","inputs":[],"outputs":[{"name":"","type":"bytes32","internalType":"bytes32"}],"stateMutability":"view"}],"bytecode":{"object":"0x60e060405234801561000f575f80fd5b506040516102ba3803806102ba83398101604081905261002e916100bc565b8051602082012060c0524660a05261009f60c051604080517f8cad95687ba82c2ce50e74f7b754645e5117c3a5bec8151c0726d5857980a8666020820152908101919091524660608201523060808201525f9060a00160405160208183030381529060405280519060200120905090565b6080525061016c565b634e487b7160e01b5f52604160045260245ffd5b5f602082840312156100cc575f80fd5b81516001600160401b038111156100e1575f80fd5b8201601f810184136100f1575f80fd5b80516001600160401b0381111561010a5761010a6100a8565b604051601f8201601f19908116603f011681016001600160401b0381118282101715610138576101386100a8565b60405281815282820160200186101561014f575f80fd5b8160208401602083015e5f91810160200191909152949350505050565b60805160a05160c0516101276101935f395f609e01525f604a01525f60f801526101275ff3fe608060405234801561000f575f80fd5b5060043610610029575f3560e01c80633644e5151461002d575b5f80fd5b610035610047565b60405190815260200160405180910390f35b5f7f000000000000000000000000000000000000000000000000000000000000000046146100f5576100f0604080517f8cad95687ba82c2ce50e74f7b754645e5117c3a5bec8151c0726d5857980a86660208201527f0000000000000000000000000000000000000000000000000000000000000000918101919091524660608201523060808201525f9060a00160405160208183030381529060405280519060200120905090565b905090565b507f00000000000000000000000000000000000000000000000000000000000000009056fea164736f6c634300081a000a","linkReferences":{}},"methodIdentifiers":{"DOMAIN_SEPARATOR()":"3644e515"},"id":113}