{"abi":[{"type":"function","name":"ADDRESS_ZERO","inputs":[],"outputs":[{"name":"","type":"address","internalType":"Currency"}],"stateMutability":"view"},{"type":"error","name":"ERC20TransferFailed","inputs":[]},{"type":"error","name":"NativeTransferFailed","inputs":[]}],"bytecode":{"object":"0x60726032600b8282823980515f1a607314602657634e487b7160e01b5f525f60045260245ffd5b305f52607381538281f3fe73000000000000000000000000000000000000000030146080604052600436106032575f3560e01c806366e79509146036575b5f80fd5b603c5f81565b60405173ffffffffffffffffffffffffffffffffffffffff909116815260200160405180910390f3fea164736f6c634300081a000a","linkReferences":{}},"methodIdentifiers":{"ADDRESS_ZERO()":"66e79509"},"id":106}