{"abi":[{"type":"function","name":"allowance","inputs":[{"name":"owner","type":"address","internalType":"address"},{"name":"spender","type":"address","internalType":"address"},{"name":"id","type":"uint256","internalType":"uint256"}],"outputs":[{"name":"amount","type":"uint256","internalType":"uint256"}],"stateMutability":"view"},{"type":"function","name":"approve","inputs":[{"name":"spender","type":"address","internalType":"address"},{"name":"id","type":"uint256","internalType":"uint256"},{"name":"amount","type":"uint256","internalType":"uint256"}],"outputs":[{"name":"","type":"bool","internalType":"bool"}],"stateMutability":"nonpayable"},{"type":"function","name":"balanceOf","inputs":[{"name":"owner","type":"address","internalType":"address"},{"name":"id","type":"uint256","internalType":"uint256"}],"outputs":[{"name":"balance","type":"uint256","internalType":"uint256"}],"stateMutability":"view"},{"type":"function","name":"burn","inputs":[{"name":"from","type":"address","internalType":"address"},{"name":"id","type":"uint256","internalType":"uint256"},{"name":"amount","type":"uint256","internalType":"uint256"}],"outputs":[],"stateMutability":"nonpayable"},{"type":"function","name":"clear","inputs":[{"name":"currency","type":"address","internalType":"Currency"},{"name":"amount","type":"uint256","internalType":"uint256"}],"outputs":[],"stateMutability":"nonpayable"},{"type":"function","name":"collectProtocolFees","inputs":[{"name":"recipient","type":"address","internalType":"address"},{"name":"currency","type":"address","internalType":"Currency"},{"name":"amount","type":"uint256","internalType":"uint256"}],"outputs":[{"name":"amountCollected","type":"uint256","internalType":"uint256"}],"stateMutability":"nonpayable"},{"type":"function","name":"donate","inputs":[{"name":"key","type":"tuple","internalType":"struct PoolKey","components":[{"name":"currency0","type":"address","internalType":"Currency"},{"name":"currency1","type":"address","internalType":"Currency"},{"name":"fee","type":"uint24","internalType":"uint24"},{"name":"tickSpacing","type":"int24","internalType":"int24"},{"name":"hooks","type":"address","internalType":"contract IHooks"}]},{"name":"amount0","type":"uint256","internalType":"uint256"},{"name":"amount1","type":"uint256","internalType":"uint256"},{"name":"hookData","type":"bytes","internalType":"bytes"}],"outputs":[{"name":"delta","type":"int256","internalType":"BalanceDelta"}],"stateMutability":"nonpayable"},{"type":"function","name":"extsload","inputs":[{"name":"slot","type":"bytes32","internalType":"bytes32"}],"outputs":[{"name":"","type":"bytes32","internalType":"bytes32"}],"stateMutability":"view"},{"type":"function","name":"extsload","inputs":[{"name":"startSlot","type":"bytes32","internalType":"bytes32"},{"name":"nSlots","type":"uint256","internalType":"uint256"}],"outputs":[{"name":"","type":"bytes32[]","internalType":"bytes32[]"}],"stateMutability":"view"},{"type":"function","name":"extsload","inputs":[{"name":"slots","type":"bytes32[]","internalType":"bytes32[]"}],"outputs":[{"name":"","type":"bytes32[]","internalType":"bytes32[]"}],"stateMutability":"view"},{"type":"function","name":"exttload","inputs":[{"name":"slots","type":"bytes32[]","internalType":"bytes32[]"}],"outputs":[{"name":"","type":"bytes32[]","internalType":"bytes32[]"}],"stateMutability":"view"},{"type":"function","name":"exttload","inputs":[{"name":"slot","type":"bytes32","internalType":"bytes32"}],"outputs":[{"name":"","type":"bytes32","internalType":"bytes32"}],"stateMutability":"view"},{"type":"function","name":"getBitmapWord","inputs":[{"name":"id","type":"bytes32","internalType":"PoolId"},{"name":"wordPos","type":"int16","internalType":"int16"}],"outputs":[{"name":"","type":"uint256","internalType":"uint256"}],"stateMutability":"view"},{"type":"function","name":"getPoolState","inputs":[{"name":"id","type":"bytes32","internalType":"PoolId"}],"outputs":[{"name":"slot0","type":"bytes32","internalType":"Slot0"},{"name":"feeGrowthGlobal0X128","type":"uint256","internalType":"uint256"},{"name":"feeGrowthGlobal1X128","type":"uint256","internalType":"uint256"},{"name":"liquidity","type":"uint128","internalType":"uint128"}],"stateMutability":"view"},{"type":"function","name":"getPosition","inputs":[{"name":"id","type":"bytes32","internalType":"PoolId"},{"name":"key","type":"bytes32","internalType":"bytes32"}],"outputs":[{"name":"","type":"tuple","internalType":"struct Position.State","components":[{"name":"liquidity","type":"uint128","internalType":"uint128"},{"name":"feeGrowthInside0LastX128","type":"uint256","internalType":"uint256"},{"name":"feeGrowthInside1LastX128","type":"uint256","internalType":"uint256"}]}],"stateMutability":"view"},{"type":"function","name":"getPosition","inputs":[{"name":"id","type":"bytes32","internalType":"PoolId"},{"name":"owner","type":"address","internalType":"address"},{"name":"tickLower","type":"int24","internalType":"int24"},{"name":"tickUpper","type":"int24","internalType":"int24"},{"name":"salt","type":"bytes32","internalType":"bytes32"}],"outputs":[{"name":"","type":"tuple","internalType":"struct Position.State","components":[{"name":"liquidity","type":"uint128","internalType":"uint128"},{"name":"feeGrowthInside0LastX128","type":"uint256","internalType":"uint256"},{"name":"feeGrowthInside1LastX128","type":"uint256","internalType":"uint256"}]}],"stateMutability":"view"},{"type":"function","name":"getTickInfo","inputs":[{"name":"id","type":"bytes32","internalType":"PoolId"},{"name":"tick","type":"int24","internalType":"int24"}],"outputs":[{"name":"","type":"tuple","internalType":"struct Pool.TickInfo","components":[{"name":"liquidityGross","type":"uint128","internalType":"uint128"},{"name":"liquidityNet","type":"int128","internalType":"int128"},{"name":"feeGrowthOutside0X128","type":"uint256","internalType":"uint256"},{"name":"feeGrowthOutside1X128","type":"uint256","internalType":"uint256"}]}],"stateMutability":"view"},{"type":"function","name":"initialize","inputs":[{"name":"key","type":"tuple","internalType":"struct PoolKey","components":[{"name":"currency0","type":"address","internalType":"Currency"},{"name":"currency1","type":"address","internalType":"Currency"},{"name":"fee","type":"uint24","internalType":"uint24"},{"name":"tickSpacing","type":"int24","internalType":"int24"},{"name":"hooks","type":"address","internalType":"contract IHooks"}]},{"name":"sqrtPriceX96","type":"uint160","internalType":"uint160"}],"outputs":[{"name":"tick","type":"int24","internalType":"int24"}],"stateMutability":"nonpayable"},{"type":"function","name":"isOperator","inputs":[{"name":"owner","type":"address","internalType":"address"},{"name":"operator","type":"address","internalType":"address"}],"outputs":[{"name":"isOperator","type":"bool","internalType":"bool"}],"stateMutability":"view"},{"type":"function","name":"mint","inputs":[{"name":"to","type":"address","internalType":"address"},{"name":"id","type":"uint256","internalType":"uint256"},{"name":"amount","type":"uint256","internalType":"uint256"}],"outputs":[],"stateMutability":"nonpayable"},{"type":"function","name":"modifyLiquidity","inputs":[{"name":"key","type":"tuple","internalType":"struct PoolKey","components":[{"name":"currency0","type":"address","internalType":"Currency"},{"name":"currency1","type":"address","internalType":"Currency"},{"name":"fee","type":"uint24","internalType":"uint24"},{"name":"tickSpacing","type":"int24","internalType":"int24"},{"name":"hooks","type":"address","internalType":"contract IHooks"}]},{"name":"params","type":"tuple","internalType":"struct IPoolManager.ModifyLiquidityParams","components":[{"name":"tickLower","type":"int24","internalType":"int24"},{"name":"tickUpper","type":"int24","internalType":"int24"},{"name":"liquidityDelta","type":"int256","internalType":"int256"},{"name":"salt","type":"bytes32","internalType":"bytes32"}]},{"name":"hookData","type":"bytes","internalType":"bytes"}],"outputs":[{"name":"callerDelta","type":"int256","internalType":"BalanceDelta"},{"name":"feesAccrued","type":"int256","internalType":"BalanceDelta"}],"stateMutability":"nonpayable"},{"type":"function","name":"owner","inputs":[],"outputs":[{"name":"","type":"address","internalType":"address"}],"stateMutability":"view"},{"type":"function","name":"protocolFeeController","inputs":[],"outputs":[{"name":"","type":"address","internalType":"address"}],"stateMutability":"view"},{"type":"function","name":"protocolFeesAccrued","inputs":[{"name":"currency","type":"address","internalType":"Currency"}],"outputs":[{"name":"amount","type":"uint256","internalType":"uint256"}],"stateMutability":"view"},{"type":"function","name":"setBitmapWord","inputs":[{"name":"id","type":"bytes32","internalType":"PoolId"},{"name":"wordPos","type":"int16","internalType":"int16"},{"name":"word","type":"uint256","internalType":"uint256"}],"outputs":[],"stateMutability":"nonpayable"},{"type":"function","name":"setOperator","inputs":[{"name":"operator","type":"address","internalType":"address"},{"name":"approved","type":"bool","internalType":"bool"}],"outputs":[{"name":"","type":"bool","internalType":"bool"}],"stateMutability":"nonpayable"},{"type":"function","name":"setPoolFeeGrowthGlobal0X128","inputs":[{"name":"id","type":"bytes32","internalType":"PoolId"},{"name":"feeGrowthGlobal0X128","type":"uint256","internalType":"uint256"}],"outputs":[],"stateMutability":"nonpayable"},{"type":"function","name":"setPoolFeeGrowthGlobal1X128","inputs":[{"name":"id","type":"bytes32","internalType":"PoolId"},{"name":"feeGrowthGlobal1X128","type":"uint256","internalType":"uint256"}],"outputs":[],"stateMutability":"nonpayable"},{"type":"function","name":"setPoolLiquidity","inputs":[{"name":"id","type":"bytes32","internalType":"PoolId"},{"name":"liquidity","type":"uint128","internalType":"uint128"}],"outputs":[],"stateMutability":"nonpayable"},{"type":"function","name":"setPoolSlot0","inputs":[{"name":"id","type":"bytes32","internalType":"PoolId"},{"name":"slot0","type":"bytes32","internalType":"Slot0"}],"outputs":[],"stateMutability":"nonpayable"},{"type":"function","name":"setPosition","inputs":[{"name":"id","type":"bytes32","internalType":"PoolId"},{"name":"key","type":"bytes32","internalType":"bytes32"},{"name":"position","type":"tuple","internalType":"struct Position.State","components":[{"name":"liquidity","type":"uint128","internalType":"uint128"},{"name":"feeGrowthInside0LastX128","type":"uint256","internalType":"uint256"},{"name":"feeGrowthInside1LastX128","type":"uint256","internalType":"uint256"}]}],"outputs":[],"stateMutability":"nonpayable"},{"type":"function","name":"setProtocolFee","inputs":[{"name":"key","type":"tuple","internalType":"struct PoolKey","components":[{"name":"currency0","type":"address","internalType":"Currency"},{"name":"currency1","type":"address","internalType":"Currency"},{"name":"fee","type":"uint24","internalType":"uint24"},{"name":"tickSpacing","type":"int24","internalType":"int24"},{"name":"hooks","type":"address","internalType":"contract IHooks"}]},{"name":"newProtocolFee","type":"uint24","internalType":"uint24"}],"outputs":[],"stateMutability":"nonpayable"},{"type":"function","name":"setProtocolFeeController","inputs":[{"name":"controller","type":"address","internalType":"address"}],"outputs":[],"stateMutability":"nonpayable"},{"type":"function","name":"setTickInfo","inputs":[{"name":"id","type":"bytes32","internalType":"PoolId"},{"name":"tick","type":"int24","internalType":"int24"},{"name":"info","type":"tuple","internalType":"struct Pool.TickInfo","components":[{"name":"liquidityGross","type":"uint128","internalType":"uint128"},{"name":"liquidityNet","type":"int128","internalType":"int128"},{"name":"feeGrowthOutside0X128","type":"uint256","internalType":"uint256"},{"name":"feeGrowthOutside1X128","type":"uint256","internalType":"uint256"}]}],"outputs":[],"stateMutability":"nonpayable"},{"type":"function","name":"settle","inputs":[],"outputs":[{"name":"","type":"uint256","internalType":"uint256"}],"stateMutability":"payable"},{"type":"function","name":"settleFor","inputs":[{"name":"recipient","type":"address","internalType":"address"}],"outputs":[{"name":"","type":"uint256","internalType":"uint256"}],"stateMutability":"payable"},{"type":"function","name":"supportsInterface","inputs":[{"name":"interfaceId","type":"bytes4","internalType":"bytes4"}],"outputs":[{"name":"","type":"bool","internalType":"bool"}],"stateMutability":"view"},{"type":"function","name":"swap","inputs":[{"name":"key","type":"tuple","internalType":"struct PoolKey","components":[{"name":"currency0","type":"address","internalType":"Currency"},{"name":"currency1","type":"address","internalType":"Currency"},{"name":"fee","type":"uint24","internalType":"uint24"},{"name":"tickSpacing","type":"int24","internalType":"int24"},{"name":"hooks","type":"address","internalType":"contract IHooks"}]},{"name":"params","type":"tuple","internalType":"struct IPoolManager.SwapParams","components":[{"name":"zeroForOne","type":"bool","internalType":"bool"},{"name":"amountSpecified","type":"int256","internalType":"int256"},{"name":"sqrtPriceLimitX96","type":"uint160","internalType":"uint160"}]},{"name":"hookData","type":"bytes","internalType":"bytes"}],"outputs":[{"name":"swapDelta","type":"int256","internalType":"BalanceDelta"}],"stateMutability":"nonpayable"},{"type":"function","name":"sync","inputs":[{"name":"currency","type":"address","internalType":"Currency"}],"outputs":[],"stateMutability":"nonpayable"},{"type":"function","name":"take","inputs":[{"name":"currency","type":"address","internalType":"Currency"},{"name":"to","type":"address","internalType":"address"},{"name":"amount","type":"uint256","internalType":"uint256"}],"outputs":[],"stateMutability":"nonpayable"},{"type":"function","name":"transfer","inputs":[{"name":"receiver","type":"address","internalType":"address"},{"name":"id","type":"uint256","internalType":"uint256"},{"name":"amount","type":"uint256","internalType":"uint256"}],"outputs":[{"name":"","type":"bool","internalType":"bool"}],"stateMutability":"nonpayable"},{"type":"function","name":"transferFrom","inputs":[{"name":"sender","type":"address","internalType":"address"},{"name":"receiver","type":"address","internalType":"address"},{"name":"id","type":"uint256","internalType":"uint256"},{"name":"amount","type":"uint256","internalType":"uint256"}],"outputs":[{"name":"","type":"bool","internalType":"bool"}],"stateMutability":"nonpayable"},{"type":"function","name":"transferOwnership","inputs":[{"name":"newOwner","type":"address","internalType":"address"}],"outputs":[],"stateMutability":"nonpayable"},{"type":"function","name":"unlock","inputs":[{"name":"data","type":"bytes","internalType":"bytes"}],"outputs":[{"name":"result","type":"bytes","internalType":"bytes"}],"stateMutability":"nonpayable"},{"type":"function","name":"updateDynamicLPFee","inputs":[{"name":"key","type":"tuple","internalType":"struct PoolKey","components":[{"name":"currency0","type":"address","internalType":"Currency"},{"name":"currency1","type":"address","internalType":"Currency"},{"name":"fee","type":"uint24","internalType":"uint24"},{"name":"tickSpacing","type":"int24","internalType":"int24"},{"name":"hooks","type":"address","internalType":"contract IHooks"}]},{"name":"newDynamicLPFee","type":"uint24","internalType":"uint24"}],"outputs":[],"stateMutability":"nonpayable"},{"type":"event","name":"Approval","inputs":[{"name":"owner","type":"address","indexed":true,"internalType":"address"},{"name":"spender","type":"address","indexed":true,"internalType":"address"},{"name":"id","type":"uint256","indexed":true,"internalType":"uint256"},{"name":"amount","type":"uint256","indexed":false,"internalType":"uint256"}],"anonymous":false},{"type":"event","name":"Donate","inputs":[{"name":"id","type":"bytes32","indexed":true,"internalType":"PoolId"},{"name":"sender","type":"address","indexed":true,"internalType":"address"},{"name":"amount0","type":"uint256","indexed":false,"internalType":"uint256"},{"name":"amount1","type":"uint256","indexed":false,"internalType":"uint256"}],"anonymous":false},{"type":"event","name":"Initialize","inputs":[{"name":"id","type":"bytes32","indexed":true,"internalType":"PoolId"},{"name":"currency0","type":"address","indexed":true,"internalType":"Currency"},{"name":"currency1","type":"address","indexed":true,"internalType":"Currency"},{"name":"fee","type":"uint24","indexed":false,"internalType":"uint24"},{"name":"tickSpacing","type":"int24","indexed":false,"internalType":"int24"},{"name":"hooks","type":"address","indexed":false,"internalType":"contract IHooks"},{"name":"sqrtPriceX96","type":"uint160","indexed":false,"internalType":"uint160"},{"name":"tick","type":"int24","indexed":false,"internalType":"int24"}],"anonymous":false},{"type":"event","name":"ModifyLiquidity","inputs":[{"name":"id","type":"bytes32","indexed":true,"internalType":"PoolId"},{"name":"sender","type":"address","indexed":true,"internalType":"address"},{"name":"tickLower","type":"int24","indexed":false,"internalType":"int24"},{"name":"tickUpper","type":"int24","indexed":false,"internalType":"int24"},{"name":"liquidityDelta","type":"int256","indexed":false,"internalType":"int256"},{"name":"salt","type":"bytes32","indexed":false,"internalType":"bytes32"}],"anonymous":false},{"type":"event","name":"OperatorSet","inputs":[{"name":"owner","type":"address","indexed":true,"internalType":"address"},{"name":"operator","type":"address","indexed":true,"internalType":"address"},{"name":"approved","type":"bool","indexed":false,"internalType":"bool"}],"anonymous":false},{"type":"event","name":"OwnershipTransferred","inputs":[{"name":"user","type":"address","indexed":true,"internalType":"address"},{"name":"newOwner","type":"address","indexed":true,"internalType":"address"}],"anonymous":false},{"type":"event","name":"ProtocolFeeControllerUpdated","inputs":[{"name":"protocolFeeController","type":"address","indexed":true,"internalType":"address"}],"anonymous":false},{"type":"event","name":"ProtocolFeeUpdated","inputs":[{"name":"id","type":"bytes32","indexed":true,"internalType":"PoolId"},{"name":"protocolFee","type":"uint24","indexed":false,"internalType":"uint24"}],"anonymous":false},{"type":"event","name":"Swap","inputs":[{"name":"id","type":"bytes32","indexed":true,"internalType":"PoolId"},{"name":"sender","type":"address","indexed":true,"internalType":"address"},{"name":"amount0","type":"int128","indexed":false,"internalType":"int128"},{"name":"amount1","type":"int128","indexed":false,"internalType":"int128"},{"name":"sqrtPriceX96","type":"uint160","indexed":false,"internalType":"uint160"},{"name":"liquidity","type":"uint128","indexed":false,"internalType":"uint128"},{"name":"tick","type":"int24","indexed":false,"internalType":"int24"},{"name":"fee","type":"uint24","indexed":false,"internalType":"uint24"}],"anonymous":false},{"type":"event","name":"Transfer","inputs":[{"name":"caller","type":"address","indexed":false,"internalType":"address"},{"name":"from","type":"address","indexed":true,"internalType":"address"},{"name":"to","type":"address","indexed":true,"internalType":"address"},{"name":"id","type":"uint256","indexed":true,"internalType":"uint256"},{"name":"amount","type":"uint256","indexed":false,"internalType":"uint256"}],"anonymous":false},{"type":"error","name":"AlreadyUnlocked","inputs":[]},{"type":"error","name":"CurrenciesOutOfOrderOrEqual","inputs":[{"name":"currency0","type":"address","internalType":"address"},{"name":"currency1","type":"address","internalType":"address"}]},{"type":"error","name":"CurrencyNotSettled","inputs":[]},{"type":"error","name":"DelegateCallNotAllowed","inputs":[]},{"type":"error","name":"InvalidCaller","inputs":[]},{"type":"error","name":"ManagerLocked","inputs":[]},{"type":"error","name":"MustClearExactPositiveDelta","inputs":[]},{"type":"error","name":"NonzeroNativeValue","inputs":[]},{"type":"error","name":"PoolNotInitialized","inputs":[]},{"type":"error","name":"ProtocolFeeCurrencySynced","inputs":[]},{"type":"error","name":"ProtocolFeeTooLarge","inputs":[{"name":"fee","type":"uint24","internalType":"uint24"}]},{"type":"error","name":"SwapAmountCannotBeZero","inputs":[]},{"type":"error","name":"TickSpacingTooLarge","inputs":[{"name":"tickSpacing","type":"int24","internalType":"int24"}]},{"type":"error","name":"TickSpacingTooSmall","inputs":[{"name":"tickSpacing","type":"int24","internalType":"int24"}]},{"type":"error","name":"UnauthorizedDynamicLPFeeUpdate","inputs":[]}],"bytecode":{"object":"0x60a0604052348015600e575f80fd5b505f80546001600160a01b031916815560405181908190819081907f8be0079c531659141344cd1fd0a4f28419497f9722a3daafe3b4186f6b6457e0908290a3505030608052506080516167b361006d5f395f61237801526167b35ff3fe6080604052600436106102e1575f3560e01c80636c8d109311610186578063ba2e868f116100dc578063f02de3b211610087578063f3cd914c11610062578063f3cd914c14610ada578063f5298aca14610af9578063fe99049a14610b18575f80fd5b8063f02de3b214610a7d578063f135baaa14610a9c578063f2fde38b14610abb575f80fd5b8063dbd035ff116100b7578063dbd035ff14610a11578063dc8fb7a014610a30578063f01da00f14610a4f575f80fd5b8063ba2e868f1461092e578063d19e63501461094d578063d595408a1461098c575f80fd5b80638161b8741161013c5780639bf6645f116101175780639bf6645f146108b7578063a5841194146108d6578063b6363cf2146108f5575f80fd5b80638161b874146108375780638da5cb5b1461085657806397e8cd4e1461088c575f80fd5b80637c40f1fe1161016c5780637c40f1fe146106ff5780637e87ce7d146107f957806380f0b44c14610818575f80fd5b80636c8d1093146106b25780637388426b146106e0575f80fd5b80633dd45adb1161023b57806352759651116101f15780635a6bcfda116101cc5780635a6bcfda146105f95780636276cbbe1461062d578063688702991461065f575f80fd5b8063527596511461057f578063558a72971461059e578063598af9e7146105bd575f80fd5b8063426a849311610221578063426a84931461050957806348c8949114610528578063515484a414610554575f80fd5b80633dd45adb1461048b5780633fa6ed741461049e575f80fd5b806311da60b41161029b578063234266d711610276578063234266d7146104215780632d7713891461044057806335fd631a1461045f575f80fd5b806311da60b4146103db578063156e29f6146103e35780631e2eaeaf14610402575f80fd5b8063095bcdb6116102cb578063095bcdb61461035d5780630b0d9c091461037c5780630d7750f31461039d575f80fd5b8062fdd58e146102e557806301ffc9a71461032e575b5f80fd5b3480156102f0575f80fd5b5061031b6102ff3660046156cb565b600460209081525f928352604080842090915290825290205481565b6040519081526020015b60405180910390f35b348015610339575f80fd5b5061034d6103483660046156f5565b610b37565b6040519015158152602001610325565b348015610368575f80fd5b5061034d610377366004615734565b610bcf565b348015610387575f80fd5b5061039b610396366004615766565b610c89565b005b3480156103a8575f80fd5b5061039b6103b73660046157b5565b5f92835260066020908152604080852060019490940b855260059093019052912055565b61031b610d06565b3480156103ee575f80fd5b5061039b6103fd366004615734565b610d64565b34801561040d575f80fd5b5061031b61041c3660046157d7565b610ddb565b34801561042c575f80fd5b5061031b61043b366004615973565b610de5565b34801561044b575f80fd5b5061039b61045a3660046159d8565b610eef565b34801561046a575f80fd5b5061047e6104793660046159f3565b610fc8565b6040516103259190615a13565b61031b6104993660046159d8565b611005565b3480156104a9575f80fd5b5061039b6104b8366004615a72565b5f9182526006602052604090912060030180547fffffffffffffffffffffffffffffffff00000000000000000000000000000000166fffffffffffffffffffffffffffffffff909216919091179055565b348015610514575f80fd5b5061034d610523366004615734565b611063565b348015610533575f80fd5b50610547610542366004615aa0565b6110c7565b6040516103259190615adf565b34801561055f575f80fd5b5061039b61056e3660046159f3565b5f9182526006602052604090912055565b34801561058a575f80fd5b5061039b610599366004615b14565b6111fb565b3480156105a9575f80fd5b5061034d6105b8366004615b55565b611283565b3480156105c8575f80fd5b5061031b6105d7366004615766565b600560209081525f938452604080852082529284528284209052825290205481565b348015610604575f80fd5b50610618610613366004615b7f565b611310565b60408051928352602083019190915201610325565b348015610638575f80fd5b5061064c610647366004615c40565b6114db565b60405160029190910b8152602001610325565b34801561066a575f80fd5b5061067e6106793660046159f3565b611717565b6040805182516fffffffffffffffffffffffffffffffff168152602080840151908201529181015190820152606001610325565b3480156106bd575f80fd5b5061039b6106cc3660046159f3565b5f9182526006602052604090912060010155565b3480156106eb575f80fd5b5061067e6106fa366004615c6b565b61179d565b34801561070a575f80fd5b506107b1610719366004615cbe565b604080516080810182525f808252602082018190529181018290526060810191909152505f918252600660209081526040808420600293840b8552600401825292839020835160808101855281546fffffffffffffffffffffffffffffffff811682527001000000000000000000000000000000009004600f0b92810192909252600181015493820193909352910154606082015290565b604051610325919081516fffffffffffffffffffffffffffffffff168152602080830151600f0b90820152604080830151908201526060918201519181019190915260800190565b348015610804575f80fd5b5061039b610813366004615b14565b611857565b348015610823575f80fd5b5061039b6108323660046156cb565b61193b565b348015610842575f80fd5b5061031b610851366004615766565b6119ed565b348015610861575f80fd5b505f54610874906001600160a01b031681565b6040516001600160a01b039091168152602001610325565b348015610897575f80fd5b5061031b6108a63660046159d8565b60016020525f908152604090205481565b3480156108c2575f80fd5b5061047e6108d1366004615cdf565b611b07565b3480156108e1575f80fd5b5061039b6108f03660046159d8565b611b40565b348015610900575f80fd5b5061034d61090f366004615d50565b600360209081525f928352604080842090915290825290205460ff1681565b348015610939575f80fd5b5061039b610948366004615d7c565b611b7c565b348015610958575f80fd5b5061031b610967366004615dd7565b5f91825260066020908152604080842060019390930b84526005909201905290205490565b348015610997575f80fd5b506109df6109a63660046157d7565b5f90815260066020526040902080546001820154600283015460039093015491939092916fffffffffffffffffffffffffffffffff1690565b604080519485526020850193909352918301526fffffffffffffffffffffffffffffffff166060820152608001610325565b348015610a1c575f80fd5b5061047e610a2b366004615cdf565b611ba9565b348015610a3b575f80fd5b5061039b610a4a366004615df8565b611be0565b348015610a5a575f80fd5b5061039b610a693660046159f3565b5f9182526006602052604090912060020155565b348015610a88575f80fd5b50600254610874906001600160a01b031681565b348015610aa7575f80fd5b5061031b610ab63660046157d7565b611c0b565b348015610ac6575f80fd5b5061039b610ad53660046159d8565b611c15565b348015610ae5575f80fd5b5061031b610af4366004615e4c565b611cea565b348015610b04575f80fd5b5061039b610b13366004615734565b611e75565b348015610b23575f80fd5b5061034d610b32366004615f0a565b611eec565b5f7f01ffc9a7000000000000000000000000000000000000000000000000000000007fffffffff0000000000000000000000000000000000000000000000000000000083161480610bc957507f0f632fb3000000000000000000000000000000000000000000000000000000007fffffffff000000000000000000000000000000000000000000000000000000008316145b92915050565b335f908152600460209081526040808320858452909152812080548391908390610bfa908490615f7a565b90915550506001600160a01b0384165f90815260046020908152604080832086845290915281208054849290610c31908490615f8d565b909155505060408051338082526020820185905285926001600160a01b038816927f1b3d7edb2e9c0b0e7c525b20aaaef0f5940d2ed71663c7d39266ecafac72885991015b60405180910390a45060015b9392505050565b7fc090fc4683624cfc3884e9d8de5eca132f2d0ec062aff75d43c0465d5ceeab235c610cd857610cd87f54e3ca0d0000000000000000000000000000000000000000000000000000000061207d565b610ced83610ce583612085565b5f03336120ca565b610d016001600160a01b0384168383612116565b505050565b5f7fc090fc4683624cfc3884e9d8de5eca132f2d0ec062aff75d43c0465d5ceeab235c610d5657610d567f54e3ca0d0000000000000000000000000000000000000000000000000000000061207d565b610d5f33612219565b905090565b7fc090fc4683624cfc3884e9d8de5eca132f2d0ec062aff75d43c0465d5ceeab235c610db357610db37f54e3ca0d0000000000000000000000000000000000000000000000000000000061207d565b81610dc181610ce584612085565b610dd5846001600160a01b038316846122e8565b50505050565b5f81545f5260205ff35b5f7fc090fc4683624cfc3884e9d8de5eca132f2d0ec062aff75d43c0465d5ceeab235c610e3557610e357f54e3ca0d0000000000000000000000000000000000000000000000000000000061207d565b610e3d61236d565b60a086205f818152600660205260409020610e57816123c8565b6080880151610e73906001600160a01b03168989898989612402565b610e7e8188886124ad565b9250610e8b8884336125a7565b6040805188815260208101889052339184917f29ef05caaff9404b7cb6d1c0e9bbae9eaa7ab2541feba1a9c4248594c08156cb910160405180910390a36080880151610ee4906001600160a01b031689898989896125cf565b505095945050505050565b5f546001600160a01b03163314610f67576040517f08c379a000000000000000000000000000000000000000000000000000000000815260206004820152600c60248201527f554e415554484f52495a4544000000000000000000000000000000000000000060448201526064015b60405180910390fd5b600280547fffffffffffffffffffffffff0000000000000000000000000000000000000000166001600160a01b0383169081179091556040517fb4bd8ef53df690b9943d3318996006dbb82a25f54719d8c8035b516a2a5b8acc905f90a250565b6060604051808360051b6020835284602084015260408301925080830190505b85548352602083019250600186019550808310610fe85781810382f35b5f7fc090fc4683624cfc3884e9d8de5eca132f2d0ec062aff75d43c0465d5ceeab235c611055576110557f54e3ca0d0000000000000000000000000000000000000000000000000000000061207d565b610bc982612219565b919050565b335f8181526005602090815260408083206001600160a01b03881680855290835281842087855290925280832085905551919285927fb3fd5071835887567a0671151121894ddccc2842f1d10bedad13e0d17cace9a790610c769087815260200190565b60607fc090fc4683624cfc3884e9d8de5eca132f2d0ec062aff75d43c0465d5ceeab235c15611119576111197f5090d6c60000000000000000000000000000000000000000000000000000000061207d565b61112161266f565b6040517f91dd734600000000000000000000000000000000000000000000000000000000815233906391dd73469061115f9086908690600401615fc9565b5f604051808303815f875af115801561117a573d5f803e3d5ffd5b505050506040513d5f823e601f3d908101601f191682016040526111a19190810190615fdc565b90507f7d4b3164c6e45b97e7d87b7125a44c5828d005af88f9d751cfd78729c5d99a0b5c156111f3576111f37f5212cba10000000000000000000000000000000000000000000000000000000061207d565b610bc9612695565b604082015162ffffff166280000014158061122c575081608001516001600160a01b0316336001600160a01b031614155b1561125a5761125a7f30d216410000000000000000000000000000000000000000000000000000000061207d565b6112688162ffffff166126ba565b60a082205f818152600660205260409020610d0190836126f9565b335f8181526003602090815260408083206001600160a01b03871680855290835281842080547fffffffffffffffffffffffffffffffffffffffffffffffffffffffffffffff001687151590811790915591519182529293917fceb576d9f15e4e200fdb5096d64d5dfd667e16def20c1eefd14256d8e3faa267910160405180910390a350600192915050565b5f807fc090fc4683624cfc3884e9d8de5eca132f2d0ec062aff75d43c0465d5ceeab235c611361576113617f54e3ca0d0000000000000000000000000000000000000000000000000000000061207d565b61136961236d565b60a086205f818152600660205260409020611383816123c8565b608088015161139e906001600160a01b031689898989612752565b5f6114056040518060c00160405280336001600160a01b031681526020018a5f015160020b81526020018a6020015160020b81526020016113e28b604001516128b0565b600f0b81526060808d015160020b60208301528b015160409091015283906128e5565b945090506114138185612d1d565b94505050336001600160a01b0316817ff208f4912782fd25c7f114ca3723a2d5dd6f3bcc3ac8db5af63baa85f711d5ec885f015189602001518a604001518b606001516040516114849493929190600294850b81529290930b60208301526040820152606081019190915260800190565b60405180910390a360808701515f906114ab906001600160a01b0316898987878b8b612d50565b909450905080156114c5576114c588828a608001516125a7565b6114d08885336125a7565b505094509492505050565b5f6114e461236d565b6060830151617fff60029190910b1315611528576060830151611528907fb70024f80000000000000000000000000000000000000000000000000000000090612ed1565b600160020b836060015160020b121561156b57606083015161156b907fe9e905880000000000000000000000000000000000000000000000000000000090612ed1565b825160208401516001600160a01b039081169116106115b657825160208401516115b6917f6e6c98300000000000000000000000000000000000000000000000000000000091612ee0565b6115da836040015184608001516001600160a01b0316612f0990919063ffffffff16565b61160e57608083015161160e907fe65af6a00000000000000000000000000000000000000000000000000000000090612fca565b5f611621846040015162ffffff16612fdf565b608085015190915061163d906001600160a01b03168585613004565b60a084205f81815260066020526040902061165990858461309f565b925084602001516001600160a01b0316855f01516001600160a01b0316827fdd466e674ea557f56295e2d0218a125ea4b4f0f6f3307b95f85e6110838d6438886040015189606001518a608001518a8a6040516116ed95949392919062ffffff959095168552600293840b60208601526001600160a01b03928316604086015291166060840152900b608082015260a00190565b60405180910390a4608085015161170f906001600160a01b031686868661313d565b505092915050565b61174a60405180606001604052805f6fffffffffffffffffffffffffffffffff1681526020015f81526020015f81525090565b505f91825260066020818152604080852093855292909101815291819020815160608101835281546fffffffffffffffffffffffffffffffff168152600182015493810193909352600201549082015290565b6117d060405180606001604052805f6fffffffffffffffffffffffffffffffff1681526020015f81526020015f81525090565b5f868152600660208181526040808420815160268101889052808501899052600381018a90528a8152603a600c820120818401879052818501879052908690528552909201905290206040805160608101825282546fffffffffffffffffffffffffffffffff16815260018301546020820152600290920154908201529695505050505050565b6002546001600160a01b03163314611892576118927f48f5c3ed0000000000000000000000000000000000000000000000000000000061207d565b6103e9610fff821610623e900062fff000831610166118da576118da7fa7abe2f70000000000000000000000000000000000000000000000000000000062ffffff8316612fca565b60a082206118fc826118f6835f90815260066020526040902090565b906131da565b60405162ffffff8316815281907fe9c42593e71f84403b84352cd168d693e2c9fcd1fdbcc3feb21d92b43e6696f99060200160405180910390a2505050565b7fc090fc4683624cfc3884e9d8de5eca132f2d0ec062aff75d43c0465d5ceeab235c61198a5761198a7f54e3ca0d0000000000000000000000000000000000000000000000000000000061207d565b335f9081526001600160a01b038316602052604081205c906119ab83612085565b90508181600f0b146119e0576119e07fbda73abf0000000000000000000000000000000000000000000000000000000061207d565b610dd584825f03336120ca565b6002545f906001600160a01b03163314611a2a57611a2a7f48f5c3ed0000000000000000000000000000000000000000000000000000000061207d565b6001600160a01b03831615158015611a6e57506001600160a01b037f27e098c505d44ec3574004bca052aabf76bd35004c182099d8c575fb238593b95c8116908416145b15611a9c57611a9c7fc79e59480000000000000000000000000000000000000000000000000000000061207d565b8115611aa85781611ac1565b6001600160a01b0383165f908152600160205260409020545b6001600160a01b0384165f90815260016020526040812080549293508392909190611aed908490615f7a565b90915550610c8290506001600160a01b0384168583612116565b606060405180602082528360208301526040820191508360051b8201855b80355c845260209384019301818410611b25575b5081810382f35b6001600160a01b038116611b5957611b5661322e565b50565b5f611b6c826001600160a01b0316613253565b9050611b7882826132e8565b5050565b5f838152600660208181526040808420868552909201905290208190611ba28282616070565b5050505050565b606060405180602082528360208301526040820191508360051b8201855b80355484526020938401930181841015611b3957611bc7565b5f838152600660209081526040808320600286900b845260040190915290208190611ba282826160ce565b5f815c5f5260205ff35b5f546001600160a01b03163314611c88576040517f08c379a000000000000000000000000000000000000000000000000000000000815260206004820152600c60248201527f554e415554484f52495a454400000000000000000000000000000000000000006044820152606401610f5e565b5f80547fffffffffffffffffffffffff0000000000000000000000000000000000000000166001600160a01b0383169081178255604051909133917f8be0079c531659141344cd1fd0a4f28419497f9722a3daafe3b4186f6b6457e09190a350565b5f7fc090fc4683624cfc3884e9d8de5eca132f2d0ec062aff75d43c0465d5ceeab235c611d3a57611d3a7f54e3ca0d0000000000000000000000000000000000000000000000000000000061207d565b611d4261236d565b83602001515f03611d7657611d767fbe8b85070000000000000000000000000000000000000000000000000000000061207d565b60a085205f818152600660205260409020611d90816123c8565b60808701515f9081908190611db1906001600160a01b03168b8b8b8b61333b565b809350819550829450505050611e2084866040518060a001604052808681526020018e6060015160020b81526020018d5f0151151581526020018d604001516001600160a01b031681526020018562ffffff168152508c5f0151611e19578d602001516134b7565b8d516134b7565b60808b01519096505f9250611e4491506001600160a01b03168a8a888b8b8861359e565b90955090508015611e5e57611e5e89828b608001516125a7565b611e698986336125a7565b50505050949350505050565b7fc090fc4683624cfc3884e9d8de5eca132f2d0ec062aff75d43c0465d5ceeab235c611ec457611ec47f54e3ca0d0000000000000000000000000000000000000000000000000000000061207d565b81611ed881611ed284612085565b336120ca565b610dd5846001600160a01b038316846136ff565b5f336001600160a01b03861614801590611f2957506001600160a01b0385165f90815260036020908152604080832033845290915290205460ff16155b15611fb8576001600160a01b0385165f90815260056020908152604080832033845282528083208684529091529020547fffffffffffffffffffffffffffffffffffffffffffffffffffffffffffffffff8114611fb657611f8a8382615f7a565b6001600160a01b0387165f90815260056020908152604080832033845282528083208884529091529020555b505b6001600160a01b0385165f90815260046020908152604080832086845290915281208054849290611fea908490615f7a565b90915550506001600160a01b0384165f90815260046020908152604080832086845290915281208054849290612021908490615f8d565b9091555050604080513381526020810184905284916001600160a01b0380881692908916917f1b3d7edb2e9c0b0e7c525b20aaaef0f5940d2ed71663c7d39266ecafac728859910160405180910390a45060015b949350505050565b805f5260045ffd5b5f6f8000000000000000000000000000000082106120c6576120c67f93dafdf10000000000000000000000000000000000000000000000000000000061207d565b5090565b81600f0b5f036120d957505050565b5f806120ef6001600160a01b03861684866137dc565b91509150805f0361210757612102613815565b611ba2565b815f03611ba257611ba2613863565b5f6001600160a01b038416612164575f805f8085875af190508061215f5761215f835f7ff4b3b1bc000000000000000000000000000000000000000000000000000000006138b1565b610dd5565b6040517fa9059cbb0000000000000000000000000000000000000000000000000000000081526001600160a01b038416600482015282602482015260205f6044835f895af13d15601f3d1160015f511416171691505f81525f60208201525f60408201525080610dd557610dd5847fa9059cbb000000000000000000000000000000000000000000000000000000007ff27f64e4000000000000000000000000000000000000000000000000000000006138b1565b5f7f27e098c505d44ec3574004bca052aabf76bd35004c182099d8c575fb238593b95c6001600160a01b038116612252573491506122cf565b3415612281576122817fb0ec849e0000000000000000000000000000000000000000000000000000000061207d565b7f1e0745a7db1623981f0b2a5d4232364c00787266eb75ad546f190e6cebe9bd955c5f6122b66001600160a01b038416613253565b90506122c28282615f7a565b93506122cc61322e565b50505b6122e2816122dc84612085565b856120ca565b50919050565b6001600160a01b0383165f9081526004602090815260408083208584529091528120805483929061231a908490615f8d565b9091555050604080513381526020810183905283916001600160a01b038616915f917f1b3d7edb2e9c0b0e7c525b20aaaef0f5940d2ed71663c7d39266ecafac72885991015b60405180910390a4505050565b306001600160a01b037f000000000000000000000000000000000000000000000000000000000000000016146123c6576123c67f0d89438e0000000000000000000000000000000000000000000000000000000061207d565b565b80546001600160a01b03165f03611b5657611b567f486aa3070000000000000000000000000000000000000000000000000000000061207d565b85336001600160a01b038216146124a45760208716156124a4576124a233878787878760405160240161243a9695949392919061617e565b60408051601f198184030181529190526020810180517bffffffffffffffffffffffffffffffffffffffffffffffffffffffff167fb6a8b0fa000000000000000000000000000000000000000000000000000000001790526001600160a01b03891690613972565b505b50505050505050565b60038301545f906fffffffffffffffffffffffffffffffff168082036124f6576124f67fa74f97ab0000000000000000000000000000000000000000000000000000000061207d565b61252d61250285612085565b5f0361250d85612085565b5f0360809190911b6fffffffffffffffffffffffffffffffff9091161790565b91508315612567576001850180546fffffffffffffffffffffffffffffffff83167001000000000000000000000000000000008702040190555b821561259f576002850180546fffffffffffffffffffffffffffffffff83167001000000000000000000000000000000008602040190555b509392505050565b82516125bd906125b78460801d90565b836120ca565b610d0183602001516125b784600f0b90565b85336001600160a01b038216146124a45760108716156124a4576124a23387878787876040516024016126079695949392919061617e565b60408051601f198184030181529190526020810180517bffffffffffffffffffffffffffffffffffffffffffffffffffffffff167fe1b4af69000000000000000000000000000000000000000000000000000000001790526001600160a01b03891690613972565b60017fc090fc4683624cfc3884e9d8de5eca132f2d0ec062aff75d43c0465d5ceeab235d565b5f7fc090fc4683624cfc3884e9d8de5eca132f2d0ec062aff75d43c0465d5ceeab235d565b620f424062ffffff82161115611b5657611b567f140021130000000000000000000000000000000000000000000000000000000062ffffff8316612fca565b612702826123c8565b81547fffffff000000ffffffffffffffffffffffffffffffffffffffffffffffffffff167cffffff000000000000000000000000000000000000000000000000000060d083901b16175b90915550565b84336001600160a01b038216146128a8575f84604001511380156127795750610800861615155b1561280857612802338686868660405160240161279a959493929190616216565b60408051601f198184030181529190526020810180517bffffffffffffffffffffffffffffffffffffffffffffffffffffffff167f259982e5000000000000000000000000000000000000000000000000000000001790526001600160a01b03881690613972565b506128a8565b5f84604001511315801561281f5750610200861615155b156128a8576124a43386868686604051602401612840959493929190616216565b60408051601f198184030181529190526020810180517bffffffffffffffffffffffffffffffffffffffffffffffffffffffff167f21d0ee70000000000000000000000000000000000000000000000000000000001790526001600160a01b03881690613972565b505050505050565b80600f81900b811461105e5761105e7f93dafdf10000000000000000000000000000000000000000000000000000000061207d565b6060810151602082015160408301515f92839290916129048282613a6e565b604080516080810182525f80825260208201819052918101829052606081019190915283600f0b5f14612ad45761293d8884865f613b35565b6fffffffffffffffffffffffffffffffff166020830152151581526129658883866001613b35565b6fffffffffffffffffffffffffffffffff166060830152151560408201525f600f85900b12612a995760808701515f9060020b7ffffffffffffffffffffffffffffffffffffffffffffffffffffffffffff2761881810783139082900503620d89e891909105036001016fffffffffffffffffffffffffffffffff049050806fffffffffffffffffffffffffffffffff1682602001516fffffffffffffffffffffffffffffffff161115612a3d57612a3d7fb8e3c3850000000000000000000000000000000000000000000000000000000085612ed1565b806fffffffffffffffffffffffffffffffff1682606001516fffffffffffffffffffffffffffffffff161115612a9757612a977fb8e3c3850000000000000000000000000000000000000000000000000000000084612ed1565b505b805115612ab5576080870151612ab59060058a01908590613c1e565b806040015115612ad4576080870151612ad49060058a01908490613c1e565b5f80612ae18a8686613c70565b8a5160a08c015160408051602681019290925260068083018a9052600383018b9052928252603a600c8301205f838301819052602080850182905293819052908152928f01909152812092945090925080612b3e838a8787613d24565b91509150612b73612b4e83612085565b612b5783612085565b6fffffffffffffffffffffffffffffffff1660809190911b1790565b995050505050505f84600f0b1215612bdc57805115612baf57600283810b5f90815260048a016020526040812081815560018101829055909101555b806040015115612bdc57600282810b5f90815260048a016020526040812081815560018101829055909101555b5082600f0b5f14612d135786545f80612bf88360a01c60020b90565b6001600160a01b038416915091508460020b8260020b1215612c4757612c40612c3a612c35612c2688613e55565b612c2f88613e55565b8a614152565b6128b0565b60801b90565b9750612d0f565b8360020b8260020b1215612cea57612c7e612c68612c3583612c2f88613e55565b612b57612c35612c7789613e55565b858b61418a565b60038b0154909850612ca2906fffffffffffffffffffffffffffffffff16876141b6565b60038b0180547fffffffffffffffffffffffffffffffff00000000000000000000000000000000166fffffffffffffffffffffffffffffffff92909216919091179055612d0f565b612d0c5f612b57612c35612cfd89613e55565b612d0689613e55565b8b61418a565b97505b5050505b5050509250929050565b5f608082811d9084901d01600f83810b9085900b01612d47612d3e836128b0565b612b57836128b0565b95945050505050565b5f806001600160a01b0389163303612d6c57508490505f612ec5565b8591505f87604001511315612e2957610400891615612e2457612e1533898989898989604051602401612da597969594939291906162c4565b60408051601f198184030181529190526020810180517bffffffffffffffffffffffffffffffffffffffffffffffffffffffff167f9f063efc0000000000000000000000000000000000000000000000000000000017905260028b1615155b6001600160a01b038c1691906141e6565b9050612e218282614240565b91505b612ec5565b610100891615612ec557612eb633898989898989604051602401612e5397969594939291906162c4565b60408051601f198184030181529190526020810180517bffffffffffffffffffffffffffffffffffffffffffffffffffffffff167f6c2bbe7e0000000000000000000000000000000000000000000000000000000017905260018b161515612e04565b9050612ec28282614240565b91505b97509795505050505050565b815f528060020b60045260245ffd5b6040518381526001600160a01b03831660048201526001600160a01b0382166024820152604481fd5b5f60808316158015612f1d57506008831615155b15612f2957505f610bc9565b60408316158015612f3c57506004831615155b15612f4857505f610bc9565b6104008316158015612f5c57506002831615155b15612f6857505f610bc9565b6101008316158015612f7c57506001831615155b15612f8857505f610bc9565b6001600160a01b03831615612fb957613fff8316151580612fb457506280000062ffffff831614610c82565b610c82565b5062ffffff16628000001415919050565b815f526001600160a01b03811660045260245ffd5b5f6280000062ffffff831603612ff657505f919050565b6120c68262ffffff166126ba565b82336001600160a01b03821614610dd557612000841615610dd557611ba233848460405160240161303793929190616380565b60408051601f198184030181529190526020810180517bffffffffffffffffffffffffffffffffffffffffffffffffffffffff167fdc98354e000000000000000000000000000000000000000000000000000000001790526001600160a01b03861690613972565b82545f906001600160a01b0316156130da576130da7f7983c0510000000000000000000000000000000000000000000000000000000061207d565b6130e383614261565b90507cffffff000000000000000000000000000000000000000000000000000060d083901b166001600160a01b03841660a083901b76ffffff00000000000000000000000000000000000000001617179093555090919050565b83336001600160a01b03821614611ba257611000851615611ba2576128a8338585856040516024016131729493929190616402565b60408051601f198184030181529190526020810180517bffffffffffffffffffffffffffffffffffffffffffffffffffffffff167f6fe7e6eb000000000000000000000000000000000000000000000000000000001790526001600160a01b03871690613972565b6131e3826123c8565b81547fffffffffffff000000ffffffffffffffffffffffffffffffffffffffffffffff1679ffffff000000000000000000000000000000000000000000000060b883901b161761274c565b5f7f27e098c505d44ec3574004bca052aabf76bd35004c182099d8c575fb238593b95d565b5f6001600160a01b038216613269575047919050565b6040517f70a082310000000000000000000000000000000000000000000000000000000081523060048201526001600160a01b038316906370a0823190602401602060405180830381865afa1580156132c4573d5f803e3d5ffd5b505050506040513d601f19601f82011682018060405250810190610bc9919061648f565b6001600160a01b0382167f27e098c505d44ec3574004bca052aabf76bd35004c182099d8c575fb238593b95d807f1e0745a7db1623981f0b2a5d4232364c00787266eb75ad546f190e6cebe9bd955d5050565b60208301515f806001600160a01b038816330361335a575f91506134ac565b60808816156134ac575f6133de89338a8a8a8a6040516024016133819594939291906164a6565b60408051601f198184030181529190526020810180517bffffffffffffffffffffffffffffffffffffffffffffffffffffffff167f575e24b400000000000000000000000000000000000000000000000000000000179052613972565b90508051606014613412576134127f1e048e1d0000000000000000000000000000000000000000000000000000000061207d565b604088015162ffffff16628000000361342d57606081015191505b60088916156134aa57604081015192505f6134488460801d90565b905080600f0b5f146134a8575f8512613465600f83900b8761654d565b955080613474575f8612613478565b5f86135b156134a6576134a67ffa0b71d60000000000000000000000000000000000000000000000000000000061207d565b505b505b505b955095509592505050565b5f808080806134c6898861455e565b93509350935093505f8311156134f4576001600160a01b0386165f9081526001602052604090208054840190555b33887f40e9cecb9f5f1f1c5b9c97dec2917b7ee92e57ba5563708daca94dd84ad7112f6135218760801d90565b61352b88600f0b90565b85516040808801516020808a01518351600f97880b81529590960b908501526001600160a01b03909216908301526fffffffffffffffffffffffffffffffff16606082015260029190910b608082015262ffffff861660a082015260c00160405180910390a35091979650505050505050565b5f806001600160a01b03891633036135ba57508490505f612ec5565b5f6135c58460801d90565b90505f6135d285600f0b90565b905060408b161561367a5761366d612c35338c8c8c8c8c6040516024016135fe9695949392919061656c565b60408051601f198184030181529190526020810180517bffffffffffffffffffffffffffffffffffffffffffffffffffffffff167fb47b2fb10000000000000000000000000000000000000000000000000000000017905260048e1615156001600160a01b038f1691906141e6565b613677908261661a565b90505b5f81600f0b5f141580613690575082600f0b5f14155b156136ed57895160208b01515f13901515146136c4576fffffffffffffffffffffffffffffffff8316608083901b176136de565b6fffffffffffffffffffffffffffffffff8216608084901b175b90506136ea8982614240565b98505b979b979a509698505050505050505050565b336001600160a01b038416811480159061373e57506001600160a01b038085165f9081526003602090815260408083209385168352929052205460ff16155b156137d1576001600160a01b038085165f9081526005602090815260408083209385168352928152828220868352905220547fffffffffffffffffffffffffffffffffffffffffffffffffffffffffffffffff81146137cf576137a18382615f7a565b6001600160a01b038087165f9081526005602090815260408083209387168352928152828220888352905220555b505b610dd5848484614d11565b6001600160a01b038281165f90815290841660205260408120805c9190613807600f85900b8461654d565b915081815d50935093915050565b7f7d4b3164c6e45b97e7d87b7125a44c5828d005af88f9d751cfd78729c5d99a0b5c600181039050807f7d4b3164c6e45b97e7d87b7125a44c5828d005af88f9d751cfd78729c5d99a0b5d50565b7f7d4b3164c6e45b97e7d87b7125a44c5828d005af88f9d751cfd78729c5d99a0b5c600181019050807f7d4b3164c6e45b97e7d87b7125a44c5828d005af88f9d751cfd78729c5d99a0b5d50565b6040517f90bfb865000000000000000000000000000000000000000000000000000000008082526001600160a01b03851660048301527fffffffff0000000000000000000000000000000000000000000000000000000084166024830152608060448301526020601f3d018190040260a0810160648401523d608484015290913d5f60a483013e60048260a4018201527fffffffff0000000000000000000000000000000000000000000000000000000084168260c4018201528160e40181fd5b60605f805f8451602086015f885af19050806139bb576139bb8461399585616668565b7fa9e35b2f000000000000000000000000000000000000000000000000000000006138b1565b6040519150601f19603f3d011682016040523d82523d5f602084013e602082511080613a39575060208301517fffffffff0000000000000000000000000000000000000000000000000000000016613a14836020015190565b7fffffffff000000000000000000000000000000000000000000000000000000001614155b15613a6757613a677f1e048e1d0000000000000000000000000000000000000000000000000000000061207d565b5092915050565b8060020b8260020b12613aa657613aa67fc4433ed5000000000000000000000000000000000000000000000000000000008383614d8d565b7ffffffffffffffffffffffffffffffffffffffffffffffffffffffffffff27618600283900b1215613afc57613afc7fd5e2f7ab0000000000000000000000000000000000000000000000000000000083612ed1565b620d89e8600282900b1315611b7857611b787f1ad777f80000000000000000000000000000000000000000000000000000000082612ed1565b600283900b5f908152600485016020526040812080548291906fffffffffffffffffffffffffffffffff8116907001000000000000000000000000000000009004600f0b613b8382886141b6565b6fffffffffffffffffffffffffffffffff808216159084168015919091141596509094505f03613bd657885460a01c60020b60020b8860020b13613bd6576001808a0154908401556002808a0154908401555b5f86613beb57613be6888361661a565b613bf5565b613bf588836166d4565b90508060801b6fffffffffffffffffffffffffffffffff86161784555050505094509492505050565b600291820b910b80820715613c4b5760405163d4d8f3e681528260208201528160408201526044601c8201fd5b80820591508160081d5f528260205260405f20600160ff84161b815418815550505050565b600282810b5f81815260048601602052604080822085850b83529082208754929485949293919260a09290921c900b90811215613cc6578160010154836001015403945081600201548360020154039350613d19565b8560020b8160020b12613cf2578260010154826001015403945082600201548260020154039350613d19565b81600101548360010154896001015403039450816002015483600201548960020154030393505b505050935093915050565b83545f9081906fffffffffffffffffffffffffffffffff16600f86900b8203613d8e57806fffffffffffffffffffffffffffffffff165f03613d8957613d897faefeb9240000000000000000000000000000000000000000000000000000000061207d565b613dd5565b613d9881876141b6565b87547fffffffffffffffffffffffffffffffff00000000000000000000000000000000166fffffffffffffffffffffffffffffffff919091161787555b613e0987600101548603826fffffffffffffffffffffffffffffffff16700100000000000000000000000000000000614daa565b9250613e3f87600201548503826fffffffffffffffffffffffffffffffff16700100000000000000000000000000000000614daa565b6001880195909555505060029094015591929050565b60020b5f60ff82901d80830118620d89e8811115613e9757613e977f8b86327a0000000000000000000000000000000000000000000000000000000084612ed1565b7001fffcb933bd6fad37aa2d162d1a5940016001821602700100000000000000000000000000000000186002821615613ee0576ffff97272373d413259a46990580e213a0260801c5b6004821615613eff576ffff2e50f5f656932ef12357cf3c7fdcc0260801c5b6008821615613f1e576fffe5caca7e10e4e61c3624eaa0941cd00260801c5b6010821615613f3d576fffcb9843d60f6159c9db58835c9266440260801c5b6020821615613f5c576fff973b41fa98c081472e6896dfb254c00260801c5b6040821615613f7b576fff2ea16466c96a3843ec78b326b528610260801c5b6080821615613f9a576ffe5dee046a99a2a811c461f1969c30530260801c5b610100821615613fba576ffcbe86c7900a88aedcffc83b479aa3a40260801c5b610200821615613fda576ff987a7253ac413176f2b074cf7815e540260801c5b610400821615613ffa576ff3392b0822b70005940c7a398e4b70f30260801c5b61080082161561401a576fe7159475a2c29b7443b29c7fa6e889d90260801c5b61100082161561403a576fd097f3bdfd2022b8845ad8f792aa58250260801c5b61200082161561405a576fa9f746462d870fdf8a65dc1f90e061e50260801c5b61400082161561407a576f70d869a156d2a1b890bb3df62baf32f70260801c5b61800082161561409a576f31be135f97d08fd981231505542fcfa60260801c5b620100008216156140bb576f09aa508b5b7a84e1c677de54f3e99bc90260801c5b620200008216156140db576e5d6af8dedb81196699c329225ee6040260801c5b620400008216156140fa576d2216e584f5fa1ea926041bedfe980260801c5b62080000821615614117576b048a170391f7dc42444e8fa20260801c5b5f841315614142577fffffffffffffffffffffffffffffffffffffffffffffffffffffffffffffffff045b63ffffffff0160201c9392505050565b5f8082600f0b126141795761417261416d8585856001614e65565b614f3a565b5f03612075565b61207561416d8585855f035f614e65565b5f8082600f0b126141a55761417261416d8585856001614f6c565b61207561416d8585855f035f614f6c565b6fffffffffffffffffffffffffffffffff8216600f82900b01608081901c15610bc9576393dafdf15f526004601cfd5b5f806141f28585613972565b905082614202575f915050610c82565b8051604014614234576142347f1e048e1d0000000000000000000000000000000000000000000000000000000061207d565b60400151949350505050565b5f608082811d9084901d03600f83810b9085900b03612d47612d3e836128b0565b5f73fffd8963efd1fc6a506488495d951d51639616827ffffffffffffffffffffffffffffffffffffffffffffffffffffffffefffd895d83016001600160a01b031611156142d3576142d37f614875240000000000000000000000000000000000000000000000000000000083612fca565b77ffffffffffffffffffffffffffffffffffffffff00000000602083901b16805f6142fd82614fca565b60ff1690506080811061431857607f810383901c9150614322565b80607f0383901b91505b908002607f81811c60ff83811c9190911c800280831c81831c1c800280841c81841c1c800280851c81851c1c800280861c81861c1c800280871c81871c1c800280881c81881c1c800280891c81891c1c8002808a1c818a1c1c8002808b1c818b1c1c8002808c1c818c1c1c8002808d1c818d1c1c8002808e1c9c81901c9c909c1c80029c8d901c9e9d7fffffffffffffffffffffffffffffffffffffffffffffffffffffffffffffff808f0160401b60c09190911c678000000000000000161760c19b909b1c674000000000000000169a909a1760c29990991c672000000000000000169890981760c39790971c671000000000000000169690961760c49590951c670800000000000000169490941760c59390931c670400000000000000169290921760c69190911c670200000000000000161760c79190911c670100000000000000161760c89190911c6680000000000000161760c99190911c6640000000000000161760ca9190911c6620000000000000161760cb9190911c6610000000000000161760cc9190911c6608000000000000161760cd9190911c66040000000000001617693627a301d71055774c8581027ffffffffffffffffffffffffffffffffffd709b7e5480fba5a50fed5e62ffc5568101608090811d906fdb2df09e81959a81455e260799a0632f8301901d600281810b9083900b1461454f57886001600160a01b031661453482613e55565b6001600160a01b031611156145495781614551565b80614551565b815b9998505050505050505050565b604080516060810182525f8082526020820181905291810182905281908190855460408601515f8161459857610fff60c484901c166145a2565b610fff60b884901c165b88516001600160a01b038516865261ffff9190911691505f60a085901c60020b60020b602087015260038b01546fffffffffffffffffffffffffffffffff16604087015260808a01515f9062400000166146055760d086901c62ffffff16614617565b6146178b6080015162ffffff1661505e565b9050831561463d57620f4240610fff851662ffffff83168181029290920491010361463f565b805b975050620f42408762ffffff16106146835789515f1215614683576146837f962062460000000000000000000000000000000000000000000000000000000061207d565b89515f0361469b575f80985098505050505050614d08565b831561474a5760608a01516001600160a01b038681169116106146f3576146f36001600160a01b0386165b60608c01517f7c9c6e8f000000000000000000000000000000000000000000000000000000009190612ee0565b6401000276a36001600160a01b03168a606001516001600160a01b0316116147455760608a0151614745907f9e4d7cc70000000000000000000000000000000000000000000000000000000090612fca565b6147d4565b60608a01516001600160a01b03868116911611614773576147736001600160a01b0386166146c6565b73fffd8963efd1fc6a506488495d951d5263988d266001600160a01b03168a606001516001600160a01b0316106147d45760608a01516147d4907f9e4d7cc70000000000000000000000000000000000000000000000000000000090612fca565b60408051610100810182525f80825260208201819052918101829052606081018290526080810182905260a0810182905260c0810182905260e081019190915284614823578b60020154614829565b8b600101545b60e08201525b82158061485457508a606001516001600160a01b0316875f01516001600160a01b0316145b614ba15786516001600160a01b03168152602080880151908c015161487e9160058f01918861506d565b1515604083015260020b602082018190527ffffffffffffffffffffffffffffffffffffffffffffffffffffffffffff27618126148dc577ffffffffffffffffffffffffffffffffffffffffffffffffffffffffffff2761860208201525b620d89e860020b816020015160020b126148fa57620d89e860208201525b6149078160200151613e55565b6001600160a01b0390811660608381018290528951908e0151614944939192911680821891811160018a161891909102188960400151868c615198565b60c085015260a084015260808301526001600160a01b031687528a515f12156149a0576149748160a00151614f3a565b8303925061498f8160c00151826080015161416d9190615f8d565b6149999083616722565b91506149d1565b6149b38160c00151826080015101614f3a565b830192506149c48160a00151614f3a565b6149ce908361654d565b91505b8315614a20575f848962ffffff1614614a0857620f4240858360c001518460800151010281614a0257614a02616741565b04614a0e565b8160c001515b60c08301805182900390529990990198505b60408701516fffffffffffffffffffffffffffffffff1615614a7f57614a738160c0015170010000000000000000000000000000000089604001516fffffffffffffffffffffffffffffffff1691020490565b60e08201805190910190525b80606001516001600160a01b0316875f01516001600160a01b031603614b7b57806040015115614b56575f8086614abf578d600101548360e00151614aca565b8260e001518e600201545b915091505f614b228f85602001518585600292830b5f908152600490940160205260409093206001810180549092039091559081018054909203909155547001000000000000000000000000000000009004600f0b90565b90508715614b2d575f035b614b3b8a60400151826141b6565b6fffffffffffffffffffffffffffffffff1660408b01525050505b84614b65578060200151614b6e565b60018160200151035b60020b602088015261482f565b805187516001600160a01b03908116911614614b9c578651614b6e90614261565b61482f565b86516020880151614c299190614bf890899060a01b76ffffff0000000000000000000000000000000000000000167fffffffffffffffffff000000ffffffffffffffffffffffffffffffffffffffff919091161790565b7fffffffffffffffffffffffff0000000000000000000000000000000000000000166001600160a01b039091161790565b8c55604087015160038d01546fffffffffffffffffffffffffffffffff908116911614614c9857604087015160038d0180547fffffffffffffffffffffffffffffffff00000000000000000000000000000000166fffffffffffffffffffffffffffffffff9092169190911790555b84614cac5760e081015160028d0155614cb7565b60e081015160018d01555b8a515f1385151514614ce457614cdd614ccf836128b0565b612b57858e5f0151036128b0565b9950614d01565b614cfe614cf5848d5f0151036128b0565b612b57846128b0565b99505b5050505050505b92959194509250565b6001600160a01b0383165f90815260046020908152604080832085845290915281208054839290614d43908490615f7a565b9091555050604080513381526020810183905283915f916001600160a01b038716917f1b3d7edb2e9c0b0e7c525b20aaaef0f5940d2ed71663c7d39266ecafac7288599101612360565b6040518381528260020b60048201528160020b6024820152604481fd5b5f838302817fffffffffffffffffffffffffffffffffffffffffffffffffffffffffffffffff85870982811083820303915050808411614de8575f80fd5b805f03614dfa57508290049050610c82565b5f848688095f868103871696879004966002600389028118808a02820302808a02820302808a02820302808a02820302808a02820302808a02909103029181900381900460010186841190950394909402919094039290920491909117919091029150509392505050565b5f836001600160a01b0316856001600160a01b03161115614e84579293925b6001600160a01b038516614e9e5762bfc9215f526004601cfd5b7bffffffffffffffffffffffffffffffff000000000000000000000000606084901b166001600160a01b038686031683614f0357866001600160a01b0316614ef08383896001600160a01b0316614daa565b81614efd57614efd616741565b04614f2f565b614f2f614f1a8383896001600160a01b03166152fb565b886001600160a01b0316808204910615150190565b979650505050505050565b805f81121561105e5761105e7f93dafdf10000000000000000000000000000000000000000000000000000000061207d565b5f6001600160a01b038481169086160360ff81901d908101186c010000000000000000000000006fffffffffffffffffffffffffffffffff8516614fb1818484614daa565b9350845f83858409111684019350505050949350505050565b5f808211614fd6575f80fd5b507f0706060506020500060203020504000106050205030304010505030400000000601f6f8421084210842108cc6318c6db6d54be6fffffffffffffffffffffffffffffffff841160071b84811c67ffffffffffffffff1060061b1784811c63ffffffff1060051b1784811c61ffff1060041b1784811c60ff1060031b1793841c1c161a1790565b62bfffff811661105e816126ba565b5f80600284810b9086900b818107831391900503831561510b57600281900b60081d600181900b5f908152602089905260409020547fffffffffffffffffffffffffffffffffffffffffffffffffffffffffffffffff60ff808516908190039190911c9182168015159550909190856150ed57888360ff16860302615100565b886150f782614fca565b840360ff168603025b96505050505061518e565b6001908101600281900b60081d80830b5f90815260208a905260409020547fffffffffffffffffffffffffffffffffffffffffffffffffffffffffffffffff60ff841694851b01199081168015159550929391928561517457888360ff0360ff16860102615187565b888361517f8361532b565b0360ff168601025b9650505050505b5094509492505050565b5f80808062ffffff85166001600160a01b03808a16908b161015828812801561526e575f6151d18a5f0385620f424003620f4240614daa565b9050826151ea576151e58d8d8d6001614f6c565b6151f7565b6151f78c8e8d6001614e65565b965086811061522b578b9750620f424084146152225761521d878586620f4240036152fb565b615224565b865b9450615244565b80965061523a8d8c83866153c5565b9750868a5f030394505b8261525a576152558d898d5f614e65565b615266565b615266888e8d5f614f6c565b9550506152ec565b816152845761527f8c8c8c5f614e65565b615290565b6152908b8d8c5f614f6c565b94508489106152a1578a96506152b3565b8894506152b08c8b878561541c565b96505b816152ca576152c58c888c6001614f6c565b6152d7565b6152d7878d8c6001614e65565b95506152e9868485620f4240036152fb565b93505b50505095509550955095915050565b5f615307848484614daa565b9050818061531757615317616741565b83850915610c825760010180610c82575f80fd5b5f808211615337575f80fd5b507e1f0d1e100c1d070f090b19131c1706010e11080a1a141802121b15031604055f8290039091166101e07f804040554300526644320000502061067405302602000010750620017611707760fc7fb6db6db6ddddddddd34d34d349249249210842108c6318c639ce739cffffffff840260f81c161b60f71c1690811c63d76453e004601f169190911a1790565b5f6fffffffffffffffffffffffffffffffff8416156001600160a01b0386161517156153f857634f2461b85f526004601cfd5b8161540f5761540a8585856001615468565b612d47565b612d478585856001615589565b5f6fffffffffffffffffffffffffffffffff8416156001600160a01b03861615171561544f57634f2461b85f526004601cfd5b816154605761540a8585855f615589565b612d478585855f5b5f81156154f3575f6001600160a01b038411156154ae576154a9846c01000000000000000000000000876fffffffffffffffffffffffffffffffff16614daa565b6154ce565b6154ce6fffffffffffffffffffffffffffffffff8616606086901b61676e565b90506154eb6154e6826001600160a01b038916615f8d565b61567d565b915050612075565b5f6001600160a01b038411156155325761552d846c01000000000000000000000000876fffffffffffffffffffffffffffffffff166152fb565b615558565b615558606085901b6fffffffffffffffffffffffffffffffff8716808204910615150190565b9050806001600160a01b0387161161557757634323a5555f526004601cfd5b6001600160a01b038616039050612075565b5f825f03615598575083612075565b7bffffffffffffffffffffffffffffffff000000000000000000000000606085901b16821561563c576001600160a01b038616848102908582816155de576155de616741565b040361560e5781810182811061560c5761560283896001600160a01b0316836152fb565b9350505050612075565b505b506154eb81856156276001600160a01b038a168361676e565b6156319190615f8d565b808204910615150190565b6001600160a01b0386168481029085820414818311166156635763f5c787f15f526004601cfd5b8082036156026154e6846001600160a01b038b16846152fb565b806001600160a01b038116811461105e5761105e7f93dafdf10000000000000000000000000000000000000000000000000000000061207d565b6001600160a01b0381168114611b56575f80fd5b5f80604083850312156156dc575f80fd5b82356156e7816156b7565b946020939093013593505050565b5f60208284031215615705575f80fd5b81357fffffffff0000000000000000000000000000000000000000000000000000000081168114610c82575f80fd5b5f805f60608486031215615746575f80fd5b8335615751816156b7565b95602085013595506040909401359392505050565b5f805f60608486031215615778575f80fd5b8335615783816156b7565b92506020840135615793816156b7565b929592945050506040919091013590565b8035600181900b811461105e575f80fd5b5f805f606084860312156157c7575f80fd5b83359250615793602085016157a4565b5f602082840312156157e7575f80fd5b5035919050565b7f4e487b71000000000000000000000000000000000000000000000000000000005f52604160045260245ffd5b6040516080810167ffffffffffffffff8111828210171561583e5761583e6157ee565b60405290565b604051601f8201601f1916810167ffffffffffffffff8111828210171561586d5761586d6157ee565b604052919050565b803562ffffff8116811461105e575f80fd5b8035600281900b811461105e575f80fd5b5f60a082840312156158a8575f80fd5b60405160a0810167ffffffffffffffff811182821017156158cb576158cb6157ee565b60405290508082356158dc816156b7565b815260208301356158ec816156b7565b60208201526158fd60408401615875565b604082015261590e60608401615887565b60608201526080830135615921816156b7565b6080919091015292915050565b5f8083601f84011261593e575f80fd5b50813567ffffffffffffffff811115615955575f80fd5b60208301915083602082850101111561596c575f80fd5b9250929050565b5f805f805f6101008688031215615988575f80fd5b6159928787615898565b945060a0860135935060c0860135925060e086013567ffffffffffffffff8111156159bb575f80fd5b6159c78882890161592e565b969995985093965092949392505050565b5f602082840312156159e8575f80fd5b8135610c82816156b7565b5f8060408385031215615a04575f80fd5b50508035926020909101359150565b602080825282518282018190525f918401906040840190835b81811015615a4a578351835260209384019390920191600101615a2c565b509095945050505050565b6fffffffffffffffffffffffffffffffff81168114611b56575f80fd5b5f8060408385031215615a83575f80fd5b823591506020830135615a9581615a55565b809150509250929050565b5f8060208385031215615ab1575f80fd5b823567ffffffffffffffff811115615ac7575f80fd5b615ad38582860161592e565b90969095509350505050565b602081525f82518060208401528060208501604085015e5f604082850101526040601f19601f83011684010191505092915050565b5f8060c08385031215615b25575f80fd5b615b2f8484615898565b9150615b3d60a08401615875565b90509250929050565b8035801515811461105e575f80fd5b5f8060408385031215615b66575f80fd5b8235615b71816156b7565b9150615b3d60208401615b46565b5f805f80848603610140811215615b94575f80fd5b615b9e8787615898565b945060807fffffffffffffffffffffffffffffffffffffffffffffffffffffffffffffff6082011215615bcf575f80fd5b50615bd861581b565b615be460a08701615887565b8152615bf260c08701615887565b602082015260e086013560408201526101008601356060820152925061012085013567ffffffffffffffff811115615c28575f80fd5b615c348782880161592e565b95989497509550505050565b5f8060c08385031215615c51575f80fd5b615c5b8484615898565b915060a0830135615a95816156b7565b5f805f805f60a08688031215615c7f575f80fd5b853594506020860135615c91816156b7565b9350615c9f60408701615887565b9250615cad60608701615887565b949793965091946080013592915050565b5f8060408385031215615ccf575f80fd5b82359150615b3d60208401615887565b5f8060208385031215615cf0575f80fd5b823567ffffffffffffffff811115615d06575f80fd5b8301601f81018513615d16575f80fd5b803567ffffffffffffffff811115615d2c575f80fd5b8560208260051b8401011115615d40575f80fd5b6020919091019590945092505050565b5f8060408385031215615d61575f80fd5b8235615d6c816156b7565b91506020830135615a95816156b7565b5f805f83850360a0811215615d8f575f80fd5b843593506020850135925060607fffffffffffffffffffffffffffffffffffffffffffffffffffffffffffffffc082011215615dc9575f80fd5b506040840190509250925092565b5f8060408385031215615de8575f80fd5b82359150615b3d602084016157a4565b5f805f83850360c0811215615e0b575f80fd5b84359350615e1b60208601615887565b925060807fffffffffffffffffffffffffffffffffffffffffffffffffffffffffffffffc082011215615dc9575f80fd5b5f805f80848603610120811215615e61575f80fd5b615e6b8787615898565b945060607fffffffffffffffffffffffffffffffffffffffffffffffffffffffffffffff6082011215615e9c575f80fd5b506040516060810167ffffffffffffffff81118282101715615ec057615ec06157ee565b604052615ecf60a08701615b46565b815260c0860135602082015260e0860135615ee9816156b7565b6040820152925061010085013567ffffffffffffffff811115615c28575f80fd5b5f805f8060808587031215615f1d575f80fd5b8435615f28816156b7565b93506020850135615f38816156b7565b93969395505050506040820135916060013590565b7f4e487b71000000000000000000000000000000000000000000000000000000005f52601160045260245ffd5b81810381811115610bc957610bc9615f4d565b80820180821115610bc957610bc9615f4d565b81835281816020850137505f602082840101525f6020601f19601f840116840101905092915050565b602081525f612075602083018486615fa0565b5f60208284031215615fec575f80fd5b815167ffffffffffffffff811115616002575f80fd5b8201601f81018413616012575f80fd5b805167ffffffffffffffff81111561602c5761602c6157ee565b61603f6020601f19601f84011601615844565b818152856020838501011115616053575f80fd5b8160208401602083015e5f91810160200191909152949350505050565b813561607b81615a55565b81547fffffffffffffffffffffffffffffffff00000000000000000000000000000000166fffffffffffffffffffffffffffffffff82161782555060208201356001820155604090910135600290910155565b81356160d981615a55565b81547fffffffffffffffffffffffffffffffff00000000000000000000000000000000166fffffffffffffffffffffffffffffffff821617825550602082013580600f0b8114616127575f80fd5b81546fffffffffffffffffffffffffffffffff1660809190911b7fffffffffffffffffffffffffffffffff000000000000000000000000000000001617815560408201356001820155606090910135600290910155565b6001600160a01b03871681526161e560208201876001600160a01b0381511682526001600160a01b03602082015116602083015262ffffff6040820151166040830152606081015160020b60608301526001600160a01b0360808201511660808301525050565b8460c08201528360e08201526101206101008201525f61620a61012083018486615fa0565b98975050505050505050565b6001600160a01b038616815261627d60208201866001600160a01b0381511682526001600160a01b03602082015116602083015262ffffff6040820151166040830152606081015160020b60608301526001600160a01b0360808201511660808301525050565b8351600290810b60c08301526020850151900b60e0820152604084015161010082015260608401516101208201526101606101408201525f614f2f61016083018486615fa0565b6001600160a01b038816815261632b60208201886001600160a01b0381511682526001600160a01b03602082015116602083015262ffffff6040820151166040830152606081015160020b60608301526001600160a01b0360808201511660808301525050565b8551600290810b60c08301526020870151900b60e08201526040860151610100820152606086015161012082015284610140820152836101608201526101a06101808201525f6145516101a083018486615fa0565b6001600160a01b038416815260e081016163eb60208301856001600160a01b0381511682526001600160a01b03602082015116602083015262ffffff6040820151166040830152606081015160020b60608301526001600160a01b0360808201511660808301525050565b6001600160a01b03831660c0830152949350505050565b6001600160a01b0385168152610100810161646e60208301866001600160a01b0381511682526001600160a01b03602082015116602083015262ffffff6040820151166040830152606081015160020b60608301526001600160a01b0360808201511660808301525050565b6001600160a01b03841660c08301528260020b60e083015295945050505050565b5f6020828403121561649f575f80fd5b5051919050565b6001600160a01b038616815261650d60208201866001600160a01b0381511682526001600160a01b03602082015116602083015262ffffff6040820151166040830152606081015160020b60608301526001600160a01b0360808201511660808301525050565b8351151560c0820152602084015160e082015260408401516001600160a01b03166101008201526101406101208201525f614f2f61014083018486615fa0565b8082018281125f83128015821682158216171561170f5761170f615f4d565b6001600160a01b03871681526165d360208201876001600160a01b0381511682526001600160a01b03602082015116602083015262ffffff6040820151166040830152606081015160020b60608301526001600160a01b0360808201511660808301525050565b8451151560c0820152602085015160e082015260408501516001600160a01b0316610100820152836101208201526101606101408201525f61620a61016083018486615fa0565b600f81810b9083900b016f7fffffffffffffffffffffffffffffff81137fffffffffffffffffffffffffffffffff8000000000000000000000000000000082121715610bc957610bc9615f4d565b805160208201517fffffffff000000000000000000000000000000000000000000000000000000008116919060048210156166cd577fffffffff00000000000000000000000000000000000000000000000000000000808360040360031b1b82161692505b5050919050565b600f82810b9082900b037fffffffffffffffffffffffffffffffff8000000000000000000000000000000081126f7fffffffffffffffffffffffffffffff82131715610bc957610bc9615f4d565b8181035f831280158383131683831282161715613a6757613a67615f4d565b7f4e487b71000000000000000000000000000000000000000000000000000000005f52601260045260245ffd5b5f826167a1577f4e487b71000000000000000000000000000000000000000000000000000000005f52601260045260245ffd5b50049056fea164736f6c634300081a000a","linkReferences":{}},"methodIdentifiers":{"allowance(address,address,uint256)":"598af9e7","approve(address,uint256,uint256)":"426a8493","balanceOf(address,uint256)":"00fdd58e","burn(address,uint256,uint256)":"f5298aca","clear(address,uint256)":"80f0b44c","collectProtocolFees(address,address,uint256)":"8161b874","donate((address,address,uint24,int24,address),uint256,uint256,bytes)":"234266d7","extsload(bytes32)":"1e2eaeaf","extsload(bytes32,uint256)":"35fd631a","extsload(bytes32[])":"dbd035ff","exttload(bytes32)":"f135baaa","exttload(bytes32[])":"9bf6645f","getBitmapWord(bytes32,int16)":"d19e6350","getPoolState(bytes32)":"d595408a","getPosition(bytes32,address,int24,int24,bytes32)":"7388426b","getPosition(bytes32,bytes32)":"68870299","getTickInfo(bytes32,int24)":"7c40f1fe","initialize((address,address,uint24,int24,address),uint160)":"6276cbbe","isOperator(address,address)":"b6363cf2","mint(address,uint256,uint256)":"156e29f6","modifyLiquidity((address,address,uint24,int24,address),(int24,int24,int256,bytes32),bytes)":"5a6bcfda","owner()":"8da5cb5b","protocolFeeController()":"f02de3b2","protocolFeesAccrued(address)":"97e8cd4e","setBitmapWord(bytes32,int16,uint256)":"0d7750f3","setOperator(address,bool)":"558a7297","setPoolFeeGrowthGlobal0X128(bytes32,uint256)":"6c8d1093","setPoolFeeGrowthGlobal1X128(bytes32,uint256)":"f01da00f","setPoolLiquidity(bytes32,uint128)":"3fa6ed74","setPoolSlot0(bytes32,bytes32)":"515484a4","setPosition(bytes32,bytes32,(uint128,uint256,uint256))":"ba2e868f","setProtocolFee((address,address,uint24,int24,address),uint24)":"7e87ce7d","setProtocolFeeController(address)":"2d771389","setTickInfo(bytes32,int24,(uint128,int128,uint256,uint256))":"dc8fb7a0","settle()":"11da60b4","settleFor(address)":"3dd45adb","supportsInterface(bytes4)":"01ffc9a7","swap((address,address,uint24,int24,address),(bool,int256,uint160),bytes)":"f3cd914c","sync(address)":"a5841194","take(address,address,uint256)":"0b0d9c09","transfer(address,uint256,uint256)":"095bcdb6","transferFrom(address,address,uint256,uint256)":"fe99049a","transferOwnership(address)":"f2fde38b","unlock(bytes)":"48c89491","updateDynamicLPFee((address,address,uint24,int24,address),uint24)":"52759651"},"id":206}