{"abi":[{"type":"constructor","inputs":[{"name":"uniV4_","type":"address","internalType":"contract IPoolManager"}],"stateMutability":"nonpayable"},{"type":"function","name":"modifyLiquidity","inputs":[{"name":"key","type":"tuple","internalType":"struct PoolKey","components":[{"name":"currency0","type":"address","internalType":"Currency"},{"name":"currency1","type":"address","internalType":"Currency"},{"name":"fee","type":"uint24","internalType":"uint24"},{"name":"tickSpacing","type":"int24","internalType":"int24"},{"name":"hooks","type":"address","internalType":"contract IHooks"}]},{"name":"lowerTick","type":"int24","internalType":"int24"},{"name":"upperTick","type":"int24","internalType":"int24"},{"name":"liquidityDelta","type":"int256","internalType":"int256"},{"name":"salt","type":"bytes32","internalType":"bytes32"}],"outputs":[{"name":"","type":"int256","internalType":"BalanceDelta"},{"name":"","type":"int256","internalType":"BalanceDelta"}],"stateMutability":"nonpayable"},{"type":"function","name":"recycle","inputs":[{"name":"asset","type":"address","internalType":"address"}],"outputs":[],"stateMutability":"nonpayable"},{"type":"function","name":"swap","inputs":[{"name":"key","type":"tuple","internalType":"struct PoolKey","components":[{"name":"currency0","type":"address","internalType":"Currency"},{"name":"currency1","type":"address","internalType":"Currency"},{"name":"fee","type":"uint24","internalType":"uint24"},{"name":"tickSpacing","type":"int24","internalType":"int24"},{"name":"hooks","type":"address","internalType":"contract IHooks"}]},{"name":"zeroForOne","type":"bool","internalType":"bool"},{"name":"amountSpecified","type":"int256","internalType":"int256"},{"name":"sqrtPriceLimitX96","type":"uint160","internalType":"uint160"}],"outputs":[{"name":"","type":"int256","internalType":"BalanceDelta"}],"stateMutability":"nonpayable"},{"type":"function","name":"swap","inputs":[{"name":"key","type":"tuple","internalType":"struct PoolKey","components":[{"name":"currency0","type":"address","internalType":"Currency"},{"name":"currency1","type":"address","internalType":"Currency"},{"name":"fee","type":"uint24","internalType":"uint24"},{"name":"tickSpacing","type":"int24","internalType":"int24"},{"name":"hooks","type":"address","internalType":"contract IHooks"}]},{"name":"zeroForOne","type":"bool","internalType":"bool"},{"name":"amountSpecified","type":"int256","internalType":"int256"},{"name":"sqrtPriceLimitX96","type":"uint160","internalType":"uint160"},{"name":"hookData","type":"bytes","internalType":"bytes"}],"outputs":[{"name":"","type":"int256","internalType":"BalanceDelta"}],"stateMutability":"nonpayable"},{"type":"function","name":"transfer","inputs":[{"name":"asset","type":"address","internalType":"address"},{"name":"to","type":"address","internalType":"address"},{"name":"amount","type":"uint256","internalType":"uint256"}],"outputs":[],"stateMutability":"nonpayable"},{"type":"function","name":"unlockCallback","inputs":[{"name":"payload","type":"bytes","internalType":"bytes"}],"outputs":[{"name":"","type":"bytes","internalType":"bytes"}],"stateMutability":"nonpayable"}],"bytecode":{"object":"0x6080604052348015600e575f80fd5b506040516118bc3803806118bc833981016040819052602b91604e565b5f80546001600160a01b0319166001600160a01b03929092169190911790556079565b5f60208284031215605d575f80fd5b81516001600160a01b03811681146072575f80fd5b9392505050565b611836806100865f395ff3fe608060405234801561000f575f80fd5b506004361061006f575f3560e01c806391dd73461161004d57806391dd7346146100d4578063baca0004146100f4578063beabacc814610109575f80fd5b80630495a4a2146100735780630c8658791461009957806340e2a812146100c1575b5f80fd5b610086610081366004610d6e565b61011c565b6040519081526020015b60405180910390f35b6100ac6100a7366004610dcd565b61026c565b60408051928352602083019190915201610090565b6100866100cf366004610e66565b6103b8565b6100e76100e2366004610ee5565b61050f565b6040516100909190610f70565b610107610102366004610f82565b6106bf565b005b610107610117366004610f9d565b6106e3565b5f8054819073ffffffffffffffffffffffffffffffffffffffff166348c894918260f81b8860405180606001604052808a151581526020018981526020018873ffffffffffffffffffffffffffffffffffffffff168152506040516020016101859291906110bf565b604080517fffffffffffffffffffffffffffffffffffffffffffffffffffffffffffffffe0818403018152908290526101c19291602001611106565b6040516020818303038152906040526040518263ffffffff1660e01b81526004016101ec9190610f70565b5f604051808303815f875af1158015610207573d5f803e3d5ffd5b505050506040513d5f823e601f3d9081017fffffffffffffffffffffffffffffffffffffffffffffffffffffffffffffffe016820160405261024c9190810190611209565b9050808060200190518101906102629190611283565b9695505050505050565b5f80548190819073ffffffffffffffffffffffffffffffffffffffff166348c89491600260f81b8a60405180608001604052808c60020b81526020018b60020b81526020018a8152602001898152506040516020016102cc92919061129a565b604080517fffffffffffffffffffffffffffffffffffffffffffffffffffffffffffffffe0818403018152908290526103089291602001611106565b6040516020818303038152906040526040518263ffffffff1660e01b81526004016103339190610f70565b5f604051808303815f875af115801561034e573d5f803e3d5ffd5b505050506040513d5f823e601f3d9081017fffffffffffffffffffffffffffffffffffffffffffffffffffffffffffffffe01682016040526103939190810190611209565b9050808060200190518101906103a991906112db565b92509250509550959350505050565b5f8054819073ffffffffffffffffffffffffffffffffffffffff166348c89491600160f81b8a60405180606001604052808c151581526020018b81526020018a73ffffffffffffffffffffffffffffffffffffffff16815250888860405160200161042694939291906112fd565b604080517fffffffffffffffffffffffffffffffffffffffffffffffffffffffffffffffe0818403018152908290526104629291602001611106565b6040516020818303038152906040526040518263ffffffff1660e01b815260040161048d9190610f70565b5f604051808303815f875af11580156104a8573d5f803e3d5ffd5b505050506040513d5f823e601f3d9081017fffffffffffffffffffffffffffffffffffffffffffffffffffffffffffffffe01682016040526104ed9190810190611209565b9050808060200190518101906105039190611283565b98975050505050505050565b5f5460609073ffffffffffffffffffffffffffffffffffffffff163314610534575f80fd5b5f6105426001828587611390565b61054b916113b7565b60f81c600281111561055f5761055f610fdb565b90505f81600281111561057457610574610fdb565b036105bc575f806105888560018189611390565b810190610595919061151b565b915091506105b2828260405180602001604052805f815250610709565b93505050506106b9565b60018160028111156105d0576105d0610fdb565b0361060e575f80806105e5866001818a611390565b8101906105f2919061154f565b925092509250610603838383610709565b9450505050506106b9565b600281600281111561062257610622610fdb565b03610651575f806106368560018189611390565b81019061064391906115e8565b915091506105b282826107d7565b6040517f08c379a000000000000000000000000000000000000000000000000000000000815260206004820152601360248201527f556e7265636f676e697a656420616374696f6e00000000000000000000000000604482015260640160405180910390fd5b505b92915050565b6106df73ffffffffffffffffffffffffffffffffffffffff8216336108fd565b5050565b61070473ffffffffffffffffffffffffffffffffffffffff8416838361097f565b505050565b5f80546040517ff3cd914c0000000000000000000000000000000000000000000000000000000081526060929173ffffffffffffffffffffffffffffffffffffffff169063f3cd914c9061076590889088908890600401611699565b6020604051808303815f875af1158015610781573d5f803e3d5ffd5b505050506040513d601f19601f820116820180604052508101906107a59190611283565b90506107b185826109d2565b6040805160208101839052016040516020818303038152906040529150505b9392505050565b5f80546040517f5a6bcfda00000000000000000000000000000000000000000000000000000000815260609291829173ffffffffffffffffffffffffffffffffffffffff90911690635a6bcfda906108359088908890600401611763565b60408051808303815f875af1158015610850573d5f803e3d5ffd5b505050506040513d601f19601f8201168201806040525081019061087491906112db565b9150915061088b8561088684846109f9565b6109d2565b5f8460400151136108d05784515f805490916108bf9173ffffffffffffffffffffffffffffffffffffffff16903090610a48565b90506108ce865f015182610ae4565b505b60408051602081018490529081018290526060016040516020818303038152906040529250505092915050565b5f6370a082315f5230602052602060346024601c865afa601f3d111661092a576390b8ec185f526004601cfd5b8160145260345190506fa9059cbb0000000000000000000000005f5260205f604460105f875af18060015f51141661097457803d853b151710610974576390b8ec185f526004601cfd5b505f60345292915050565b81601452806034526fa9059cbb0000000000000000000000005f5260205f604460105f875af18060015f5114166109c857803d853b1517106109c8576390b8ec185f526004601cfd5b505f603452505050565b81516109e7906109e28360801d90565b610ae4565b6106df82602001516109e283600f0b90565b5f608082811d9084901d01600f83810b9085900b01610a3f610a1a83610ce3565b610a2383610ce3565b6fffffffffffffffffffffffffffffffff1660809190911b1790565b95945050505050565b5f8281526020829052604080822090517ff135baaa00000000000000000000000000000000000000000000000000000000815260048101829052829073ffffffffffffffffffffffffffffffffffffffff87169063f135baaa90602401602060405180830381865afa158015610ac0573d5f803e3d5ffd5b505050506040513d601f19601f820116820180604052508101906102629190611283565b5f81600f0b1215610c37575f546040517fa584119400000000000000000000000000000000000000000000000000000000815273ffffffffffffffffffffffffffffffffffffffff84811660048301529091169063a5841194906024015f604051808303815f87803b158015610b58575f80fd5b505af1158015610b6a573d5f803e3d5ffd5b50505f8054610baa935073ffffffffffffffffffffffffffffffffffffffff868116935016908490036fffffffffffffffffffffffffffffffff1661097f565b5f8054906101000a900473ffffffffffffffffffffffffffffffffffffffff1673ffffffffffffffffffffffffffffffffffffffff166311da60b46040518163ffffffff1660e01b81526004016020604051808303815f875af1158015610c13573d5f803e3d5ffd5b505050506040513d601f19601f820116820180604052508101906107049190611283565b80600f0b5f12156106df575f546040517f0b0d9c0900000000000000000000000000000000000000000000000000000000815273ffffffffffffffffffffffffffffffffffffffff84811660048301523060248301526fffffffffffffffffffffffffffffffff8416604483015290911690630b0d9c09906064015f604051808303815f87803b158015610cc9575f80fd5b505af1158015610cdb573d5f803e3d5ffd5b505050505050565b80600f81900b8114610d1857610d187f93dafdf100000000000000000000000000000000000000000000000000000000610d1d565b919050565b805f5260045ffd5b5f60a08284031215610d35575f80fd5b50919050565b80358015158114610d18575f80fd5b73ffffffffffffffffffffffffffffffffffffffff81168114610d6b575f80fd5b50565b5f805f806101008587031215610d82575f80fd5b610d8c8686610d25565b9350610d9a60a08601610d3b565b925060c0850135915060e0850135610db181610d4a565b939692955090935050565b8035600281900b8114610d18575f80fd5b5f805f805f6101208688031215610de2575f80fd5b610dec8787610d25565b9450610dfa60a08701610dbc565b9350610e0860c08701610dbc565b9497939650939460e08101359450610100013592915050565b5f8083601f840112610e31575f80fd5b50813567ffffffffffffffff811115610e48575f80fd5b602083019150836020828501011115610e5f575f80fd5b9250929050565b5f805f805f806101208789031215610e7c575f80fd5b610e868888610d25565b9550610e9460a08801610d3b565b945060c0870135935060e0870135610eab81610d4a565b925061010087013567ffffffffffffffff811115610ec7575f80fd5b610ed389828a01610e21565b979a9699509497509295939492505050565b5f8060208385031215610ef6575f80fd5b823567ffffffffffffffff811115610f0c575f80fd5b610f1885828601610e21565b90969095509350505050565b5f81518084528060208401602086015e5f6020828601015260207fffffffffffffffffffffffffffffffffffffffffffffffffffffffffffffffe0601f83011685010191505092915050565b602081525f6107d06020830184610f24565b5f60208284031215610f92575f80fd5b81356107d081610d4a565b5f805f60608486031215610faf575f80fd5b8335610fba81610d4a565b92506020840135610fca81610d4a565b929592945050506040919091013590565b7f4e487b71000000000000000000000000000000000000000000000000000000005f52602160045260245ffd5b803562ffffff81168114610d18575f80fd5b803561102581610d4a565b73ffffffffffffffffffffffffffffffffffffffff168252602081013561104b81610d4a565b73ffffffffffffffffffffffffffffffffffffffff16602083015262ffffff61107660408301611008565b16604083015261108860608201610dbc565b60020b6060830152608081013561109e81610d4a565b73ffffffffffffffffffffffffffffffffffffffff81166080840152505050565b61010081016110ce828561101a565b8251151560a0830152602083015160c0830152604083015173ffffffffffffffffffffffffffffffffffffffff1660e08301526107d0565b7fff00000000000000000000000000000000000000000000000000000000000000831681525f82518060208501600185015e5f92016001019182525092915050565b7f4e487b71000000000000000000000000000000000000000000000000000000005f52604160045260245ffd5b604051601f82017fffffffffffffffffffffffffffffffffffffffffffffffffffffffffffffffe016810167ffffffffffffffff811182821017156111bc576111bc611148565b604052919050565b5f67ffffffffffffffff8211156111dd576111dd611148565b50601f017fffffffffffffffffffffffffffffffffffffffffffffffffffffffffffffffe01660200190565b5f60208284031215611219575f80fd5b815167ffffffffffffffff81111561122f575f80fd5b8201601f8101841361123f575f80fd5b805161125261124d826111c4565b611175565b818152856020838501011115611266575f80fd5b8160208401602083015e5f91810160200191909152949350505050565b5f60208284031215611293575f80fd5b5051919050565b61012081016112a9828561101a565b8251600290810b60a08401526020840151900b60c0830152604083015160e083015260608301516101008301526107d0565b5f80604083850312156112ec575f80fd5b505080516020909101519092909150565b611307818661101a565b8351151560a0820152602084015160c0820152604084015173ffffffffffffffffffffffffffffffffffffffff1660e08201526101206101008201528161012082015281836101408301375f81830161014090810191909152601f9092017fffffffffffffffffffffffffffffffffffffffffffffffffffffffffffffffe01601019392505050565b5f808585111561139e575f80fd5b838611156113aa575f80fd5b5050820193919092039150565b80357fff0000000000000000000000000000000000000000000000000000000000000081169060018410156106b7577fff00000000000000000000000000000000000000000000000000000000000000808560010360031b1b82161691505092915050565b5f60a0828403121561142c575f80fd5b60405160a0810167ffffffffffffffff8111828210171561144f5761144f611148565b604052905080823561146081610d4a565b8152602083013561147081610d4a565b602082015261148160408401611008565b604082015261149260608401610dbc565b606082015260808301356114a581610d4a565b6080919091015292915050565b5f606082840312156114c2575f80fd5b6040516060810167ffffffffffffffff811182821017156114e5576114e5611148565b6040529050806114f483610d3b565b815260208381013590820152604083013561150e81610d4a565b6040919091015292915050565b5f80610100838503121561152d575f80fd5b611537848461141c565b91506115468460a085016114b2565b90509250929050565b5f805f6101208486031215611562575f80fd5b61156c858561141c565b925061157b8560a086016114b2565b915061010084013567ffffffffffffffff811115611597575f80fd5b8401601f810186136115a7575f80fd5b80356115b561124d826111c4565b8181528760208385010111156115c9575f80fd5b816020840160208301375f602083830101528093505050509250925092565b5f808284036101208112156115fb575f80fd5b611605858561141c565b925060807fffffffffffffffffffffffffffffffffffffffffffffffffffffffffffffff6082011215611636575f80fd5b506040516080810167ffffffffffffffff8111828210171561165a5761165a611148565b60405261166960a08501610dbc565b815261167760c08501610dbc565b602082015260e084013560408201526101009093013560608401525092909150565b611718818573ffffffffffffffffffffffffffffffffffffffff815116825273ffffffffffffffffffffffffffffffffffffffff602082015116602083015262ffffff6040820151166040830152606081015160020b606083015273ffffffffffffffffffffffffffffffffffffffff60808201511660808301525050565b8251151560a0820152602083015160c0820152604083015173ffffffffffffffffffffffffffffffffffffffff1660e08201526101206101008201525f610a3f610120830184610f24565b6117e2818473ffffffffffffffffffffffffffffffffffffffff815116825273ffffffffffffffffffffffffffffffffffffffff602082015116602083015262ffffff6040820151166040830152606081015160020b606083015273ffffffffffffffffffffffffffffffffffffffff60808201511660808301525050565b8151600290810b60a08301526020830151900b60c0820152604082015160e0820152606082015161010082015261014061012082018190525f90820152610160019291505056fea164736f6c634300081a000a","linkReferences":{}},"methodIdentifiers":{"modifyLiquidity((address,address,uint24,int24,address),int24,int24,int256,bytes32)":"0c865879","recycle(address)":"baca0004","swap((address,address,uint24,int24,address),bool,int256,uint160)":"0495a4a2","swap((address,address,uint24,int24,address),bool,int256,uint160,bytes)":"40e2a812","transfer(address,address,uint256)":"beabacc8","unlockCallback(bytes)":"91dd7346"},"id":211}