{"abi":[{"type":"constructor","inputs":[{"name":"angstrom","type":"address","internalType":"address"},{"name":"uni","type":"address","internalType":"contract IPoolManager"}],"stateMutability":"nonpayable"},{"type":"function","name":"addClear","inputs":[{"name":"token","type":"address","internalType":"address"}],"outputs":[],"stateMutability":"nonpayable"},{"type":"function","name":"allowance","inputs":[{"name":"","type":"address","internalType":"address"},{"name":"","type":"address","internalType":"address"}],"outputs":[{"name":"","type":"uint256","internalType":"uint256"}],"stateMutability":"view"},{"type":"function","name":"approve","inputs":[{"name":"spender","type":"address","internalType":"address"},{"name":"amount","type":"uint256","internalType":"uint256"}],"outputs":[],"stateMutability":"nonpayable"},{"type":"function","name":"balanceOf","inputs":[{"name":"","type":"address","internalType":"address"}],"outputs":[{"name":"","type":"uint256","internalType":"uint256"}],"stateMutability":"view"},{"type":"function","name":"burn","inputs":[{"name":"from","type":"address","internalType":"address"},{"name":"amount","type":"uint256","internalType":"uint256"}],"outputs":[],"stateMutability":"nonpayable"},{"type":"function","name":"decimals","inputs":[],"outputs":[{"name":"","type":"uint8","internalType":"uint8"}],"stateMutability":"pure"},{"type":"function","name":"mint","inputs":[{"name":"to","type":"address","internalType":"address"},{"name":"amount","type":"uint256","internalType":"uint256"}],"outputs":[],"stateMutability":"nonpayable"},{"type":"function","name":"name","inputs":[],"outputs":[{"name":"","type":"string","internalType":"string"}],"stateMutability":"view"},{"type":"function","name":"setAllowance","inputs":[{"name":"from","type":"address","internalType":"address"},{"name":"to","type":"address","internalType":"address"},{"name":"amount","type":"uint256","internalType":"uint256"}],"outputs":[],"stateMutability":"nonpayable"},{"type":"function","name":"symbol","inputs":[],"outputs":[{"name":"","type":"string","internalType":"string"}],"stateMutability":"view"},{"type":"function","name":"totalSupply","inputs":[],"outputs":[{"name":"","type":"uint256","internalType":"uint256"}],"stateMutability":"view"},{"type":"function","name":"transfer","inputs":[{"name":"to","type":"address","internalType":"address"},{"name":"amount","type":"uint256","internalType":"uint256"}],"outputs":[{"name":"","type":"bool","internalType":"bool"}],"stateMutability":"nonpayable"},{"type":"function","name":"transferFrom","inputs":[{"name":"from","type":"address","internalType":"address"},{"name":"to","type":"address","internalType":"address"},{"name":"amount","type":"uint256","internalType":"uint256"}],"outputs":[{"name":"","type":"bool","internalType":"bool"}],"stateMutability":"nonpayable"},{"type":"event","name":"Approval","inputs":[{"name":"owner","type":"address","indexed":true,"internalType":"address"},{"name":"spender","type":"address","indexed":true,"internalType":"address"},{"name":"amount","type":"uint256","indexed":false,"internalType":"uint256"}],"anonymous":false},{"type":"event","name":"Transfer","inputs":[{"name":"from","type":"address","indexed":true,"internalType":"address"},{"name":"to","type":"address","indexed":true,"internalType":"address"},{"name":"amount","type":"uint256","indexed":false,"internalType":"uint256"}],"anonymous":false}],"bytecode":{"object":"0x60c060405234801561000f575f80fd5b50604051610cd5380380610cd583398101604081905261002e91610103565b6001600160a01b0380831660a0528116608052737109709ecfa91a80626ff3989d68f67f5b1dd12d3b6100e55760405162461bcd60e51b815260206004820152604f60248201527f5468697320636f6e7472616374207573657320766d2e7072616e6b206275742060448201527f766d206e6f7420666f756e642c2070726f6261626c7920696e2070726f642d6c60648201526e1a5ad948195b9d9a5c9bdb9b595b9d608a1b608482015260a40160405180910390fd5b505061013b565b6001600160a01b0381168114610100575f80fd5b50565b5f8060408385031215610114575f80fd5b825161011f816100ec565b6020840151909250610130816100ec565b809150509250929050565b60805160a051610b726101635f395f61060401525f818161067401526107670152610b725ff3fe608060405234801561000f575f80fd5b50600436106100da575f3560e01c806370a0823111610088578063a9059cbb11610063578063a9059cbb14610204578063da46098c14610217578063dd62ed3e1461022a578063fc1edd3914610254575f80fd5b806370a082311461019957806395d89b41146101b85780639dc29fac146101f1575f80fd5b806323b872dd116100b857806323b872dd14610154578063313ce5671461017757806340c10f1914610186575f80fd5b806306fdde03146100de578063095ea7b31461012957806318160ddd1461013e575b5f80fd5b60408051808201909152600a81527f4d6f636b20546f6b656e0000000000000000000000000000000000000000000060208201525b60405161012091906109a7565b60405180910390f35b61013c610137366004610a22565b6102d8565b005b6101465f5481565b604051908152602001610120565b610167610162366004610a4a565b610344565b6040519015158152602001610120565b60405160128152602001610120565b61013c610194366004610a22565b6104bc565b6101466101a7366004610a84565b60016020525f908152604090205481565b60408051808201909152600381527f4d434b00000000000000000000000000000000000000000000000000000000006020820152610113565b61013c6101ff366004610a22565b610554565b610167610212366004610a22565b6105ec565b61013c610225366004610a4a565b6107e0565b610146610238366004610a9d565b600260209081525f928352604080842090915290825290205481565b61013c610262366004610a84565b600b80546001810182555f919091527f0175b7a638427703f0dbe7bb9bbf987a2551717b34e79f33b5b1008d1fa01db90180547fffffffffffffffffffffffff00000000000000000000000000000000000000001673ffffffffffffffffffffffffffffffffffffffff92909216919091179055565b335f81815260026020908152604080832073ffffffffffffffffffffffffffffffffffffffff871680855290835292819020859055518481529192917f8c5be1e5ebec7d5bd14f71427d1e84f3dd0314c0f7b2291e5b200ac8c7c3b92591015b60405180910390a35050565b73ffffffffffffffffffffffffffffffffffffffff83165f9081526002602090815260408083203384529091528120547fffffffffffffffffffffffffffffffffffffffffffffffffffffffffffffffff81146103d6576103a58382610afb565b73ffffffffffffffffffffffffffffffffffffffff86165f9081526002602090815260408083203384529091529020555b73ffffffffffffffffffffffffffffffffffffffff85165f908152600160205260408120805485929061040a908490610afb565b909155505073ffffffffffffffffffffffffffffffffffffffff84165f9081526001602052604081208054859290610443908490610b0e565b925050819055508373ffffffffffffffffffffffffffffffffffffffff168573ffffffffffffffffffffffffffffffffffffffff167fddf252ad1be2c89b69c2b068fc378daa952ba7f163c4a11628f55a4df523b3ef856040516104a991815260200190565b60405180910390a3506001949350505050565b805f808282546104cc9190610b0e565b909155505073ffffffffffffffffffffffffffffffffffffffff82165f9081526001602052604081208054839290610505908490610b0e565b909155505060405181815273ffffffffffffffffffffffffffffffffffffffff8316905f907fddf252ad1be2c89b69c2b068fc378daa952ba7f163c4a11628f55a4df523b3ef90602001610338565b805f808282546105649190610afb565b909155505073ffffffffffffffffffffffffffffffffffffffff82165f908152600160205260408120805483929061059d908490610afb565b90915550506040518181525f9073ffffffffffffffffffffffffffffffffffffffff8416907fddf252ad1be2c89b69c2b068fc378daa952ba7f163c4a11628f55a4df523b3ef90602001610338565b5f73ffffffffffffffffffffffffffffffffffffffff7f00000000000000000000000000000000000000000000000000000000000000001633036107cd575f5b600b548110156107cb575f600b828154811061064a5761064a610b21565b5f91825260208220015473ffffffffffffffffffffffffffffffffffffffff908116925061069b907f000000000000000000000000000000000000000000000000000000000000000016338461084d565b90505f8113156107c1576040517fca669fa7000000000000000000000000000000000000000000000000000000008152336004820152737109709ecfa91a80626ff3989d68f67f5b1dd12d9063ca669fa7906024015f604051808303815f87803b158015610707575f80fd5b505af1158015610719573d5f803e3d5ffd5b50506040517f80f0b44c00000000000000000000000000000000000000000000000000000000815273ffffffffffffffffffffffffffffffffffffffff8581166004830152602482018590527f00000000000000000000000000000000000000000000000000000000000000001692506380f0b44c91506044015f604051808303815f87803b1580156107aa575f80fd5b505af11580156107bc573d5f803e3d5ffd5b505050505b505060010161062c565b505b6107d783836108f3565b90505b92915050565b73ffffffffffffffffffffffffffffffffffffffff8381165f8181526002602090815260408083209487168084529482529182902085905590518481527f8c5be1e5ebec7d5bd14f71427d1e84f3dd0314c0f7b2291e5b200ac8c7c3b925910160405180910390a3505050565b5f8281526020829052604080822090517ff135baaa00000000000000000000000000000000000000000000000000000000815260048101829052829073ffffffffffffffffffffffffffffffffffffffff87169063f135baaa90602401602060405180830381865afa1580156108c5573d5f803e3d5ffd5b505050506040513d601f19601f820116820180604052508101906108e99190610b4e565b9695505050505050565b335f90815260016020526040812080548391908390610913908490610afb565b909155505073ffffffffffffffffffffffffffffffffffffffff83165f908152600160205260408120805484929061094c908490610b0e565b909155505060405182815273ffffffffffffffffffffffffffffffffffffffff84169033907fddf252ad1be2c89b69c2b068fc378daa952ba7f163c4a11628f55a4df523b3ef9060200160405180910390a350600192915050565b602081525f82518060208401528060208501604085015e5f6040828501015260407fffffffffffffffffffffffffffffffffffffffffffffffffffffffffffffffe0601f83011684010191505092915050565b803573ffffffffffffffffffffffffffffffffffffffff81168114610a1d575f80fd5b919050565b5f8060408385031215610a33575f80fd5b610a3c836109fa565b946020939093013593505050565b5f805f60608486031215610a5c575f80fd5b610a65846109fa565b9250610a73602085016109fa565b929592945050506040919091013590565b5f60208284031215610a94575f80fd5b6107d7826109fa565b5f8060408385031215610aae575f80fd5b610ab7836109fa565b9150610ac5602084016109fa565b90509250929050565b7f4e487b71000000000000000000000000000000000000000000000000000000005f52601160045260245ffd5b818103818111156107da576107da610ace565b808201808211156107da576107da610ace565b7f4e487b71000000000000000000000000000000000000000000000000000000005f52603260045260245ffd5b5f60208284031215610b5e575f80fd5b505191905056fea164736f6c634300081a000a","linkReferences":{}},"methodIdentifiers":{"addClear(address)":"fc1edd39","allowance(address,address)":"dd62ed3e","approve(address,uint256)":"095ea7b3","balanceOf(address)":"70a08231","burn(address,uint256)":"9dc29fac","decimals()":"313ce567","mint(address,uint256)":"40c10f19","name()":"06fdde03","setAllowance(address,address,uint256)":"da46098c","symbol()":"95d89b41","totalSupply()":"18160ddd","transfer(address,uint256)":"a9059cbb","transferFrom(address,address,uint256)":"23b872dd"},"id":194}