{"abi":[{"type":"function","name":"nonces","inputs":[{"name":"owner","type":"address","internalType":"address"},{"name":"word","type":"uint256","internalType":"uint256"}],"outputs":[{"name":"bitmap","type":"uint256","internalType":"uint256"}],"stateMutability":"view"},{"type":"function","name":"revokeNonce","inputs":[{"name":"nonce","type":"uint256","internalType":"uint256"}],"outputs":[],"stateMutability":"payable"},{"type":"error","name":"NonceAlreadyUsed","inputs":[]}],"bytecode":{"object":"0x6080604052348015600e575f80fd5b506101848061001c5f395ff3fe608060405260043610610028575f3560e01c806305c1ee201461002c578063502e1a1614610041575b5f80fd5b61003f61003a36600461011e565b610086565b005b34801561004c575f80fd5b5061007461005b366004610135565b5f60208181529281526040808220909352908152205481565b60405190815260200160405180910390f35b6100903382610093565b50565b73ffffffffffffffffffffffffffffffffffffffff82165f90815260208181526040808320600885901c808552925282208054600160ff861690811b9182189283905592939091908183169003610116576040517f1fb09b8000000000000000000000000000000000000000000000000000000000815260040160405180910390fd5b505050505050565b5f6020828403121561012e575f80fd5b5035919050565b5f8060408385031215610146575f80fd5b823573ffffffffffffffffffffffffffffffffffffffff81168114610169575f80fd5b94602093909301359350505056fea164736f6c634300081a000a","linkReferences":{}},"methodIdentifiers":{"nonces(address,uint256)":"502e1a16","revokeNonce(uint256)":"05c1ee20"},"id":123}