{"abi":[{"type":"function","name":"isValidSignature","inputs":[{"name":"","type":"bytes32","internalType":"bytes32"},{"name":"","type":"bytes","internalType":"bytes"}],"outputs":[{"name":"","type":"bytes4","internalType":"bytes4"}],"stateMutability":"view"},{"type":"function","name":"setReturnValue","inputs":[{"name":"value","type":"bytes4","internalType":"bytes4"}],"outputs":[],"stateMutability":"nonpayable"}],"bytecode":{"object":"0x6080604052348015600e575f80fd5b506101948061001c5f395ff3fe608060405234801561000f575f80fd5b5060043610610034575f3560e01c80631626ba7e1461003857806369e2ce1014610087575b5f80fd5b6100526100463660046100ca565b5f5460e01b9392505050565b6040517fffffffff00000000000000000000000000000000000000000000000000000000909116815260200160405180910390f35b6100c8610095366004610141565b5f80547fffffffffffffffffffffffffffffffffffffffffffffffffffffffff000000001660e09290921c919091179055565b005b5f805f604084860312156100dc575f80fd5b83359250602084013567ffffffffffffffff8111156100f9575f80fd5b8401601f81018613610109575f80fd5b803567ffffffffffffffff81111561011f575f80fd5b866020828401011115610130575f80fd5b939660209190910195509293505050565b5f60208284031215610151575f80fd5b81357fffffffff0000000000000000000000000000000000000000000000000000000081168114610180575f80fd5b939250505056fea164736f6c634300081a000a","linkReferences":{}},"methodIdentifiers":{"isValidSignature(bytes32,bytes)":"1626ba7e","setReturnValue(bytes4)":"69e2ce10"},"id":215}