{"abi":[{"type":"function","name":"angstrom_address_valid","inputs":[{"name":"addr","type":"address","internalType":"address"}],"outputs":[{"name":"","type":"bool","internalType":"bool"}],"stateMutability":"pure"}],"bytecode":{"object":"0x6080604052348015600e575f80fd5b506102258061001c5f395ff3fe608060405234801561000f575f80fd5b5060043610610029575f3560e01c80639a0c7f6c1461002d575b5f80fd5b61004061003b3660046101e5565b610054565b604051901515815260200160405180910390f35b5f61005e82610064565b92915050565b5f81613000811661007757505f92915050565b610800811661008857505f92915050565b61040081161561009a57505f92915050565b61020081166100ab57505f92915050565b6101008116156100bd57505f92915050565b608081166100cd57505f92915050565b60408116151580156100e157506004811615155b6100ed57505f92915050565b61011073ffffffffffffffffffffffffffffffffffffffff821662800000610117565b9392505050565b5f6080831615801561012b57506008831615155b1561013757505f61005e565b6040831615801561014a57506004831615155b1561015657505f61005e565b610400831615801561016a57506002831615155b1561017657505f61005e565b610100831615801561018a57506001831615155b1561019657505f61005e565b73ffffffffffffffffffffffffffffffffffffffff8316156101d457613fff83161515806101cf57506280000062ffffff831614610110565b610110565b5062ffffff16628000001415919050565b5f602082840312156101f5575f80fd5b813573ffffffffffffffffffffffffffffffffffffffff81168114610110575f80fdfea164736f6c634300081a000a","linkReferences":{}},"methodIdentifiers":{"angstrom_address_valid(address)":"9a0c7f6c"},"id":195}