{"abi":[{"type":"function","name":"callCount","inputs":[],"outputs":[{"name":"","type":"uint256","internalType":"uint256"}],"stateMutability":"view"},{"type":"function","name":"compose","inputs":[{"name":"from","type":"address","internalType":"address"},{"name":"payload","type":"bytes","internalType":"bytes"}],"outputs":[{"name":"","type":"uint32","internalType":"uint32"}],"stateMutability":"nonpayable"},{"type":"function","name":"lastFrom","inputs":[],"outputs":[{"name":"","type":"address","internalType":"address"}],"stateMutability":"view"},{"type":"function","name":"lastPayload","inputs":[],"outputs":[{"name":"","type":"bytes","internalType":"bytes"}],"stateMutability":"view"}],"bytecode":{"object":"0x6080604052348015600e575f80fd5b506105198061001c5f395ff3fe608060405234801561000f575f80fd5b506004361061004a575f3560e01c80634b28f9a21461004e5780634cc2aa3c146100695780637407905c1461007e57806380443378146100a6575b5f80fd5b6100565f5481565b6040519081526020015b60405180910390f35b6100716100eb565b60405161006091906101e5565b61009161008c366004610238565b610177565b60405163ffffffff9091168152602001610060565b6001546100c69073ffffffffffffffffffffffffffffffffffffffff1681565b60405173ffffffffffffffffffffffffffffffffffffffff9091168152602001610060565b600280546100f8906102d0565b80601f0160208091040260200160405190810160405280929190818152602001828054610124906102d0565b801561016f5780601f106101465761010080835404028352916020019161016f565b820191905f5260205f20905b81548152906001019060200180831161015257829003601f168201915b505050505081565b5f8054818061018583610321565b9091555050600180547fffffffffffffffffffffffff00000000000000000000000000000000000000001673ffffffffffffffffffffffffffffffffffffffff861617905560026101d78385836103f6565b506324a2e44b949350505050565b602081525f82518060208401528060208501604085015e5f6040828501015260407fffffffffffffffffffffffffffffffffffffffffffffffffffffffffffffffe0601f83011684010191505092915050565b5f805f6040848603121561024a575f80fd5b833573ffffffffffffffffffffffffffffffffffffffff8116811461026d575f80fd5b9250602084013567ffffffffffffffff811115610288575f80fd5b8401601f81018613610298575f80fd5b803567ffffffffffffffff8111156102ae575f80fd5b8660208284010111156102bf575f80fd5b939660209190910195509293505050565b600181811c908216806102e457607f821691505b60208210810361031b577f4e487b71000000000000000000000000000000000000000000000000000000005f52602260045260245ffd5b50919050565b5f7fffffffffffffffffffffffffffffffffffffffffffffffffffffffffffffffff8203610376577f4e487b71000000000000000000000000000000000000000000000000000000005f52601160045260245ffd5b5060010190565b7f4e487b71000000000000000000000000000000000000000000000000000000005f52604160045260245ffd5b601f8211156103f157805f5260205f20601f840160051c810160208510156103cf5750805b601f840160051c820191505b818110156103ee575f81556001016103db565b50505b505050565b67ffffffffffffffff83111561040e5761040e61037d565b6104228361041c83546102d0565b836103aa565b5f601f841160018114610472575f851561043c5750838201355b7fffffffffffffffffffffffffffffffffffffffffffffffffffffffffffffffff600387901b1c1916600186901b1783556103ee565b5f838152602081207fffffffffffffffffffffffffffffffffffffffffffffffffffffffffffffffe08716915b828110156104bf578685013582556020948501946001909201910161049f565b50868210156104fa577fffffffffffffffffffffffffffffffffffffffffffffffffffffffffffffffff60f88860031b161c19848701351681555b505060018560011b018355505050505056fea164736f6c634300081a000a","linkReferences":{}},"methodIdentifiers":{"callCount()":"4b28f9a2","compose(address,bytes)":"7407905c","lastFrom()":"80443378","lastPayload()":"4cc2aa3c"},"id":212}