{"abi":[{"type":"function","name":"FEE_GROWTH_GLOBAL0_OFFSET","inputs":[],"outputs":[{"name":"","type":"uint256","internalType":"uint256"}],"stateMutability":"view"},{"type":"function","name":"LIQUIDITY_OFFSET","inputs":[],"outputs":[{"name":"","type":"uint256","internalType":"uint256"}],"stateMutability":"view"},{"type":"function","name":"POOLS_SLOT","inputs":[],"outputs":[{"name":"","type":"bytes32","internalType":"bytes32"}],"stateMutability":"view"},{"type":"function","name":"POSITIONS_OFFSET","inputs":[],"outputs":[{"name":"","type":"uint256","internalType":"uint256"}],"stateMutability":"view"},{"type":"function","name":"TICKS_OFFSET","inputs":[],"outputs":[{"name":"","type":"uint256","internalType":"uint256"}],"stateMutability":"view"},{"type":"function","name":"TICK_BITMAP_OFFSET","inputs":[],"outputs":[{"name":"","type":"uint256","internalType":"uint256"}],"stateMutability":"view"}],"bytecode":{"object":"0x60b86032600b8282823980515f1a607314602657634e487b7160e01b5f525f60045260245ffd5b305f52607381538281f3fe73000000000000000000000000000000000000000030146080604052600436106072575f3560e01c80637d35604a1160535780637d35604a146096578063b432004a14609d578063ca24e3b51460a4575f80fd5b80632ba31c5314607657806357eb1da7146076578063769323e314608f575b5f80fd5b607d600681565b60405190815260200160405180910390f35b607d600481565b607d600581565b607d600381565b607d60018156fea164736f6c634300081a000a","linkReferences":{}},"methodIdentifiers":{"FEE_GROWTH_GLOBAL0_OFFSET()":"ca24e3b5","LIQUIDITY_OFFSET()":"b432004a","POOLS_SLOT()":"57eb1da7","POSITIONS_OFFSET()":"2ba31c53","TICKS_OFFSET()":"769323e3","TICK_BITMAP_OFFSET()":"7d35604a"},"id":98}