{"abi":[{"type":"function","name":"compose","inputs":[{"name":"","type":"address","internalType":"address"},{"name":"","type":"bytes","internalType":"bytes"}],"outputs":[{"name":"","type":"uint32","internalType":"uint32"}],"stateMutability":"view"},{"type":"function","name":"retWord","inputs":[],"outputs":[{"name":"","type":"bytes32","internalType":"bytes32"}],"stateMutability":"view"},{"type":"function","name":"setReturn","inputs":[{"name":"retWord_","type":"bytes32","internalType":"bytes32"},{"name":"size_","type":"uint8","internalType":"uint8"}],"outputs":[],"stateMutability":"nonpayable"},{"type":"function","name":"size","inputs":[],"outputs":[{"name":"","type":"uint8","internalType":"uint8"}],"stateMutability":"view"}],"bytecode":{"object":"0x6080604052348015600e575f80fd5b506102558061001c5f395ff3fe608060405234801561000f575f80fd5b506004361061004a575f3560e01c806309b89f701461004e57806332d5d923146100635780637407905c1461007e578063949d225d146100a6575b5f80fd5b61006161005c36600461017d565b6100c5565b005b61006b5f5481565b6040519081526020015b60405180910390f35b61009161008c3660046101b0565b61016d565b60405163ffffffff9091168152602001610075565b6001546100b39060ff1681565b60405160ff9091168152602001610075565b60208160ff161115610137576040517f08c379a000000000000000000000000000000000000000000000000000000000815260206004820152600d60248201527f53697a652061626f766520333200000000000000000000000000000000000000604482015260640160405180910390fd5b600180547fffffffffffffffffffffffffffffffffffffffffffffffffffffffffffffff001660ff929092169190911790555f55565b6001545f805481529060ff168082f35b5f806040838503121561018e575f80fd5b82359150602083013560ff811681146101a5575f80fd5b809150509250929050565b5f805f604084860312156101c2575f80fd5b833573ffffffffffffffffffffffffffffffffffffffff811681146101e5575f80fd5b9250602084013567ffffffffffffffff811115610200575f80fd5b8401601f81018613610210575f80fd5b803567ffffffffffffffff811115610226575f80fd5b866020828401011115610237575f80fd5b93966020919091019550929350505056fea164736f6c634300081a000a","linkReferences":{}},"methodIdentifiers":{"compose(address,bytes)":"7407905c","retWord()":"32d5d923","setReturn(bytes32,uint8)":"09b89f70","size()":"949d225d"},"id":213}