{"abi":[{"type":"function","name":"allowance","inputs":[{"name":"","type":"address","internalType":"address"},{"name":"","type":"address","internalType":"address"}],"outputs":[{"name":"","type":"uint256","internalType":"uint256"}],"stateMutability":"view"},{"type":"function","name":"approve","inputs":[{"name":"spender","type":"address","internalType":"address"},{"name":"allowed","type":"uint256","internalType":"uint256"}],"outputs":[{"name":"","type":"bool","internalType":"bool"}],"stateMutability":"nonpayable"},{"type":"function","name":"balanceOf","inputs":[{"name":"","type":"address","internalType":"address"}],"outputs":[{"name":"","type":"uint256","internalType":"uint256"}],"stateMutability":"view"},{"type":"function","name":"transfer","inputs":[{"name":"to","type":"address","internalType":"address"},{"name":"amount","type":"uint256","internalType":"uint256"}],"outputs":[{"name":"","type":"bool","internalType":"bool"}],"stateMutability":"nonpayable"},{"type":"function","name":"transferFrom","inputs":[{"name":"from","type":"address","internalType":"address"},{"name":"to","type":"address","internalType":"address"},{"name":"amount","type":"uint256","internalType":"uint256"}],"outputs":[{"name":"","type":"bool","internalType":"bool"}],"stateMutability":"nonpayable"}],"bytecode":{"object":"0x6080604052348015600e575f80fd5b506103cd8061001c5f395ff3fe608060405234801561000f575f80fd5b5060043610610064575f3560e01c806370a082311161004d57806370a08231146100d4578063a9059cbb14610101578063dd62ed3e14610114575f80fd5b8063095ea7b31461006857806323b872dd146100c1575b5f80fd5b6100ac61007636600461030d565b335f90815260016020818152604080842073ffffffffffffffffffffffffffffffffffffffff9690961684529490529290205590565b60405190151581526020015b60405180910390f35b6100ac6100cf366004610335565b61013e565b6100f36100e236600461036f565b5f6020819052908152604090205481565b6040519081526020016100b8565b6100ac61010f36600461030d565b61027a565b6100f361012236600461038f565b600160209081525f928352604080842090915290825290205481565b73ffffffffffffffffffffffffffffffffffffffff83165f9081526001602090815260408083203384529091528120547fffffffffffffffffffffffffffffffffffffffffffffffffffffffffffffffff146102075773ffffffffffffffffffffffffffffffffffffffff84165f9081526001602090815260408083203384529091529020546101d0908311156102d5565b73ffffffffffffffffffffffffffffffffffffffff84165f9081526001602090815260408083203384529091529020805483900390555b73ffffffffffffffffffffffffffffffffffffffff84165f90815260208190526040902054610238908311156102d5565b5073ffffffffffffffffffffffffffffffffffffffff9283165f9081526020819052604080822080548490039055929093168352912080549091019055600190565b335f90815260208190526040812054610295908311156102d5565b50335f908152602081905260408082208054849003905573ffffffffffffffffffffffffffffffffffffffff841682529020805482019055600192915050565b806102e2575f805260205ff35b50565b803573ffffffffffffffffffffffffffffffffffffffff81168114610308575f80fd5b919050565b5f806040838503121561031e575f80fd5b610327836102e5565b946020939093013593505050565b5f805f60608486031215610347575f80fd5b610350846102e5565b925061035e602085016102e5565b929592945050506040919091013590565b5f6020828403121561037f575f80fd5b610388826102e5565b9392505050565b5f80604083850312156103a0575f80fd5b6103a9836102e5565b91506103b7602084016102e5565b9050925092905056fea164736f6c634300081a000a","linkReferences":{}},"methodIdentifiers":{"allowance(address,address)":"dd62ed3e","approve(address,uint256)":"095ea7b3","balanceOf(address)":"70a08231","transfer(address,uint256)":"a9059cbb","transferFrom(address,address,uint256)":"23b872dd"},"id":209}