{"abi":[{"type":"constructor","inputs":[{"name":"uniV4","type":"address","internalType":"contract IPoolManager"}],"stateMutability":"nonpayable"},{"type":"function","name":"unlockCallback","inputs":[{"name":"data","type":"bytes","internalType":"bytes"}],"outputs":[{"name":"","type":"bytes","internalType":"bytes"}],"stateMutability":"nonpayable"},{"type":"function","name":"withdraw_to","inputs":[{"name":"to","type":"address","internalType":"address"},{"name":"packed_assets","type":"bytes","internalType":"bytes"}],"outputs":[],"stateMutability":"nonpayable"},{"type":"error","name":"NotOwner","inputs":[]},{"type":"error","name":"NotUniswap","inputs":[]}],"bytecode":{"object":"0x60c0604052348015600e575f80fd5b506040516108e43803806108e4833981016040819052602b91603f565b336080526001600160a01b031660a052606a565b5f60208284031215604e575f80fd5b81516001600160a01b03811681146063575f80fd5b9392505050565b60805160a05161083f6100a55f395f818160e7015281816101e4015281816102c201528181610394015261043f01525f608e015261083f5ff3fe608060405234801561000f575f80fd5b5060043610610034575f3560e01c8063877415d21461003857806391dd73461461004d575b5f80fd5b61004b610046366004610503565b610076565b005b61006061005b36600461056c565b6101ca565b60405161006d91906105ab565b60405180910390f35b3373ffffffffffffffffffffffffffffffffffffffff7f000000000000000000000000000000000000000000000000000000000000000016146100e5576040517f30cd747100000000000000000000000000000000000000000000000000000000815260040160405180910390fd5b7f000000000000000000000000000000000000000000000000000000000000000073ffffffffffffffffffffffffffffffffffffffff166348c894918460601b8484604051602001610139939291906105fe565b6040516020818303038152906040526040518263ffffffff1660e01b815260040161016491906105ab565b5f604051808303815f875af115801561017f573d5f803e3d5ffd5b505050506040513d5f823e601f3d9081017fffffffffffffffffffffffffffffffffffffffffffffffffffffffffffffffe01682016040526101c49190810190610666565b50505050565b60603373ffffffffffffffffffffffffffffffffffffffff7f0000000000000000000000000000000000000000000000000000000000000000161461023b576040517ff832861400000000000000000000000000000000000000000000000000000000815260040160405180910390fd5b5f6102496014828587610756565b6102529161077d565b60601c90506102648360148187610756565b90945092505f6102756014856107e3565b90505f5b818110156104a6576040517efdd58e0000000000000000000000000000000000000000000000000000000081523060048201526014820287013560601c60248201819052905f907f000000000000000000000000000000000000000000000000000000000000000073ffffffffffffffffffffffffffffffffffffffff169062fdd58e90604401602060405180830381865afa15801561031b573d5f803e3d5ffd5b505050506040513d601f19601f8201168201806040525081019061033f919061081b565b6040517ff5298aca00000000000000000000000000000000000000000000000000000000815230600482015273ffffffffffffffffffffffffffffffffffffffff8481166024830152604482018390529192507f00000000000000000000000000000000000000000000000000000000000000009091169063f5298aca906064015f604051808303815f87803b1580156103d7575f80fd5b505af11580156103e9573d5f803e3d5ffd5b50506040517f0b0d9c0900000000000000000000000000000000000000000000000000000000815273ffffffffffffffffffffffffffffffffffffffff85811660048301528881166024830152604482018590527f0000000000000000000000000000000000000000000000000000000000000000169250630b0d9c0991506064015f604051808303815f87803b158015610482575f80fd5b505af1158015610494573d5f803e3d5ffd5b50506001909401935061027992505050565b505060408051602081019091525f8152949350505050565b5f8083601f8401126104ce575f80fd5b50813567ffffffffffffffff8111156104e5575f80fd5b6020830191508360208285010111156104fc575f80fd5b9250929050565b5f805f60408486031215610515575f80fd5b833573ffffffffffffffffffffffffffffffffffffffff81168114610538575f80fd5b9250602084013567ffffffffffffffff811115610553575f80fd5b61055f868287016104be565b9497909650939450505050565b5f806020838503121561057d575f80fd5b823567ffffffffffffffff811115610593575f80fd5b61059f858286016104be565b90969095509350505050565b602081525f82518060208401528060208501604085015e5f6040828501015260407fffffffffffffffffffffffffffffffffffffffffffffffffffffffffffffffe0601f83011684010191505092915050565b7fffffffffffffffffffffffffffffffffffffffff00000000000000000000000084168152818360148301375f910160140190815292915050565b7f4e487b71000000000000000000000000000000000000000000000000000000005f52604160045260245ffd5b5f60208284031215610676575f80fd5b815167ffffffffffffffff81111561068c575f80fd5b8201601f8101841361069c575f80fd5b805167ffffffffffffffff8111156106b6576106b6610639565b6040517fffffffffffffffffffffffffffffffffffffffffffffffffffffffffffffffe0603f7fffffffffffffffffffffffffffffffffffffffffffffffffffffffffffffffe0601f8501160116810181811067ffffffffffffffff8211171561072257610722610639565b604052818152828201602001861015610739575f80fd5b8160208401602083015e5f91810160200191909152949350505050565b5f8085851115610764575f80fd5b83861115610770575f80fd5b5050820193919092039150565b80357fffffffffffffffffffffffffffffffffffffffff00000000000000000000000081169060148410156107dc577fffffffffffffffffffffffffffffffffffffffff000000000000000000000000808560140360031b1b82161691505b5092915050565b5f82610816577f4e487b71000000000000000000000000000000000000000000000000000000005f52601260045260245ffd5b500490565b5f6020828403121561082b575f80fd5b505191905056fea164736f6c634300081a000a","linkReferences":{}},"methodIdentifiers":{"unlockCallback(bytes)":"91dd7346","withdraw_to(address,bytes)":"877415d2"},"id":170}