{"abi":[{"type":"function","name":"allowance","inputs":[{"name":"","type":"address","internalType":"address"},{"name":"","type":"address","internalType":"address"}],"outputs":[{"name":"","type":"uint256","internalType":"uint256"}],"stateMutability":"view"},{"type":"function","name":"approve","inputs":[{"name":"spender","type":"address","internalType":"address"},{"name":"amount","type":"uint256","internalType":"uint256"}],"outputs":[],"stateMutability":"nonpayable"},{"type":"function","name":"balanceOf","inputs":[{"name":"","type":"address","internalType":"address"}],"outputs":[{"name":"","type":"uint256","internalType":"uint256"}],"stateMutability":"view"},{"type":"function","name":"burn","inputs":[{"name":"from","type":"address","internalType":"address"},{"name":"amount","type":"uint256","internalType":"uint256"}],"outputs":[],"stateMutability":"nonpayable"},{"type":"function","name":"decimals","inputs":[],"outputs":[{"name":"","type":"uint8","internalType":"uint8"}],"stateMutability":"pure"},{"type":"function","name":"mint","inputs":[{"name":"to","type":"address","internalType":"address"},{"name":"amount","type":"uint256","internalType":"uint256"}],"outputs":[],"stateMutability":"nonpayable"},{"type":"function","name":"name","inputs":[],"outputs":[{"name":"","type":"string","internalType":"string"}],"stateMutability":"view"},{"type":"function","name":"setAllowance","inputs":[{"name":"from","type":"address","internalType":"address"},{"name":"to","type":"address","internalType":"address"},{"name":"amount","type":"uint256","internalType":"uint256"}],"outputs":[],"stateMutability":"nonpayable"},{"type":"function","name":"symbol","inputs":[],"outputs":[{"name":"","type":"string","internalType":"string"}],"stateMutability":"view"},{"type":"function","name":"totalSupply","inputs":[],"outputs":[{"name":"","type":"uint256","internalType":"uint256"}],"stateMutability":"view"},{"type":"function","name":"transfer","inputs":[{"name":"to","type":"address","internalType":"address"},{"name":"amount","type":"uint256","internalType":"uint256"}],"outputs":[{"name":"","type":"bool","internalType":"bool"}],"stateMutability":"nonpayable"},{"type":"function","name":"transferFrom","inputs":[{"name":"from","type":"address","internalType":"address"},{"name":"to","type":"address","internalType":"address"},{"name":"amount","type":"uint256","internalType":"uint256"}],"outputs":[{"name":"","type":"bool","internalType":"bool"}],"stateMutability":"nonpayable"},{"type":"event","name":"Approval","inputs":[{"name":"owner","type":"address","indexed":true,"internalType":"address"},{"name":"spender","type":"address","indexed":true,"internalType":"address"},{"name":"amount","type":"uint256","indexed":false,"internalType":"uint256"}],"anonymous":false},{"type":"event","name":"Transfer","inputs":[{"name":"from","type":"address","indexed":true,"internalType":"address"},{"name":"to","type":"address","indexed":true,"internalType":"address"},{"name":"amount","type":"uint256","indexed":false,"internalType":"uint256"}],"anonymous":false}],"bytecode":{"object":"0x6080604052348015600e575f80fd5b5061080d8061001c5f395ff3fe608060405234801561000f575f80fd5b50600436106100cf575f3560e01c806370a082311161007d578063a9059cbb11610058578063a9059cbb146101f9578063da46098c1461020c578063dd62ed3e1461021f575f80fd5b806370a082311461018e57806395d89b41146101ad5780639dc29fac146101e6575f80fd5b806323b872dd116100ad57806323b872dd14610149578063313ce5671461016c57806340c10f191461017b575f80fd5b806306fdde03146100d3578063095ea7b31461011e57806318160ddd14610133575b5f80fd5b60408051808201909152600a81527f4d6f636b20546f6b656e0000000000000000000000000000000000000000000060208201525b604051610115919061067f565b60405180910390f35b61013161012c3660046106fa565b610249565b005b61013b5f5481565b604051908152602001610115565b61015c610157366004610722565b6102b5565b6040519015158152602001610115565b60405160128152602001610115565b6101316101893660046106fa565b61042d565b61013b61019c36600461075c565b60016020525f908152604090205481565b60408051808201909152600381527f4d434b00000000000000000000000000000000000000000000000000000000006020820152610108565b6101316101f43660046106fa565b6104c5565b61015c6102073660046106fa565b61055d565b61013161021a366004610722565b610612565b61013b61022d36600461077c565b600260209081525f928352604080842090915290825290205481565b335f81815260026020908152604080832073ffffffffffffffffffffffffffffffffffffffff871680855290835292819020859055518481529192917f8c5be1e5ebec7d5bd14f71427d1e84f3dd0314c0f7b2291e5b200ac8c7c3b92591015b60405180910390a35050565b73ffffffffffffffffffffffffffffffffffffffff83165f9081526002602090815260408083203384529091528120547fffffffffffffffffffffffffffffffffffffffffffffffffffffffffffffffff81146103475761031683826107da565b73ffffffffffffffffffffffffffffffffffffffff86165f9081526002602090815260408083203384529091529020555b73ffffffffffffffffffffffffffffffffffffffff85165f908152600160205260408120805485929061037b9084906107da565b909155505073ffffffffffffffffffffffffffffffffffffffff84165f90815260016020526040812080548592906103b49084906107ed565b925050819055508373ffffffffffffffffffffffffffffffffffffffff168573ffffffffffffffffffffffffffffffffffffffff167fddf252ad1be2c89b69c2b068fc378daa952ba7f163c4a11628f55a4df523b3ef8560405161041a91815260200190565b60405180910390a3506001949350505050565b805f8082825461043d91906107ed565b909155505073ffffffffffffffffffffffffffffffffffffffff82165f90815260016020526040812080548392906104769084906107ed565b909155505060405181815273ffffffffffffffffffffffffffffffffffffffff8316905f907fddf252ad1be2c89b69c2b068fc378daa952ba7f163c4a11628f55a4df523b3ef906020016102a9565b805f808282546104d591906107da565b909155505073ffffffffffffffffffffffffffffffffffffffff82165f908152600160205260408120805483929061050e9084906107da565b90915550506040518181525f9073ffffffffffffffffffffffffffffffffffffffff8416907fddf252ad1be2c89b69c2b068fc378daa952ba7f163c4a11628f55a4df523b3ef906020016102a9565b335f9081526001602052604081208054839190839061057d9084906107da565b909155505073ffffffffffffffffffffffffffffffffffffffff83165f90815260016020526040812080548492906105b69084906107ed565b909155505060405182815273ffffffffffffffffffffffffffffffffffffffff84169033907fddf252ad1be2c89b69c2b068fc378daa952ba7f163c4a11628f55a4df523b3ef9060200160405180910390a35060015b92915050565b73ffffffffffffffffffffffffffffffffffffffff8381165f8181526002602090815260408083209487168084529482529182902085905590518481527f8c5be1e5ebec7d5bd14f71427d1e84f3dd0314c0f7b2291e5b200ac8c7c3b925910160405180910390a3505050565b602081525f82518060208401528060208501604085015e5f6040828501015260407fffffffffffffffffffffffffffffffffffffffffffffffffffffffffffffffe0601f83011684010191505092915050565b803573ffffffffffffffffffffffffffffffffffffffff811681146106f5575f80fd5b919050565b5f806040838503121561070b575f80fd5b610714836106d2565b946020939093013593505050565b5f805f60608486031215610734575f80fd5b61073d846106d2565b925061074b602085016106d2565b929592945050506040919091013590565b5f6020828403121561076c575f80fd5b610775826106d2565b9392505050565b5f806040838503121561078d575f80fd5b610796836106d2565b91506107a4602084016106d2565b90509250929050565b7f4e487b71000000000000000000000000000000000000000000000000000000005f52601160045260245ffd5b8181038181111561060c5761060c6107ad565b8082018082111561060c5761060c6107ad56fea164736f6c634300081a000a","linkReferences":{}},"methodIdentifiers":{"allowance(address,address)":"dd62ed3e","approve(address,uint256)":"095ea7b3","balanceOf(address)":"70a08231","burn(address,uint256)":"9dc29fac","decimals()":"313ce567","mint(address,uint256)":"40c10f19","name()":"06fdde03","setAllowance(address,address,uint256)":"da46098c","symbol()":"95d89b41","totalSupply()":"18160ddd","transfer(address,uint256)":"a9059cbb","transferFrom(address,address,uint256)":"23b872dd"},"id":47}