{"abi":[{"type":"function","name":"isValidSignature","inputs":[{"name":"","type":"bytes32","internalType":"bytes32"},{"name":"","type":"bytes","internalType":"bytes"}],"outputs":[{"name":"","type":"bytes4","internalType":"bytes4"}],"stateMutability":"view"},{"type":"function","name":"setRevertData","inputs":[{"name":"data","type":"bytes","internalType":"bytes"}],"outputs":[],"stateMutability":"nonpayable"}],"bytecode":{"object":"0x6080604052348015600e575f80fd5b506103f28061001c5f395ff3fe608060405234801561000f575f80fd5b5060043610610034575f3560e01c80631626ba7e146100385780636e554e3a14610080575b5f80fd5b61004b61004636600461017f565b610095565b6040517fffffffff00000000000000000000000000000000000000000000000000000000909116815260200160405180910390f35b61009361008e3660046101c7565b610129565b005b5f805f80546100a390610206565b80601f01602080910402602001604051908101604052809291908181526020018280546100cf90610206565b801561011a5780601f106100f15761010080835404028352916020019161011a565b820191905f5260205f20905b8154815290600101906020018083116100fd57829003601f168201915b50505050509050805160208201fd5b5f6101358284836102cf565b505050565b5f8083601f84011261014a575f80fd5b50813567ffffffffffffffff811115610161575f80fd5b602083019150836020828501011115610178575f80fd5b9250929050565b5f805f60408486031215610191575f80fd5b83359250602084013567ffffffffffffffff8111156101ae575f80fd5b6101ba8682870161013a565b9497909650939450505050565b5f80602083850312156101d8575f80fd5b823567ffffffffffffffff8111156101ee575f80fd5b6101fa8582860161013a565b90969095509350505050565b600181811c9082168061021a57607f821691505b602082108103610251577f4e487b71000000000000000000000000000000000000000000000000000000005f52602260045260245ffd5b50919050565b7f4e487b71000000000000000000000000000000000000000000000000000000005f52604160045260245ffd5b601f82111561013557805f5260205f20601f840160051c810160208510156102a95750805b601f840160051c820191505b818110156102c8575f81556001016102b5565b5050505050565b67ffffffffffffffff8311156102e7576102e7610257565b6102fb836102f58354610206565b83610284565b5f601f84116001811461034b575f85156103155750838201355b7fffffffffffffffffffffffffffffffffffffffffffffffffffffffffffffffff600387901b1c1916600186901b1783556102c8565b5f838152602081207fffffffffffffffffffffffffffffffffffffffffffffffffffffffffffffffe08716915b828110156103985786850135825560209485019460019092019101610378565b50868210156103d3577fffffffffffffffffffffffffffffffffffffffffffffffffffffffffffffffff60f88860031b161c19848701351681555b505060018560011b018355505050505056fea164736f6c634300081a000a","linkReferences":{}},"methodIdentifiers":{"isValidSignature(bytes32,bytes)":"1626ba7e","setRevertData(bytes)":"6e554e3a"},"id":216}