{"abi":[{"type":"constructor","inputs":[{"name":"_poolManager","type":"address","internalType":"contract IPoolManager"},{"name":"_permit2","type":"address","internalType":"contract IAllowanceTransfer"},{"name":"_unsubscribeGasLimit","type":"uint256","internalType":"uint256"},{"name":"_tokenDescriptor","type":"address","internalType":"contract IPositionDescriptor"},{"name":"_weth9","type":"address","internalType":"contract IWETH9"}],"stateMutability":"nonpayable"},{"type":"receive","stateMutability":"payable"},{"type":"function","name":"DOMAIN_SEPARATOR","inputs":[],"outputs":[{"name":"","type":"bytes32","internalType":"bytes32"}],"stateMutability":"view"},{"type":"function","name":"WETH9","inputs":[],"outputs":[{"name":"","type":"address","internalType":"contract IWETH9"}],"stateMutability":"view"},{"type":"function","name":"approve","inputs":[{"name":"spender","type":"address","internalType":"address"},{"name":"id","type":"uint256","internalType":"uint256"}],"outputs":[],"stateMutability":"nonpayable"},{"type":"function","name":"balanceOf","inputs":[{"name":"owner","type":"address","internalType":"address"}],"outputs":[{"name":"","type":"uint256","internalType":"uint256"}],"stateMutability":"view"},{"type":"function","name":"getApproved","inputs":[{"name":"","type":"uint256","internalType":"uint256"}],"outputs":[{"name":"","type":"address","internalType":"address"}],"stateMutability":"view"},{"type":"function","name":"getPoolAndPositionInfo","inputs":[{"name":"tokenId","type":"uint256","internalType":"uint256"}],"outputs":[{"name":"poolKey","type":"tuple","internalType":"struct PoolKey","components":[{"name":"currency0","type":"address","internalType":"Currency"},{"name":"currency1","type":"address","internalType":"Currency"},{"name":"fee","type":"uint24","internalType":"uint24"},{"name":"tickSpacing","type":"int24","internalType":"int24"},{"name":"hooks","type":"address","internalType":"contract IHooks"}]},{"name":"info","type":"uint256","internalType":"PositionInfo"}],"stateMutability":"view"},{"type":"function","name":"getPositionLiquidity","inputs":[{"name":"tokenId","type":"uint256","internalType":"uint256"}],"outputs":[{"name":"liquidity","type":"uint128","internalType":"uint128"}],"stateMutability":"view"},{"type":"function","name":"initializePool","inputs":[{"name":"key","type":"tuple","internalType":"struct PoolKey","components":[{"name":"currency0","type":"address","internalType":"Currency"},{"name":"currency1","type":"address","internalType":"Currency"},{"name":"fee","type":"uint24","internalType":"uint24"},{"name":"tickSpacing","type":"int24","internalType":"int24"},{"name":"hooks","type":"address","internalType":"contract IHooks"}]},{"name":"sqrtPriceX96","type":"uint160","internalType":"uint160"}],"outputs":[{"name":"","type":"int24","internalType":"int24"}],"stateMutability":"payable"},{"type":"function","name":"isApprovedForAll","inputs":[{"name":"","type":"address","internalType":"address"},{"name":"","type":"address","internalType":"address"}],"outputs":[{"name":"","type":"bool","internalType":"bool"}],"stateMutability":"view"},{"type":"function","name":"modifyLiquidities","inputs":[{"name":"unlockData","type":"bytes","internalType":"bytes"},{"name":"deadline","type":"uint256","internalType":"uint256"}],"outputs":[],"stateMutability":"payable"},{"type":"function","name":"modifyLiquiditiesWithoutUnlock","inputs":[{"name":"actions","type":"bytes","internalType":"bytes"},{"name":"params","type":"bytes[]","internalType":"bytes[]"}],"outputs":[],"stateMutability":"payable"},{"type":"function","name":"msgSender","inputs":[],"outputs":[{"name":"","type":"address","internalType":"address"}],"stateMutability":"view"},{"type":"function","name":"multicall","inputs":[{"name":"data","type":"bytes[]","internalType":"bytes[]"}],"outputs":[{"name":"results","type":"bytes[]","internalType":"bytes[]"}],"stateMutability":"payable"},{"type":"function","name":"name","inputs":[],"outputs":[{"name":"","type":"string","internalType":"string"}],"stateMutability":"view"},{"type":"function","name":"nextTokenId","inputs":[],"outputs":[{"name":"","type":"uint256","internalType":"uint256"}],"stateMutability":"view"},{"type":"function","name":"nonces","inputs":[{"name":"owner","type":"address","internalType":"address"},{"name":"word","type":"uint256","internalType":"uint256"}],"outputs":[{"name":"bitmap","type":"uint256","internalType":"uint256"}],"stateMutability":"view"},{"type":"function","name":"ownerOf","inputs":[{"name":"id","type":"uint256","internalType":"uint256"}],"outputs":[{"name":"owner","type":"address","internalType":"address"}],"stateMutability":"view"},{"type":"function","name":"permit","inputs":[{"name":"spender","type":"address","internalType":"address"},{"name":"tokenId","type":"uint256","internalType":"uint256"},{"name":"deadline","type":"uint256","internalType":"uint256"},{"name":"nonce","type":"uint256","internalType":"uint256"},{"name":"signature","type":"bytes","internalType":"bytes"}],"outputs":[],"stateMutability":"payable"},{"type":"function","name":"permit","inputs":[{"name":"owner","type":"address","internalType":"address"},{"name":"permitSingle","type":"tuple","internalType":"struct IAllowanceTransfer.PermitSingle","components":[{"name":"details","type":"tuple","internalType":"struct IAllowanceTransfer.PermitDetails","components":[{"name":"token","type":"address","internalType":"address"},{"name":"amount","type":"uint160","internalType":"uint160"},{"name":"expiration","type":"uint48","internalType":"uint48"},{"name":"nonce","type":"uint48","internalType":"uint48"}]},{"name":"spender","type":"address","internalType":"address"},{"name":"sigDeadline","type":"uint256","internalType":"uint256"}]},{"name":"signature","type":"bytes","internalType":"bytes"}],"outputs":[{"name":"err","type":"bytes","internalType":"bytes"}],"stateMutability":"payable"},{"type":"function","name":"permit2","inputs":[],"outputs":[{"name":"","type":"address","internalType":"contract IAllowanceTransfer"}],"stateMutability":"view"},{"type":"function","name":"permitBatch","inputs":[{"name":"owner","type":"address","internalType":"address"},{"name":"_permitBatch","type":"tuple","internalType":"struct IAllowanceTransfer.PermitBatch","components":[{"name":"details","type":"tuple[]","internalType":"struct IAllowanceTransfer.PermitDetails[]","components":[{"name":"token","type":"address","internalType":"address"},{"name":"amount","type":"uint160","internalType":"uint160"},{"name":"expiration","type":"uint48","internalType":"uint48"},{"name":"nonce","type":"uint48","internalType":"uint48"}]},{"name":"spender","type":"address","internalType":"address"},{"name":"sigDeadline","type":"uint256","internalType":"uint256"}]},{"name":"signature","type":"bytes","internalType":"bytes"}],"outputs":[{"name":"err","type":"bytes","internalType":"bytes"}],"stateMutability":"payable"},{"type":"function","name":"permitForAll","inputs":[{"name":"owner","type":"address","internalType":"address"},{"name":"operator","type":"address","internalType":"address"},{"name":"approved","type":"bool","internalType":"bool"},{"name":"deadline","type":"uint256","internalType":"uint256"},{"name":"nonce","type":"uint256","internalType":"uint256"},{"name":"signature","type":"bytes","internalType":"bytes"}],"outputs":[],"stateMutability":"payable"},{"type":"function","name":"poolKeys","inputs":[{"name":"poolId","type":"bytes25","internalType":"bytes25"}],"outputs":[{"name":"currency0","type":"address","internalType":"Currency"},{"name":"currency1","type":"address","internalType":"Currency"},{"name":"fee","type":"uint24","internalType":"uint24"},{"name":"tickSpacing","type":"int24","internalType":"int24"},{"name":"hooks","type":"address","internalType":"contract IHooks"}],"stateMutability":"view"},{"type":"function","name":"poolManager","inputs":[],"outputs":[{"name":"","type":"address","internalType":"contract IPoolManager"}],"stateMutability":"view"},{"type":"function","name":"positionInfo","inputs":[{"name":"tokenId","type":"uint256","internalType":"uint256"}],"outputs":[{"name":"info","type":"uint256","internalType":"PositionInfo"}],"stateMutability":"view"},{"type":"function","name":"revokeNonce","inputs":[{"name":"nonce","type":"uint256","internalType":"uint256"}],"outputs":[],"stateMutability":"payable"},{"type":"function","name":"safeTransferFrom","inputs":[{"name":"from","type":"address","internalType":"address"},{"name":"to","type":"address","internalType":"address"},{"name":"id","type":"uint256","internalType":"uint256"}],"outputs":[],"stateMutability":"nonpayable"},{"type":"function","name":"safeTransferFrom","inputs":[{"name":"from","type":"address","internalType":"address"},{"name":"to","type":"address","internalType":"address"},{"name":"id","type":"uint256","internalType":"uint256"},{"name":"data","type":"bytes","internalType":"bytes"}],"outputs":[],"stateMutability":"nonpayable"},{"type":"function","name":"setApprovalForAll","inputs":[{"name":"operator","type":"address","internalType":"address"},{"name":"approved","type":"bool","internalType":"bool"}],"outputs":[],"stateMutability":"nonpayable"},{"type":"function","name":"subscribe","inputs":[{"name":"tokenId","type":"uint256","internalType":"uint256"},{"name":"newSubscriber","type":"address","internalType":"address"},{"name":"data","type":"bytes","internalType":"bytes"}],"outputs":[],"stateMutability":"payable"},{"type":"function","name":"subscriber","inputs":[{"name":"tokenId","type":"uint256","internalType":"uint256"}],"outputs":[{"name":"subscriber","type":"address","internalType":"contract ISubscriber"}],"stateMutability":"view"},{"type":"function","name":"supportsInterface","inputs":[{"name":"interfaceId","type":"bytes4","internalType":"bytes4"}],"outputs":[{"name":"","type":"bool","internalType":"bool"}],"stateMutability":"view"},{"type":"function","name":"symbol","inputs":[],"outputs":[{"name":"","type":"string","internalType":"string"}],"stateMutability":"view"},{"type":"function","name":"tokenDescriptor","inputs":[],"outputs":[{"name":"","type":"address","internalType":"contract IPositionDescriptor"}],"stateMutability":"view"},{"type":"function","name":"tokenURI","inputs":[{"name":"tokenId","type":"uint256","internalType":"uint256"}],"outputs":[{"name":"","type":"string","internalType":"string"}],"stateMutability":"view"},{"type":"function","name":"transferFrom","inputs":[{"name":"from","type":"address","internalType":"address"},{"name":"to","type":"address","internalType":"address"},{"name":"id","type":"uint256","internalType":"uint256"}],"outputs":[],"stateMutability":"nonpayable"},{"type":"function","name":"unlockCallback","inputs":[{"name":"data","type":"bytes","internalType":"bytes"}],"outputs":[{"name":"","type":"bytes","internalType":"bytes"}],"stateMutability":"nonpayable"},{"type":"function","name":"unsubscribe","inputs":[{"name":"tokenId","type":"uint256","internalType":"uint256"}],"outputs":[],"stateMutability":"payable"},{"type":"function","name":"unsubscribeGasLimit","inputs":[],"outputs":[{"name":"","type":"uint256","internalType":"uint256"}],"stateMutability":"view"},{"type":"event","name":"Approval","inputs":[{"name":"owner","type":"address","indexed":true,"internalType":"address"},{"name":"spender","type":"address","indexed":true,"internalType":"address"},{"name":"id","type":"uint256","indexed":true,"internalType":"uint256"}],"anonymous":false},{"type":"event","name":"ApprovalForAll","inputs":[{"name":"owner","type":"address","indexed":true,"internalType":"address"},{"name":"operator","type":"address","indexed":true,"internalType":"address"},{"name":"approved","type":"bool","indexed":false,"internalType":"bool"}],"anonymous":false},{"type":"event","name":"Subscription","inputs":[{"name":"tokenId","type":"uint256","indexed":true,"internalType":"uint256"},{"name":"subscriber","type":"address","indexed":true,"internalType":"address"}],"anonymous":false},{"type":"event","name":"Transfer","inputs":[{"name":"from","type":"address","indexed":true,"internalType":"address"},{"name":"to","type":"address","indexed":true,"internalType":"address"},{"name":"id","type":"uint256","indexed":true,"internalType":"uint256"}],"anonymous":false},{"type":"event","name":"Unsubscription","inputs":[{"name":"tokenId","type":"uint256","indexed":true,"internalType":"uint256"},{"name":"subscriber","type":"address","indexed":true,"internalType":"address"}],"anonymous":false},{"type":"error","name":"AlreadySubscribed","inputs":[{"name":"tokenId","type":"uint256","internalType":"uint256"},{"name":"subscriber","type":"address","internalType":"address"}]},{"type":"error","name":"BurnNotificationReverted","inputs":[{"name":"subscriber","type":"address","internalType":"address"},{"name":"reason","type":"bytes","internalType":"bytes"}]},{"type":"error","name":"ContractLocked","inputs":[]},{"type":"error","name":"DeadlinePassed","inputs":[{"name":"deadline","type":"uint256","internalType":"uint256"}]},{"type":"error","name":"DeltaNotNegative","inputs":[{"name":"currency","type":"address","internalType":"Currency"}]},{"type":"error","name":"DeltaNotPositive","inputs":[{"name":"currency","type":"address","internalType":"Currency"}]},{"type":"error","name":"GasLimitTooLow","inputs":[]},{"type":"error","name":"InputLengthMismatch","inputs":[]},{"type":"error","name":"InsufficientBalance","inputs":[]},{"type":"error","name":"InvalidContractSignature","inputs":[]},{"type":"error","name":"InvalidEthSender","inputs":[]},{"type":"error","name":"InvalidSignature","inputs":[]},{"type":"error","name":"InvalidSignatureLength","inputs":[]},{"type":"error","name":"InvalidSigner","inputs":[]},{"type":"error","name":"MaximumAmountExceeded","inputs":[{"name":"maximumAmount","type":"uint128","internalType":"uint128"},{"name":"amountRequested","type":"uint128","internalType":"uint128"}]},{"type":"error","name":"MinimumAmountInsufficient","inputs":[{"name":"minimumAmount","type":"uint128","internalType":"uint128"},{"name":"amountReceived","type":"uint128","internalType":"uint128"}]},{"type":"error","name":"ModifyLiquidityNotificationReverted","inputs":[{"name":"subscriber","type":"address","internalType":"address"},{"name":"reason","type":"bytes","internalType":"bytes"}]},{"type":"error","name":"NoCodeSubscriber","inputs":[]},{"type":"error","name":"NoSelfPermit","inputs":[]},{"type":"error","name":"NonceAlreadyUsed","inputs":[]},{"type":"error","name":"NotApproved","inputs":[{"name":"caller","type":"address","internalType":"address"}]},{"type":"error","name":"NotPoolManager","inputs":[]},{"type":"error","name":"NotSubscribed","inputs":[]},{"type":"error","name":"PoolManagerMustBeLocked","inputs":[]},{"type":"error","name":"SignatureDeadlineExpired","inputs":[]},{"type":"error","name":"SubscriptionReverted","inputs":[{"name":"subscriber","type":"address","internalType":"address"},{"name":"reason","type":"bytes","internalType":"bytes"}]},{"type":"error","name":"Unauthorized","inputs":[]},{"type":"error","name":"UnsupportedAction","inputs":[{"name":"action","type":"uint256","internalType":"uint256"}]}],"bytecode":{"object":"0x6101806040526001600855348015610015575f80fd5b5060405161694e38038061694e8339810160408190526100349161017a565b80848487806040518060400160405280601881526020017f556e697377617020763420506f736974696f6e73204e465400000000000000008152506040518060400160405280600b81526020016a554e492d56342d504f534d60a81b81525082828383815f90816100a59190610279565b5060016100b28282610279565b50508151602083012060c052504660a05261012660c051604080517f8cad95687ba82c2ce50e74f7b754645e5117c3a5bec8151c0726d5857980a8666020820152908101919091524660608201523060808201525f9060a00160405160208183030381529060405280519060200120905090565b608052506001600160a01b0390811660e0526101009590955250505050908116610120529081166101405291909116610160525061033392505050565b6001600160a01b0381168114610177575f80fd5b50565b5f805f805f60a0868803121561018e575f80fd5b855161019981610163565b60208701519095506101aa81610163565b6040870151606088015191955093506101c281610163565b60808701519092506101d381610163565b809150509295509295909350565b634e487b7160e01b5f52604160045260245ffd5b600181811c9082168061020957607f821691505b60208210810361022757634e487b7160e01b5f52602260045260245ffd5b50919050565b601f82111561027457805f5260205f20601f840160051c810160208510156102525750805b601f840160051c820191505b81811015610271575f815560010161025e565b50505b505050565b81516001600160401b03811115610292576102926101e1565b6102a6816102a084546101f5565b8461022d565b6020601f8211600181146102d8575f83156102c15750848201515b5f19600385901b1c1916600184901b178455610271565b5f84815260208120601f198516915b8281101561030757878501518255602094850194600190920191016102e7565b508482101561032457868401515f19600387901b60f8161c191681555b50505050600190811b01905550565b60805160a05160c05160e051610100516101205161014051610160516164e061046e5f395f81816106340152611ade01525f81816102a3015281816105b801528181612daa01528181612df00152818161403901526140d701525f818161044501528181610a7401528181610fe10152614ff201525f81816105850152818161252101526125b001525f81816102d7015281816109ad01528181610f200152818161102101528181611718015281816118af01528181611c4001528181612136015281816129a6015281816132a3015281816139be01528181613bef01528181613c5601528181613ce401528181613dc501528181613e4401528181613f0e015281816141e6015281816147f401528181614e3201528181614f5d0152614fba01525f6112e701525f61129301525f61134101526164e05ff3fe608060405260043610610293575f3560e01c8063502e1a1611610165578063a22cb465116100c6578063d737d0c71161007c578063dd46508f11610062578063dd46508f146109cf578063e985e9c5146109e2578063f702040514610a1b575f80fd5b8063d737d0c714610969578063dc4c90d31461099c575f80fd5b8063ad0b27fb116100ac578063ad0b27fb14610918578063b88d4fde1461092b578063c87b56dd1461094a575f80fd5b8063a22cb465146108d9578063ac9650d8146108f8575f80fd5b80637ba03aad1161011b57806389097a6a1161010157806389097a6a1461087b57806391dd7346146108a657806395d89b41146108c5575f80fd5b80637ba03aad146106a957806386b6be7d146107b6575f80fd5b80636352211e1161014b5780636352211e1461065657806370a082311461067557806375794a3c14610694575f80fd5b8063502e1a16146105ed5780635a9d7a6814610623575f80fd5b80631efeed331161020f5780633aea60f0116101c55780634767565f116101ab5780634767565f146105745780634aa4a4fc146105a75780634afe393c146105da575f80fd5b80633aea60f01461054257806342842e0e14610555575f80fd5b80632b67b570116101f55780632b67b570146104fa5780632b9261de1461050d5780633644e51514610520575f80fd5b80631efeed331461049b57806323b872dd146104db575f80fd5b8063081812fc116102645780630f5730f11161024a5780630f5730f11461042157806312261ee71461043457806316a2413114610467575f80fd5b8063081812fc146103b6578063095ea7b314610402575f80fd5b80622a3e3a1461033757806301ffc9a71461036057806305c1ee201461038f57806306fdde03146103a2575f80fd5b3661033357336001600160a01b037f000000000000000000000000000000000000000000000000000000000000000016148015906102fa5750336001600160a01b037f00000000000000000000000000000000000000000000000000000000000000001614155b15610331576040517f38bbd57600000000000000000000000000000000000000000000000000000000815260040160405180910390fd5b005b5f80fd5b61034a610345366004615592565b610a41565b604051610357919061563d565b60405180910390f35b34801561036b575f80fd5b5061037f61037a36600461567c565b610b15565b6040519015158152602001610357565b61033161039d366004615697565b610bf9565b3480156103ad575f80fd5b5061034a610c06565b3480156103c1575f80fd5b506103ea6103d0366004615697565b60046020525f90815260409020546001600160a01b031681565b6040516001600160a01b039091168152602001610357565b34801561040d575f80fd5b5061033161041c3660046156ae565b610c91565b61033161042f3660046156d8565b610d22565b34801561043f575f80fd5b506103ea7f000000000000000000000000000000000000000000000000000000000000000081565b348015610472575f80fd5b506103ea610481366004615697565b60076020525f90815260409020546001600160a01b031681565b3480156104a6575f80fd5b506104ba6104b5366004615697565b610e07565b6040516fffffffffffffffffffffffffffffffff9091168152602001610357565b3480156104e6575f80fd5b506103316104f5366004615746565b610f1b565b61034a610508366004615784565b610fae565b61033161051b3660046157d7565b61101c565b34801561052b575f80fd5b50610534611290565b604051908152602001610357565b61033161055036600461580b565b611363565b348015610560575f80fd5b5061033161056f366004615746565b61142f565b34801561057f575f80fd5b506105347f000000000000000000000000000000000000000000000000000000000000000081565b3480156105b2575f80fd5b506103ea7f000000000000000000000000000000000000000000000000000000000000000081565b6103316105e83660046158d3565b611576565b3480156105f8575f80fd5b506105346106073660046156ae565b600660209081525f928352604080842090915290825290205481565b34801561062e575f80fd5b506103ea7f000000000000000000000000000000000000000000000000000000000000000081565b348015610661575f80fd5b506103ea610670366004615697565b6115fc565b348015610680575f80fd5b5061053461068f366004615933565b61167f565b34801561069f575f80fd5b5061053460085481565b3480156106b4575f80fd5b506107a86106c3366004615697565b6040805160a080820183525f80835260208084018290528385018290526060808501839052608094850183905295825260098152848220547fffffffffffffffffffffffffffffffffffffffffffffffffff0000000000000081168352600a8252918590208551938401865280546001600160a01b03908116855260018201548082169386019390935274010000000000000000000000000000000000000000830462ffffff169685019690965277010000000000000000000000000000000000000000000000909104600290810b9684019690965294909401549092169082015291565b60405161035792919061594e565b3480156107c1575f80fd5b5061083b6107d03660046159b7565b600a6020525f90815260409020805460018201546002928301546001600160a01b03928316938284169362ffffff740100000000000000000000000000000000000000008504169377010000000000000000000000000000000000000000000000900490910b911685565b604080516001600160a01b039687168152948616602086015262ffffff9093169284019290925260020b606083015291909116608082015260a001610357565b348015610886575f80fd5b50610534610895366004615697565b60096020525f908152604090205481565b3480156108b1575f80fd5b5061034a6108c03660046159f6565b61170b565b3480156108d0575f80fd5b5061034a611780565b3480156108e4575f80fd5b506103316108f3366004615a35565b61178d565b61090b610906366004615a68565b61179c565b6040516103579190615a9b565b610331610926366004615697565b6118aa565b348015610936575f80fd5b50610331610945366004615b1c565b611969565b348015610955575f80fd5b5061034a610964366004615697565b611aa6565b348015610974575f80fd5b507f0aedd6bde10e3aa2adec092b02a3e3e805795516cda41f27aa145b8f300af87a5c6103ea565b3480156109a7575f80fd5b506103ea7f000000000000000000000000000000000000000000000000000000000000000081565b6103316109dd366004615b8a565b611b51565b3480156109ed575f80fd5b5061037f6109fc366004615bd2565b600560209081525f928352604080842090915290825290205460ff1681565b610a2e610a29366004615c09565b611c0e565b60405160029190910b8152602001610357565b6040517f2a2d80d10000000000000000000000000000000000000000000000000000000081526060906001600160a01b037f00000000000000000000000000000000000000000000000000000000000000001690632a2d80d190610aaf908890889088908890600401615ce0565b5f604051808303815f87803b158015610ac6575f80fd5b505af1925050508015610ad7575060015b610b0d573d808015610b04576040519150601f19603f3d011682016040523d82523d5f602084013e610b09565b606091505b5090505b949350505050565b5f7f01ffc9a7000000000000000000000000000000000000000000000000000000007fffffffff0000000000000000000000000000000000000000000000000000000083161480610ba757507f80ac58cd000000000000000000000000000000000000000000000000000000007fffffffff000000000000000000000000000000000000000000000000000000008316145b80610bf357507f5b5e139f000000000000000000000000000000000000000000000000000000007fffffffff000000000000000000000000000000000000000000000000000000008316145b92915050565b610c033382611cc6565b50565b5f8054610c1290615dd9565b80601f0160208091040260200160405190810160405280929190818152602001828054610c3e90615dd9565b8015610c895780601f10610c6057610100808354040283529160200191610c89565b820191905f5260205f20905b815481529060010190602001808311610c6c57829003601f168201915b505050505081565b5f818152600260205260409020546001600160a01b0316338114801590610cdb57506001600160a01b0381165f90815260056020908152604080832033845290915290205460ff16155b15610d12576040517f82b4290000000000000000000000000000000000000000000000000000000000815260040160405180910390fd5b610d1d818484611d46565b505050565b8380421115610d5d576040517f5a9165ff00000000000000000000000000000000000000000000000000000000815260040160405180910390fd5b5f8681526002602090815260408083205481517f49ecf333e5b8c95c40fdafc95c1ad136e8914a8fb55e9dc8bb01eaa83a2df9ad81526001600160a01b038c81169482019485529281018b8152606082018a8152608083018c815260a08420938890529587905290869052859052939092521690610de7610ddd82611db9565b8690869085611e13565b610df18287611cc6565b610dfc828a8a611d46565b505050505050505050565b5f805f610ef3846040805160a080820183525f80835260208084018290528385018290526060808501839052608094850183905295825260098152848220547fffffffffffffffffffffffffffffffffffffffffffffffffff0000000000000081168352600a8252918590208551938401865280546001600160a01b03908116855260018201548082169386019390935274010000000000000000000000000000000000000000830462ffffff169685019690965277010000000000000000000000000000000000000000000000909104600290810b9684019690965294909401549092169082015291565b91509150610b0d8483610f098460081c60020b90565b610f168560201c60020b90565b6120ef565b610f4d7f00000000000000000000000000000000000000000000000000000000000000006001600160a01b0316612167565b15610f84576040517fd4b05fe000000000000000000000000000000000000000000000000000000000815260040160405180910390fd5b610f8f838383612210565b5f8181526009602052604090205460ff1615610d1d57610d1d81612485565b6040517f2b67b5700000000000000000000000000000000000000000000000000000000081526060906001600160a01b037f00000000000000000000000000000000000000000000000000000000000000001690632b67b57090610aaf908890889088908890600401615e2a565b61104e7f00000000000000000000000000000000000000000000000000000000000000006001600160a01b0316612167565b15611085576040517fd4b05fe000000000000000000000000000000000000000000000000000000000815260040160405180910390fd5b33846110918282612637565b6110d7576040517f0ca968d80000000000000000000000000000000000000000000000000000000081526001600160a01b03831660048201526024015b60405180910390fd5b5f868152600760205260409020546001600160a01b03168015611138576040517f25fbd8be000000000000000000000000000000000000000000000000000000008152600481018890526001600160a01b03821660248201526044016110ce565b611141876126be565b5f8781526007602052604080822080547fffffffffffffffffffffffff0000000000000000000000000000000000000000166001600160a01b038a16179055516111f6908890611199908b908a908a90602401615e83565b60408051601f198184030181529190526020810180517bffffffffffffffffffffffffffffffffffffffffffffffffffffffff167f8d57f6b2000000000000000000000000000000000000000000000000000000001790526126e1565b905080611251576112516001600160a01b0388167f8d57f6b2000000000000000000000000000000000000000000000000000000007f81ea5e9e0000000000000000000000000000000000000000000000000000000061272f565b6040516001600160a01b0388169089907f9709492381f90bdc5938bb4e3b8e35b7e0eac8af058619e27191c5a40ce79fa9905f90a35050505050505050565b5f7f0000000000000000000000000000000000000000000000000000000000000000461461133e57611339604080517f8cad95687ba82c2ce50e74f7b754645e5117c3a5bec8151c0726d5857980a86660208201527f0000000000000000000000000000000000000000000000000000000000000000918101919091524660608201523060808201525f9060a00160405160208183030381529060405280519060200120905090565b905090565b507f000000000000000000000000000000000000000000000000000000000000000090565b838042111561139e576040517f5a9165ff00000000000000000000000000000000000000000000000000000000815260040160405180910390fd5b604080517f6673cb397ee2a50b6b8401653d3638b4ac8b3db9c28aa6870ffceb7574ec2f7681526001600160a01b0389166020820190815260018916928201928352606082018781526080830189815260a084205f948590529284905293839052829052915261141a61141082611db9565b859085908c611e13565b6114248986611cc6565b610dfc8989896127f0565b61143a838383610f1b565b6001600160a01b0382163b158061151057506040517f150b7a02000000000000000000000000000000000000000000000000000000008082523360048301526001600160a01b03858116602484015260448301849052608060648401525f608484015290919084169063150b7a029060a4016020604051808303815f875af11580156114c8573d5f803e3d5ffd5b505050506040513d601f19601f820116820180604052508101906114ec9190615e9c565b7fffffffff0000000000000000000000000000000000000000000000000000000016145b610d1d576040517f08c379a000000000000000000000000000000000000000000000000000000000815260206004820152601060248201527f554e534146455f524543495049454e540000000000000000000000000000000060448201526064016110ce565b6001600160a01b037f0aedd6bde10e3aa2adec092b02a3e3e805795516cda41f27aa145b8f300af87a5c16156115d8576040517f6f5ffb7e00000000000000000000000000000000000000000000000000000000815260040160405180910390fd5b6115e13361287a565b6115ed848484846128a0565b6115f65f61287a565b50505050565b5f818152600260205260409020546001600160a01b03168061167a576040517f08c379a000000000000000000000000000000000000000000000000000000000815260206004820152600a60248201527f4e4f545f4d494e5445440000000000000000000000000000000000000000000060448201526064016110ce565b919050565b5f6001600160a01b0382166116f0576040517f08c379a000000000000000000000000000000000000000000000000000000000815260206004820152600c60248201527f5a45524f5f41444452455353000000000000000000000000000000000000000060448201526064016110ce565b506001600160a01b03165f9081526003602052604090205490565b6060336001600160a01b037f0000000000000000000000000000000000000000000000000000000000000000161461176f576040517fae18210a00000000000000000000000000000000000000000000000000000000815260040160405180910390fd5b6117798383612939565b9392505050565b60018054610c1290615dd9565b6117983383836127f0565b5050565b60608167ffffffffffffffff8111156117b7576117b7615eb7565b6040519080825280602002602001820160405280156117ea57816020015b60608152602001906001900390816117d55790505b5090505f5b828110156118a3575f803086868581811061180c5761180c615ee4565b905060200281019061181e9190615f11565b60405161182c929190615f72565b5f60405180830381855af49150503d805f8114611864576040519150601f19603f3d011682016040523d82523d5f602084013e611869565b606091505b50915091508161187b57805160208201fd5b8084848151811061188e5761188e615ee4565b602090810291909101015250506001016117ef565b5092915050565b6118dc7f00000000000000000000000000000000000000000000000000000000000000006001600160a01b0316612167565b15611913576040517fd4b05fe000000000000000000000000000000000000000000000000000000000815260040160405180910390fd5b338161191f8282612637565b611960576040517f0ca968d80000000000000000000000000000000000000000000000000000000081526001600160a01b03831660048201526024016110ce565b610d1d83612485565b611974858585610f1b565b6001600160a01b0384163b1580611a3957506040517f150b7a0200000000000000000000000000000000000000000000000000000000808252906001600160a01b0386169063150b7a02906119d59033908a90899089908990600401615f81565b6020604051808303815f875af11580156119f1573d5f803e3d5ffd5b505050506040513d601f19601f82011682018060405250810190611a159190615e9c565b7fffffffff0000000000000000000000000000000000000000000000000000000016145b611a9f576040517f08c379a000000000000000000000000000000000000000000000000000000000815260206004820152601060248201527f554e534146455f524543495049454e540000000000000000000000000000000060448201526064016110ce565b5050505050565b6040517fe9dc6375000000000000000000000000000000000000000000000000000000008152306004820152602481018290526060907f00000000000000000000000000000000000000000000000000000000000000006001600160a01b03169063e9dc6375906044015f60405180830381865afa158015611b2a573d5f803e3d5ffd5b505050506040513d5f823e601f3d908101601f19168201604052610bf3919081019061603a565b6001600160a01b037f0aedd6bde10e3aa2adec092b02a3e3e805795516cda41f27aa145b8f300af87a5c1615611bb3576040517f6f5ffb7e00000000000000000000000000000000000000000000000000000000815260040160405180910390fd5b611bbc3361287a565b8080421115611bfa576040517fbfb22adf000000000000000000000000000000000000000000000000000000008152600481018290526024016110ce565b611c048484612976565b50610d1d5f61287a565b6040517f6276cbbe0000000000000000000000000000000000000000000000000000000081525f906001600160a01b037f00000000000000000000000000000000000000000000000000000000000000001690636276cbbe90611c77908690869060040161609d565b6020604051808303815f875af1925050508015611cb1575060408051601f3d908101601f19168201909252611cae91810190616135565b60015b611cbf5750627fffff610bf3565b9050610bf3565b6001600160a01b0382165f908152600660209081526040808320600885901c808552925282208054600160ff861690811b9182189283905592939091908183169003611d3e576040517f1fb09b8000000000000000000000000000000000000000000000000000000000815260040160405180910390fd5b505050505050565b5f8181526004602052604080822080547fffffffffffffffffffffffff0000000000000000000000000000000000000000166001600160a01b0386811691821790925591518493918716917f8c5be1e5ebec7d5bd14f71427d1e84f3dd0314c0f7b2291e5b200ac8c7c3b92591a4505050565b5f80611dc3611290565b90506040517f190100000000000000000000000000000000000000000000000000000000000081528160028201528360228201526042812092505f81525f60208201525f60408201525050919050565b5f805f836001600160a01b03163b5f03611fdd576041869003611e6557611e3c86880188616150565b909350915086866040818110611e5457611e54615ee4565b919091013560f81c9150611eee9050565b6040869003611ebc575f611e7b87890189616150565b9094507f7fffffffffffffffffffffffffffffffffffffffffffffffffffffffffffffff811693509050611eb460ff82901c601b61619d565b915050611eee565b6040517f4be6321b00000000000000000000000000000000000000000000000000000000815260040160405180910390fd5b604080515f8082526020820180845288905260ff841692820192909252606081018590526080810184905260019060a0016020604051602081039080840390855afa158015611f3f573d5f803e3d5ffd5b5050604051601f1901519150506001600160a01b038116611f8c576040517f8baa579f00000000000000000000000000000000000000000000000000000000815260040160405180910390fd5b846001600160a01b0316816001600160a01b031614611fd7576040517f815e1d6400000000000000000000000000000000000000000000000000000000815260040160405180910390fd5b506120e6565b6040517f1626ba7e0000000000000000000000000000000000000000000000000000000081525f906001600160a01b03861690631626ba7e906120289089908c908c90600401615e83565b602060405180830381865afa158015612043573d5f803e3d5ffd5b505050506040513d601f19601f820116820180604052508101906120679190615e9c565b90507fffffffff0000000000000000000000000000000000000000000000000000000081167f1626ba7e00000000000000000000000000000000000000000000000000000000146120e4576040517fb0669cbc00000000000000000000000000000000000000000000000000000000815260040160405180910390fd5b505b50505050505050565b60408051602681018690526006810183905260038101849052308152603a600c8201205f928201839052602082018390529082905260a0852061215d906001600160a01b037f0000000000000000000000000000000000000000000000000000000000000000169083612a1f565b9695505050505050565b6040517ff135baaa0000000000000000000000000000000000000000000000000000000081527fc090fc4683624cfc3884e9d8de5eca132f2d0ec062aff75d43c0465d5ceeab2360048201525f906001600160a01b0383169063f135baaa90602401602060405180830381865afa1580156121e4573d5f803e3d5ffd5b505050506040513d601f19601f8201168201806040525081019061220891906161b6565b151592915050565b5f818152600260205260409020546001600160a01b03848116911614612292576040517f08c379a000000000000000000000000000000000000000000000000000000000815260206004820152600a60248201527f57524f4e475f46524f4d0000000000000000000000000000000000000000000060448201526064016110ce565b6001600160a01b038216612302576040517f08c379a000000000000000000000000000000000000000000000000000000000815260206004820152601160248201527f494e56414c49445f524543495049454e5400000000000000000000000000000060448201526064016110ce565b336001600160a01b038416148061233b57506001600160a01b0383165f90815260056020908152604080832033845290915290205460ff165b8061235b57505f818152600460205260409020546001600160a01b031633145b6123c1576040517f08c379a000000000000000000000000000000000000000000000000000000000815260206004820152600e60248201527f4e4f545f415554484f52495a454400000000000000000000000000000000000060448201526064016110ce565b6001600160a01b038084165f81815260036020908152604080832080547fffffffffffffffffffffffffffffffffffffffffffffffffffffffffffffffff019055938616808352848320805460010190558583526002825284832080547fffffffffffffffffffffffff00000000000000000000000000000000000000009081168317909155600490925284832080549092169091559251849392917fddf252ad1be2c89b69c2b068fc378daa952ba7f163c4a11628f55a4df523b3ef91a4505050565b5f818152600760205260409020546001600160a01b0316806124d3576040517f237e6c2800000000000000000000000000000000000000000000000000000000815260040160405180910390fd5b6124dc82612ab8565b5f82815260076020526040902080547fffffffffffffffffffffffff00000000000000000000000000000000000000001690556001600160a01b0381163b156125fe577f00000000000000000000000000000000000000000000000000000000000000005a1015612570576125707fed43c3a600000000000000000000000000000000000000000000000000000000612aed565b6040517faf45dd14000000000000000000000000000000000000000000000000000000008152600481018390526001600160a01b0382169063af45dd14907f0000000000000000000000000000000000000000000000000000000000000000906024015f604051808303815f88803b1580156125ea575f80fd5b5087f1935050505080156125fc575060015b505b6040516001600160a01b0382169083907fa0ebb1de82db929a9153472f37d3a66dbede4436258311ad0f52a35a2c91d150905f90a35050565b5f612641826115fc565b6001600160a01b0316836001600160a01b0316148061267857505f828152600460205260409020546001600160a01b038481169116145b80611779575060055f61268a846115fc565b6001600160a01b03908116825260208083019390935260409182015f9081209187168152925290205460ff16905092915050565b5f818152600960205260409020546001175b5f9182526009602052604090912055565b5f826001600160a01b03163b5f0361271c5761271c7f7c402b2100000000000000000000000000000000000000000000000000000000612aed565b5f808351602085015f875af19392505050565b6040517f90bfb865000000000000000000000000000000000000000000000000000000008082526001600160a01b03851660048301527fffffffff0000000000000000000000000000000000000000000000000000000084166024830152608060448301526020601f3d018190040260a0810160648401523d608484015290913d5f60a483013e60048260a4018201527fffffffff0000000000000000000000000000000000000000000000000000000084168260c4018201528160e40181fd5b6001600160a01b038381165f8181526005602090815260408083209487168084529482529182902080547fffffffffffffffffffffffffffffffffffffffffffffffffffffffffffffff001686151590811790915591519182527f17307eab39ab6107e8899845ad3d59bd9653f200f220920489ca2b5937696c31910160405180910390a3505050565b807f0aedd6bde10e3aa2adec092b02a3e3e805795516cda41f27aa145b8f300af87a5d50565b828181146128da576040517faaad13f700000000000000000000000000000000000000000000000000000000815260040160405180910390fd5b5f5b81811015611d3e575f8686838181106128f7576128f7615ee4565b919091013560f81c915061293090508186868581811061291957612919615ee4565b905060200281019061292b9190615f11565b612af5565b506001016128dc565b6060365f365f6129498787612e50565b935093509350935061295d848484846128a0565b505060408051602081019091525f815295945050505050565b6040517f48c894910000000000000000000000000000000000000000000000000000000081526001600160a01b037f000000000000000000000000000000000000000000000000000000000000000016906348c89491906129dd90859085906004016161cd565b5f604051808303815f875af11580156129f8573d5f803e3d5ffd5b505050506040513d5f823e601f3d908101601f19168201604052610d1d919081019061603a565b5f80612a2b8484612ef8565b6040517f1e2eaeaf000000000000000000000000000000000000000000000000000000008152600481018290529091506001600160a01b03861690631e2eaeaf906024015b602060405180830381865afa158015612a8b573d5f803e3d5ffd5b505050506040513d601f19601f82011682018060405250810190612aaf91906161b6565b95945050505050565b5f818152600960205260409020547fffffffffffffffffffffffffffffffffffffffffffffffffffffffffffffff00166126d0565b805f5260045ffd5b600b831015612c635782612b2d575f805f80365f612b138888612f48565b955095509550955095509550610dfc868686868686612f75565b60048303612b5b575f805f365f612b448787613104565b945094509450945094506120e4858585858561312c565b60018303612b8d575f805f80365f612b738888612f48565b955095509550955095509550610dfc868686868686613354565b60028303612be157365f805f805f80365f612ba88b8b6134e4565b985098509850985098509850985098509850612bd3898989898989612bcc8a613525565b89896135b8565b505050505050505050505050565b60058303612c3057365f805f805f365f612bfb8a8a6136d6565b97509750975097509750975097509750612c238888888888612c1c89613525565b8888613711565b5050505050505050505050565b60038303612c5e575f805f365f612c478787613104565b945094509450945094506120e485858585856137ab565b612e1b565b600d8303612c85575f80612c778484613a79565b91509150611a9f8282613aa1565b60118303612cb3575f805f612c9a8585613adf565b925092509250611d3e8383612cae84613525565b613b0d565b600b8303612cea575f805f612cc88585613adf565b925092509250611d3e83612cdb83613b29565b612ce58587613b5c565b613bab565b600e8303612d21575f805f612cff8585613adf565b925092509250611d3e83612d1284613525565b612d1c8487613d63565b613d72565b60128303612d3f575f612d348383613e19565b90506115f681613e36565b60138303612d61575f80612d538484613a79565b91509150611a9f8282613eb0565b60148303612d8b575f80612d758484613a79565b91509150611a9f82612d8683613525565b613f69565b60158303612dd3575f612d9e8383613e19565b90506115f6612dce5f837f0000000000000000000000000000000000000000000000000000000000000000613f98565b614031565b60168303612e1b575f612de68383613e19565b90506115f6612e167f0000000000000000000000000000000000000000000000000000000000000000835f613f98565b6140a2565b6040517f5cda29d7000000000000000000000000000000000000000000000000000000008152600481018490526024016110ce565b365f365f604086351860608701945063ffffffff6040880135169350606063ffffffe0601f860116018060208901351882179150808801905063ffffffff8135169250602081019350508160051b805f5b82811015612ed057858101358281189490941793860135601f0163ffffffe01690910160209081019101612ea1565b5080850189890110831715612eec57633b99b53d5f526004601cfd5b50505092959194509250565b5f80612f0384614132565b90505f612f116006836161e0565b6040805160208101879052908101829052909150606001604051602081830303815290604052805190602001209250505092915050565b8135602083013560408401356060850135365f612f678888600461416e565b915091509295509295509295565b7f0aedd6bde10e3aa2adec092b02a3e3e805795516cda41f27aa145b8f300af87a5c86612fa28282612637565b612fe3576040517f0ca968d80000000000000000000000000000000000000000000000000000000081526001600160a01b03831660048201526024016110ce565b5f806130ce8a6040805160a080820183525f80835260208084018290528385018290526060808501839052608094850183905295825260098152848220547fffffffffffffffffffffffffffffffffffffffffffffffffff0000000000000081168352600a8252918590208551938401865280546001600160a01b03908116855260018201548082169386019390935274010000000000000000000000000000000000000000830462ffffff169685019690965277010000000000000000000000000000000000000000000000909104600290810b9684019690965294909401549092169082015291565b915091505f806130ea83856130e28e6141b0565b8f8c8c6141e2565b91509150612bd38a8a6130fd85856142d7565b919061431d565b813560208301356040840135365f61311e8787600361416e565b915091509295509295909350565b7f0aedd6bde10e3aa2adec092b02a3e3e805795516cda41f27aa145b8f300af87a5c856131598282612637565b61319a576040517f0ca968d80000000000000000000000000000000000000000000000000000000081526001600160a01b03831660048201526024016110ce565b5f80613285896040805160a080820183525f80835260208084018290528385018290526060808501839052608094850183905295825260098152848220547fffffffffffffffffffffffffffffffffffffffffffffffffff0000000000000081168352600a8252918590208551938401865280546001600160a01b03908116855260018201548082169386019390935274010000000000000000000000000000000000000000830462ffffff169685019690965277010000000000000000000000000000000000000000000000909104600290810b9684019690965294909401549092169082015291565b915091505f806132c96132998560a0902090565b6001600160a01b037f0000000000000000000000000000000000000000000000000000000000000000169061441d565b5050509050613314816132e76132e28660081c60020b90565b6144e8565b6132f76132e28760201c60020b90565b8751613302906147e5565b61330f89602001516147e5565b614862565b6fffffffffffffffffffffffffffffffff169150505f806133418486613339866141b0565b8f8d8d6141e2565b91509150612bd38b8b6130fd85856142d7565b7f0aedd6bde10e3aa2adec092b02a3e3e805795516cda41f27aa145b8f300af87a5c866133818282612637565b6133c2576040517f0ca968d80000000000000000000000000000000000000000000000000000000081526001600160a01b03831660048201526024016110ce565b5f806134ad8a6040805160a080820183525f80835260208084018290528385018290526060808501839052608094850183905295825260098152848220547fffffffffffffffffffffffffffffffffffffffffffffffffff0000000000000081168352600a8252918590208551938401865280546001600160a01b03908116855260018201548082169386019390935274010000000000000000000000000000000000000000830462ffffff169685019690965277010000000000000000000000000000000000000000000000909104600290810b9684019690965294909401549092169082015291565b915091505f806134ca83856134c18e6141b0565b6130e2906161f3565b91509150612bd38a8a6134dd85856142d7565b9190614929565b8160a081013560c082013560e0830135610100840135610120850135610140860135365f613514898b600b61416e565b915091509295985092959850929598565b5f7fffffffffffffffffffffffffffffffffffffffffffffffffffffffffffffffff6001600160a01b0383160161357d577f0aedd6bde10e3aa2adec092b02a3e3e805795516cda41f27aa145b8f300af87a5c610bf3565b7ffffffffffffffffffffffffffffffffffffffffffffffffffffffffffffffffe6001600160a01b038316016135b4575030919050565b5090565b60088054600181019091556135cd8482614a0b565b5f6135e76135e0368d90038d018d616229565b8b8b614b7b565b5f8381526009602090815260408083208490557fffffffffffffffffffffffffffffffffffffffffffffffffff000000000000008416808452600a9092528220600101549293509177010000000000000000000000000000000000000000000000900460020b9003613692577fffffffffffffffffffffffffffffffffffffffffffffffffff0000000000000081165f908152600a602052604090208c9061368f82826162c1565b50505b5f6136b9838e8036038101906136a89190616229565b6136b18d6141b0565b878a8a6141e2565b5090506136c7818a8a61431d565b50505050505050505050505050565b8160a081013560c082013560e0830135610100840135610120850135365f613700888a600a61416e565b915091509295985092959890939650565b5f61372e613299613727368c90038c018c616229565b60a0902090565b50505090505f61377a826137418b6144e8565b61374a8b6144e8565b6137648e5f01602081019061375f9190615933565b6147e5565b61330f8f602001602081019061375f9190615933565b6fffffffffffffffffffffffffffffffff16905061379f8a8a8a848b8b8b8b8b6135b8565b50505050505050505050565b7f0aedd6bde10e3aa2adec092b02a3e3e805795516cda41f27aa145b8f300af87a5c856137d88282612637565b613819576040517f0ca968d80000000000000000000000000000000000000000000000000000000081526001600160a01b03831660048201526024016110ce565b5f80613904896040805160a080820183525f80835260208084018290528385018290526060808501839052608094850183905295825260098152848220547fffffffffffffffffffffffffffffffffffffffffffffffffff0000000000000081168352600a8252918590208551938401865280546001600160a01b03908116855260018201548082169386019390935274010000000000000000000000000000000000000000830462ffffff169685019690965277010000000000000000000000000000000000000000000000909104600290810b9684019690965294909401549092169082015291565b915091505f6139288a8461391b8560081c60020b90565b610f168660201c60020b90565b6fffffffffffffffffffffffffffffffff1690505f6139468b6115fc565b5f8c815260096020526040812055905061395f8b614bcb565b5f8215613a63575f8060405180608001604052806139808860081c60020b90565b60020b81526020016139958860201c60020b90565b60020b81526020016139a6876141b0565b6139af906161f3565b81526020018f5f1b81525090507f00000000000000000000000000000000000000000000000000000000000000006001600160a01b0316635a6bcfda88838e8e6040518563ffffffff1660e01b8152600401613a0e9493929190616414565b60408051808303815f875af1158015613a29573d5f803e3d5ffd5b505050506040513d601f19601f82011682018060405250810190613a4d91906164b1565b93509150613a608d8d6134dd85876142d7565b50505b60ff841615612bd357612bd38c83868685614cf9565b5f806040831015613a9157633b99b53d5f526004601cfd5b5050813592602090920135919050565b7f0aedd6bde10e3aa2adec092b02a3e3e805795516cda41f27aa145b8f300af87a5c613ad18382612ce582614e23565b610d1d8282612ce585614e23565b5f805f6060841015613af857633b99b53d5f526004601cfd5b50508235936020840135936040013592509050565b613b1b8382612d1c866147e5565b610d1d8282612d1c856147e5565b5f81613b355730610bf3565b7f0aedd6bde10e3aa2adec092b02a3e3e805795516cda41f27aa145b8f300af87a5c610bf3565b5f7f80000000000000000000000000000000000000000000000000000000000000008303613b9657611cbf826001600160a01b0316614ea9565b82613ba457611cbf82614e23565b5081610bf3565b805f03613bb757505050565b6040517fa58411940000000000000000000000000000000000000000000000000000000081526001600160a01b0384811660048301527f0000000000000000000000000000000000000000000000000000000000000000169063a5841194906024015f604051808303815f87803b158015613c30575f80fd5b505af1158015613c42573d5f803e3d5ffd5b505050506001600160a01b038316613cd7577f00000000000000000000000000000000000000000000000000000000000000006001600160a01b03166311da60b4826040518263ffffffff1660e01b815260040160206040518083038185885af1158015613cb2573d5f803e3d5ffd5b50505050506040513d601f19601f820116820180604052508101906115f691906161b6565b613ce2838383614f3e565b7f00000000000000000000000000000000000000000000000000000000000000006001600160a01b03166311da60b46040518163ffffffff1660e01b81526004016020604051808303815f875af1158015613d3f573d5f803e3d5ffd5b505050506040513d601f19601f820116820180604052508101906115f691906161b6565b5f82613ba457611cbf826147e5565b805f03613d7e57505050565b6040517f0b0d9c090000000000000000000000000000000000000000000000000000000081526001600160a01b0384811660048301528381166024830152604482018390527f00000000000000000000000000000000000000000000000000000000000000001690630b0d9c09906064015b5f604051808303815f87803b158015613e07575f80fd5b505af11580156120e6573d5f803e3d5ffd5b5f6020821015613e3057633b99b53d5f526004601cfd5b50503590565b5f613e6b6001600160a01b037f0000000000000000000000000000000000000000000000000000000000000000163084615021565b90507f0aedd6bde10e3aa2adec092b02a3e3e805795516cda41f27aa145b8f300af87a5c5f821215613ea557610d1d8382612ce5856161f3565b610d1d838284613d72565b5f613eba836147e5565b9050805f03613ec857505050565b818111613f3d576040517f80f0b44c0000000000000000000000000000000000000000000000000000000081526001600160a01b038481166004830152602482018390527f000000000000000000000000000000000000000000000000000000000000000016906380f0b44c90604401613df0565b610d1d837f0aedd6bde10e3aa2adec092b02a3e3e805795516cda41f27aa145b8f300af87a5c83613d72565b5f613f7c836001600160a01b0316614ea9565b90508015610d1d57610d1d6001600160a01b0384168383615070565b5f80613fad6001600160a01b03861630615173565b90507f80000000000000000000000000000000000000000000000000000000000000008403613fdd579050611779565b83613fee57613feb83614e23565b93505b80841115614028576040517ff4d678b800000000000000000000000000000000000000000000000000000000815260040160405180910390fd5b50919392505050565b8015610c03577f00000000000000000000000000000000000000000000000000000000000000006001600160a01b031663d0e30db0826040518263ffffffff1660e01b81526004015f604051808303818588803b158015614090575f80fd5b505af1158015611d3e573d5f803e3d5ffd5b8015610c03576040517f2e1a7d4d000000000000000000000000000000000000000000000000000000008152600481018290527f00000000000000000000000000000000000000000000000000000000000000006001600160a01b031690632e1a7d4d906024015f604051808303815f87803b158015614120575f80fd5b505af1158015611a9f573d5f803e3d5ffd5b6040515f90614151908390600690602001918252602082015260400190565b604051602081830303815290604052805190602001209050919050565b63ffffffff600582901b84013581168401602081810192823516918291849183010186880110156141a657633b99b53d5f526004601cfd5b5050935093915050565b805f81121561167a5761167a7f93dafdf100000000000000000000000000000000000000000000000000000000612aed565b5f807f00000000000000000000000000000000000000000000000000000000000000006001600160a01b0316635a6bcfda88604051806080016040528061422c8d60081c60020b90565b60020b81526020016142418d60201c60020b90565b60020b81526020018a81526020018981525087876040518563ffffffff1660e01b81526004016142749493929190616414565b60408051808303815f875af115801561428f573d5f803e3d5ffd5b505050506040513d601f19601f820116820180604052508101906142b391906164b1565b909250905060ff8816156142cc576142cc858783615214565b965096945050505050565b5f608082811d9084901d03600f83810b9085900b03612aaf6142f883615308565b61430183615308565b6fffffffffffffffffffffffffffffffff1660809190911b1790565b5f6143288460801d90565b600f0b90505f61433885600f0b90565b600f0b90505f821280156143775750614350826161f3565b6fffffffffffffffffffffffffffffffff16846fffffffffffffffffffffffffffffffff16105b156143d45783614386836161f3565b6040517f31e30ad00000000000000000000000000000000000000000000000000000000081526fffffffffffffffffffffffffffffffff9283166004820152911660248201526044016110ce565b5f8112801561440e57506143e7816161f3565b6fffffffffffffffffffffffffffffffff16836fffffffffffffffffffffffffffffffff16105b15611a9f5782614386826161f3565b5f805f805f61442b86614132565b6040517f1e2eaeaf000000000000000000000000000000000000000000000000000000008152600481018290529091505f906001600160a01b03891690631e2eaeaf90602401602060405180830381865afa15801561448c573d5f803e3d5ffd5b505050506040513d601f19601f820116820180604052508101906144b091906161b6565b90506001600160a01b03811695508060a01c60020b945062ffffff8160b81c16935062ffffff8160d01c169250505092959194509250565b60020b5f60ff82901d80830118620d89e881111561452a5761452a7f8b86327a000000000000000000000000000000000000000000000000000000008461533d565b7001fffcb933bd6fad37aa2d162d1a5940016001821602700100000000000000000000000000000000186002821615614573576ffff97272373d413259a46990580e213a0260801c5b6004821615614592576ffff2e50f5f656932ef12357cf3c7fdcc0260801c5b60088216156145b1576fffe5caca7e10e4e61c3624eaa0941cd00260801c5b60108216156145d0576fffcb9843d60f6159c9db58835c9266440260801c5b60208216156145ef576fff973b41fa98c081472e6896dfb254c00260801c5b604082161561460e576fff2ea16466c96a3843ec78b326b528610260801c5b608082161561462d576ffe5dee046a99a2a811c461f1969c30530260801c5b61010082161561464d576ffcbe86c7900a88aedcffc83b479aa3a40260801c5b61020082161561466d576ff987a7253ac413176f2b074cf7815e540260801c5b61040082161561468d576ff3392b0822b70005940c7a398e4b70f30260801c5b6108008216156146ad576fe7159475a2c29b7443b29c7fa6e889d90260801c5b6110008216156146cd576fd097f3bdfd2022b8845ad8f792aa58250260801c5b6120008216156146ed576fa9f746462d870fdf8a65dc1f90e061e50260801c5b61400082161561470d576f70d869a156d2a1b890bb3df62baf32f70260801c5b61800082161561472d576f31be135f97d08fd981231505542fcfa60260801c5b6201000082161561474e576f09aa508b5b7a84e1c677de54f3e99bc90260801c5b6202000082161561476e576e5d6af8dedb81196699c329225ee6040260801c5b6204000082161561478d576d2216e584f5fa1ea926041bedfe980260801c5b620800008216156147aa576b048a170391f7dc42444e8fa20260801c5b5f8413156147d5577fffffffffffffffffffffffffffffffffffffffffffffffffffffffffffffffff045b63ffffffff0160201c9392505050565b5f8061481b6001600160a01b037f0000000000000000000000000000000000000000000000000000000000000000163085615021565b90505f811215610bf3576040517f4c085bf10000000000000000000000000000000000000000000000000000000081526001600160a01b03841660048201526024016110ce565b5f836001600160a01b0316856001600160a01b03161115614881579293925b846001600160a01b0316866001600160a01b0316116148ac576148a585858561534c565b9050612aaf565b836001600160a01b0316866001600160a01b0316101561491e575f6148d287868661534c565b90505f6148e08789866153b6565b9050806fffffffffffffffffffffffffffffffff16826fffffffffffffffffffffffffffffffff16106149135780614915565b815b92505050612aaf565b61215d8585846153b6565b816fffffffffffffffffffffffffffffffff166149516149498560801d90565b600f0b6153fb565b6fffffffffffffffffffffffffffffffff1610156149c557816149776149498560801d90565b6040517f12816f220000000000000000000000000000000000000000000000000000000081526fffffffffffffffffffffffffffffffff9283166004820152911660248201526044016110ce565b806fffffffffffffffffffffffffffffffff166149e561494985600f0b90565b6fffffffffffffffffffffffffffffffff161015610d1d578061497761494985600f0b90565b6001600160a01b038216614a7b576040517f08c379a000000000000000000000000000000000000000000000000000000000815260206004820152601160248201527f494e56414c49445f524543495049454e5400000000000000000000000000000060448201526064016110ce565b5f818152600260205260409020546001600160a01b031615614af9576040517f08c379a000000000000000000000000000000000000000000000000000000000815260206004820152600e60248201527f414c52454144595f4d494e54454400000000000000000000000000000000000060448201526064016110ce565b6001600160a01b0382165f81815260036020908152604080832080546001019055848352600290915280822080547fffffffffffffffffffffffff0000000000000000000000000000000000000000168417905551839291907fddf252ad1be2c89b69c2b068fc378daa952ba7f163c4a11628f55a4df523b3ef908290a45050565b5f80614b888560a0902090565b90508362ffffff1660081b8362ffffff1660201b827fffffffffffffffffffffffffffffffffffffffffffffffffff000000000000001617179150509392505050565b5f818152600260205260409020546001600160a01b031680614c49576040517f08c379a000000000000000000000000000000000000000000000000000000000815260206004820152600a60248201527f4e4f545f4d494e5445440000000000000000000000000000000000000000000060448201526064016110ce565b6001600160a01b0381165f81815260036020908152604080832080547fffffffffffffffffffffffffffffffffffffffffffffffffffffffffffffffff0190558583526002825280832080547fffffffffffffffffffffffff000000000000000000000000000000000000000090811690915560049092528083208054909216909155518492907fddf252ad1be2c89b69c2b068fc378daa952ba7f163c4a11628f55a4df523b3ef908390a45050565b5f8581526007602052604080822080547fffffffffffffffffffffffff000000000000000000000000000000000000000081169091559051602481018890526001600160a01b038781166044830152606482018790526084820186905260a482018590529091169190614dc890839060c40160408051601f198184030181529190526020810180517bffffffffffffffffffffffffffffffffffffffffffffffffffffffff167fb1a9116f000000000000000000000000000000000000000000000000000000001790526126e1565b9050806120e6576120e66001600160a01b0383167fb1a9116f000000000000000000000000000000000000000000000000000000007face944810000000000000000000000000000000000000000000000000000000061272f565b5f80614e596001600160a01b037f0000000000000000000000000000000000000000000000000000000000000000163085615021565b90505f811315614ea0576040517f3351b2600000000000000000000000000000000000000000000000000000000081526001600160a01b03841660048201526024016110ce565b611779816161f3565b5f6001600160a01b038216614ebf575047919050565b6040517f70a082310000000000000000000000000000000000000000000000000000000081523060048201526001600160a01b038316906370a0823190602401602060405180830381865afa158015614f1a573d5f803e3d5ffd5b505050506040513d601f19601f82011682018060405250810190610bf391906161b6565b306001600160a01b03831603614f8257610d1d6001600160a01b0384167f000000000000000000000000000000000000000000000000000000000000000083615070565b6040517f36c785160000000000000000000000000000000000000000000000000000000081526001600160a01b0383811660048301527f000000000000000000000000000000000000000000000000000000000000000081166024830152828116604483015284811660648301527f000000000000000000000000000000000000000000000000000000000000000016906336c7851690608401613df0565b5f806001600160a01b0384165f526001600160a01b03831660205260405f209050846001600160a01b031663f135baaa826040518263ffffffff1660e01b8152600401612a7091815260200190565b5f6001600160a01b0384166150be575f805f8085875af19050806150b9576150b9835f7ff4b3b1bc0000000000000000000000000000000000000000000000000000000061272f565b6115f6565b6040517fa9059cbb0000000000000000000000000000000000000000000000000000000081526001600160a01b038416600482015282602482015260205f6044835f895af13d15601f3d1160015f511416171691505f81525f60208201525f604082015250806115f6576115f6847fa9059cbb000000000000000000000000000000000000000000000000000000007ff27f64e40000000000000000000000000000000000000000000000000000000061272f565b5f6001600160a01b03831661519357506001600160a01b03811631610bf3565b6040517f70a082310000000000000000000000000000000000000000000000000000000081526001600160a01b0383811660048301528416906370a0823190602401602060405180830381865afa1580156151f0573d5f803e3d5ffd5b505050506040513d601f19601f82011682018060405250810190611cbf91906161b6565b5f838152600760205260408082205490516024810186905260448101859052606481018490526001600160a01b0390911691906152ad90839060840160408051601f198184030181529190526020810180517bffffffffffffffffffffffffffffffffffffffffffffffffffffffff167fd8865c27000000000000000000000000000000000000000000000000000000001790526126e1565b905080611a9f57611a9f6001600160a01b0383167fd8865c27000000000000000000000000000000000000000000000000000000007fe94f10e20000000000000000000000000000000000000000000000000000000061272f565b80600f81900b811461167a5761167a7f93dafdf100000000000000000000000000000000000000000000000000000000612aed565b815f528060020b60045260245ffd5b5f826001600160a01b0316846001600160a01b0316111561536b579192915b5f615396856001600160a01b0316856001600160a01b03166c01000000000000000000000000615430565b9050612aaf6153b184838888036001600160a01b0316615430565b6154eb565b5f826001600160a01b0316846001600160a01b031611156153d5579192915b610b0d6153b1836c010000000000000000000000008787036001600160a01b0316615430565b5f8082600f0b12156135b4576135b47f93dafdf100000000000000000000000000000000000000000000000000000000612aed565b5f838302817fffffffffffffffffffffffffffffffffffffffffffffffffffffffffffffffff8587098281108382030391505080841161546e575f80fd5b805f0361548057508290049050611779565b5f848688095f868103871696879004966002600389028118808a02820302808a02820302808a02820302808a02820302808a02820302808a02909103029181900381900460010186841190950394909402919094039290920491909117919091029150509392505050565b806fffffffffffffffffffffffffffffffff8116811461167a5761167a7f93dafdf100000000000000000000000000000000000000000000000000000000612aed565b6001600160a01b0381168114610c03575f80fd5b803561167a8161552e565b5f8083601f84011261555d575f80fd5b50813567ffffffffffffffff811115615574575f80fd5b60208301915083602082850101111561558b575f80fd5b9250929050565b5f805f80606085870312156155a5575f80fd5b84356155b08161552e565b9350602085013567ffffffffffffffff8111156155cb575f80fd5b8501606081880312156155dc575f80fd5b9250604085013567ffffffffffffffff8111156155f7575f80fd5b6156038782880161554d565b95989497509550505050565b5f81518084528060208401602086015e5f602082860101526020601f19601f83011685010191505092915050565b602081525f611779602083018461560f565b7fffffffff0000000000000000000000000000000000000000000000000000000081168114610c03575f80fd5b5f6020828403121561568c575f80fd5b81356117798161564f565b5f602082840312156156a7575f80fd5b5035919050565b5f80604083850312156156bf575f80fd5b82356156ca8161552e565b946020939093013593505050565b5f805f805f8060a087890312156156ed575f80fd5b86356156f88161552e565b9550602087013594506040870135935060608701359250608087013567ffffffffffffffff811115615728575f80fd5b61573489828a0161554d565b979a9699509497509295939492505050565b5f805f60608486031215615758575f80fd5b83356157638161552e565b925060208401356157738161552e565b929592945050506040919091013590565b5f805f80848603610100811215615799575f80fd5b85356157a48161552e565b945060c0601f19820112156157b7575f80fd5b5060208501925060e085013567ffffffffffffffff8111156155f7575f80fd5b5f805f80606085870312156157ea575f80fd5b8435935060208501356155dc8161552e565b8035801515811461167a575f80fd5b5f805f805f805f60c0888a031215615821575f80fd5b873561582c8161552e565b9650602088013561583c8161552e565b955061584a604089016157fc565b9450606088013593506080880135925060a088013567ffffffffffffffff811115615873575f80fd5b61587f8a828b0161554d565b989b979a50959850939692959293505050565b5f8083601f8401126158a2575f80fd5b50813567ffffffffffffffff8111156158b9575f80fd5b6020830191508360208260051b850101111561558b575f80fd5b5f805f80604085870312156158e6575f80fd5b843567ffffffffffffffff8111156158fc575f80fd5b6159088782880161554d565b909550935050602085013567ffffffffffffffff811115615927575f80fd5b61560387828801615892565b5f60208284031215615943575f80fd5b81356117798161552e565b60c081016159aa82856001600160a01b0381511682526001600160a01b03602082015116602083015262ffffff6040820151166040830152606081015160020b60608301526001600160a01b0360808201511660808301525050565b8260a08301529392505050565b5f602082840312156159c7575f80fd5b81357fffffffffffffffffffffffffffffffffffffffffffffffffff0000000000000081168114611779575f80fd5b5f8060208385031215615a07575f80fd5b823567ffffffffffffffff811115615a1d575f80fd5b615a298582860161554d565b90969095509350505050565b5f8060408385031215615a46575f80fd5b8235615a518161552e565b9150615a5f602084016157fc565b90509250929050565b5f8060208385031215615a79575f80fd5b823567ffffffffffffffff811115615a8f575f80fd5b615a2985828601615892565b5f602082016020835280845180835260408501915060408160051b8601019250602086015f5b82811015615b10577fffffffffffffffffffffffffffffffffffffffffffffffffffffffffffffffc0878603018452615afb85835161560f565b94506020938401939190910190600101615ac1565b50929695505050505050565b5f805f805f60808688031215615b30575f80fd5b8535615b3b8161552e565b94506020860135615b4b8161552e565b935060408601359250606086013567ffffffffffffffff811115615b6d575f80fd5b615b798882890161554d565b969995985093965092949392505050565b5f805f60408486031215615b9c575f80fd5b833567ffffffffffffffff811115615bb2575f80fd5b615bbe8682870161554d565b909790965060209590950135949350505050565b5f8060408385031215615be3575f80fd5b8235615bee8161552e565b91506020830135615bfe8161552e565b809150509250929050565b5f8082840360c0811215615c1b575f80fd5b60a0811215615c28575f80fd5b5082915060a0830135615bfe8161552e565b803565ffffffffffff8116811461167a575f80fd5b8035615c5a8161552e565b6001600160a01b031682526020810135615c738161552e565b6001600160a01b0316602083015265ffffffffffff615c9460408301615c3a565b16604083015265ffffffffffff615cad60608301615c3a565b1660608301525050565b81835281816020850137505f602082840101525f6020601f19601f840116840101905092915050565b6001600160a01b0385168152606060208201525f60c0820185357fffffffffffffffffffffffffffffffffffffffffffffffffffffffffffffffe1873603018112615d29575f80fd5b860160208101903567ffffffffffffffff811115615d45575f80fd5b8060071b3603821315615d56575f80fd5b60608581015291829052905f9060e085015b81831015615d8d57615d7a8185615c4f565b6080938401936001939093019201615d68565b615d9960208a01615542565b6001600160a01b0316608087015260408981013560a08801819052878303918801919091529350615dcb81888a615cb7565b9a9950505050505050505050565b600181811c90821680615ded57607f821691505b602082108103615e24577f4e487b71000000000000000000000000000000000000000000000000000000005f52602260045260245ffd5b50919050565b6001600160a01b0385168152615e436020820185615c4f565b5f6080850135615e528161552e565b6001600160a01b031660a08381019190915285013560c083015261010060e0830181905261215d9083018486615cb7565b838152604060208201525f612aaf604083018486615cb7565b5f60208284031215615eac575f80fd5b81516117798161564f565b7f4e487b71000000000000000000000000000000000000000000000000000000005f52604160045260245ffd5b7f4e487b71000000000000000000000000000000000000000000000000000000005f52603260045260245ffd5b5f8083357fffffffffffffffffffffffffffffffffffffffffffffffffffffffffffffffe1843603018112615f44575f80fd5b83018035915067ffffffffffffffff821115615f5e575f80fd5b60200191503681900382131561558b575f80fd5b818382375f9101908152919050565b6001600160a01b03861681526001600160a01b0385166020820152836040820152608060608201525f615fb8608083018486615cb7565b979650505050505050565b5f8067ffffffffffffffff841115615fdd57615fdd615eb7565b50604051601f19601f85018116603f0116810181811067ffffffffffffffff8211171561600c5761600c615eb7565b604052838152905080828401851015616023575f80fd5b8383602083015e5f60208583010152509392505050565b5f6020828403121561604a575f80fd5b815167ffffffffffffffff811115616060575f80fd5b8201601f81018413616070575f80fd5b610b0d84825160208401615fc3565b62ffffff81168114610c03575f80fd5b8060020b8114610c03575f80fd5b60c0810183356160ac8161552e565b6001600160a01b0316825260208401356160c58161552e565b6001600160a01b0316602083015260408401356160e18161607f565b62ffffff16604083015260608401356160f98161608f565b60020b6060830152608084013561610f8161552e565b6001600160a01b0381166080840152506001600160a01b03831660a08301529392505050565b5f60208284031215616145575f80fd5b81516117798161608f565b5f8060408385031215616161575f80fd5b50508035926020909101359150565b7f4e487b71000000000000000000000000000000000000000000000000000000005f52601160045260245ffd5b60ff8181168382160190811115610bf357610bf3616170565b5f602082840312156161c6575f80fd5b5051919050565b602081525f610b0d602083018486615cb7565b80820180821115610bf357610bf3616170565b5f7f8000000000000000000000000000000000000000000000000000000000000000820361622357616223616170565b505f0390565b5f60a082840312801561623a575f80fd5b5060405160a0810167ffffffffffffffff8111828210171561625e5761625e615eb7565b604052823561626c8161552e565b8152602083013561627c8161552e565b6020820152604083013561628f8161607f565b604082015260608301356162a28161608f565b606082015260808301356162b58161552e565b60808201529392505050565b81356162cc8161552e565b81547fffffffffffffffffffffffff0000000000000000000000000000000000000000166001600160a01b038216178255506001810160208301356163108161552e565b81547fffffffffffffffffffffffff0000000000000000000000000000000000000000166001600160a01b0382161782555060408301356163508161607f565b815460608501356163608161608f565b8060b81b79ffffff00000000000000000000000000000000000000000000001676ffffff00000000000000000000000000000000000000008460a01b167fffffffffffff000000000000ffffffffffffffffffffffffffffffffffffffff841617178455505050505f60808301356163d78161552e565b6002830180547fffffffffffffffffffffffff0000000000000000000000000000000000000000166001600160a01b0383161790559050806115f6565b61646c81866001600160a01b0381511682526001600160a01b03602082015116602083015262ffffff6040820151166040830152606081015160020b60608301526001600160a01b0360808201511660808301525050565b835160020b60a0820152602084015160020b60c0820152604084015160e082015260608401516101008201526101406101208201525f61215d61014083018486615cb7565b5f80604083850312156164c2575f80fd5b50508051602090910151909290915056fea164736f6c634300081a000a","linkReferences":{}},"methodIdentifiers":{"DOMAIN_SEPARATOR()":"3644e515","WETH9()":"4aa4a4fc","approve(address,uint256)":"095ea7b3","balanceOf(address)":"70a08231","getApproved(uint256)":"081812fc","getPoolAndPositionInfo(uint256)":"7ba03aad","getPositionLiquidity(uint256)":"1efeed33","initializePool((address,address,uint24,int24,address),uint160)":"f7020405","isApprovedForAll(address,address)":"e985e9c5","modifyLiquidities(bytes,uint256)":"dd46508f","modifyLiquiditiesWithoutUnlock(bytes,bytes[])":"4afe393c","msgSender()":"d737d0c7","multicall(bytes[])":"ac9650d8","name()":"06fdde03","nextTokenId()":"75794a3c","nonces(address,uint256)":"502e1a16","ownerOf(uint256)":"6352211e","permit(address,((address,uint160,uint48,uint48),address,uint256),bytes)":"2b67b570","permit(address,uint256,uint256,uint256,bytes)":"0f5730f1","permit2()":"12261ee7","permitBatch(address,((address,uint160,uint48,uint48)[],address,uint256),bytes)":"002a3e3a","permitForAll(address,address,bool,uint256,uint256,bytes)":"3aea60f0","poolKeys(bytes25)":"86b6be7d","poolManager()":"dc4c90d3","positionInfo(uint256)":"89097a6a","revokeNonce(uint256)":"05c1ee20","safeTransferFrom(address,address,uint256)":"42842e0e","safeTransferFrom(address,address,uint256,bytes)":"b88d4fde","setApprovalForAll(address,bool)":"a22cb465","subscribe(uint256,address,bytes)":"2b9261de","subscriber(uint256)":"16a24131","supportsInterface(bytes4)":"01ffc9a7","symbol()":"95d89b41","tokenDescriptor()":"5a9d7a68","tokenURI(uint256)":"c87b56dd","transferFrom(address,address,uint256)":"23b872dd","unlockCallback(bytes)":"91dd7346","unsubscribe(uint256)":"ad0b27fb","unsubscribeGasLimit()":"4767565f"},"id":110}