{"abi":[{"type":"constructor","inputs":[{"name":"signer1","type":"address","internalType":"address"},{"name":"signer2","type":"address","internalType":"address"}],"stateMutability":"nonpayable"},{"type":"function","name":"isValidSignature","inputs":[{"name":"hash","type":"bytes32","internalType":"bytes32"},{"name":"sigs","type":"bytes","internalType":"bytes"}],"outputs":[{"name":"","type":"bytes4","internalType":"bytes4"}],"stateMutability":"view"}],"bytecode":{"object":"0x6080604052348015600e575f80fd5b50604051610639380380610639833981016040819052602b916074565b5f80546001600160a01b039384166001600160a01b0319918216179091556001805492909316911617905560a0565b80516001600160a01b0381168114606f575f80fd5b919050565b5f80604083850312156084575f80fd5b608b83605a565b9150609760208401605a565b90509250929050565b61058c806100ad5f395ff3fe608060405234801561000f575f80fd5b5060043610610029575f3560e01c80631626ba7e1461002d575b5f80fd5b61004061003b366004610406565b610075565b6040517fffffffff00000000000000000000000000000000000000000000000000000000909116815260200160405180910390f35b5f80805b83811015610210575f8083600281106100945761009461047d565b015473ffffffffffffffffffffffffffffffffffffffff1690505f6100d3888885896100c18260416104aa565b926100ce939291906104e8565b6102a5565b90506101146040518060400160405280600d81526020017f7265636f76657265643a2025730000000000000000000000000000000000000081525082610346565b6101536040518060400160405280600a81526020017f7369676e65723a2025730000000000000000000000000000000000000000000081525083610346565b8173ffffffffffffffffffffffffffffffffffffffff168173ffffffffffffffffffffffffffffffffffffffff16146101ed576040517f08c379a000000000000000000000000000000000000000000000000000000000815260206004820152601660248201527f57726f6e67205369676e6572205265636f76657265640000000000000000000060448201526064015b60405180910390fd5b6101f86001856104aa565b9350505060418161020991906104aa565b9050610079565b506002811461027b576040517f08c379a000000000000000000000000000000000000000000000000000000000815260206004820152601160248201527f4e6f7420416c6c2056616c69646174656400000000000000000000000000000060448201526064016101e4565b507f1626ba7e00000000000000000000000000000000000000000000000000000000949350505050565b5f60405182604081146102c057604181146103005750610331565b60208581013560ff81901c601b0190915285356040527f7fffffffffffffffffffffffffffffffffffffffffffffffffffffffffffffff16606052610311565b60408501355f1a6020526040856040375b50845f526020600160805f60015afa5191505f606052806040523d61033e575b638baa579f5f526004601cfd5b509392505050565b6103d7828260405160240161035c92919061050f565b604080517fffffffffffffffffffffffffffffffffffffffffffffffffffffffffffffffe08184030181529190526020810180517bffffffffffffffffffffffffffffffffffffffffffffffffffffffff167f319af333000000000000000000000000000000000000000000000000000000001790526103db565b5050565b6103e4816103e7565b50565b5f6a636f6e736f6c652e6c6f6790505f80835160208501845afa505050565b5f805f60408486031215610418575f80fd5b83359250602084013567ffffffffffffffff811115610435575f80fd5b8401601f81018613610445575f80fd5b803567ffffffffffffffff81111561045b575f80fd5b86602082840101111561046c575f80fd5b939660209190910195509293505050565b7f4e487b71000000000000000000000000000000000000000000000000000000005f52603260045260245ffd5b808201808211156104e2577f4e487b71000000000000000000000000000000000000000000000000000000005f52601160045260245ffd5b92915050565b5f80858511156104f6575f80fd5b83861115610502575f80fd5b5050820193919092039150565b604081525f83518060408401528060208601606085015e5f6060828501015260607fffffffffffffffffffffffffffffffffffffffffffffffffffffffffffffffe0601f83011684010191505073ffffffffffffffffffffffffffffffffffffffff83166020830152939250505056fea164736f6c634300081a000a","linkReferences":{}},"methodIdentifiers":{"isValidSignature(bytes32,bytes)":"1626ba7e"},"id":217}