{"abi":[{"type":"constructor","inputs":[{"name":"_permit2","type":"address","internalType":"contract IAllowanceTransfer"}],"stateMutability":"nonpayable"},{"type":"function","name":"permit","inputs":[{"name":"owner","type":"address","internalType":"address"},{"name":"permitSingle","type":"tuple","internalType":"struct IAllowanceTransfer.PermitSingle","components":[{"name":"details","type":"tuple","internalType":"struct IAllowanceTransfer.PermitDetails","components":[{"name":"token","type":"address","internalType":"address"},{"name":"amount","type":"uint160","internalType":"uint160"},{"name":"expiration","type":"uint48","internalType":"uint48"},{"name":"nonce","type":"uint48","internalType":"uint48"}]},{"name":"spender","type":"address","internalType":"address"},{"name":"sigDeadline","type":"uint256","internalType":"uint256"}]},{"name":"signature","type":"bytes","internalType":"bytes"}],"outputs":[{"name":"err","type":"bytes","internalType":"bytes"}],"stateMutability":"payable"},{"type":"function","name":"permit2","inputs":[],"outputs":[{"name":"","type":"address","internalType":"contract IAllowanceTransfer"}],"stateMutability":"view"},{"type":"function","name":"permitBatch","inputs":[{"name":"owner","type":"address","internalType":"address"},{"name":"_permitBatch","type":"tuple","internalType":"struct IAllowanceTransfer.PermitBatch","components":[{"name":"details","type":"tuple[]","internalType":"struct IAllowanceTransfer.PermitDetails[]","components":[{"name":"token","type":"address","internalType":"address"},{"name":"amount","type":"uint160","internalType":"uint160"},{"name":"expiration","type":"uint48","internalType":"uint48"},{"name":"nonce","type":"uint48","internalType":"uint48"}]},{"name":"spender","type":"address","internalType":"address"},{"name":"sigDeadline","type":"uint256","internalType":"uint256"}]},{"name":"signature","type":"bytes","internalType":"bytes"}],"outputs":[{"name":"err","type":"bytes","internalType":"bytes"}],"stateMutability":"payable"}],"bytecode":{"object":"0x60a0604052348015600e575f80fd5b506040516106e63803806106e6833981016040819052602b91603b565b6001600160a01b03166080526066565b5f60208284031215604a575f80fd5b81516001600160a01b0381168114605f575f80fd5b9392505050565b60805161065b61008b5f395f818160700152818161010a01526101eb015261065b5ff3fe608060405260043610610032575f3560e01c80622a3e3a1461003657806312261ee71461005f5780632b67b570146100b7575b5f80fd5b61004961004436600461029f565b6100ca565b604051610056919061031c565b60405180910390f35b34801561006a575f80fd5b506100927f000000000000000000000000000000000000000000000000000000000000000081565b60405173ffffffffffffffffffffffffffffffffffffffff9091168152602001610056565b6100496100c536600461036f565b6101ab565b6040517f2a2d80d100000000000000000000000000000000000000000000000000000000815260609073ffffffffffffffffffffffffffffffffffffffff7f00000000000000000000000000000000000000000000000000000000000000001690632a2d80d1906101459088908890889088906004016104be565b5f604051808303815f87803b15801561015c575f80fd5b505af192505050801561016d575060015b6101a3573d80801561019a576040519150601f19603f3d011682016040523d82523d5f602084013e61019f565b606091505b5090505b949350505050565b6040517f2b67b57000000000000000000000000000000000000000000000000000000000815260609073ffffffffffffffffffffffffffffffffffffffff7f00000000000000000000000000000000000000000000000000000000000000001690632b67b570906101459088908890889088906004016105d1565b73ffffffffffffffffffffffffffffffffffffffff81168114610247575f80fd5b50565b803561025581610226565b919050565b5f8083601f84011261026a575f80fd5b50813567ffffffffffffffff811115610281575f80fd5b602083019150836020828501011115610298575f80fd5b9250929050565b5f805f80606085870312156102b2575f80fd5b84356102bd81610226565b9350602085013567ffffffffffffffff8111156102d8575f80fd5b8501606081880312156102e9575f80fd5b9250604085013567ffffffffffffffff811115610304575f80fd5b6103108782880161025a565b95989497509550505050565b602081525f82518060208401528060208501604085015e5f6040828501015260407fffffffffffffffffffffffffffffffffffffffffffffffffffffffffffffffe0601f83011684010191505092915050565b5f805f80848603610100811215610384575f80fd5b853561038f81610226565b945060c07fffffffffffffffffffffffffffffffffffffffffffffffffffffffffffffffe0820112156103c0575f80fd5b5060208501925060e085013567ffffffffffffffff811115610304575f80fd5b803565ffffffffffff81168114610255575f80fd5b803561040081610226565b73ffffffffffffffffffffffffffffffffffffffff168252602081013561042681610226565b73ffffffffffffffffffffffffffffffffffffffff16602083015265ffffffffffff610454604083016103e0565b16604083015265ffffffffffff61046d606083016103e0565b1660608301525050565b81835281816020850137505f602082840101525f60207fffffffffffffffffffffffffffffffffffffffffffffffffffffffffffffffe0601f840116840101905092915050565b73ffffffffffffffffffffffffffffffffffffffff85168152606060208201525f60c0820185357fffffffffffffffffffffffffffffffffffffffffffffffffffffffffffffffe1873603018112610514575f80fd5b860160208101903567ffffffffffffffff811115610530575f80fd5b8060071b3603821315610541575f80fd5b60608581015291829052905f9060e085015b818310156105785761056581856103f5565b6080938401936001939093019201610553565b61058460208a0161024a565b73ffffffffffffffffffffffffffffffffffffffff16608087015260408981013560a088018190528783039188019190915293506105c381888a610477565b9a9950505050505050505050565b73ffffffffffffffffffffffffffffffffffffffff851681526105f760208201856103f5565b5f608085013561060681610226565b73ffffffffffffffffffffffffffffffffffffffff1660a08381019190915285013560c083015261010060e083018190526106449083018486610477565b969550505050505056fea164736f6c634300081a000a","linkReferences":{}},"methodIdentifiers":{"permit(address,((address,uint160,uint48,uint48),address,uint256),bytes)":"2b67b570","permit2()":"12261ee7","permitBatch(address,((address,uint160,uint48,uint48)[],address,uint256),bytes)":"002a3e3a"},"id":119}