{"abi":[{"type":"constructor","inputs":[{"name":"uniV4","type":"address","internalType":"contract IPoolManager"},{"name":"controller","type":"address","internalType":"address"}],"stateMutability":"nonpayable"},{"type":"function","name":"afterSwap","inputs":[{"name":"","type":"address","internalType":"address"},{"name":"key","type":"tuple","internalType":"struct PoolKey","components":[{"name":"currency0","type":"address","internalType":"Currency"},{"name":"currency1","type":"address","internalType":"Currency"},{"name":"fee","type":"uint24","internalType":"uint24"},{"name":"tickSpacing","type":"int24","internalType":"int24"},{"name":"hooks","type":"address","internalType":"contract IHooks"}]},{"name":"params","type":"tuple","internalType":"struct IPoolManager.SwapParams","components":[{"name":"zeroForOne","type":"bool","internalType":"bool"},{"name":"amountSpecified","type":"int256","internalType":"int256"},{"name":"sqrtPriceLimitX96","type":"uint160","internalType":"uint160"}]},{"name":"swap_delta","type":"int256","internalType":"BalanceDelta"},{"name":"","type":"bytes","internalType":"bytes"}],"outputs":[{"name":"","type":"bytes4","internalType":"bytes4"},{"name":"","type":"int128","internalType":"int128"}],"stateMutability":"nonpayable"},{"type":"function","name":"balanceOf","inputs":[{"name":"asset","type":"address","internalType":"address"},{"name":"owner","type":"address","internalType":"address"}],"outputs":[{"name":"","type":"uint256","internalType":"uint256"}],"stateMutability":"view"},{"type":"function","name":"batchUpdatePools","inputs":[{"name":"expected_store","type":"address","internalType":"PoolConfigStore"},{"name":"updates","type":"tuple[]","internalType":"struct ConfigEntryUpdate[]","components":[{"name":"index","type":"uint256","internalType":"uint256"},{"name":"key","type":"bytes27","internalType":"StoreKey"},{"name":"bundleFee","type":"uint24","internalType":"uint24"},{"name":"unlockedFee","type":"uint24","internalType":"uint24"},{"name":"protocolUnlockedFee","type":"uint24","internalType":"uint24"}]}],"outputs":[],"stateMutability":"nonpayable"},{"type":"function","name":"beforeAddLiquidity","inputs":[{"name":"sender","type":"address","internalType":"address"},{"name":"key","type":"tuple","internalType":"struct PoolKey","components":[{"name":"currency0","type":"address","internalType":"Currency"},{"name":"currency1","type":"address","internalType":"Currency"},{"name":"fee","type":"uint24","internalType":"uint24"},{"name":"tickSpacing","type":"int24","internalType":"int24"},{"name":"hooks","type":"address","internalType":"contract IHooks"}]},{"name":"params","type":"tuple","internalType":"struct IPoolManager.ModifyLiquidityParams","components":[{"name":"tickLower","type":"int24","internalType":"int24"},{"name":"tickUpper","type":"int24","internalType":"int24"},{"name":"liquidityDelta","type":"int256","internalType":"int256"},{"name":"salt","type":"bytes32","internalType":"bytes32"}]},{"name":"","type":"bytes","internalType":"bytes"}],"outputs":[{"name":"","type":"bytes4","internalType":"bytes4"}],"stateMutability":"nonpayable"},{"type":"function","name":"beforeRemoveLiquidity","inputs":[{"name":"sender","type":"address","internalType":"address"},{"name":"key","type":"tuple","internalType":"struct PoolKey","components":[{"name":"currency0","type":"address","internalType":"Currency"},{"name":"currency1","type":"address","internalType":"Currency"},{"name":"fee","type":"uint24","internalType":"uint24"},{"name":"tickSpacing","type":"int24","internalType":"int24"},{"name":"hooks","type":"address","internalType":"contract IHooks"}]},{"name":"params","type":"tuple","internalType":"struct IPoolManager.ModifyLiquidityParams","components":[{"name":"tickLower","type":"int24","internalType":"int24"},{"name":"tickUpper","type":"int24","internalType":"int24"},{"name":"liquidityDelta","type":"int256","internalType":"int256"},{"name":"salt","type":"bytes32","internalType":"bytes32"}]},{"name":"","type":"bytes","internalType":"bytes"}],"outputs":[{"name":"","type":"bytes4","internalType":"bytes4"}],"stateMutability":"nonpayable"},{"type":"function","name":"beforeSwap","inputs":[{"name":"","type":"address","internalType":"address"},{"name":"key","type":"tuple","internalType":"struct PoolKey","components":[{"name":"currency0","type":"address","internalType":"Currency"},{"name":"currency1","type":"address","internalType":"Currency"},{"name":"fee","type":"uint24","internalType":"uint24"},{"name":"tickSpacing","type":"int24","internalType":"int24"},{"name":"hooks","type":"address","internalType":"contract IHooks"}]},{"name":"","type":"tuple","internalType":"struct IPoolManager.SwapParams","components":[{"name":"zeroForOne","type":"bool","internalType":"bool"},{"name":"amountSpecified","type":"int256","internalType":"int256"},{"name":"sqrtPriceLimitX96","type":"uint160","internalType":"uint160"}]},{"name":"optionalUnlockData","type":"bytes","internalType":"bytes"}],"outputs":[{"name":"response","type":"bytes4","internalType":"bytes4"},{"name":"","type":"int256","internalType":"BeforeSwapDelta"},{"name":"swapFee","type":"uint24","internalType":"uint24"}],"stateMutability":"nonpayable"},{"type":"function","name":"collect_unlock_swap_fees","inputs":[{"name":"to","type":"address","internalType":"address"},{"name":"packed_assets","type":"bytes","internalType":"bytes"}],"outputs":[],"stateMutability":"nonpayable"},{"type":"function","name":"compose","inputs":[{"name":"from","type":"address","internalType":"address"},{"name":"payload","type":"bytes","internalType":"bytes"}],"outputs":[{"name":"","type":"uint32","internalType":"uint32"}],"stateMutability":"nonpayable"},{"type":"function","name":"configStore","inputs":[],"outputs":[{"name":"","type":"address","internalType":"PoolConfigStore"}],"stateMutability":"view"},{"type":"function","name":"configurePool","inputs":[{"name":"asset0","type":"address","internalType":"address"},{"name":"asset1","type":"address","internalType":"address"},{"name":"tickSpacing","type":"uint16","internalType":"uint16"},{"name":"bundleFee","type":"uint24","internalType":"uint24"},{"name":"unlockedFee","type":"uint24","internalType":"uint24"},{"name":"protocolUnlockedFee","type":"uint24","internalType":"uint24"}],"outputs":[],"stateMutability":"nonpayable"},{"type":"function","name":"deposit","inputs":[{"name":"asset","type":"address","internalType":"address"},{"name":"amount","type":"uint256","internalType":"uint256"}],"outputs":[],"stateMutability":"nonpayable"},{"type":"function","name":"deposit","inputs":[{"name":"asset","type":"address","internalType":"address"},{"name":"to","type":"address","internalType":"address"},{"name":"amount","type":"uint256","internalType":"uint256"}],"outputs":[],"stateMutability":"nonpayable"},{"type":"function","name":"eip712Domain","inputs":[],"outputs":[{"name":"fields","type":"bytes1","internalType":"bytes1"},{"name":"name","type":"string","internalType":"string"},{"name":"version","type":"string","internalType":"string"},{"name":"chainId","type":"uint256","internalType":"uint256"},{"name":"verifyingContract","type":"address","internalType":"address"},{"name":"salt","type":"bytes32","internalType":"bytes32"},{"name":"extensions","type":"uint256[]","internalType":"uint256[]"}],"stateMutability":"view"},{"type":"function","name":"execute","inputs":[{"name":"encoded","type":"bytes","internalType":"bytes"}],"outputs":[],"stateMutability":"nonpayable"},{"type":"function","name":"extsload","inputs":[{"name":"slot","type":"uint256","internalType":"uint256"}],"outputs":[{"name":"","type":"uint256","internalType":"uint256"}],"stateMutability":"view"},{"type":"function","name":"getDelta","inputs":[{"name":"asset","type":"address","internalType":"address"}],"outputs":[{"name":"","type":"int256","internalType":"int256"}],"stateMutability":"view"},{"type":"function","name":"getPositionRewards","inputs":[{"name":"id","type":"bytes32","internalType":"PoolId"},{"name":"owner","type":"address","internalType":"address"},{"name":"lowerTick","type":"int24","internalType":"int24"},{"name":"upperTick","type":"int24","internalType":"int24"},{"name":"salt","type":"bytes32","internalType":"bytes32"}],"outputs":[{"name":"","type":"uint256","internalType":"uint256"}],"stateMutability":"view"},{"type":"function","name":"getScaledGrowth","inputs":[{"name":"id","type":"bytes32","internalType":"PoolId"},{"name":"owner","type":"address","internalType":"address"},{"name":"lowerTick","type":"int24","internalType":"int24"},{"name":"upperTick","type":"int24","internalType":"int24"},{"name":"salt","type":"bytes32","internalType":"bytes32"},{"name":"liquidity","type":"uint128","internalType":"uint128"}],"outputs":[{"name":"","type":"uint256","internalType":"uint256"}],"stateMutability":"view"},{"type":"function","name":"initializePool","inputs":[{"name":"assetA","type":"address","internalType":"address"},{"name":"assetB","type":"address","internalType":"address"},{"name":"storeIndex","type":"uint256","internalType":"uint256"},{"name":"sqrtPriceX96","type":"uint160","internalType":"uint160"}],"outputs":[],"stateMutability":"nonpayable"},{"type":"function","name":"invalidateNonce","inputs":[{"name":"nonce","type":"uint64","internalType":"uint64"}],"outputs":[],"stateMutability":"nonpayable"},{"type":"function","name":"nodeBundleLock","inputs":[],"outputs":[],"stateMutability":"nonpayable"},{"type":"function","name":"pullFee","inputs":[{"name":"asset","type":"address","internalType":"address"},{"name":"amount","type":"uint256","internalType":"uint256"}],"outputs":[],"stateMutability":"nonpayable"},{"type":"function","name":"removePool","inputs":[{"name":"key","type":"bytes27","internalType":"StoreKey"},{"name":"expected_store","type":"address","internalType":"PoolConfigStore"},{"name":"store_index","type":"uint256","internalType":"uint256"}],"outputs":[],"stateMutability":"nonpayable"},{"type":"function","name":"saveAndSettle","inputs":[{"name":"assetsPayload","type":"bytes","internalType":"bytes"}],"outputs":[],"stateMutability":"nonpayable"},{"type":"function","name":"setController","inputs":[{"name":"newController","type":"address","internalType":"address"}],"outputs":[],"stateMutability":"nonpayable"},{"type":"function","name":"takeAsset","inputs":[{"name":"encodedAsset","type":"bytes","internalType":"bytes"}],"outputs":[],"stateMutability":"nonpayable"},{"type":"function","name":"toggleNodes","inputs":[{"name":"nodes","type":"address[]","internalType":"address[]"}],"outputs":[],"stateMutability":"nonpayable"},{"type":"function","name":"unlockCallback","inputs":[{"name":"data","type":"bytes","internalType":"bytes"}],"outputs":[{"name":"","type":"bytes","internalType":"bytes"}],"stateMutability":"nonpayable"},{"type":"function","name":"unlockWithEmptyAttestation","inputs":[{"name":"node","type":"address","internalType":"address"},{"name":"signature","type":"bytes","internalType":"bytes"}],"outputs":[],"stateMutability":"nonpayable"},{"type":"function","name":"updatePool","inputs":[{"name":"updatePayload","type":"bytes","internalType":"bytes"}],"outputs":[],"stateMutability":"nonpayable"},{"type":"function","name":"validateAndExecuteToBOrder","inputs":[{"name":"tobPayload","type":"bytes","internalType":"bytes"}],"outputs":[],"stateMutability":"nonpayable"},{"type":"function","name":"validateAndExecuteUserOrder","inputs":[{"name":"userOrderPayload","type":"bytes","internalType":"bytes"}],"outputs":[],"stateMutability":"nonpayable"},{"type":"function","name":"withdraw","inputs":[{"name":"asset","type":"address","internalType":"address"},{"name":"to","type":"address","internalType":"address"},{"name":"amount","type":"uint256","internalType":"uint256"}],"outputs":[],"stateMutability":"nonpayable"},{"type":"function","name":"withdraw","inputs":[{"name":"asset","type":"address","internalType":"address"},{"name":"amount","type":"uint256","internalType":"uint256"}],"outputs":[],"stateMutability":"nonpayable"},{"type":"error","name":"AssetAccessOutOfBounds","inputs":[{"name":"index","type":"uint256","internalType":"uint256"},{"name":"length","type":"uint256","internalType":"uint256"}]},{"type":"error","name":"AssetsOutOfOrderOrNotUnique","inputs":[]},{"type":"error","name":"AssetsUnordered","inputs":[]},{"type":"error","name":"BundlDeltaUnresolved","inputs":[{"name":"asset","type":"address","internalType":"address"}]},{"type":"error","name":"CannotSwapWhileLocked","inputs":[]},{"type":"error","name":"EntryKeyMismatch","inputs":[]},{"type":"error","name":"Expired","inputs":[]},{"type":"error","name":"FailedToDeployNewStore","inputs":[]},{"type":"error","name":"FeeAboveMax","inputs":[]},{"type":"error","name":"FillingTooLittle","inputs":[]},{"type":"error","name":"FillingTooMuch","inputs":[]},{"type":"error","name":"GasAboveMax","inputs":[]},{"type":"error","name":"IndexMayHaveChanged","inputs":[]},{"type":"error","name":"InsufficientCapacity","inputs":[]},{"type":"error","name":"InvalidHookPermissions","inputs":[]},{"type":"error","name":"InvalidPermitType","inputs":[{"name":"","type":"uint8","internalType":"uint8"}]},{"type":"error","name":"InvalidSignature","inputs":[]},{"type":"error","name":"InvalidSignature","inputs":[]},{"type":"error","name":"InvalidTickSpacing","inputs":[]},{"type":"error","name":"JustInTimeLiquidityChange","inputs":[]},{"type":"error","name":"LimitViolated","inputs":[]},{"type":"error","name":"NoEntry","inputs":[]},{"type":"error","name":"NonceReuse","inputs":[]},{"type":"error","name":"NotController","inputs":[]},{"type":"error","name":"NotNode","inputs":[]},{"type":"error","name":"NotUniswap","inputs":[]},{"type":"error","name":"OnlyOncePerBlock","inputs":[]},{"type":"error","name":"OrderAlreadyExecuted","inputs":[]},{"type":"error","name":"OutOfOrderOrDuplicatePairs","inputs":[]},{"type":"error","name":"Overflow","inputs":[]},{"type":"error","name":"PairAccessOutOfBounds","inputs":[{"name":"index","type":"uint256","internalType":"uint256"},{"name":"length","type":"uint256","internalType":"uint256"}]},{"type":"error","name":"ReaderNotAtEnd","inputs":[]},{"type":"error","name":"ToBGasUsedAboveMax","inputs":[]},{"type":"error","name":"UnlockDataTooShort","inputs":[]},{"type":"error","name":"UnlockFeeAboveMax","inputs":[]},{"type":"error","name":"UnlockedFeeNotSet","inputs":[{"name":"key","type":"bytes27","internalType":"StoreKey"}]},{"type":"error","name":"WrongEndLiquidity","inputs":[{"name":"endLiquidity","type":"uint128","internalType":"uint128"},{"name":"actualCurrentLiquidity","type":"uint128","internalType":"uint128"}]}],"bytecode":{"object":"0x610160604052348015610010575f80fd5b5060405161720c38038061720c83398101604081905261002f91610413565b306080524660a0528181808260608061007c6040805180820182526008815267416e677374726f6d60c01b60208083019190915282518084019093526002835261763160f01b9083015291565b815160209283012081519183019190912060c082905260e0819052604080517f8b73c3c69bb8fe3d512ecc4cf759cc79239f7b179b0ffacaa9a75d522b39400f8152938401929092528282015246606083015230608083015260a0909120610100526001600160a01b039384166101208190525f80546001600160a01b0319169587169590951790945551610113925090506103ef565b6001600160a01b039091168152602001604051809103905ff08015801561013c573d5f803e3d5ffd5b506001600160a01b0316610140525061015361015c565b5050505061044b565b61016530610184565b6101825760405163cb13e96160e01b815260040160405180910390fd5b565b5f8161019b6001600160a01b0382166130006102a5565b6101a757505f92915050565b6101bc6001600160a01b0382166108006102a5565b6101c857505f92915050565b6101dd6001600160a01b0382166104006102a5565b156101ea57505f92915050565b6101ff6001600160a01b0382166102006102a5565b61020b57505f92915050565b6102206001600160a01b0382166101006102a5565b1561022d57505f92915050565b6102416001600160a01b03821660806102a5565b61024d57505f92915050565b6102616001600160a01b03821660406102a5565b801561027c575061027c6001600160a01b03821660046102a5565b61028857505f92915050565b61029e6001600160a01b038216628000006102ba565b9392505050565b6001600160a01b038282161615155b92915050565b5f6102cf6001600160a01b03841660806102a5565b1580156102eb57506102eb6001600160a01b03841660086102a5565b156102f757505f6102b4565b61030b6001600160a01b03841660406102a5565b15801561032757506103276001600160a01b03841660046102a5565b1561033357505f6102b4565b6103486001600160a01b0384166104006102a5565b15801561036457506103646001600160a01b03841660026102a5565b1561037057505f6102b4565b6103856001600160a01b0384166101006102a5565b1580156103a157506103a16001600160a01b03841660016102a5565b156103ad57505f6102b4565b6001600160a01b038316156103de57613fff83161515806103d957506280000062ffffff83161461029e565b61029e565b5062ffffff16628000001415919050565b6108e48061692883390190565b6001600160a01b0381168114610410575f80fd5b50565b5f8060408385031215610424575f80fd5b825161042f816103fc565b6020840151909250610440816103fc565b809150509250929050565b60805160a05160c05160e0516101005161012051610140516163826105a65f395f8181611257015261206d01525f81816106da01528181610c1801528181610c9001528181610ced01528181610d9001528181610e0a01528181610edf01528181610fcf01528181611155015281816116b3015281816117ba01528181611c710152818161204401528181612185015281816121b30152818161235b0152818161239601528181612c57015281816131960152818161366c0152818161370e0152818161373501528181613afa01528181613b3601528181613b6a01528181613bae01528181613bed01528181614b2d01528181614cfb01528181615062015281816150d1015281816151a3015261521201525f8181612f6e015261403b01525f818161302801526140f501525f818161300201526140cf01525f8181612fb2015261407f01525f8181612f8f015261405c01526163825ff3fe608060405234801561000f575f80fd5b506004361061021b575f3560e01c80638340f54911610123578063d5719778116100b8578063d9e17f9811610088578063f3fef3a31161006e578063f3fef3a31461056c578063f7888aec1461057f578063f9e91bb9146105b7575f80fd5b8063d9e17f9814610546578063dd4d4cf614610559575f80fd5b8063d5719778146104fa578063d6cffd1e1461050d578063d894114414610520578063d9caed1214610533575f80fd5b806392eefe9b116100f357806392eefe9b1461045657806397dc9965146104695780639d69dc4e1461047c578063b47b2fb1146104ac575f80fd5b80638340f549146103f557806384b0196e146104085780638587f4501461042357806391dd734614610436575f80fd5b8063259982e5116101b3578063575e24b4116101835780636f212dd7116101695780636f212dd7146103995780637407905c146103ba5780637cf98081146103e2575f80fd5b8063575e24b4146103305780635a05d2f614610386575f80fd5b8063259982e5146102e457806333830e48146102f757806347e7ef241461030a57806353b41c551461031d575f80fd5b806313871465116101ee578063138714651461026d5780631828e0e7146102805780631868f5ae1461029357806321d0ee701461029b575f80fd5b806304d4f4691461021f57806309c5eabe146102345780630c3d4cf514610247578063116a55501461025a575b5f80fd5b61023261022d366004615647565b6105ca565b005b610232610242366004615647565b610696565b610232610255366004615647565b610776565b610232610268366004615686565b61079f565b61023261027b3660046156d8565b6107ac565b61023261028e366004615754565b610a24565b610232610b85565b6102ae6102a93660046157bb565b610b8f565b6040517fffffffff0000000000000000000000000000000000000000000000000000000090911681526020015b60405180910390f35b6102ae6102f23660046157bb565b610eab565b610232610305366004615754565b61121f565b61023261031836600461585a565b6112c2565b61023261032b366004615884565b611312565b61034361033e366004615917565b611543565b604080517fffffffff000000000000000000000000000000000000000000000000000000009094168452602084019290925262ffffff16908201526060016102db565b610232610394366004615647565b611717565b6103ac6103a736600461597f565b61173b565b6040519081526020016102db565b6103cd6103c8366004615754565b611833565b60405163ffffffff90911681526020016102db565b6103ac6103f03660046159ff565b611b0f565b610232610403366004615a16565b611b19565b610410611b6e565b6040516102db9796959493929190615aa0565b610232610431366004615b52565b611c16565b610449610444366004615647565b611d9e565b6040516102db9190615ba2565b610232610464366004615bb4565b611e32565b610232610477366004615647565b611e73565b6003546801000000000000000090046001600160a01b03166040516001600160a01b0390911681526020016102db565b6104bf6104ba366004615bcf565b611f16565b604080517fffffffff000000000000000000000000000000000000000000000000000000009093168352600f9190910b6020830152016102db565b6103ac610508366004615bb4565b612234565b61023261051b366004615c50565b612253565b6103ac61052e366004615cc1565b6122df565b610232610541366004615a16565b612420565b61023261055436600461585a565b61246c565b610232610567366004615d47565b61248c565b61023261057a36600461585a565b6125c2565b6103ac61058d366004615d62565b6001600160a01b039182165f90815260056020908152604080832093909416825291909152205490565b6102326105c5366004615647565b61260e565b815f6105d5826126ce565b60035491935091505f9061060190849084906801000000000000000090046001600160a01b0316612785565b604080516101a0810182525f80825260208201819052918101829052606081018290526080810182905260a0810182905260c0810182905260e0810182905261010081018290526101208101829052610140810182905261016081018290526101808101919091529194509150610681848261067b6128fa565b85612944565b935061068e848787612b1b565b505050505050565b61069e612b32565b5f8190036106aa575050565b6040517f48c894910000000000000000000000000000000000000000000000000000000081526001600160a01b037f000000000000000000000000000000000000000000000000000000000000000016906348c89491906107119085908590600401615de0565b5f604051808303815f875af115801561072c573d5f803e3d5ffd5b505050506040513d5f823e601f3d9081017fffffffffffffffffffffffffffffffffffffffffffffffffffffffffffffffe01682016040526107719190810190615e20565b505050565b818061078181612c05565b61078c604483615f3d565b9150610799828585612b1b565b50505050565b6107a93382612cc9565b50565b6107b4612d04565b846001600160a01b0316866001600160a01b0316106107ff576040517f32b4bc9300000000000000000000000000000000000000000000000000000000815260040160405180910390fd5b5f86815260208690526040812060281b6003549091505f90610837906801000000000000000090046001600160a01b03166001612d47565b8051519091505f905b8082101561090d575f835f0151838151811061085e5761085e615f50565b6020026020010151905061089d6108728290565b867fffffffffffffffffffffffffffffffffffffffffffffffffffffff000000000090811691161490565b15610901576108db886108d58b875f015187815181106108bf576108bf615f50565b6020026020010151612dbb90919063ffffffff16565b90612de5565b84518051859081106108ef576108ef615f50565b6020026020010181815250505061090d565b50600190910190610840565b80820361092957610929610922858a8a612e00565b8490612e43565b61093283612ebe565b600380546001600160a01b039290921668010000000000000000027fffffffff0000000000000000000000000000000000000000ffffffffffffffff90921691909117905560408051808201825262ffffff808916825287811660208084018281527fffffffffffffffffffffffffffffffffffffffffffffffffffffff00000000008a165f908152600290925294902092518354945183166301000000027fffffffffffffffffffffffffffffffffffffffffffffffffffff000000000000909516921691909117929092179055610a0a90612f2d565b610a188662ffffff16612f2d565b50505050505050505050565b610a3960035467ffffffffffffffff16431490565b15610a70576040517fd8a6b89b00000000000000000000000000000000000000000000000000000000815260040160405180910390fd5b6001600160a01b0383165f9081526001602052604090205460ff16610ac1576040517f5cd26b6800000000000000000000000000000000000000000000000000000000815260040160405180910390fd5b7f3f25e551746414ff93f076a7dd83828ff53735b39366c74015637e004fcb02235f908152436020526040812090610af882612f6c565b9050610b0685828686613082565b610b3c576040517f8baa579f00000000000000000000000000000000000000000000000000000000815260040160405180910390fd5b610b454361316e565b600380547fffffffffffffffffffffffffffffffffffffffffffffffff00000000000000001667ffffffffffffffff929092169190911790555050505050565b610b8d612b32565b565b5f610b9861318b565b5f610ba2866131ed565b90505f80610c02838a610bb860208b018b615f7d565b610bc860408c0160208d01615f7d565b60069081526003919091525f91825260608b01356026908152603a600c209083905292825260209081526040808320848452909152902091565b90925090505f610c47610c3e6001600160a01b037f00000000000000000000000000000000000000000000000000000000000000001686613201565b60a01c60020b90565b90505f610c8082610c5b60208c018c615f7d565b610c6b60408d0160208e01615f7d565b5f898152600760205260409020929190613221565b90505f610cb76001600160a01b037f00000000000000000000000000000000000000000000000000000000000000001687866132a3565b90505f610cdb865f01548403836fffffffffffffffffffffffffffffffff166132fe565b90508015610e79576001600160a01b037f00000000000000000000000000000000000000000000000000000000000000001663a5841194610d1f60208f018f615bb4565b6040517fffffffff0000000000000000000000000000000000000000000000000000000060e084901b1681526001600160a01b0390911660048201526024015f604051808303815f87803b158015610d75575f80fd5b505af1158015610d87573d5f803e3d5ffd5b50505050610dd27f0000000000000000000000000000000000000000000000000000000000000000828e5f016020810190610dc29190615bb4565b6001600160a01b03169190613373565b6040517f3dd45adb0000000000000000000000000000000000000000000000000000000081526001600160a01b038e811660048301527f00000000000000000000000000000000000000000000000000000000000000001690633dd45adb906024016020604051808303815f875af1158015610e50573d5f803e3d5ffd5b505050506040513d601f19601f82011682018060405250810190610e749190615f98565b508286555b507f21d0ee70000000000000000000000000000000000000000000000000000000009c9b505050505050505050505050565b5f610eb461318b565b5f610ebe866131ed565b5f81815260076020526040812091925080610f05610c3e6001600160a01b037f00000000000000000000000000000000000000000000000000000000000000001686613201565b90505f83610f1660208b018b615f7d565b62ffffff1663010000008110610f2e57610f2e615f50565b015490505f84610f4460408c0160208d01615f7d565b62ffffff1663010000008110610f5c57610f5c615f50565b01549050610f6d60208b018b615f7d565b60020b8360020b1215610f845780820393506110df565b600283900b610f9960408c0160208d01615f7d565b60020b1361108757610ff786610fb260208d018d615f7d565b8d6060016020810190610fc59190615f7d565b6001600160a01b037f0000000000000000000000000000000000000000000000000000000000000000169291906133c6565b61102f5763010000008501549150818561101460208d018d615f7d565b62ffffff166301000000811061102c5761102c615f50565b01555b61104386610fb260408d0160208e01615f7d565b61107d57506301000000840154808561106260408d0160208e01615f7d565b62ffffff166301000000811061107a5761107a615f50565b01555b81810393506110df565b61109886610fb260208d018d615f7d565b6110d0576301000000850154915081856110b560208d018d615f7d565b62ffffff16630100000081106110cd576110cd615f50565b01555b80828663010000000154030393505b505f9150819050611142858c6110f860208d018d615f7d565b61110860408e0160208f01615f7d565b60069081526003919091525f91825260608d01356026908152603a600c209083905292825260209081526040808320848452909152902091565b90925090505f61117c6001600160a01b037f00000000000000000000000000000000000000000000000000000000000000001687846132a3565b905060408a01355f61118e8284615faf565b9050826fffffffffffffffffffffffffffffffff165f036111b1578585556111ec565b5f6111e6865f01548803856fffffffffffffffffffffffffffffffff16846fffffffffffffffffffffffffffffffff1661341c565b87038655505b507f259982e5000000000000000000000000000000000000000000000000000000009d9c50505050505050505050505050565b611227612d04565b6040517f877415d20000000000000000000000000000000000000000000000000000000081526001600160a01b037f0000000000000000000000000000000000000000000000000000000000000000169063877415d29061129090869086908690600401615fd7565b5f604051808303815f87803b1580156112a7575f80fd5b505af11580156112b9573d5f803e3d5ffd5b50505050505050565b6112d76001600160a01b0383163330846134c9565b6001600160a01b0382165f90815260056020908152604080832033845290915281208054839290611309908490615f3d565b90915550505050565b61131a612d04565b6003546001600160a01b03680100000000000000009091048116908416811461136f576040517ff21fd99f00000000000000000000000000000000000000000000000000000000815260040160405180910390fd5b6003545f90611393906801000000000000000090046001600160a01b031682612d47565b90505f5b8381101561150c57368585838181106113b2576113b2615f50565b905060a0020190506113ec8160400160208101906113d09190615ff9565b6108d56113e36040850160208601616012565b8690853561352b565b83518051833590811061140157611401615f50565b602090810291909101015261142961141f6080830160608401615ff9565b62ffffff16612f2d565b61143c61141f60a0830160808401615ff9565b60408051808201909152806114576080840160608501615ff9565b62ffffff16815260200161147160a0840160808501615ff9565b62ffffff16905260025f61148b6040850160208601616012565b7fffffffffffffffffffffffffffffffffffffffffffffffffffffff00000000001681526020808201929092526040015f2082518154939092015162ffffff9081166301000000027fffffffffffffffffffffffffffffffffffffffffffffffffffff00000000000090941692169190911791909117905550600101611397565b5061151681612ebe565b600360086101000a8154816001600160a01b0302191690836001600160a01b031602179055505050505050565b5f805f61154e61318b565b61156360035467ffffffffffffffff16431490565b61161a5760148410156115dc575f8490036115aa576040517f1e8107a000000000000000000000000000000000000000000000000000000000815260040160405180910390fd5b6040517f4926898b00000000000000000000000000000000000000000000000000000000815260040160405180910390fd5b5f6115ea601482878961602b565b6115f391616052565b60601c9050365f611607876014818b61602b565b91509150611616838383610a24565b5050505b5f61165561163161162e60208b018b615bb4565b90565b61164461162e60408c0160208d01615bb4565b5f9182526020526040902060281b90565b7fffffffffffffffffffffffffffffffffffffffffffffffffffffff000000000081165f9081526002602052604081205462ffffff166240000017935090915061169e896131ed565b90506116e46116d9610c3e6001600160a01b037f00000000000000000000000000000000000000000000000000000000000000001684613201565b60089060020b6135b8565b507f575e24b40000000000000000000000000000000000000000000000000000000093505f925050955095509592505050565b815f611722826126ce565b9092509050611730816135bf565b610799828585612b1b565b6040805160a0810182528781526001600160a01b038781166020808401829052600289810b8587018190529089900b606086018190526080860189905260069081526003919091525f9283526026888152603a600c20908490528c84529082528583209083529052928320825190918491611801916117e091610c3e917f00000000000000000000000000000000000000000000000000000000000000001690613201565b604080860151606087015187515f9081526007602052929092209291613221565b82549091508103611824816fffffffffffffffffffffffffffffffff88166132fe565b9b9a5050505050505050505050565b5f600183018335821a8061193057604080517fd505accf0000000000000000000000000000000000000000000000000000000081526001600160a01b03881660048201523360248201527fffffffffffffffffffffffffffffffffffffffffffffffffffffffffffffffff6044820152601484013560d81c6064820181905260198501355f90811a60848401819052601a87013560a48501819052603a88013560c486018190529551605a8901983560601c969495929491939192879263d505accf9260e48084019382900301818387803b158015611910575f80fd5b505af1158015611922573d5f803e3d5ffd5b505050505050505050611af3565b60018160ff1603611a0b576040517fd505accf0000000000000000000000000000000000000000000000000000000081526001600160a01b038716600482015233602482810191909152601484013560801c604483018190529084013560d81c6064830181905260298501355f1a60848401819052602a86013560a48501819052604a87013560c48601819052606a8801973560601c95869063d505accf9060e4015b5f604051808303815f87803b1580156119ea575f80fd5b505af11580156119fc573d5f803e3d5ffd5b50505050505050505050611af3565b60028160ff1603611ab7576040517f8fcbaf0c0000000000000000000000000000000000000000000000000000000081526001600160a01b0387166004820152336024820152601483013560e01c60448201819052601884013560d81c6064830181905260016084840152601d8501355f1a60a48401819052601e86013560c48501819052603e87013560e48601819052605e8801973560601c958690638fcbaf0c90610104016119d3565b6040517f6f1d150900000000000000000000000000000000000000000000000000000000815260ff821660048201526024015b60405180910390fd5b611afe828686612b1b565b6324a2e44b925050505b9392505050565b5f81545f5260205ff35b611b2e6001600160a01b0384163330846134c9565b6001600160a01b038084165f90815260056020908152604080832093861683529290529081208054839290611b64908490615f3d565b9091555050505050565b7f0f000000000000000000000000000000000000000000000000000000000000006060805f808083611c04604080518082018252600881527f416e677374726f6d0000000000000000000000000000000000000000000000006020808301919091528251808401909352600283527f76310000000000000000000000000000000000000000000000000000000000009083015291565b97989097965046955030945091925090565b826001600160a01b0316846001600160a01b03161115611c34579192915b5f84815260208490526040812060281b6003549091505f90611c6c906801000000000000000090046001600160a01b031683866137e7565b5090507f00000000000000000000000000000000000000000000000000000000000000006001600160a01b0316636276cbbe6040518060a00160405280611cb08a90565b6001600160a01b03168152602001886001600160a01b03908116825262800000602080840191909152600287810b6040808601919091523060609586015280517fffffffff0000000000000000000000000000000000000000000000000000000060e089901b168152865185166004820152928601518416602484015285015162ffffff1660448301529284015190920b60648301526080909201518216608482015290861660a482015260c4016020604051808303815f875af1158015611d7a573d5f803e3d5ffd5b505050506040513d601f19601f820116820180604052508101906112b991906160b8565b6060611da861318b565b825f611db3826126ce565b60035491935091505f90611ddf90849084906801000000000000000090046001600160a01b0316612785565b9093509050611ded82613851565b611df7838261387c565b9250611e038382613908565b9250611e0f83826139bb565b9250611e1c838787612b1b565b611e25826135bf565b60205f525f60205260405ff35b611e3a612d04565b5f80547fffffffffffffffffffffffff0000000000000000000000000000000000000000166001600160a01b0392909216919091179055565b815f611e7e826126ce565b60035491935091505f90611eaa90849084906801000000000000000090046001600160a01b0316612785565b60408051610160810182525f602082018190529181018290526080810182905260c0810182905260e08101829052610100810182905261014081019190915263f3cd914c81526280000060608201523060a0820152610120808201529194509150610681848284613a5a565b5f80611f2061318b565b5f80611f48611f3561162e60208c018c615bb4565b61164461162e60408d0160208e01615bb4565b7fffffffffffffffffffffffffffffffffffffffffffffffffffffff000000000081165f908152600260209081526040822054929350630100000090920462ffffff16918a01803582139190611f9e908c6160d3565b151582151503611fb757611fb28a600f0b90565b611fc1565b611fc18a60801d90565b90505f8082600f0b12611fd45781611fdd565b611fdd826160f2565b90508261201b5780611ff285620f424061612e565b60020b612002620f42408461616f565b61200c91906161bb565b612016919061622e565b612037565b620f424061202d600286900b8361616f565b61203791906161bb565b9550506001600160a01b037f000000000000000000000000000000000000000000000000000000000000000016905063156e29f67f00000000000000000000000000000000000000000000000000000000000000006120dc61209c60208f018f6160d3565b1515851515036120be578e60200160208101906120b99190615bb4565b6120d0565b8e5f0160208101906120d09190615bb4565b6001600160a01b031690565b6040517fffffffff0000000000000000000000000000000000000000000000000000000060e085901b1681526001600160a01b03909216600483015260248201526fffffffffffffffffffffffffffffffff871660448201526064015f604051808303815f87803b15801561214f575f80fd5b505af1158015612161573d5f803e3d5ffd5b505050505050505f612172896131ed565b90505f6121ab610c3e6001600160a01b037f00000000000000000000000000000000000000000000000000000000000000001684613201565b9050612200827f000000000000000000000000000000000000000000000000000000000000000060085c848e60600160208101906121e99190615f7d565b5f8881526007602052604090209493929190613c63565b507fb47b2fb1000000000000000000000000000000000000000000000000000000009350909150505b965096945050505050565b6001600160a01b0381165f9081526004602052604081205c5b92915050565b61225b612d04565b5f5b81811015610771575f83838381811061227857612278615f50565b905060200201602081019061228d9190615bb4565b6001600160a01b03165f90815260016020819052604090912080547fffffffffffffffffffffffffffffffffffffffffffffffffffffffffffffff00811660ff9091161517905591909101905061225d565b6040805160a0810182528681526001600160a01b038681166020808401829052600288810b8587018190529088900b606086018190526080860188905260069081526003919091525f9283526026878152603a600c20908490528b845290825285832081845290915293812083519194909290918591612384917f000000000000000000000000000000000000000000000000000000000000000090911690846132a3565b90505f6123ed6123cc610c3e875f01517f00000000000000000000000000000000000000000000000000000000000000006001600160a01b031661320190919063ffffffff16565b604080880151606089015189515f9081526007602052929092209291613221565b84549091508103612410816fffffffffffffffffffffffffffffffff85166132fe565b9c9b505050505050505050505050565b6001600160a01b0383165f9081526005602090815260408083203384529091528120805483929061245290849061627c565b9091555061077190506001600160a01b0384168383613373565b612474612d04565b6124886001600160a01b0383163383613373565b5050565b612494612d04565b6003546001600160a01b0368010000000000000000909104811690831681146124e9576040517ff21fd99f00000000000000000000000000000000000000000000000000000000815260040160405180910390fd5b6003545f9061250c906801000000000000000090046001600160a01b0316613ce4565b9050612519818685613d0b565b61252281612ebe565b600380546001600160a01b039290921668010000000000000000027fffffffff0000000000000000000000000000000000000000ffffffffffffffff909216919091179055505050507fffffffffffffffffffffffffffffffffffffffffffffffffffffff0000000000165f90815260026020526040902080547fffffffffffffffffffffffffffffffffffffffffffffffffffff000000000000169055565b6001600160a01b0382165f908152600560209081526040808320338452909152812080548392906125f490849061627c565b9091555061248890506001600160a01b0383163383613373565b815f612619826126ce565b60035491935091505f9061264590849084906801000000000000000090046001600160a01b0316612785565b60408051610120810182525f60208201819052918101829052606081018290526080810182905260a0810182905260c0810182905260e08101919091527f0af19d5479e90f25845cea6db89a524bb4e8da3a698213efb1b85e10a5e8be9c815267ffffffffffffffff4316610100820152919450915061068184826126c86128fa565b85613df7565b6003818101915f918291803560e81c01018160446126ec868461627c565b6126f6919061628f565b905080602086901b1792505f805b82811015612779575f612722602087901c60448402015b3560601c90565b9050826001600160a01b0316816001600160a01b03161161276f576040517f80f11acf00000000000000000000000000000000000000000000000000000000815260040160405180910390fd5b9150600101612704565b50829450505050915091565b6003838101935f91829182918291803560e81c01018160266127a78a8461627c565b6127b1919061628f565b905060405193508060c0028401925082604052808460201b179450505f5b828410156128ed5760048901983560e081901c905f906127f79061271b908c9060f01c613fdb565b90505f61280b61271b8c61ffff8616613fdb565b90508363ffffffff168363ffffffff1611158061283a5750806001600160a01b0316826001600160a01b031610155b15612871576040517ff35f939900000000000000000000000000000000000000000000000000000000815260040160405180910390fd5b90865260208601526040852060028b019a91925060281b903560f01c5f806128a36001600160a01b038c1685856137e7565b60408a0191909152606089015250505060208a01993590505f760a70c3c40a64e6c51999090b65f67d924000000000000082900460808701525060a085015260c0909301926127cf565b5093505050935093915050565b5f61293f612906614039565b60408051604281019091527f19010000000000000000000000000000000000000000000000000000000000008152600281019190915290565b905090565b5f80612950858761412e565b60028201975091505f9081903560f01c6129796008851615156129738884614210565b90614270565b6001600160a01b039182166101008c0152911660e08a01529250505060208701873560a088018190529097508110156129de576040517f8e1edfa400000000000000000000000000000000000000000000000000000000815260040160405180910390fd5b600282166129ed57865f6129f7565b60148701873560601c5b6001600160a01b031661012088015296505f612a178860048516156142b2565b6101408a01529098509050612a2d878985614394565b97505f80612a3d898b87876143dc565b919b50925090505f612a5e612a528b886145e6565b60228b015260428a2090565b90505f60808716612a7857612a738c83614606565b612a82565b612a828c8361466e565b909c5090506010871615612ab957612aa58b610180015164ffffffffff166146b2565b612ab4818c6101600151612cc9565b612ac3565b612ac382826146ec565b5f8b610120015190508082821502179050612ae9818d6101000151868f60c00151614714565b612af38683614784565b612b07828d60e00151878f60c001516147cc565b8c985050505050505050505b949350505050565b808201808414610799576301842f8c5f526004601cfd5b6003544367ffffffffffffffff90911603612b79576040517fd8a6b89b00000000000000000000000000000000000000000000000000000000815260040160405180910390fd5b335f9081526001602052604090205460ff16612bc1576040517f5cd26b6800000000000000000000000000000000000000000000000000000000815260040160405180910390fd5b612bca4361316e565b600380547fffffffffffffffffffffffffffffffffffffffffffffffff00000000000000001667ffffffffffffffff92909216919091179055565b602481013560801c801561248857604080517f0b0d9c09000000000000000000000000000000000000000000000000000000008152833560601c600482018190523060248301526044820184905291517f00000000000000000000000000000000000000000000000000000000000000006001600160a01b031691630b0d9c09916064808301925f92919082900301818387803b158015612ca4575f80fd5b505af1158015612cb6573d5f803e3d5ffd5b506107719250600491508390508461482a565b80600c5263daa050e9600452815f52601f600c20600160ff83161b80825418818116612cfc57638cb888725f526004601cfd5b909155505050565b5f546001600160a01b03163314610b8d576040517f23019e6700000000000000000000000000000000000000000000000000000000815260040160405180910390fd5b60408051808201909152606081525f60208201525f612d6e846001600160a01b0316614856565b90505f612d7b8483615f3d565b602084810182905260408051838302810183019091525f81528086529192508381029081906001908401893c50612db28484612e92565b50505092915050565b5f612dc58261486c565b5065ffffff00000061ffff918216601884811c939093161890911b161890565b5f612def826148bb565b5062ffffff80831691909118161890565b5f612e0a8361486c565b612e13826148bb565b612b13826108d57fffffffffffffffffffffffffffffffffffffffffffffffffffffff0000000000871686612dbb565b81515160208301518103612e83576040517f5cef583a00000000000000000000000000000000000000000000000000000000815260040160405180910390fd5b612e9783612e92836001615f3d565b905152565b81835f01518281518110612ead57612ead615f50565b602002602001018181525050505050565b805180516b600b380380600b5f395ff30082525f9190600c60208202016014830184f081835292506001600160a01b038316612f26576040517f5670258700000000000000000000000000000000000000000000000000000000815260040160405180910390fd5b5050919050565b620f424062ffffff821611156107a9576107a97f140021130000000000000000000000000000000000000000000000000000000062ffffff83166148fd565b7f00000000000000000000000000000000000000000000000000000000000000007f000000000000000000000000000000000000000000000000000000000000000030147f000000000000000000000000000000000000000000000000000000000000000046141661305f5750604080517f8b73c3c69bb8fe3d512ecc4cf759cc79239f7b179b0ffacaa9a75d522b39400f81527f000000000000000000000000000000000000000000000000000000000000000060208201527f00000000000000000000000000000000000000000000000000000000000000009181019190915246606082015230608082015260a090205b6719010000000000005f5280601a5281603a52604260182090505f603a52919050565b5f6001600160a01b03851615612b1357604051853b61312b5782604081146130b257604181146130f25750613165565b60208581013560ff81901c601b0190915285356040527f7fffffffffffffffffffffffffffffffffffffffffffffffffffffffffffffff16606052613103565b60408501355f1a6020526040856040375b50845f526020600160805f60015afa5180871860601b3d119250505f60605280604052613165565b631626ba7e60e01b80825285600483015260248201604081528460448401528486606485013760208160648701858b5afa90519091141691505b50949350505050565b5f68010000000000000000821061318757613187614912565b5090565b336001600160a01b037f00000000000000000000000000000000000000000000000000000000000000001614610b8d576040517ff832861400000000000000000000000000000000000000000000000000000000815260040160405180910390fd5b6040515f9060a083823760a0902092915050565b5f818152600660205260408120612b136001600160a01b0385168261491f565b5f808562ffffff85166301000000811061323d5761323d615f50565b015490505f8662ffffff85166301000000811061325c5761325c615f50565b015490508460020b8660020b12156132775790039050612b13565b8560020b8460020b1361328c57039050612b13565b630100000087015491909103039050949350505050565b5f6006602052825f52600660405f2001602052815f5260405f20602052631e2eaeaf5f5260205f6024601c875afa6132e25763535cf94b5f526004601cfd5b50505f516fffffffffffffffffffffffffffffffff1692915050565b818102818382041483151761336a577fffffffffffffffffffffffffffffffffffffffffffffffffffffffffffffffff82840981811082019003700100000000000000000000000000000000811061335d5763c56a01595f526004601cfd5b608091821c911b0161224d565b60801c92915050565b81601452806034526fa9059cbb0000000000000000000000005f5260205f604460105f875af18060015f5114166133bc57803d853b1517106133bc576390b8ec185f526004601cfd5b505f603452505050565b5f80806133e48486078213858705035b600881901d9160ff90911690565b9092509050613411816134016001600160a01b038a16898661494f565b90600160ff919091161b16151590565b979650505050505050565b828202818385830414851517026134c2577fffffffffffffffffffffffffffffffffffffffffffffffffffffffffffffffff8385098181108201900382848609835f0384168285116134755763ae47f7025f526004601cfd5b93849004938382119092035f839003839004600101029203041760026003830281188084028203028084028203028084028203028084028203028084028203028084029091030202611b08565b0492915050565b60405181606052826040528360601b602c526f23b872dd000000000000000000000000600c5260205f6064601c5f895af18060015f51141661351d57803d873b15171061351d57637939f4245f526004601cfd5b505f60605260405250505050565b5f835f0151828151811061354157613541615f50565b602002602001015190506135816135558290565b847fffffffffffffffffffffffffffffffffffffffffffffffffffffff00000000009081169116141590565b15611b08576040517f23f69dc200000000000000000000000000000000000000000000000000000000815260040160405180910390fd5b80825d5050565b6040805163ffffffff8316602481028201909252805f5b838110156137d45760448102602086901c01803560601c6014820135608090811c906034840135901c5f6136178461360e8486615f3d565b60049190614986565b9050801561365c576040517fcc67af530000000000000000000000000000000000000000000000000000000081526001600160a01b0385166004820152602401611aea565b81156137b6576001600160a01b037f00000000000000000000000000000000000000000000000000000000000000001663a5841194856040517fffffffff0000000000000000000000000000000000000000000000000000000060e084901b1681526001600160a01b0390911660048201526024015f604051808303815f87803b1580156136e8575f80fd5b505af11580156136fa573d5f803e3d5ffd5b50613733925050506001600160a01b0385167f000000000000000000000000000000000000000000000000000000000000000084613373565b7f00000000000000000000000000000000000000000000000000000000000000006001600160a01b03166311da60b46040518163ffffffff1660e01b81526004016020604051808303815f875af1158015613790573d5f803e3d5ffd5b505050506040513d601f19601f820116820180604052508101906137b49190615f98565b505b6137c085886149bc565b5050506024939093019250506001016135d6565b506024830282205f5260205fa050505050565b5f80806137fe6001600160a01b03871686866149c5565b905080613837576040517f2f659e4400000000000000000000000000000000000000000000000000000000815260040160405180910390fd5b61ffff601882901c169662ffffff90911695509350505050565b63ffffffff81165f5b8181101561077157613874602084901c6044830201612c05565b60010161385a565b60408051610160810182525f602082018190529181018290526080810182905260c0810182905260e081018290526101008101829052610140810182905263f3cd914c81526280000060608201523060a082015261012080820152600384810194803560e81c0101905b8185146138ff576138f8858286613a5a565b94506138e6565b50929392505050565b6003828101925f91813560e81c90910101816139226128fa565b60408051610120810182525f60208201819052918101829052606081018290526080810182905260a0810182905260c0810182905260e08101919091527f0af19d5479e90f25845cea6db89a524bb4e8da3a698213efb1b85e10a5e8be9c815267ffffffffffffffff43166101008201529091505b8286146139b1576139aa86828488613df7565b9550613997565b5093949350505050565b5f806139c56128fa565b604080516101a0810182525f80825260208201819052918101829052606081018290526080810182905260a0810182905260c0810182905260e0810182905261010081018290526101208101829052610140810182905261016081018290526101808101919091526003868101969293509091803560e81c01015b8086146139b157613a5386838588612944565b9550613a40565b6001838101935f919035821a90613a7690859083161515614a03565b60028501943560f01c613a9d613a8c8583614210565b805160208201516040909201519092565b60020b60808801526001600160a01b039081166040880152166020860190815260a090205f60108801883560801c9098506fffffffffffffffffffffffffffffffff1690505f8115613bdd575f613b20610c3e6001600160a01b037f00000000000000000000000000000000000000000000000000000000000000001686613201565b9050613b2b83614a47565b60e08a0152613b5a897f0000000000000000000000000000000000000000000000000000000000000000614aa8565b613b90610c3e6001600160a01b037f00000000000000000000000000000000000000000000000000000000000000001686613201565b60808a01515f868152600760205260409020919350613bd7919086907f00000000000000000000000000000000000000000000000000000000000000009085908790613c63565b50613c16565b613c13610c3e6001600160a01b037f00000000000000000000000000000000000000000000000000000000000000001685613201565b90505b5f613c3d6002871615155f86815260076020526040902060808c01518d9190889087614ac5565b60208b0151919b509150613c549060049083614986565b50989998505050505050505050565b8260020b8260020b1315613ca7578260020b613c8b828460020b614e0d90919063ffffffff16565b60020b1315613ca257613ca2868587868686614e1e565b61068e565b8260020b8260020b121561068e575f600284900b828107919091129082900503810260020b8260020b121561068e5761068e868587868686614e9d565b60408051808201909152606081525f602082015261224d6001600160a01b0383165f612d47565b613d5d613d31845f01518381518110613d2657613d26615f50565b602002602001015190565b837fffffffffffffffffffffffffffffffffffffffffffffffffffffff00000000009081169116141590565b15613d94576040517f23f69dc200000000000000000000000000000000000000000000000000000000815260040160405180910390fd5b8251515f90613da59060019061627c565b905080821015613ded578351805182908110613dc357613dc3615f50565b6020026020010151845f01518381518110613de057613de0615f50565b6020026020010181815250505b6107998482905152565b83355f90811a6001818116151560808781019190915290870135811c60208701526011870135811c60408701526021870135811c6060870181905260418801976031013590911c90811115613e78576040517f2bae6c5200000000000000000000000000000000000000000000000000000000815260040160405180910390fd5b6002878101973560f01c90613ea79084161515613e958784614210565b9060051b602081188201519101519091565b6001600160a01b0390811660c08a01521660a08801525060048216613ecd57865f613ed7565b60148701873560601c5b6001600160a01b031660e088015296505f613f03613ef788610120902090565b60228801526042872090565b90505f60088416613f1d57613f188983614606565b613f27565b613f27898361466e565b9099509050613f3682826146ec565b60e088015180158202176002851615613f7557836fffffffffffffffffffffffffffffffff1689602001818151613f6d9190615f3d565b905250613f9d565b836fffffffffffffffffffffffffffffffff1689604001818151613f99919061627c565b9052505b613fb5828a60a001518b602001518c608001516147cc565b613fcd818a60c001518b604001518c60800151614714565b509798975050505050505050565b5f8163ffffffff84161161402a576040517fffc31e710000000000000000000000000000000000000000000000000000000081526004810183905263ffffffff84166024820152604401611aea565b602083901c6044830201611b08565b7f00000000000000000000000000000000000000000000000000000000000000007f000000000000000000000000000000000000000000000000000000000000000030147f000000000000000000000000000000000000000000000000000000000000000046141661162e5750604080517f8b73c3c69bb8fe3d512ecc4cf759cc79239f7b179b0ffacaa9a75d522b39400f81527f000000000000000000000000000000000000000000000000000000000000000060208201527f00000000000000000000000000000000000000000000000000000000000000009181019190915246606082015230608082015260a0902090565b60018101905f9035811a600483603c8601376004929092019160208116156141a7576010811661417e577f6ee89dee573705c024a086e19a128ee0a5ee0547e3283adfa72fbe336a4c4b6c6141a0565b7f6be5f22bdcd037f6f35250c32e478fad62195ac2bbab1e2932f8c97af926b4915b84526141fa565b601081166141d5577f022e170cdf338f45bc718f58d29bfafbf3956c2f9ea8d19ccc9b72e42dbbb7b06141f7565b7fb0617b84f694c245e54fb8032ebdc9f56eb26ea2c1b65a46c58f50dbd516e2865b84525b60018116151560c08501528291505b9250929050565b5f8163ffffffff84161161425f576040517ff6601b500000000000000000000000000000000000000000000000000000000081526004810183905263ffffffff84166024820152604401611aea565b5060c08102602083901c0192915050565b600581901b6020811883015190830180516080909101516060850151620f42409081039061429e82846162a2565b6142a8919061628f565b9150509250925092565b5f807fc5d2460186f7233c927e7db2dcc703c0e500b653ca82273b7bfad8045d85a4708361438a57843560e81c60038601955060405160146064038101828101604052828882378290206050828101517f7407905c0000000000000000000000000000000000000000000000000000000084526040602485018190527fffffffffffffffffffffffffffffffffffffffffffffffffffffffffffffffec860160448601529985019960c09490941b77ffffffffffffffffffffffffffffffffffffffff000000009190941c1693019290921717925090505b8492509250925092565b5f60108216156143c2576008836101788601376008929092019160058361019b8601376005830192506143d4565b67ffffffffffffffff43166101608501525b509092915050565b5f808080602086161561448e57508535608090811c604089018190526010880135821c60608a0181905260308901986020013590921c918183101561444d576040517fc4daf00300000000000000000000000000000000000000000000000000000000815260040160405180910390fd5b80831115614487576040517f4418233100000000000000000000000000000000000000000000000000000000815260040160405180910390fd5b50506144b9565b5060108601953560801c604086166144a6575f6144a9565b60015b60ff166040890152606088018190525b60208701966010810135608090811c9135901c80821115614506576040517f668fef1b00000000000000000000000000000000000000000000000000000000815260040160405180910390fd5b6fffffffffffffffffffffffffffffffff1660808a01526008871615614581576fffffffffffffffffffffffffffffffff81166060881615614560578294506145596145528683614f28565b8890614f33565b935061457b565b91925082916145786145728885614f3e565b82614f49565b94505b506145d8565b6fffffffffffffffffffffffffffffffff811660608816156145bc5791935083916145b56145af8885614f33565b82614f28565b93506145d6565b8293506145d36145cc8583614f49565b8890614f3e565b94505b505b509597919650945092505050565b5f80601083166145f8576101806145fc565b6101a05b9093209392505050565b6017601483013560e81c8084018201935f92813560601c9291019061462d83868484614f54565b614663576040517f8baa579f00000000000000000000000000000000000000000000000000000000815260040160405180910390fd5b509394909350915050565b5f806040518381525f6020820152604185603f8301376041850194506020600160808360015afa519150503d6146ab57638baa579f5f526004601cfd5b9293915050565b804211156107a9576040517f203d82d800000000000000000000000000000000000000000000000000000000815260040160405180910390fd5b80601452815f5260345f20805c1561470b57638a2ef1165f526004601cfd5b6001815d505050565b8161472160048583614986565b508115614769576001600160a01b038085165f9081526005602090815260408083209389168352929052908120805483929061475e908490615f3d565b9091555061477d9050565b61477d6001600160a01b0385168683613373565b5050505050565b81156124885763ffffffff82168260c01c8260048201528360201c60205f84845f855af1925050506324a2e44b5f5114601f3d111681166107715763f959fdae5f526004601cfd5b816147d96004858361482a565b8115614815576001600160a01b038085165f9081526005602090815260408083209389168352929052908120805483929061475e90849061627c565b61477d6001600160a01b0385168630846134c9565b6001600160a01b0382165f90815260208490526040902061079961484f825c84614f99565b82906135b8565b5f61224d60206001600160a01b0384163b61628f565b600161ffff821610806148845750617fff61ffff8216115b156107a9576040517f270815a000000000000000000000000000000000000000000000000000000000815260040160405180910390fd5b62030d4062ffffff821611156107a9576040517f76a3f95d00000000000000000000000000000000000000000000000000000000815260040160405180910390fd5b815f526001600160a01b03811660045260245ffd5b6335278d125f526004601cfd5b5f81602052631e2eaeaf5f5260205f6024601c865afa6149465763535cf94b5f526004601cfd5b50505f51919050565b5f828152600660209081526040808320848452600501909152812061497d6001600160a01b0386168261491f565b95945050505050565b6001600160a01b0382165f9081526020849052604081206149b46149ab825c85614fb1565b925081836135b8565b509392505050565b60248282375050565b5f6020826020026001015f863c50505f517fffffffffffffffffffffffffffffffffffffffffffffffffffffff000000000081169190911402919050565b80151560c083015280614a2a5773fffd8963efd1fc6a506488495d951d5263988d25614a31565b6401000276a45b6001600160a01b03166101009092019190915250565b5f7f8000000000000000000000000000000000000000000000000000000000000000821115614aa2576040517f35278d1200000000000000000000000000000000000000000000000000000000815260040160405180910390fd5b505f0390565b5f80610144601c85015f855af180610771576040513d5f823e3d81fd5b5f808715614bf75760208701968035608090811c9160100135901c811580614afd57506fffffffffffffffffffffffffffffffff8116155b15614b1f57508792506fffffffffffffffffffffffffffffffff169050612229565b5f614b536001600160a01b037f00000000000000000000000000000000000000000000000000000000000000001689614fc9565b9050806fffffffffffffffffffffffffffffffff16826fffffffffffffffffffffffffffffffff1614614bb2576040517fbecb195c00000000000000000000000000000000000000000000000000000000815260040160405180910390fd5b6fffffffffffffffffffffffffffffffff8116608084901b0463010000008a018054909101905550889350506fffffffffffffffffffffffffffffffff169050612229565b5f808060038a018a3560e81d909a5090505f60108b018b3560801c909b5090505f806003808e01908e3560e81c8f0101604080516080810182528e815260028e810b60208301528d810b9282018390525f606083018190529496509294508f939290919088900b1315614c7657614c718388878985614fed565b614c83565b614c83838887898561512e565b6fffffffffffffffffffffffffffffffff81167fffffffffffffffffffffffffffffffff000000000000000000000000000000008535908116919091049092019c509a5060109092019650925060801c614cdd8184615f3d565b9250614ce98686615270565b81515f90614d21906001600160a01b037f00000000000000000000000000000000000000000000000000000000000000001690614fc9565b9050806fffffffffffffffffffffffffffffffff168a6fffffffffffffffffffffffffffffffff1614614d9c576040517f6429cfd20000000000000000000000000000000000000000000000000000000081526fffffffffffffffffffffffffffffffff808c16600483015282166024820152604401611aea565b606083810151601489019835821c911c8114614de4576040517fbecb195c00000000000000000000000000000000000000000000000000000000815260040160405180910390fd5b505050630100000090920180549098019097555090965093945050505050965096945050505050565b5f8183071291819005919091030290565b63010000008601545b5f614e3d6001600160a01b0388168787866152a9565b95509050600285810b9085900b1215614e5657506112b9565b8015614e97578762ffffff861663010000008110614e7657614e76615f50565b015482038862ffffff871663010000008110614e9457614e94615f50565b01555b50614e27565b5f614eb36001600160a01b038716868685615303565b94509050600283810b9085900b13614ecb575061068e565b8015614f15578662ffffff851663010000008110614eeb57614eeb615f50565b0154876301000000015403875f018562ffffff1663010000008110614f1257614f12615f50565b01555b83614f1f816162b9565b94505050614e9d565b5f611b08828461627c565b5f611b08828461533b565b5f611b08828461535d565b5f611b088284615f3d565b5f604051631626ba7e60e01b80825285600483015260248201604081528460448401528486606485013760208160648701858b5afa9051909114169695505050505050565b8181018281121561224d5763c9654ed45f526004601cfd5b8082038281131561224d5763c9654ed45f526004601cfd5b5f8181526006602052604081205f61497d6001600160a01b0386166003840161491f565b5f80808060018180805b83156150bc5760108b019a3560801c6150108185615f3d565b93506fffffffffffffffffffffffffffffffff8b16608082901b0483019250828e8e62ffffff166301000000811061504a5761504a615f50565b015f82825401925050819055505f6150998b5f01518f7f00000000000000000000000000000000000000000000000000000000000000006001600160a01b03166153759092919063ffffffff16565b9150506150a68c826153da565b9b508d6013528b601052825f5260335f20925050505b885160208a01516150f9916001600160a01b037f000000000000000000000000000000000000000000000000000000000000000016918f906153f4565b809d508195505050886040015160020b8c60020b13614ff75760609890980197909752979a9799509497509495945050505050565b5f80808060018180805b83156151fd5760108b019a3560801c6151518185615f3d565b93506fffffffffffffffffffffffffffffffff8b16608082901b0483019250828e8e62ffffff166301000000811061518b5761518b615f50565b015f82825401925050819055505f6151da8b5f01518f7f00000000000000000000000000000000000000000000000000000000000000006001600160a01b03166153759092919063ffffffff16565b9150506151e78c8261540e565b9b508d6013528b601052825f5260335f20925050505b885160208a015161523a916001600160a01b037f000000000000000000000000000000000000000000000000000000000000000016918f906152a9565b809d508195505050886040015160020b8c60020b13156151385760609890980197909752979a9799509497509495945050505050565b808214612488576040517f01842f8c00000000000000000000000000000000000000000000000000000000815260040160405180910390fd5b5f8080806152c36133d68688078313878905036001616315565b90925090506152e6816152e06001600160a01b038b168a8661494f565b90615428565b90945090506152f68282876154ea565b9250505094509492505050565b5f8080806153188587078213868805036133d6565b90925090506152e6816153356001600160a01b038b168a8661494f565b90615514565b5f6b033b2e3c9fd0803ce800000061535383856162a2565b611b08919061628f565b5f611b08836b033b2e3c9fd0803ce8000000846155dc565b5f806006602052835f52600460405f2001602052825f5260405f20602052631e2eaeaf5f5260205f6024601c885afa6153b55763535cf94b5f526004601cfd5b50505f516fffffffffffffffffffffffffffffffff81169460809190911d9350915050565b808203608081901c1561224d5763c9654ed45f526004601cfd5b5f8080806153186133d660018789078413888a050361612e565b818101608081901c1561224d5763c9654ed45f526004601cfd5b5f805f6154c38460ff1686901c7e1f0d1e100c1d070f090b19131c1706010e11080a1a141802121b150316040581196001019091166101e07f804040554300526644320000502061067405302602000010750620017611707760fc7fb6db6db6ddddddddd34d34d349249249210842108c6318c639ce739cffffffff840260f81c161b60f71c1690811c63d76453e004601f169190911a1790565b90508061010014159250826154d95760ff6154e0565b8360ff1681015b9150509250929050565b5f8160ff8416615500600187900b610100616356565b61550a9190616315565b612b139190616356565b5f805f8360ff0390505f6155b58260ff1687901b7f0706060506020504060203020504030106050205030304010505030400000000601f6f8421084210842108cc6318c6db6d54be831560081b6fffffffffffffffffffffffffffffffff851160071b1784811c67ffffffffffffffff1060061b1784811c63ffffffff1060051b1784811c61ffff1060041b1784811c60ff1060031b1793841c1c161a1790565b90508061010014159350836155ca575f6155d1565b8160ff1681035b925050509250929050565b828202831584820484141782026155fa5763ad251c275f526004601cfd5b81810615159190040192915050565b5f8083601f840112615619575f80fd5b50813567ffffffffffffffff811115615630575f80fd5b602083019150836020828501011115614209575f80fd5b5f8060208385031215615658575f80fd5b823567ffffffffffffffff81111561566e575f80fd5b61567a85828601615609565b90969095509350505050565b5f60208284031215615696575f80fd5b813567ffffffffffffffff81168114611b08575f80fd5b6001600160a01b03811681146107a9575f80fd5b803562ffffff811681146156d3575f80fd5b919050565b5f805f805f8060c087890312156156ed575f80fd5b86356156f8816156ad565b95506020870135615708816156ad565b9450604087013561ffff8116811461571e575f80fd5b935061572c606088016156c1565b925061573a608088016156c1565b915061574860a088016156c1565b90509295509295509295565b5f805f60408486031215615766575f80fd5b8335615771816156ad565b9250602084013567ffffffffffffffff81111561578c575f80fd5b61579886828701615609565b9497909650939450505050565b5f60a082840312156157b5575f80fd5b50919050565b5f805f805f8587036101608112156157d1575f80fd5b86356157dc816156ad565b95506157eb88602089016157a5565b945060807fffffffffffffffffffffffffffffffffffffffffffffffffffffffffffffff408201121561581c575f80fd5b5060c08601925061014086013567ffffffffffffffff81111561583d575f80fd5b61584988828901615609565b969995985093965092949392505050565b5f806040838503121561586b575f80fd5b8235615876816156ad565b946020939093013593505050565b5f805f60408486031215615896575f80fd5b83356158a1816156ad565b9250602084013567ffffffffffffffff8111156158bc575f80fd5b8401601f810186136158cc575f80fd5b803567ffffffffffffffff8111156158e2575f80fd5b86602060a0830284010111156158f6575f80fd5b939660209190910195509293505050565b5f606082840312156157b5575f80fd5b5f805f805f610140868803121561592c575f80fd5b8535615937816156ad565b945061594687602088016157a5565b93506159558760c08801615907565b925061012086013567ffffffffffffffff81111561583d575f80fd5b8060020b81146107a9575f80fd5b5f805f805f8060c08789031215615994575f80fd5b8635955060208701356159a6816156ad565b945060408701356159b681615971565b935060608701356159c681615971565b92506080870135915060a08701356fffffffffffffffffffffffffffffffff811681146159f1575f80fd5b809150509295509295509295565b5f60208284031215615a0f575f80fd5b5035919050565b5f805f60608486031215615a28575f80fd5b8335615a33816156ad565b92506020840135615a43816156ad565b929592945050506040919091013590565b5f81518084528060208401602086015e5f6020828601015260207fffffffffffffffffffffffffffffffffffffffffffffffffffffffffffffffe0601f83011685010191505092915050565b7fff000000000000000000000000000000000000000000000000000000000000008816815260e060208201525f615ada60e0830189615a54565b8281036040840152615aec8189615a54565b606084018890526001600160a01b038716608085015260a0840186905283810360c0850152845180825260208087019350909101905f5b81811015615b41578351835260209384019390920191600101615b23565b50909b9a5050505050505050505050565b5f805f8060808587031215615b65575f80fd5b8435615b70816156ad565b93506020850135615b80816156ad565b9250604085013591506060850135615b97816156ad565b939692955090935050565b602081525f611b086020830184615a54565b5f60208284031215615bc4575f80fd5b8135611b08816156ad565b5f805f805f806101608789031215615be5575f80fd5b8635615bf0816156ad565b9550615bff88602089016157a5565b9450615c0e8860c08901615907565b9350610120870135925061014087013567ffffffffffffffff811115615c32575f80fd5b615c3e89828a01615609565b979a9699509497509295939492505050565b5f8060208385031215615c61575f80fd5b823567ffffffffffffffff811115615c77575f80fd5b8301601f81018513615c87575f80fd5b803567ffffffffffffffff811115615c9d575f80fd5b8560208260051b8401011115615cb1575f80fd5b6020919091019590945092505050565b5f805f805f60a08688031215615cd5575f80fd5b853594506020860135615ce7816156ad565b93506040860135615cf781615971565b92506060860135615d0781615971565b949793965091946080013592915050565b80357fffffffffffffffffffffffffffffffffffffffffffffffffffffff0000000000811681146156d3575f80fd5b5f805f60608486031215615d59575f80fd5b615a3384615d18565b5f8060408385031215615d73575f80fd5b8235615d7e816156ad565b91506020830135615d8e816156ad565b809150509250929050565b81835281816020850137505f602082840101525f60207fffffffffffffffffffffffffffffffffffffffffffffffffffffffffffffffe0601f840116840101905092915050565b602081525f612b13602083018486615d99565b7f4e487b71000000000000000000000000000000000000000000000000000000005f52604160045260245ffd5b5f60208284031215615e30575f80fd5b815167ffffffffffffffff811115615e46575f80fd5b8201601f81018413615e56575f80fd5b805167ffffffffffffffff811115615e7057615e70615df3565b6040517fffffffffffffffffffffffffffffffffffffffffffffffffffffffffffffffe0603f7fffffffffffffffffffffffffffffffffffffffffffffffffffffffffffffffe0601f8501160116810181811067ffffffffffffffff82111715615edc57615edc615df3565b604052818152828201602001861015615ef3575f80fd5b8160208401602083015e5f91810160200191909152949350505050565b7f4e487b71000000000000000000000000000000000000000000000000000000005f52601160045260245ffd5b8082018082111561224d5761224d615f10565b7f4e487b71000000000000000000000000000000000000000000000000000000005f52603260045260245ffd5b5f60208284031215615f8d575f80fd5b8135611b0881615971565b5f60208284031215615fa8575f80fd5b5051919050565b6fffffffffffffffffffffffffffffffff818116838216019081111561224d5761224d615f10565b6001600160a01b0384168152604060208201525f61497d604083018486615d99565b5f60208284031215616009575f80fd5b611b08826156c1565b5f60208284031215616022575f80fd5b611b0882615d18565b5f8085851115616039575f80fd5b83861115616045575f80fd5b5050820193919092039150565b80357fffffffffffffffffffffffffffffffffffffffff00000000000000000000000081169060148410156160b1577fffffffffffffffffffffffffffffffffffffffff000000000000000000000000808560140360031b1b82161691505b5092915050565b5f602082840312156160c8575f80fd5b8151611b0881615971565b5f602082840312156160e3575f80fd5b81358015158114611b08575f80fd5b5f81600f0b7fffffffffffffffffffffffffffffffff80000000000000000000000000000000810361612657616126615f10565b5f0392915050565b600282810b9082900b037fffffffffffffffffffffffffffffffffffffffffffffffffffffffffff8000008112627fffff8213171561224d5761224d615f10565b5f82600f0b82600f0b0280600f0b91508082146160b1576160b1615f10565b7f4e487b71000000000000000000000000000000000000000000000000000000005f52601260045260245ffd5b5f81600f0b83600f0b806161d1576161d161618e565b7fffffffffffffffffffffffffffffffffffffffffffffffffffffffffffffffff81147fffffffffffffffffffffffffffffffff800000000000000000000000000000008314161561622557616225615f10565b90059392505050565b600f82810b9082900b037fffffffffffffffffffffffffffffffff8000000000000000000000000000000081126f7fffffffffffffffffffffffffffffff8213171561224d5761224d615f10565b8181038181111561224d5761224d615f10565b5f8261629d5761629d61618e565b500490565b808202811582820484141761224d5761224d615f10565b5f8160020b7fffffffffffffffffffffffffffffffffffffffffffffffffffffffffff80000081036162ed576162ed615f10565b7fffffffffffffffffffffffffffffffffffffffffffffffffffffffffffffffff0192915050565b600281810b9083900b01627fffff81137fffffffffffffffffffffffffffffffffffffffffffffffffffffffffff8000008212171561224d5761224d615f10565b5f8260020b8260020b028060020b91508082146160b1576160b1615f1056fea164736f6c634300081a000a60c0604052348015600e575f80fd5b506040516108e43803806108e4833981016040819052602b91603f565b336080526001600160a01b031660a052606a565b5f60208284031215604e575f80fd5b81516001600160a01b03811681146063575f80fd5b9392505050565b60805160a05161083f6100a55f395f818160e7015281816101e4015281816102c201528181610394015261043f01525f608e015261083f5ff3fe608060405234801561000f575f80fd5b5060043610610034575f3560e01c8063877415d21461003857806391dd73461461004d575b5f80fd5b61004b610046366004610503565b610076565b005b61006061005b36600461056c565b6101ca565b60405161006d91906105ab565b60405180910390f35b3373ffffffffffffffffffffffffffffffffffffffff7f000000000000000000000000000000000000000000000000000000000000000016146100e5576040517f30cd747100000000000000000000000000000000000000000000000000000000815260040160405180910390fd5b7f000000000000000000000000000000000000000000000000000000000000000073ffffffffffffffffffffffffffffffffffffffff166348c894918460601b8484604051602001610139939291906105fe565b6040516020818303038152906040526040518263ffffffff1660e01b815260040161016491906105ab565b5f604051808303815f875af115801561017f573d5f803e3d5ffd5b505050506040513d5f823e601f3d9081017fffffffffffffffffffffffffffffffffffffffffffffffffffffffffffffffe01682016040526101c49190810190610666565b50505050565b60603373ffffffffffffffffffffffffffffffffffffffff7f0000000000000000000000000000000000000000000000000000000000000000161461023b576040517ff832861400000000000000000000000000000000000000000000000000000000815260040160405180910390fd5b5f6102496014828587610756565b6102529161077d565b60601c90506102648360148187610756565b90945092505f6102756014856107e3565b90505f5b818110156104a6576040517efdd58e0000000000000000000000000000000000000000000000000000000081523060048201526014820287013560601c60248201819052905f907f000000000000000000000000000000000000000000000000000000000000000073ffffffffffffffffffffffffffffffffffffffff169062fdd58e90604401602060405180830381865afa15801561031b573d5f803e3d5ffd5b505050506040513d601f19601f8201168201806040525081019061033f919061081b565b6040517ff5298aca00000000000000000000000000000000000000000000000000000000815230600482015273ffffffffffffffffffffffffffffffffffffffff8481166024830152604482018390529192507f00000000000000000000000000000000000000000000000000000000000000009091169063f5298aca906064015f604051808303815f87803b1580156103d7575f80fd5b505af11580156103e9573d5f803e3d5ffd5b50506040517f0b0d9c0900000000000000000000000000000000000000000000000000000000815273ffffffffffffffffffffffffffffffffffffffff85811660048301528881166024830152604482018590527f0000000000000000000000000000000000000000000000000000000000000000169250630b0d9c0991506064015f604051808303815f87803b158015610482575f80fd5b505af1158015610494573d5f803e3d5ffd5b50506001909401935061027992505050565b505060408051602081019091525f8152949350505050565b5f8083601f8401126104ce575f80fd5b50813567ffffffffffffffff8111156104e5575f80fd5b6020830191508360208285010111156104fc575f80fd5b9250929050565b5f805f60408486031215610515575f80fd5b833573ffffffffffffffffffffffffffffffffffffffff81168114610538575f80fd5b9250602084013567ffffffffffffffff811115610553575f80fd5b61055f868287016104be565b9497909650939450505050565b5f806020838503121561057d575f80fd5b823567ffffffffffffffff811115610593575f80fd5b61059f858286016104be565b90969095509350505050565b602081525f82518060208401528060208501604085015e5f6040828501015260407fffffffffffffffffffffffffffffffffffffffffffffffffffffffffffffffe0601f83011684010191505092915050565b7fffffffffffffffffffffffffffffffffffffffff00000000000000000000000084168152818360148301375f910160140190815292915050565b7f4e487b71000000000000000000000000000000000000000000000000000000005f52604160045260245ffd5b5f60208284031215610676575f80fd5b815167ffffffffffffffff81111561068c575f80fd5b8201601f8101841361069c575f80fd5b805167ffffffffffffffff8111156106b6576106b6610639565b6040517fffffffffffffffffffffffffffffffffffffffffffffffffffffffffffffffe0603f7fffffffffffffffffffffffffffffffffffffffffffffffffffffffffffffffe0601f8501160116810181811067ffffffffffffffff8211171561072257610722610639565b604052818152828201602001861015610739575f80fd5b8160208401602083015e5f91810160200191909152949350505050565b5f8085851115610764575f80fd5b83861115610770575f80fd5b5050820193919092039150565b80357fffffffffffffffffffffffffffffffffffffffff00000000000000000000000081169060148410156107dc577fffffffffffffffffffffffffffffffffffffffff000000000000000000000000808560140360031b1b82161691505b5092915050565b5f82610816577f4e487b71000000000000000000000000000000000000000000000000000000005f52601260045260245ffd5b500490565b5f6020828403121561082b575f80fd5b505191905056fea164736f6c634300081a000a","linkReferences":{}},"methodIdentifiers":{"afterSwap(address,(address,address,uint24,int24,address),(bool,int256,uint160),int256,bytes)":"b47b2fb1","balanceOf(address,address)":"f7888aec","batchUpdatePools(address,(uint256,bytes27,uint24,uint24,uint24)[])":"53b41c55","beforeAddLiquidity(address,(address,address,uint24,int24,address),(int24,int24,int256,bytes32),bytes)":"259982e5","beforeRemoveLiquidity(address,(address,address,uint24,int24,address),(int24,int24,int256,bytes32),bytes)":"21d0ee70","beforeSwap(address,(address,address,uint24,int24,address),(bool,int256,uint160),bytes)":"575e24b4","collect_unlock_swap_fees(address,bytes)":"33830e48","compose(address,bytes)":"7407905c","configStore()":"9d69dc4e","configurePool(address,address,uint16,uint24,uint24,uint24)":"13871465","deposit(address,address,uint256)":"8340f549","deposit(address,uint256)":"47e7ef24","eip712Domain()":"84b0196e","execute(bytes)":"09c5eabe","extsload(uint256)":"7cf98081","getDelta(address)":"d5719778","getPositionRewards(bytes32,address,int24,int24,bytes32)":"d8941144","getScaledGrowth(bytes32,address,int24,int24,bytes32,uint128)":"6f212dd7","initializePool(address,address,uint256,uint160)":"8587f450","invalidateNonce(uint64)":"116a5550","nodeBundleLock()":"1868f5ae","pullFee(address,uint256)":"d9e17f98","removePool(bytes27,address,uint256)":"dd4d4cf6","saveAndSettle(bytes)":"5a05d2f6","setController(address)":"92eefe9b","takeAsset(bytes)":"0c3d4cf5","toggleNodes(address[])":"d6cffd1e","unlockCallback(bytes)":"91dd7346","unlockWithEmptyAttestation(address,bytes)":"1828e0e7","updatePool(bytes)":"97dc9965","validateAndExecuteToBOrder(bytes)":"f9e91bb9","validateAndExecuteUserOrder(bytes)":"04d4f469","withdraw(address,address,uint256)":"d9caed12","withdraw(address,uint256)":"f3fef3a3"},"id":210}