{"abi":[{"type":"constructor","inputs":[{"name":"uniV4","type":"address","internalType":"contract IPoolManager"},{"name":"controller","type":"address","internalType":"address"}],"stateMutability":"nonpayable"},{"type":"function","name":"batchUpdatePools","inputs":[{"name":"expected_store","type":"address","internalType":"PoolConfigStore"},{"name":"updates","type":"tuple[]","internalType":"struct ConfigEntryUpdate[]","components":[{"name":"index","type":"uint256","internalType":"uint256"},{"name":"key","type":"bytes27","internalType":"StoreKey"},{"name":"bundleFee","type":"uint24","internalType":"uint24"},{"name":"unlockedFee","type":"uint24","internalType":"uint24"},{"name":"protocolUnlockedFee","type":"uint24","internalType":"uint24"}]}],"outputs":[],"stateMutability":"nonpayable"},{"type":"function","name":"beforeAddLiquidity","inputs":[{"name":"sender","type":"address","internalType":"address"},{"name":"key","type":"tuple","internalType":"struct PoolKey","components":[{"name":"currency0","type":"address","internalType":"Currency"},{"name":"currency1","type":"address","internalType":"Currency"},{"name":"fee","type":"uint24","internalType":"uint24"},{"name":"tickSpacing","type":"int24","internalType":"int24"},{"name":"hooks","type":"address","internalType":"contract IHooks"}]},{"name":"params","type":"tuple","internalType":"struct IPoolManager.ModifyLiquidityParams","components":[{"name":"tickLower","type":"int24","internalType":"int24"},{"name":"tickUpper","type":"int24","internalType":"int24"},{"name":"liquidityDelta","type":"int256","internalType":"int256"},{"name":"salt","type":"bytes32","internalType":"bytes32"}]},{"name":"","type":"bytes","internalType":"bytes"}],"outputs":[{"name":"","type":"bytes4","internalType":"bytes4"}],"stateMutability":"nonpayable"},{"type":"function","name":"beforeRemoveLiquidity","inputs":[{"name":"sender","type":"address","internalType":"address"},{"name":"key","type":"tuple","internalType":"struct PoolKey","components":[{"name":"currency0","type":"address","internalType":"Currency"},{"name":"currency1","type":"address","internalType":"Currency"},{"name":"fee","type":"uint24","internalType":"uint24"},{"name":"tickSpacing","type":"int24","internalType":"int24"},{"name":"hooks","type":"address","internalType":"contract IHooks"}]},{"name":"params","type":"tuple","internalType":"struct IPoolManager.ModifyLiquidityParams","components":[{"name":"tickLower","type":"int24","internalType":"int24"},{"name":"tickUpper","type":"int24","internalType":"int24"},{"name":"liquidityDelta","type":"int256","internalType":"int256"},{"name":"salt","type":"bytes32","internalType":"bytes32"}]},{"name":"","type":"bytes","internalType":"bytes"}],"outputs":[{"name":"","type":"bytes4","internalType":"bytes4"}],"stateMutability":"nonpayable"},{"type":"function","name":"collect_unlock_swap_fees","inputs":[{"name":"to","type":"address","internalType":"address"},{"name":"packed_assets","type":"bytes","internalType":"bytes"}],"outputs":[],"stateMutability":"nonpayable"},{"type":"function","name":"configurePool","inputs":[{"name":"asset0","type":"address","internalType":"address"},{"name":"asset1","type":"address","internalType":"address"},{"name":"tickSpacing","type":"uint16","internalType":"uint16"},{"name":"bundleFee","type":"uint24","internalType":"uint24"},{"name":"unlockedFee","type":"uint24","internalType":"uint24"},{"name":"protocolUnlockedFee","type":"uint24","internalType":"uint24"}],"outputs":[],"stateMutability":"nonpayable"},{"type":"function","name":"deposit","inputs":[{"name":"asset","type":"address","internalType":"address"},{"name":"amount","type":"uint256","internalType":"uint256"}],"outputs":[],"stateMutability":"nonpayable"},{"type":"function","name":"deposit","inputs":[{"name":"asset","type":"address","internalType":"address"},{"name":"to","type":"address","internalType":"address"},{"name":"amount","type":"uint256","internalType":"uint256"}],"outputs":[],"stateMutability":"nonpayable"},{"type":"function","name":"eip712Domain","inputs":[],"outputs":[{"name":"fields","type":"bytes1","internalType":"bytes1"},{"name":"name","type":"string","internalType":"string"},{"name":"version","type":"string","internalType":"string"},{"name":"chainId","type":"uint256","internalType":"uint256"},{"name":"verifyingContract","type":"address","internalType":"address"},{"name":"salt","type":"bytes32","internalType":"bytes32"},{"name":"extensions","type":"uint256[]","internalType":"uint256[]"}],"stateMutability":"view"},{"type":"function","name":"extsload","inputs":[{"name":"slot","type":"uint256","internalType":"uint256"}],"outputs":[{"name":"","type":"uint256","internalType":"uint256"}],"stateMutability":"view"},{"type":"function","name":"getGrowthInsideRange","inputs":[{"name":"id","type":"bytes32","internalType":"PoolId"},{"name":"lowerTick","type":"int24","internalType":"int24"},{"name":"upperTick","type":"int24","internalType":"int24"}],"outputs":[{"name":"","type":"uint256","internalType":"uint256"}],"stateMutability":"view"},{"type":"function","name":"getGrowthInsideTick","inputs":[{"name":"id","type":"bytes32","internalType":"PoolId"},{"name":"tick","type":"int24","internalType":"int24"},{"name":"tickSpacing","type":"int24","internalType":"int24"}],"outputs":[{"name":"","type":"uint256","internalType":"uint256"}],"stateMutability":"view"},{"type":"function","name":"initializePool","inputs":[{"name":"assetA","type":"address","internalType":"address"},{"name":"assetB","type":"address","internalType":"address"},{"name":"storeIndex","type":"uint256","internalType":"uint256"},{"name":"sqrtPriceX96","type":"uint160","internalType":"uint160"}],"outputs":[],"stateMutability":"nonpayable"},{"type":"function","name":"pullFee","inputs":[{"name":"asset","type":"address","internalType":"address"},{"name":"amount","type":"uint256","internalType":"uint256"}],"outputs":[],"stateMutability":"nonpayable"},{"type":"function","name":"removePool","inputs":[{"name":"key","type":"bytes27","internalType":"StoreKey"},{"name":"expected_store","type":"address","internalType":"PoolConfigStore"},{"name":"store_index","type":"uint256","internalType":"uint256"}],"outputs":[],"stateMutability":"nonpayable"},{"type":"function","name":"setController","inputs":[{"name":"newController","type":"address","internalType":"address"}],"outputs":[],"stateMutability":"nonpayable"},{"type":"function","name":"toggleNodes","inputs":[{"name":"nodes","type":"address[]","internalType":"address[]"}],"outputs":[],"stateMutability":"nonpayable"},{"type":"function","name":"unlockWithEmptyAttestation","inputs":[{"name":"node","type":"address","internalType":"address"},{"name":"signature","type":"bytes","internalType":"bytes"}],"outputs":[],"stateMutability":"nonpayable"},{"type":"function","name":"update","inputs":[{"name":"encoded","type":"bytes","internalType":"bytes"}],"outputs":[],"stateMutability":"nonpayable"},{"type":"function","name":"updateAfterTickMove","inputs":[{"name":"id","type":"bytes32","internalType":"PoolId"},{"name":"lastTick","type":"int24","internalType":"int24"},{"name":"newTick","type":"int24","internalType":"int24"},{"name":"tickSpacing","type":"int24","internalType":"int24"}],"outputs":[],"stateMutability":"nonpayable"},{"type":"function","name":"withdraw","inputs":[{"name":"asset","type":"address","internalType":"address"},{"name":"to","type":"address","internalType":"address"},{"name":"amount","type":"uint256","internalType":"uint256"}],"outputs":[],"stateMutability":"nonpayable"},{"type":"function","name":"withdraw","inputs":[{"name":"asset","type":"address","internalType":"address"},{"name":"amount","type":"uint256","internalType":"uint256"}],"outputs":[],"stateMutability":"nonpayable"},{"type":"error","name":"AssetAccessOutOfBounds","inputs":[{"name":"index","type":"uint256","internalType":"uint256"},{"name":"length","type":"uint256","internalType":"uint256"}]},{"type":"error","name":"AssetsOutOfOrderOrNotUnique","inputs":[]},{"type":"error","name":"AssetsUnordered","inputs":[]},{"type":"error","name":"BundlDeltaUnresolved","inputs":[{"name":"asset","type":"address","internalType":"address"}]},{"type":"error","name":"EntryKeyMismatch","inputs":[]},{"type":"error","name":"FailedToDeployNewStore","inputs":[]},{"type":"error","name":"FeeAboveMax","inputs":[]},{"type":"error","name":"IndexMayHaveChanged","inputs":[]},{"type":"error","name":"InsufficientCapacity","inputs":[]},{"type":"error","name":"InvalidHookPermissions","inputs":[]},{"type":"error","name":"InvalidSignature","inputs":[]},{"type":"error","name":"InvalidTickSpacing","inputs":[]},{"type":"error","name":"JustInTimeLiquidityChange","inputs":[]},{"type":"error","name":"NoEntry","inputs":[]},{"type":"error","name":"NotController","inputs":[]},{"type":"error","name":"NotNode","inputs":[]},{"type":"error","name":"NotUniswap","inputs":[]},{"type":"error","name":"OnlyOncePerBlock","inputs":[]},{"type":"error","name":"OutOfOrderOrDuplicatePairs","inputs":[]},{"type":"error","name":"Overflow","inputs":[]},{"type":"error","name":"PairAccessOutOfBounds","inputs":[{"name":"index","type":"uint256","internalType":"uint256"},{"name":"length","type":"uint256","internalType":"uint256"}]},{"type":"error","name":"ReaderNotAtEnd","inputs":[]},{"type":"error","name":"UnlockFeeAboveMax","inputs":[]},{"type":"error","name":"UnlockedFeeNotSet","inputs":[{"name":"key","type":"bytes27","internalType":"StoreKey"}]},{"type":"error","name":"WrongEndLiquidity","inputs":[{"name":"endLiquidity","type":"uint128","internalType":"uint128"},{"name":"actualCurrentLiquidity","type":"uint128","internalType":"uint128"}]}],"bytecode":{"object":"0x610160604052348015610010575f80fd5b506040516152d53803806152d583398101604081905261002f91610418565b306080524660a0528082606080610083604080518082018252601281527126b7b1b5a932bbb0b93239a6b0b730b3b2b960711b602080830191909152825180840190935260018352603160f81b9083015291565b815160209283012081519183019190912060c082905260e0819052604080517f8b73c3c69bb8fe3d512ecc4cf759cc79239f7b179b0ffacaa9a75d522b39400f8152938401929092528282015246606083015230608083015260a0909120610100526001600160a01b039384166101208190525f80546001600160a01b031916958716959095179094555161011a925090506103f4565b6001600160a01b039091168152602001604051809103905ff080158015610143573d5f803e3d5ffd5b506001600160a01b0316610140525061015a610161565b5050610450565b61016a30610189565b6101875760405163cb13e96160e01b815260040160405180910390fd5b565b5f816101a06001600160a01b0382166130006102aa565b6101ac57505f92915050565b6101c16001600160a01b0382166108006102aa565b6101cd57505f92915050565b6101e26001600160a01b0382166104006102aa565b156101ef57505f92915050565b6102046001600160a01b0382166102006102aa565b61021057505f92915050565b6102256001600160a01b0382166101006102aa565b1561023257505f92915050565b6102466001600160a01b03821660806102aa565b61025257505f92915050565b6102666001600160a01b03821660406102aa565b801561028157506102816001600160a01b03821660046102aa565b61028d57505f92915050565b6102a36001600160a01b038216628000006102bf565b9392505050565b6001600160a01b038282161615155b92915050565b5f6102d46001600160a01b03841660806102aa565b1580156102f057506102f06001600160a01b03841660086102aa565b156102fc57505f6102b9565b6103106001600160a01b03841660406102aa565b15801561032c575061032c6001600160a01b03841660046102aa565b1561033857505f6102b9565b61034d6001600160a01b0384166104006102aa565b15801561036957506103696001600160a01b03841660026102aa565b1561037557505f6102b9565b61038a6001600160a01b0384166101006102aa565b1580156103a657506103a66001600160a01b03841660016102aa565b156103b257505f6102b9565b6001600160a01b038316156103e357613fff83161515806103de57506280000062ffffff8316146102a3565b6102a3565b5062ffffff16628000001415919050565b6108e4806149f183390190565b6001600160a01b0381168114610415575f80fd5b50565b5f8060408385031215610429575f80fd5b825161043481610401565b602084015190925061044581610401565b809150509250929050565b60805160a05160c05160e0516101005161012051610140516144a16105505f395f610feb01525f81816103ad0152818161044001528181610940015281816109bc01528181610a2601528181610ad601528181610b6a01528181610c4c01528181610d4901528181610edc015281816113c60152818161141d015281816115ed01528181611b630152818161221d015281816129bf015281816129fb01528181612a3c01528181612a8001528181612acc015281816132a10152818161347c015281816137120152818161379b0152818161386d01526138f601525f611fdb01525f61209501525f61206f01525f61201f01525f611ffc01526144a15ff3fe608060405234801561000f575f80fd5b506004361061016e575f3560e01c80637cf98081116100d2578063c43ed2c811610088578063d9e17f9811610063578063d9e17f9814610316578063dd4d4cf614610329578063f3fef3a31461033c575f80fd5b8063c43ed2c8146102dd578063d6cffd1e146102f0578063d9caed1214610303575f80fd5b806384b0196e116100b857806384b0196e1461029c5780638587f450146102b757806392eefe9b146102ca575f80fd5b80637cf98081146102765780638340f54914610289575f80fd5b806333830e481161012757806353b41c551161010d57806353b41c551461023d57806362889dd61461025057806371cca81b14610263575f80fd5b806333830e481461021757806347e7ef241461022a575f80fd5b80631828e0e7116101575780631828e0e7146101ad57806321d0ee70146101c0578063259982e514610204575f80fd5b80630b3dd76e146101725780631387146514610198575b5f80fd5b610185610180366004613b30565b61034f565b6040519081526020015b60405180910390f35b6101ab6101a6366004613ba7565b610490565b005b6101ab6101bb366004613c68565b61073c565b6101d36101ce366004613cb9565b6108aa565b6040517fffffffff00000000000000000000000000000000000000000000000000000000909116815260200161018f565b6101d3610212366004613cb9565b610c0b565b6101ab610225366004613c68565b610fa6565b6101ab610238366004613d7e565b611056565b6101ab61024b366004613da8565b6110c0565b61018561025e366004613b30565b611325565b6101ab610271366004613e2b565b611409565b610185610284366004613e7b565b61144a565b6101ab610297366004613e92565b611454565b6102a46114c3565b60405161018f9796959493929190613f1c565b6101ab6102c5366004613fdb565b61156b565b6101ab6102d8366004614020565b611741565b6101ab6102eb36600461403b565b61178f565b6101ab6102fe36600461407a565b611854565b6101ab610311366004613e92565b6118f2565b6101ab610324366004613d7e565b611958565b6101ab61033736600461411a565b611985565b6101ab61034a366004613d7e565b611ae2565b5f61039084846040518060400160405280600481526020017f7469636b00000000000000000000000000000000000000000000000000000000815250611b48565b5f805b6103d573ffffffffffffffffffffffffffffffffffffffff7f000000000000000000000000000000000000000000000000000000000000000016878787611c17565b909250905081156103935761042086826040518060400160405280600a81526020017f6e6578745469636b557000000000000000000000000000000000000000000000815250611b48565b61048461046f61046673ffffffffffffffffffffffffffffffffffffffff7f00000000000000000000000000000000000000000000000000000000000000001689611c8c565b60a01c60020b90565b5f888152600760205260409020908784611cc3565b925050505b9392505050565b610498611d45565b8473ffffffffffffffffffffffffffffffffffffffff168673ffffffffffffffffffffffffffffffffffffffff16106104fd576040517f32b4bc9300000000000000000000000000000000000000000000000000000000815260040160405180910390fd5b5f86815260208690526040812060281b6003549091505f906105429068010000000000000000900473ffffffffffffffffffffffffffffffffffffffff166001611d97565b8051519091505f905b80821015610618575f835f0151838151811061056957610569614135565b602002602001015190506105a861057d8290565b867fffffffffffffffffffffffffffffffffffffffffffffffffffffff000000000090811691161490565b1561060c576105e6886105e08b875f015187815181106105ca576105ca614135565b6020026020010151611e1890919063ffffffff16565b90611e42565b84518051859081106105fa576105fa614135565b60200260200101818152505050610618565b5060019091019061054b565b8082036106345761063461062d858a8a611e5d565b8490611ea0565b61063d83611f1b565b6003805473ffffffffffffffffffffffffffffffffffffffff9290921668010000000000000000027fffffffff0000000000000000000000000000000000000000ffffffffffffffff90921691909117905560408051808201825262ffffff808916825287811660208084018281527fffffffffffffffffffffffffffffffffffffffffffffffffffffff00000000008a165f908152600290925294902092518354945183166301000000027fffffffffffffffffffffffffffffffffffffffffffffffffffff00000000000090951692169190911792909217905561072290611f97565b6107308662ffffff16611f97565b50505050505050505050565b61075160035467ffffffffffffffff16431490565b15610788576040517fd8a6b89b00000000000000000000000000000000000000000000000000000000815260040160405180910390fd5b73ffffffffffffffffffffffffffffffffffffffff83165f9081526001602052604090205460ff166107e6576040517f5cd26b6800000000000000000000000000000000000000000000000000000000815260040160405180910390fd5b7f3f25e551746414ff93f076a7dd83828ff53735b39366c74015637e004fcb02235f90815243602052604081209061081d82611fd9565b905061082b858286866120ef565b610861576040517f8baa579f00000000000000000000000000000000000000000000000000000000815260040160405180910390fd5b61086a436121e8565b600380547fffffffffffffffffffffffffffffffffffffffffffffffff00000000000000001667ffffffffffffffff929092169190911790555050505050565b5f6108b3612205565b5f6108bd86612274565b90505f8061091d838a6108d360208b018b614162565b6108e360408c0160208d01614162565b60069081526003919091525f91825260608b01356026908152603a600c209083905292825260209081526040808320848452909152902091565b90925090505f61096661046673ffffffffffffffffffffffffffffffffffffffff7f00000000000000000000000000000000000000000000000000000000000000001686611c8c565b90505f61099f8261097a60208c018c614162565b61098a60408d0160208e01614162565b5f898152600760205260409020929190611cc3565b90505f6109e373ffffffffffffffffffffffffffffffffffffffff7f0000000000000000000000000000000000000000000000000000000000000000168786612288565b90505f610a07865f01548403836fffffffffffffffffffffffffffffffff166122e3565b90508015610bd95773ffffffffffffffffffffffffffffffffffffffff7f00000000000000000000000000000000000000000000000000000000000000001663a5841194610a5860208f018f614020565b6040517fffffffff0000000000000000000000000000000000000000000000000000000060e084901b16815273ffffffffffffffffffffffffffffffffffffffff90911660048201526024015f604051808303815f87803b158015610abb575f80fd5b505af1158015610acd573d5f803e3d5ffd5b50505050610b257f0000000000000000000000000000000000000000000000000000000000000000828e5f016020810190610b089190614020565b73ffffffffffffffffffffffffffffffffffffffff169190612358565b6040517f3dd45adb00000000000000000000000000000000000000000000000000000000815273ffffffffffffffffffffffffffffffffffffffff8e811660048301527f00000000000000000000000000000000000000000000000000000000000000001690633dd45adb906024016020604051808303815f875af1158015610bb0573d5f803e3d5ffd5b505050506040513d601f19601f82011682018060405250810190610bd4919061417d565b508286555b507f21d0ee70000000000000000000000000000000000000000000000000000000009c9b505050505050505050505050565b5f610c14612205565b5f610c1e86612274565b5f81815260076020526040812091925080610c7261046673ffffffffffffffffffffffffffffffffffffffff7f00000000000000000000000000000000000000000000000000000000000000001686611c8c565b90505f83610c8360208b018b614162565b62ffffff1663010000008110610c9b57610c9b614135565b015490505f84610cb160408c0160208d01614162565b62ffffff1663010000008110610cc957610cc9614135565b01549050610cda60208b018b614162565b60020b8360020b1215610cf1578082039350610e59565b600283900b610d0660408c0160208d01614162565b60020b13610e0157610d7186610d1f60208d018d614162565b8d6060016020810190610d329190614162565b73ffffffffffffffffffffffffffffffffffffffff7f0000000000000000000000000000000000000000000000000000000000000000169291906123ab565b610da957630100000085015491508185610d8e60208d018d614162565b62ffffff1663010000008110610da657610da6614135565b01555b610dbd86610d1f60408d0160208e01614162565b610df7575063010000008401548085610ddc60408d0160208e01614162565b62ffffff1663010000008110610df457610df4614135565b01555b8181039350610e59565b610e1286610d1f60208d018d614162565b610e4a57630100000085015491508185610e2f60208d018d614162565b62ffffff1663010000008110610e4757610e47614135565b01555b80828663010000000154030393505b505f9150819050610ebc858c610e7260208d018d614162565b610e8260408e0160208f01614162565b60069081526003919091525f91825260608d01356026908152603a600c209083905292825260209081526040808320848452909152902091565b90925090505f610f0373ffffffffffffffffffffffffffffffffffffffff7f0000000000000000000000000000000000000000000000000000000000000000168784612288565b905060408a01355f610f1582846141c1565b9050826fffffffffffffffffffffffffffffffff165f03610f3857858555610f73565b5f610f6d865f01548803856fffffffffffffffffffffffffffffffff16846fffffffffffffffffffffffffffffffff16612404565b87038655505b507f259982e5000000000000000000000000000000000000000000000000000000009d9c50505050505050505050505050565b610fae611d45565b6040517f877415d200000000000000000000000000000000000000000000000000000000815273ffffffffffffffffffffffffffffffffffffffff7f0000000000000000000000000000000000000000000000000000000000000000169063877415d290611024908690869086906004016141e9565b5f604051808303815f87803b15801561103b575f80fd5b505af115801561104d573d5f803e3d5ffd5b50505050505050565b61107873ffffffffffffffffffffffffffffffffffffffff83163330846124b1565b73ffffffffffffffffffffffffffffffffffffffff82165f908152600560209081526040808320338452909152812080548392906110b7908490614252565b90915550505050565b6110c8611d45565b60035473ffffffffffffffffffffffffffffffffffffffff680100000000000000009091048116908416811461112a576040517ff21fd99f00000000000000000000000000000000000000000000000000000000815260040160405180910390fd5b6003545f9061115b9068010000000000000000900473ffffffffffffffffffffffffffffffffffffffff1682611d97565b90505f5b838110156112d4573685858381811061117a5761117a614135565b905060a0020190506111b48160400160208101906111989190614265565b6105e06111ab604085016020860161427e565b86908535612513565b8351805183359081106111c9576111c9614135565b60209081029190910101526111f16111e76080830160608401614265565b62ffffff16611f97565b6112046111e760a0830160808401614265565b604080518082019091528061121f6080840160608501614265565b62ffffff16815260200161123960a0840160808501614265565b62ffffff16905260025f611253604085016020860161427e565b7fffffffffffffffffffffffffffffffffffffffffffffffffffffff00000000001681526020808201929092526040015f2082518154939092015162ffffff9081166301000000027fffffffffffffffffffffffffffffffffffffffffffffffffffff0000000000009094169216919091179190911790555060010161115f565b506112de81611f1b565b600360086101000a81548173ffffffffffffffffffffffffffffffffffffffff021916908373ffffffffffffffffffffffffffffffffffffffff1602179055505050505050565b5f61136684846040518060400160405280600981526020017f6c6f7765725469636b0000000000000000000000000000000000000000000000815250611b48565b6113a684836040518060400160405280600981526020017f75707065725469636b0000000000000000000000000000000000000000000000815250611b48565b6114016113ec61046673ffffffffffffffffffffffffffffffffffffffff7f00000000000000000000000000000000000000000000000000000000000000001687611c8c565b5f868152600760205260409020908585611cc3565b949350505050565b5f84815260076020526040902061144490857f00000000000000000000000000000000000000000000000000000000000000008686866125a0565b50505050565b5f81545f5260205ff35b61147673ffffffffffffffffffffffffffffffffffffffff84163330846124b1565b73ffffffffffffffffffffffffffffffffffffffff8084165f908152600560209081526040808320938616835292905290812080548392906114b9908490614252565b9091555050505050565b7f0f000000000000000000000000000000000000000000000000000000000000006060805f808083611559604080518082018252601281527f4d6f636b526577617264734d616e6167657200000000000000000000000000006020808301919091528251808401909352600183527f31000000000000000000000000000000000000000000000000000000000000009083015291565b97989097965046955030945091925090565b8273ffffffffffffffffffffffffffffffffffffffff168473ffffffffffffffffffffffffffffffffffffffff1611156115a3579192915b5f84815260208490526040812060281b6003549091505f906115e89068010000000000000000900473ffffffffffffffffffffffffffffffffffffffff168386612621565b5090507f000000000000000000000000000000000000000000000000000000000000000073ffffffffffffffffffffffffffffffffffffffff16636276cbbe6040518060a001604052806116398a90565b73ffffffffffffffffffffffffffffffffffffffff1681526020018873ffffffffffffffffffffffffffffffffffffffff908116825262800000602080840191909152600287810b6040808601919091523060609586015280517fffffffff0000000000000000000000000000000000000000000000000000000060e089901b168152865185166004820152928601518416602484015285015162ffffff1660448301529284015190920b60648301526080909201518216608482015290861660a482015260c4016020604051808303815f875af115801561171d573d5f803e3d5ffd5b505050506040513d601f19601f8201168201806040525081019061104d9190614297565b611749611d45565b5f80547fffffffffffffffffffffffff00000000000000000000000000000000000000001673ffffffffffffffffffffffffffffffffffffffff92909216919091179055565b815f61179a82612698565b60035491935091505f906117d3908490849068010000000000000000900473ffffffffffffffffffffffffffffffffffffffff16612769565b60408051610160810182525f602082018190529181018290526080810182905260c0810182905260e08101829052610100810182905261014081019190915263f3cd914c81526280000060608201523060a082015261012080820152919450915061183f848284612905565b935061184c848787612b42565b505050505050565b61185c611d45565b5f5b818110156118ed575f83838381811061187957611879614135565b905060200201602081019061188e9190614020565b73ffffffffffffffffffffffffffffffffffffffff165f90815260016020819052604090912080547fffffffffffffffffffffffffffffffffffffffffffffffffffffffffffffff00811660ff9091161517905591909101905061185e565b505050565b73ffffffffffffffffffffffffffffffffffffffff83165f908152600560209081526040808320338452909152812080548392906119319084906142b2565b909155506118ed905073ffffffffffffffffffffffffffffffffffffffff84168383612358565b611960611d45565b61198173ffffffffffffffffffffffffffffffffffffffff83163383612358565b5050565b61198d611d45565b60035473ffffffffffffffffffffffffffffffffffffffff68010000000000000000909104811690831681146119ef576040517ff21fd99f00000000000000000000000000000000000000000000000000000000815260040160405180910390fd5b6003545f90611a1f9068010000000000000000900473ffffffffffffffffffffffffffffffffffffffff16612b59565b9050611a2c818685612b8d565b611a3581611f1b565b6003805473ffffffffffffffffffffffffffffffffffffffff9290921668010000000000000000027fffffffff0000000000000000000000000000000000000000ffffffffffffffff909216919091179055505050507fffffffffffffffffffffffffffffffffffffffffffffffffffffff0000000000165f90815260026020526040902080547fffffffffffffffffffffffffffffffffffffffffffffffffffff000000000000169055565b73ffffffffffffffffffffffffffffffffffffffff82165f90815260056020908152604080832033845290915281208054839290611b219084906142b2565b90915550611981905073ffffffffffffffffffffffffffffffffffffffff83163383612358565b5f611b8a73ffffffffffffffffffffffffffffffffffffffff7f0000000000000000000000000000000000000000000000000000000000000000168585612c79565b506fffffffffffffffffffffffffffffffff1690505f811182611baf8560020b612cde565b604051602001611bc09291906142dc565b60405160208183030381529060405290611c10576040517f08c379a0000000000000000000000000000000000000000000000000000000008152600401611c079190614346565b60405180910390fd5b5050505050565b5f808080611c3f611c318688078313878905036001614358565b600881901d9160ff90911690565b9092509050611c6f81611c6973ffffffffffffffffffffffffffffffffffffffff8b168a86612ce9565b90612d2d565b9094509050611c7f828287612def565b9250505094509492505050565b5f818152600660205260408120611cb973ffffffffffffffffffffffffffffffffffffffff851682612e19565b9150505b92915050565b5f808562ffffff851663010000008110611cdf57611cdf614135565b015490505f8662ffffff851663010000008110611cfe57611cfe614135565b015490508460020b8660020b1215611d195790039050611401565b8560020b8460020b13611d2e57039050611401565b630100000087015491909103039050949350505050565b5f5473ffffffffffffffffffffffffffffffffffffffff163314611d95576040517f23019e6700000000000000000000000000000000000000000000000000000000815260040160405180910390fd5b565b60408051808201909152606081525f60208201525f611dcb8473ffffffffffffffffffffffffffffffffffffffff16612e49565b90505f611dd88483614252565b602084810182905260408051838302810183019091525f81528086529192508381029081906001908401893c50611e0f8484611eef565b50505092915050565b5f611e2282612e6c565b5065ffffff00000061ffff918216601884811c939093161890911b161890565b5f611e4c82612ebb565b5062ffffff80831691909118161890565b5f611e6783612e6c565b611e7082612ebb565b611401826105e07fffffffffffffffffffffffffffffffffffffffffffffffffffffff0000000000871686611e18565b81515160208301518103611ee0576040517f5cef583a00000000000000000000000000000000000000000000000000000000815260040160405180910390fd5b611ef483611eef836001614252565b905152565b81835f01518281518110611f0a57611f0a614135565b602002602001018181525050505050565b805180516b600b380380600b5f395ff30082525f9190600c60208202016014830184f0818352925073ffffffffffffffffffffffffffffffffffffffff8316611f90576040517f5670258700000000000000000000000000000000000000000000000000000000815260040160405180910390fd5b5050919050565b620f424062ffffff82161115611fd657611fd67f140021130000000000000000000000000000000000000000000000000000000062ffffff8316612efd565b50565b7f00000000000000000000000000000000000000000000000000000000000000007f000000000000000000000000000000000000000000000000000000000000000030147f00000000000000000000000000000000000000000000000000000000000000004614166120cc5750604080517f8b73c3c69bb8fe3d512ecc4cf759cc79239f7b179b0ffacaa9a75d522b39400f81527f000000000000000000000000000000000000000000000000000000000000000060208201527f00000000000000000000000000000000000000000000000000000000000000009181019190915246606082015230608082015260a090205b6719010000000000005f5280601a5281603a52604260182090505f603a52919050565b5f73ffffffffffffffffffffffffffffffffffffffff85161561140157604051853b6121a557826040811461212c576041811461216c57506121df565b60208581013560ff81901c601b0190915285356040527f7fffffffffffffffffffffffffffffffffffffffffffffffffffffffffffffff1660605261217d565b60408501355f1a6020526040856040375b50845f526020600160805f60015afa5180871860601b3d119250505f606052806040526121df565b631626ba7e60e01b80825285600483015260248201604081528460448401528486606485013760208160648701858b5afa90519091141691505b50949350505050565b5f68010000000000000000821061220157612201612f1f565b5090565b3373ffffffffffffffffffffffffffffffffffffffff7f00000000000000000000000000000000000000000000000000000000000000001614611d95576040517ff832861400000000000000000000000000000000000000000000000000000000815260040160405180910390fd5b6040515f9060a083823760a0902092915050565b5f6006602052825f52600660405f2001602052815f5260405f20602052631e2eaeaf5f5260205f6024601c875afa6122c75763535cf94b5f526004601cfd5b50505f516fffffffffffffffffffffffffffffffff1692915050565b818102818382041483151761234f577fffffffffffffffffffffffffffffffffffffffffffffffffffffffffffffffff8284098181108201900370010000000000000000000000000000000081106123425763c56a01595f526004601cfd5b608091821c911b01611cbd565b60801c92915050565b81601452806034526fa9059cbb0000000000000000000000005f5260205f604460105f875af18060015f5114166123a157803d853b1517106123a1576390b8ec185f526004601cfd5b505f603452505050565b5f80806123bf848607821385870503611c31565b90925090506123f9816123e973ffffffffffffffffffffffffffffffffffffffff8a168986612ce9565b90600160ff919091161b16151590565b979650505050505050565b828202818385830414851517026124aa577fffffffffffffffffffffffffffffffffffffffffffffffffffffffffffffffff8385098181108201900382848609835f03841682851161245d5763ae47f7025f526004601cfd5b93849004938382119092035f839003839004600101029203041760026003830281188084028203028084028203028084028203028084028203028084028203028084029091030202610489565b0492915050565b60405181606052826040528360601b602c526f23b872dd000000000000000000000000600c5260205f6064601c5f895af18060015f51141661250557803d873b15171061250557637939f4245f526004601cfd5b505f60605260405250505050565b5f835f0151828151811061252957612529614135565b6020026020010151905061256961253d8290565b847fffffffffffffffffffffffffffffffffffffffffffffffffffffff00000000009081169116141590565b15610489576040517f23f69dc200000000000000000000000000000000000000000000000000000000815260040160405180910390fd5b8260020b8260020b13156125e4578260020b6125c8828460020b612f2c90919063ffffffff16565b60020b13156125df576125df868587868686612f3d565b61184c565b8260020b8260020b121561184c575f600284900b828107919091129082900503810260020b8260020b121561184c5761184c868587868686612fc9565b5f808061264573ffffffffffffffffffffffffffffffffffffffff87168686613061565b90508061267e576040517f2f659e4400000000000000000000000000000000000000000000000000000000815260040160405180910390fd5b61ffff601882901c169662ffffff90911695509350505050565b6003818101915f918291803560e81c01018160446126b686846142b2565b6126c09190614399565b905080602086901b1792505f805b8281101561275d575f6126ec602087901c60448402015b3560601c90565b90508273ffffffffffffffffffffffffffffffffffffffff168173ffffffffffffffffffffffffffffffffffffffff1611612753576040517f80f11acf00000000000000000000000000000000000000000000000000000000815260040160405180910390fd5b91506001016126ce565b50829450505050915091565b6003838101935f91829182918291803560e81c010181602661278b8a846142b2565b6127959190614399565b905060405193508060c0028401925082604052808460201b179450505f5b828410156128f85760048901983560e081901c905f906127db906126e5908c9060f01c61309f565b90505f6127ef6126e58c61ffff861661309f565b90508363ffffffff168363ffffffff1611158061283857508073ffffffffffffffffffffffffffffffffffffffff168273ffffffffffffffffffffffffffffffffffffffff1610155b1561286f576040517ff35f939900000000000000000000000000000000000000000000000000000000815260040160405180910390fd5b90865260208601526040852060028b019a91925060281b903560f01c5f806128ae73ffffffffffffffffffffffffffffffffffffffff8c168585612621565b60408a0191909152606089015250505060208a01993590505f760a70c3c40a64e6c51999090b65f67d924000000000000082900460808701525060a085015260c0909301926127b3565b5093505050935093915050565b6001838101935f919035821a90612921908590831615156130fd565b60028501943560f01c612948612937858361314e565b805160208201516040909201519092565b60020b608088015273ffffffffffffffffffffffffffffffffffffffff9081166040880152166020860190815260a090205f60108801883560801c9098506fffffffffffffffffffffffffffffffff1690505f8115612aaf575f6129e561046673ffffffffffffffffffffffffffffffffffffffff7f00000000000000000000000000000000000000000000000000000000000000001686611c8c565b90506129f0836131ae565b60e08a0152612a1f897f000000000000000000000000000000000000000000000000000000000000000061320f565b612a6261046673ffffffffffffffffffffffffffffffffffffffff7f00000000000000000000000000000000000000000000000000000000000000001686611c8c565b60808a01515f868152600760205260409020919350612aa9919086907f000000000000000000000000000000000000000000000000000000000000000090859087906125a0565b50612af5565b612af261046673ffffffffffffffffffffffffffffffffffffffff7f00000000000000000000000000000000000000000000000000000000000000001685611c8c565b90505b5f612b1c6002871615155f86815260076020526040902060808c01518d919088908761322c565b60208b0151919b509150612b33906004908361358f565b50989998505050505050505050565b808201808414611444576301842f8c5f526004601cfd5b60408051808201909152606081525f6020820152611cbd73ffffffffffffffffffffffffffffffffffffffff83165f611d97565b612bdf612bb3845f01518381518110612ba857612ba8614135565b602002602001015190565b837fffffffffffffffffffffffffffffffffffffffffffffffffffffff00000000009081169116141590565b15612c16576040517f23f69dc200000000000000000000000000000000000000000000000000000000815260040160405180910390fd5b8251515f90612c27906001906142b2565b905080821015612c6f578351805182908110612c4557612c45614135565b6020026020010151845f01518381518110612c6257612c62614135565b6020026020010181815250505b6114448482905152565b5f806006602052835f52600460405f2001602052825f5260405f20602052631e2eaeaf5f5260205f6024601c885afa612cb95763535cf94b5f526004601cfd5b50505f516fffffffffffffffffffffffffffffffff81169460809190911d9350915050565b6060611cbd826135d2565b5f8281526006602090815260408083208484526005019091528120612d2473ffffffffffffffffffffffffffffffffffffffff861682612e19565b95945050505050565b5f805f612dc88460ff1686901c7e1f0d1e100c1d070f090b19131c1706010e11080a1a141802121b150316040581196001019091166101e07f804040554300526644320000502061067405302602000010750620017611707760fc7fb6db6db6ddddddddd34d34d349249249210842108c6318c639ce739cffffffff840260f81c161b60f71c1690811c63d76453e004601f169190911a1790565b9050806101001415925082612dde5760ff612de5565b8360ff1681015b9150509250929050565b5f8160ff8416612e05600187900b6101006143d1565b612e0f9190614358565b61140191906143d1565b5f81602052631e2eaeaf5f5260205f6024601c865afa612e405763535cf94b5f526004601cfd5b50505f51919050565b5f611cbd602073ffffffffffffffffffffffffffffffffffffffff84163b614399565b600161ffff82161080612e845750617fff61ffff8216115b15611fd6576040517f270815a000000000000000000000000000000000000000000000000000000000815260040160405180910390fd5b62030d4062ffffff82161115611fd6576040517f76a3f95d00000000000000000000000000000000000000000000000000000000815260040160405180910390fd5b815f5273ffffffffffffffffffffffffffffffffffffffff811660045260245ffd5b6335278d125f526004601cfd5b5f8183071291819005919091030290565b63010000008601545b5f612f6973ffffffffffffffffffffffffffffffffffffffff8816878786611c17565b95509050600285810b9085900b1215612f82575061104d565b8015612fc3578762ffffff861663010000008110612fa257612fa2614135565b015482038862ffffff871663010000008110612fc057612fc0614135565b01555b50612f46565b5f612fec73ffffffffffffffffffffffffffffffffffffffff8716868685613627565b94509050600283810b9085900b13613004575061184c565b801561304e578662ffffff85166301000000811061302457613024614135565b0154876301000000015403875f018562ffffff166301000000811061304b5761304b614135565b01555b83613058816143f7565b94505050612fc9565b5f6020826020026001015f863c50505f517fffffffffffffffffffffffffffffffffffffffffffffffffffffff000000000081169190911402919050565b5f8163ffffffff8416116130ee576040517fffc31e710000000000000000000000000000000000000000000000000000000081526004810183905263ffffffff84166024820152604401611c07565b602083901c6044830201610489565b80151560c0830152806131245773fffd8963efd1fc6a506488495d951d5263988d2561312b565b6401000276a45b73ffffffffffffffffffffffffffffffffffffffff166101009092019190915250565b5f8163ffffffff84161161319d576040517ff6601b500000000000000000000000000000000000000000000000000000000081526004810183905263ffffffff84166024820152604401611c07565b5060c08102602083901c0192915050565b5f7f8000000000000000000000000000000000000000000000000000000000000000821115613209576040517f35278d1200000000000000000000000000000000000000000000000000000000815260040160405180910390fd5b505f0390565b5f80610144601c85015f855af1806118ed576040513d5f823e3d81fd5b5f80871561336b5760208701968035608090811c9160100135901c81158061326457506fffffffffffffffffffffffffffffffff8116155b1561328657508792506fffffffffffffffffffffffffffffffff169050613584565b5f6132c773ffffffffffffffffffffffffffffffffffffffff7f0000000000000000000000000000000000000000000000000000000000000000168961366c565b9050806fffffffffffffffffffffffffffffffff16826fffffffffffffffffffffffffffffffff1614613326576040517fbecb195c00000000000000000000000000000000000000000000000000000000815260040160405180910390fd5b6fffffffffffffffffffffffffffffffff8116608084901b0463010000008a018054909101905550889350506fffffffffffffffffffffffffffffffff169050613584565b5f808060038a018a3560e81d909a5090505f60108b018b3560801c909b5090505f806003808e01908e3560e81c8f0101604080516080810182528e815260028e810b60208301528d810b9282018390525f606083018190529496509294508f939290919088900b13156133ea576133e5838887898561369d565b6133f7565b6133f783888789856137f8565b6fffffffffffffffffffffffffffffffff81167fffffffffffffffffffffffffffffffff000000000000000000000000000000008535908116919091049092019c509a5060109092019650925060801c6134518184614252565b925061345d8686613954565b81515f906134a29073ffffffffffffffffffffffffffffffffffffffff7f0000000000000000000000000000000000000000000000000000000000000000169061366c565b9050806fffffffffffffffffffffffffffffffff168a6fffffffffffffffffffffffffffffffff161461351d576040517f6429cfd20000000000000000000000000000000000000000000000000000000081526fffffffffffffffffffffffffffffffff808c16600483015282166024820152604401611c07565b606083810151601489019835821c911c8114613565576040517fbecb195c00000000000000000000000000000000000000000000000000000000815260040160405180910390fd5b5050506301000000909201805490980190975550909650939450505050505b965096945050505050565b73ffffffffffffffffffffffffffffffffffffffff82165f9081526020849052604081206135ca6135c1825c8561398d565b925081836139a5565b509392505050565b60605f82126135e457611cbd826139ac565b6135f182196001016139ac565b8051602d82526001017fffffffffffffffffffffffffffffffffffffffffffffffffffffffffffffffff90910190815292915050565b5f80808061363c858707821386880503611c31565b9092509050611c6f8161366673ffffffffffffffffffffffffffffffffffffffff8b168a86612ce9565b90613a0c565b5f8181526006602052604081205f612d2473ffffffffffffffffffffffffffffffffffffffff861660038401612e19565b5f80808060018180805b83156137795760108b019a3560801c6136c08185614252565b93506fffffffffffffffffffffffffffffffff8b16608082901b0483019250828e8e62ffffff16630100000081106136fa576136fa614135565b015f82825401925050819055505f6137568b5f01518f7f000000000000000000000000000000000000000000000000000000000000000073ffffffffffffffffffffffffffffffffffffffff16612c799092919063ffffffff16565b9150506137638c82613ad4565b9b508d6013528b601052825f5260335f20925050505b885160208a01516137c39173ffffffffffffffffffffffffffffffffffffffff7f000000000000000000000000000000000000000000000000000000000000000016918f90613aee565b809d508195505050886040015160020b8c60020b136136a75760609890980197909752979a9799509497509495945050505050565b5f80808060018180805b83156138d45760108b019a3560801c61381b8185614252565b93506fffffffffffffffffffffffffffffffff8b16608082901b0483019250828e8e62ffffff166301000000811061385557613855614135565b015f82825401925050819055505f6138b18b5f01518f7f000000000000000000000000000000000000000000000000000000000000000073ffffffffffffffffffffffffffffffffffffffff16612c799092919063ffffffff16565b9150506138be8c82613b08565b9b508d6013528b601052825f5260335f20925050505b885160208a015161391e9173ffffffffffffffffffffffffffffffffffffffff7f000000000000000000000000000000000000000000000000000000000000000016918f90611c17565b809d508195505050886040015160020b8c60020b13156138025760609890980197909752979a9799509497509495945050505050565b808214611981576040517f01842f8c00000000000000000000000000000000000000000000000000000000815260040160405180910390fd5b80820382811315611cbd5763c9654ed45f526004601cfd5b80825d5050565b60606080604051019050602081016040525f8152805f19835b928101926030600a8206018453600a9004806139c55750508190037fffffffffffffffffffffffffffffffffffffffffffffffffffffffffffffffe0909101908152919050565b5f805f8360ff0390505f613aad8260ff1687901b7f0706060506020504060203020504030106050205030304010505030400000000601f6f8421084210842108cc6318c6db6d54be831560081b6fffffffffffffffffffffffffffffffff851160071b1784811c67ffffffffffffffff1060061b1784811c63ffffffff1060051b1784811c61ffff1060041b1784811c60ff1060031b1793841c1c161a1790565b9050806101001415935083613ac2575f613ac9565b8160ff1681035b925050509250929050565b808203608081901c15611cbd5763c9654ed45f526004601cfd5b5f80808061363c611c3160018789078413888a0503614453565b818101608081901c15611cbd5763c9654ed45f526004601cfd5b8060020b8114611fd6575f80fd5b5f805f60608486031215613b42575f80fd5b833592506020840135613b5481613b22565b91506040840135613b6481613b22565b809150509250925092565b73ffffffffffffffffffffffffffffffffffffffff81168114611fd6575f80fd5b803562ffffff81168114613ba2575f80fd5b919050565b5f805f805f8060c08789031215613bbc575f80fd5b8635613bc781613b6f565b95506020870135613bd781613b6f565b9450604087013561ffff81168114613bed575f80fd5b9350613bfb60608801613b90565b9250613c0960808801613b90565b9150613c1760a08801613b90565b90509295509295509295565b5f8083601f840112613c33575f80fd5b50813567ffffffffffffffff811115613c4a575f80fd5b602083019150836020828501011115613c61575f80fd5b9250929050565b5f805f60408486031215613c7a575f80fd5b8335613c8581613b6f565b9250602084013567ffffffffffffffff811115613ca0575f80fd5b613cac86828701613c23565b9497909650939450505050565b5f805f805f858703610160811215613ccf575f80fd5b8635613cda81613b6f565b955060a07fffffffffffffffffffffffffffffffffffffffffffffffffffffffffffffffe082011215613d0b575f80fd5b60208701945060807fffffffffffffffffffffffffffffffffffffffffffffffffffffffffffffff4082011215613d40575f80fd5b5060c08601925061014086013567ffffffffffffffff811115613d61575f80fd5b613d6d88828901613c23565b969995985093965092949392505050565b5f8060408385031215613d8f575f80fd5b8235613d9a81613b6f565b946020939093013593505050565b5f805f60408486031215613dba575f80fd5b8335613dc581613b6f565b9250602084013567ffffffffffffffff811115613de0575f80fd5b8401601f81018613613df0575f80fd5b803567ffffffffffffffff811115613e06575f80fd5b86602060a083028401011115613e1a575f80fd5b939660209190910195509293505050565b5f805f8060808587031215613e3e575f80fd5b843593506020850135613e5081613b22565b92506040850135613e6081613b22565b91506060850135613e7081613b22565b939692955090935050565b5f60208284031215613e8b575f80fd5b5035919050565b5f805f60608486031215613ea4575f80fd5b8335613eaf81613b6f565b92506020840135613ebf81613b6f565b929592945050506040919091013590565b5f81518084528060208401602086015e5f6020828601015260207fffffffffffffffffffffffffffffffffffffffffffffffffffffffffffffffe0601f83011685010191505092915050565b7fff000000000000000000000000000000000000000000000000000000000000008816815260e060208201525f613f5660e0830189613ed0565b8281036040840152613f688189613ed0565b6060840188905273ffffffffffffffffffffffffffffffffffffffff8716608085015260a0840186905283810360c0850152845180825260208087019350909101905f5b81811015613fca578351835260209384019390920191600101613fac565b50909b9a5050505050505050505050565b5f805f8060808587031215613fee575f80fd5b8435613ff981613b6f565b9350602085013561400981613b6f565b9250604085013591506060850135613e7081613b6f565b5f60208284031215614030575f80fd5b813561048981613b6f565b5f806020838503121561404c575f80fd5b823567ffffffffffffffff811115614062575f80fd5b61406e85828601613c23565b90969095509350505050565b5f806020838503121561408b575f80fd5b823567ffffffffffffffff8111156140a1575f80fd5b8301601f810185136140b1575f80fd5b803567ffffffffffffffff8111156140c7575f80fd5b8560208260051b84010111156140db575f80fd5b6020919091019590945092505050565b80357fffffffffffffffffffffffffffffffffffffffffffffffffffffff000000000081168114613ba2575f80fd5b5f805f6060848603121561412c575f80fd5b613eaf846140eb565b7f4e487b71000000000000000000000000000000000000000000000000000000005f52603260045260245ffd5b5f60208284031215614172575f80fd5b813561048981613b22565b5f6020828403121561418d575f80fd5b5051919050565b7f4e487b71000000000000000000000000000000000000000000000000000000005f52601160045260245ffd5b6fffffffffffffffffffffffffffffffff8181168382160190811115611cbd57611cbd614194565b73ffffffffffffffffffffffffffffffffffffffff8416815260406020820152816040820152818360608301375f818301606090810191909152601f9092017fffffffffffffffffffffffffffffffffffffffffffffffffffffffffffffffe016010192915050565b80820180821115611cbd57611cbd614194565b5f60208284031215614275575f80fd5b61048982613b90565b5f6020828403121561428e575f80fd5b610489826140eb565b5f602082840312156142a7575f80fd5b815161048981613b22565b81810381811115611cbd57611cbd614194565b5f81518060208401855e5f93019283525090919050565b5f6142e782856142c5565b7f205b000000000000000000000000000000000000000000000000000000000000815261431760028201856142c5565b7f5d206e6f7420696e697469616c697a6564000000000000000000000000000000815260110195945050505050565b602081525f6104896020830184613ed0565b600281810b9083900b01627fffff81137fffffffffffffffffffffffffffffffffffffffffffffffffffffffffff80000082121715611cbd57611cbd614194565b5f826143cc577f4e487b71000000000000000000000000000000000000000000000000000000005f52601260045260245ffd5b500490565b5f8260020b8260020b028060020b91508082146143f0576143f0614194565b5092915050565b5f8160020b7fffffffffffffffffffffffffffffffffffffffffffffffffffffffffff800000810361442b5761442b614194565b7fffffffffffffffffffffffffffffffffffffffffffffffffffffffffffffffff0192915050565b600282810b9082900b037fffffffffffffffffffffffffffffffffffffffffffffffffffffffffff8000008112627fffff82131715611cbd57611cbd61419456fea164736f6c634300081a000a60c0604052348015600e575f80fd5b506040516108e43803806108e4833981016040819052602b91603f565b336080526001600160a01b031660a052606a565b5f60208284031215604e575f80fd5b81516001600160a01b03811681146063575f80fd5b9392505050565b60805160a05161083f6100a55f395f818160e7015281816101e4015281816102c201528181610394015261043f01525f608e015261083f5ff3fe608060405234801561000f575f80fd5b5060043610610034575f3560e01c8063877415d21461003857806391dd73461461004d575b5f80fd5b61004b610046366004610503565b610076565b005b61006061005b36600461056c565b6101ca565b60405161006d91906105ab565b60405180910390f35b3373ffffffffffffffffffffffffffffffffffffffff7f000000000000000000000000000000000000000000000000000000000000000016146100e5576040517f30cd747100000000000000000000000000000000000000000000000000000000815260040160405180910390fd5b7f000000000000000000000000000000000000000000000000000000000000000073ffffffffffffffffffffffffffffffffffffffff166348c894918460601b8484604051602001610139939291906105fe565b6040516020818303038152906040526040518263ffffffff1660e01b815260040161016491906105ab565b5f604051808303815f875af115801561017f573d5f803e3d5ffd5b505050506040513d5f823e601f3d9081017fffffffffffffffffffffffffffffffffffffffffffffffffffffffffffffffe01682016040526101c49190810190610666565b50505050565b60603373ffffffffffffffffffffffffffffffffffffffff7f0000000000000000000000000000000000000000000000000000000000000000161461023b576040517ff832861400000000000000000000000000000000000000000000000000000000815260040160405180910390fd5b5f6102496014828587610756565b6102529161077d565b60601c90506102648360148187610756565b90945092505f6102756014856107e3565b90505f5b818110156104a6576040517efdd58e0000000000000000000000000000000000000000000000000000000081523060048201526014820287013560601c60248201819052905f907f000000000000000000000000000000000000000000000000000000000000000073ffffffffffffffffffffffffffffffffffffffff169062fdd58e90604401602060405180830381865afa15801561031b573d5f803e3d5ffd5b505050506040513d601f19601f8201168201806040525081019061033f919061081b565b6040517ff5298aca00000000000000000000000000000000000000000000000000000000815230600482015273ffffffffffffffffffffffffffffffffffffffff8481166024830152604482018390529192507f00000000000000000000000000000000000000000000000000000000000000009091169063f5298aca906064015f604051808303815f87803b1580156103d7575f80fd5b505af11580156103e9573d5f803e3d5ffd5b50506040517f0b0d9c0900000000000000000000000000000000000000000000000000000000815273ffffffffffffffffffffffffffffffffffffffff85811660048301528881166024830152604482018590527f0000000000000000000000000000000000000000000000000000000000000000169250630b0d9c0991506064015f604051808303815f87803b158015610482575f80fd5b505af1158015610494573d5f803e3d5ffd5b50506001909401935061027992505050565b505060408051602081019091525f8152949350505050565b5f8083601f8401126104ce575f80fd5b50813567ffffffffffffffff8111156104e5575f80fd5b6020830191508360208285010111156104fc575f80fd5b9250929050565b5f805f60408486031215610515575f80fd5b833573ffffffffffffffffffffffffffffffffffffffff81168114610538575f80fd5b9250602084013567ffffffffffffffff811115610553575f80fd5b61055f868287016104be565b9497909650939450505050565b5f806020838503121561057d575f80fd5b823567ffffffffffffffff811115610593575f80fd5b61059f858286016104be565b90969095509350505050565b602081525f82518060208401528060208501604085015e5f6040828501015260407fffffffffffffffffffffffffffffffffffffffffffffffffffffffffffffffe0601f83011684010191505092915050565b7fffffffffffffffffffffffffffffffffffffffff00000000000000000000000084168152818360148301375f910160140190815292915050565b7f4e487b71000000000000000000000000000000000000000000000000000000005f52604160045260245ffd5b5f60208284031215610676575f80fd5b815167ffffffffffffffff81111561068c575f80fd5b8201601f8101841361069c575f80fd5b805167ffffffffffffffff8111156106b6576106b6610639565b6040517fffffffffffffffffffffffffffffffffffffffffffffffffffffffffffffffe0603f7fffffffffffffffffffffffffffffffffffffffffffffffffffffffffffffffe0601f8501160116810181811067ffffffffffffffff8211171561072257610722610639565b604052818152828201602001861015610739575f80fd5b8160208401602083015e5f91810160200191909152949350505050565b5f8085851115610764575f80fd5b83861115610770575f80fd5b5050820193919092039150565b80357fffffffffffffffffffffffffffffffffffffffff00000000000000000000000081169060148410156107dc577fffffffffffffffffffffffffffffffffffffffff000000000000000000000000808560140360031b1b82161691505b5092915050565b5f82610816577f4e487b71000000000000000000000000000000000000000000000000000000005f52601260045260245ffd5b500490565b5f6020828403121561082b575f80fd5b505191905056fea164736f6c634300081a000a","linkReferences":{}},"methodIdentifiers":{"batchUpdatePools(address,(uint256,bytes27,uint24,uint24,uint24)[])":"53b41c55","beforeAddLiquidity(address,(address,address,uint24,int24,address),(int24,int24,int256,bytes32),bytes)":"259982e5","beforeRemoveLiquidity(address,(address,address,uint24,int24,address),(int24,int24,int256,bytes32),bytes)":"21d0ee70","collect_unlock_swap_fees(address,bytes)":"33830e48","configurePool(address,address,uint16,uint24,uint24,uint24)":"13871465","deposit(address,address,uint256)":"8340f549","deposit(address,uint256)":"47e7ef24","eip712Domain()":"84b0196e","extsload(uint256)":"7cf98081","getGrowthInsideRange(bytes32,int24,int24)":"62889dd6","getGrowthInsideTick(bytes32,int24,int24)":"0b3dd76e","initializePool(address,address,uint256,uint160)":"8587f450","pullFee(address,uint256)":"d9e17f98","removePool(bytes27,address,uint256)":"dd4d4cf6","setController(address)":"92eefe9b","toggleNodes(address[])":"d6cffd1e","unlockWithEmptyAttestation(address,bytes)":"1828e0e7","update(bytes)":"c43ed2c8","updateAfterTickMove(bytes32,int24,int24,int24)":"71cca81b","withdraw(address,address,uint256)":"d9caed12","withdraw(address,uint256)":"f3fef3a3"},"id":212}