{"abi":[{"type":"function","name":"ZERO_DELTA","inputs":[],"outputs":[{"name":"","type":"int256","internalType":"BeforeSwapDelta"}],"stateMutability":"view"}],"bytecode":{"object":"0x605b6032600b8282823980515f1a607314602657634e487b7160e01b5f525f60045260245ffd5b305f52607381538281f3fe73000000000000000000000000000000000000000030146080604052600436106032575f3560e01c806391cb4669146036575b5f80fd5b603c5f81565b60405190815260200160405180910390f3fea164736f6c634300081a000a","linkReferences":{}},"deployedBytecode":{"object":"0x73000000000000000000000000000000000000000030146080604052600436106032575f3560e01c806391cb4669146036575b5f80fd5b603c5f81565b60405190815260200160405180910390f3fea164736f6c634300081a000a","linkReferences":{}},"methodIdentifiers":{"ZERO_DELTA()":"91cb4669"},"id":105}